:1000000000000420DD0100000902000009020000D8
:1000100009020000090200000902000009020000B4
:1000200009020000090200000902000009020000A4
:100030000902000009020000090200000902000094
:100040000902000009020000090200000902000084
:100050000902000009020000090200000902000074
:10006000090200006D140000E943000009020000CD
:1000700009020000090200000902000069480000AE
:100080000902000009020000ED430000090200001F
:10009000090200000902000009020000F14300000B
:1000A0000902000009020000090200000902000024
:1000B000090200000902000089190000090200007D
:1000C0000902000009020000090200000902000004
:1000D00009020000090200000902000009020000F4
:1000E00009020000090200000902000009020000E4
:1000F00009020000090200000902000009020000D4
:1001000009020000090200000902000010B5054CB8
:10011000237833B9044B13B10448AFF300800123B3
:10012000237010BDC00000200000000044770000D4
:10013000084B10B51BB108480849AFF300800848C8
:10014000036803B910BD074B002BFBD0BDE810407E
:10015000184700BF0000000044770000C4000020E2
:10016000B800002000000000154B002B08BF134B07
:100170009D46A3F5803A00218B460F461348144A4A
:10018000121A05F008FD0F4B002B00D098470E4BBC
:10019000002B00D098470020002104000D000D48DE
:1001A000002802D00C48AFF3008005F0C3FC20000B
:1001B000290003F097FF05F0A9FC00BF000008002C
:1001C000000004200000000000000000C00000202B
:1001D000280A0020000000000000000006488047B8
:1001E0000649074A074B9A42BEBF51F8040B42F832
:1001F000040BF8E7FFF7B8FF950200005077000006
:1002000000000020BC000020FEE700BF004870474F
:10021000005A62020F4BD3F8943003F00703032B0C
:1002200014D0042B0FD0022B0AD00B4B1868094BAB
:10023000D3F80031C3F304230133B0FBF3F070476C
:10024000064B1868F3E7064B1868F0E74FF40040D8
:10025000EDE700BF00400E400C000020040000202D
:100260000000002008B5FFF7D5FF054B054AD3F87D
:100270000831C3F308230133B0FBF3F0106008BD6D
:1002800000400E4008000020014B1868704700BF76
:1002900004000020044B054A9A60D3F8882042F4F9
:1002A0007002C3F88820704700ED00E000000000F5
:1002B0004FF40040704700BF4FF47A70704700BFA2
:1002C000014B1868704700BF0000002010B50446BD
:1002D00003F0CAFE03F0C8FE03F0C6FE0B210122A4
:1002E000204603F07BFC044603F0BEFE204610BD12
:1002F00008B50B21112203F071FCC0B208B140B265
:1003000080B200B208BD00BFF0B5054683B00E460E
:10031000174605242846112103F084FC40B200F062
:10032000E002202A04F1FF3304D000282EDB13F072
:10033000FF04EFD11121284603F074FC06F03F06BC
:100340000446803E28460A21022201AB8DF8056052
:100350008DF8047003F050FE10B100B203B0F0BD90
:100360002846112103F05EFC04F01F0300F01F0477
:100370009C4207D12846112103F054FC00F01F00D5
:10038000A042F7D0002000B203B0F0BD80B200B2AE
:1003900003B0F0BD0A4A13786BB910B5094C236855
:1003A000012111701BB908E054F8043F2BB19847A4
:1003B0000028F9D010BD00207047002010BD00BFFC
:1003C0000C01002010000020124B1B7813B9124BB7
:1003D00018467047002802DD104B18467047104B36
:1003E000F0B42C2404FB00340D4604F1200726460B
:1003F0000FCEBE4228606960AA60EB60344605F10A
:100400001005F4D107CC002328606960AA60184663
:10041000F0BC70470C010020050011800200118023
:10042000E0000020134B1B780BB913487047134AA8
:100430001368002B01DD12487047F0B4114D0446DB
:10044000591C2C2004F1200700FB03551160206883
:100450006168A268E3682E460FC61034BC42354678
:10046000F5D120686168A268334607C30020F0BC5C
:10047000704700BF0C01002005001180DC00002047
:1004800001001180E0000020802901D00948704758
:100490000949086810B4094C00EB0212A24205D9C0
:1004A000002207481A605DF8044B704718600A6024
:1004B0000020F8E7020011801800002090010020C1
:1004C00001001180004870470400118008B500F059
:1004D00029F900F0DFF8002008BD00BF70B51E4606
:1004E00053B10C460025204610220135002114444A
:1004F00005F051FBB542F6D1002070BD2DE9F04763
:1005000082B00C460A9D0B9F0E210320013500F09E
:100510002DF9ADB2062000F00BF902AE2B0243F02C
:10052000010326F8023D0221304600F0DBF807B354
:10053000013507F1FF384FF0000A4FF6FF7910211F
:1005400020460C4400F0CEF8D04505EB0A031CBF52
:100550001B0243F0FF034FF002010AF1010A30468B
:100560000CBFADF80690ADF8063000F0BBF8BA4508
:10057000E5D1022000F0DCF80E21032000F004F9A0
:10058000002002B0BDE8F08708B5032021B90F2193
:1005900000F0FAF8002008BD0F2100F0E7F8002075
:1005A00008BD00BFF0B58DB000F0BCF800F072F8E7
:1005B00000F0C4F8002213460821022000F0C8F819
:1005C000002213460621022000F0C2F80022134642
:1005D0000E21032000F0BCF8002213460F21032057
:1005E00000F0B6F8002213460D21032000F0B0F809
:1005F00003200D217D2200F0D5F808B10DB0F0BD2B
:100600008023DFF88CC01C4C1C491D4A8DF8150056
:100610004FF0010E1B4F1C4E1C4D099401A8CDF844
:1006200004C08DF814E00293049303930697079691
:1006300008950A910B92FFF7F5FE04460028DDD1DC
:100640000F21032000F092F80E21032000F08EF815
:10065000062000F06DF80CA8042320F82E3D02219E
:1006600000F040F8022000F063F80E21032000F0B3
:100670008BF820460DB0F0BDFD040000DD04000045
:10068000CD0400008905000089040000C5040000B5
:10069000C86F000070B50F4D0F4E0FCD86B06C4681
:1006A0000FC495E8030084E803000C48012101F021
:1006B000DBFB30460A4B0293694603F0FFF90A233D
:1006C0007367B36F23F01F2343F00B230020B3673E
:1006D00006B070BDE06F000000040140005204004D
:1006E000E067350038B505460C465CB1012C0C4876
:1006F00001D0EA070CD5013C15F8011B03F022FAE2
:10070000002CF3D1064A13699B06FCD5002038BDA6
:10071000034835F8021B03F01BFA023CE5E700BF73
:100720000004014008B500F037FC002008BD00BF00
:1007300008B500F011FD002008BD00BF08B5034852
:10074000012101F091FB002008BD00BF00350A0027
:1007500010B514460AB1044810BDC0B2042202F01C
:1007600027FB204610BD00BF01001380C0B200EB84
:100770004000044B0001034401228A401A6000201B
:10078000704700BF0CA00046C0B200EB4000044B15
:100790000001034401228A401A600020704700BF14
:1007A0000CA000442DE9F041804686B00D4630484B
:1007B000304C314F0121164601F056FB04204FF416
:1007C0003061022203F062F82C4A536923F00703D8
:1007D00043F004035361936843F010035FFA88F019
:1007E000294693600422002302F0E2FA224603AB7A
:1007F00052F8180F5168127A03C3002520481A7066
:1008000001218DF8105001F02FFB1E480A2101F044
:1008100085FF3846012101F027FB4FF0010803A8AE
:100820008DF80C508DF80D508DF80F8003F060F8A6
:10083000234601A953F8240F01909A889B79ADF8BB
:10084000082040468DF80A308DF8058003F02CF81A
:10085000384601F075FC0C4BB0FBF6F0461E5E65A9
:1008600040469D6003F03EF8284606B0BDE8F081A2
:1008700000450A00E06F0000A009140000600E406F
:1008800000250A000500220000200440F0B50446BF
:1008900085B00121274801F0E7FA2368264A9342F0
:1008A00045D002F58062934201D005B0F0BD2348E7
:1008B000012101F0D9FA207961790A22012302F09D
:1008C00077FAA079E1790A22012302F071FA2379FB
:1008D0001B4803EB43031B01184400F1C0650923C7
:1008E00000F180600122617902FA01F129606179E9
:1008F000013B02FA01F101604FF00101F3D12068E0
:100900002569E268267D8DF8001003234364277A69
:10091000637A8DF8011043EA0723836469460295E0
:1009200001928DF80C6002F0CFFA05B0F0BD0548D9
:10093000BEE700BF4041050000C000400092040037
:100940000CA000400082040038B5054602F0EAFB26
:10095000012808D1054C01E0013C04D0284602F0F2
:10096000D1FA0128F8D040B238BD00BFE0930400AE
:1009700000207047FEE700BF4FF400534B6000209B
:10098000704700BF012070470020704770B51646C1
:1009900082B10D46002404E00134A64205F8010BA3
:1009A00006D000F04FF8431CF6D11CB1204670BDB4
:1009B000304670BD4FF0FF3070BD00BF044A05499E
:1009C0001368002B08BF0B46184410601846704788
:1009D00090010020280A002070B5161E07DD0C4685
:1009E0008D1914F8010B00F031F8AC42F9D1304602
:1009F00070BD00BF10B58EB0002003A9FFF7E4FC66
:100A0000044610B120460EB010BD012301A80B49C9
:100A100001948DF808408DF8093000F00FFA044673
:100A20000028EFD1064B1B68014602229868234636
:100A300005F066F920460EB010BD00BF94010020FD
:100A4000AC0000204FF0FF30704700BF064B1B6822
:100A50003BB110B504462146184600F04FFA204637
:100A600010BD4FF0FF307047940100202DE9F04F8A
:100A7000036BC76BDFF8E4C083B08E004FF0000E4D
:100A8000A3B13C4600220CEB0E08456C037DAD592A
:100A9000AD5C18F8055013B1022B20D8ED4325703A
:100AA000036B0132934204F10104EED8027D022A65
:100AB00019D0C2680EF1640EBEF5487F07EBD2076D
:100AC000DED10A46D2000825C16B446A0092DB00E1
:100AD000019500220430A04703B0BDE8F08F1E4806
:100AE00003B0BDE8F08F90F84A4090F84950826812
:100AF00090F8488024F07F04640925F07F0544EADB
:100B00009514D20844EAD818D3D007EB020A0AEBAE
:100B1000420900231AF8015D1C4645FA03F212F05F
:100B2000010F0CBF4246072203EB430B013302FACD
:100B30000BF2082B44EA0204EFD1220A230C09F835
:100B4000034C09F8022C09F8013CA9F10309B94545
:100B5000DFD1036BADE700BF040012800C70000012
:100B6000436C7BB110B5036B426B044602FB03F28E
:100B7000006C002105F00FF80023E364236584F87E
:100B8000543010BD704700BF2DE9F04190F854304B
:100B9000012B82B0044617D006D3022B2A4818BF77
:100BA000002002B0BDE8F081457D7DB9436B43B1C3
:100BB00029462046FFF75AFF636B0135AB42F7D851
:100BC000DB0022699A420CD8637D1BB11E4802B03B
:100BD000BDE8F081216D204602B0BDE8F041FFF78D
:100BE00045BF237D012B21D027D3022BEED1A26854
:100BF000E06B02EB4202D208FF2104F0CCFF656BF0
:100C00002369ED009D42DFD204F104080127E16B66
:100C1000A3688DE8A0004046666A0022B04701350F
:100C20000028BED12369AB42F1D8CDE7A268E06BC2
:100C3000D208FF2104F0AFFFE1E7A268E06BD20821
:100C4000002104F0A8FFDAE704001280436B012BB7
:100C500070B505460DD00024696C2A6BA300CE1830
:100C6000C858716804F08CFF6B6B01345A1EA242A5
:100C7000F2D803F18043013B696C2A6B51F82300E1
:100C8000002104F088FF6B6B0022013B2B65EA64B6
:100C900085F8542070BD00BF2DE9F0470A2982B0C5
:100CA0000E46044648D00D2941D0082931D01B29D1
:100CB0007CD0DFF8808198F800301B2B4DD05C4B46
:100CC0001B6833445B7813F0970563D1E26C236BA8
:100CD0009A4228BF0022236D28BFE264626B24BFC2
:100CE000013323659A4209D894F838302046002B06
:100CF00058D0FFF7ABFF636B013B2365616CE26C7F
:100D000051F823309D54E36C0133E36402B0BDE835
:100D1000F087037D012BCCD90023FF2280F84820E7
:100D200080F8493080F84A3002B0BDE8F0870023EF
:100D3000C36402B0BDE8F087036D426B013300214C
:100D400093420365C164E1D390F838302BB3FFF7C9
:100D50007DFF636B013B2365D8E7424612F8013FF4
:100D6000002BFBD1334816701D4605F075F8324F45
:100D70008246DFF8C09039464846524605F074F87E
:100D8000E0B10135062D07F10407F2D10023C9F8BF
:100D9000003094E7203EF5B298E702B0BDE8F04796
:100DA000FFF7DEBEFFF7DCFE236DA7E7214B002136
:100DB0000322196080F854201E70A7E703220190D7
:100DC00084F85420384605F047F88245019B05D049
:100DD000BAF1030F9AD1C9F8003097E7AB1E032B85
:100DE0001CD8DFE803F0150D021F226BE36C013AFB
:100DF000934201D20133E3640023C8F8003085E751
:100E0000626B236D013A9342F6D201332365F3E717
:100E1000236D002BF0D0013B2365EDE70023236514
:100E2000E364E9E7E36C002BE6D0013BE364E3E72E
:100E300048000020980100202C730000F8B52A4CCF
:100E400094F855300BB12948F8BD0E460546211DD2
:100E50000068FFF7B9FA40B9637D3BB1E0632269EE
:100E6000214B7F2A14D82248F8BDF8BDE769A16854
:100E7000201D082204F13C03B8470028F5D1A76AD9
:100E8000E16BA268201D0823B8470028E7D0F8BD11
:100E90009A687F2AE7D9102229795A631A632F6842
:100EA00083F838106879134A13491F6083F83900B2
:100EB0001A645964002301E0616C226C02EB830226
:100EC000CA500433402BF7D10025074884F8485016
:100ED00084F8495084F84A50FFF742FE012384F811
:100EE000553028463460F8BD9C0100200500128072
:100EF00002001280DC080020DC09002038B590F8E0
:100F000055300BB9234838BD437D13B3022380F815
:100F1000543090F838301BB3C36C23B9436B026D67
:100F2000013B9A4222D00C290D46044624D090F869
:100F300039300BB10A2929D029462046FFF7ACFEEB
:100F400094F85430032B15D02046BDE83840FFF705
:100F50001BBE012380F8543090F83830002BDBD1D1
:100F6000C36C002BDFD1036D002BDCD1002380F894
:100F70005430D8E7002038BDFFF7F2FD002384F895
:100F800054302046BDE83840FFF7FEBD0D21FFF785
:100F900083FED1E7060012802DE9F04F664B674AC9
:100FA000186859681C7AD2F8B02089B005AB03C321
:100FB00052071C7040F1B8804FF0000860485F4C49
:100FC00001F012F8032107465D48D4F8905001F073
:100FD000A5FB5C4801F002F8D4F8F0300390DB0781
:100FE00005F0400540F199800023019301F01EFDBA
:100FF000554A136813F00104814673D013685349AE
:10100000029340F2FF7600234FF08040546A136051
:10101000536216620126C1F880010023082205A848
:101020008DF816308DF817308DF8182002F060FC1E
:101030004748454A4FF480530360964603685B0077
:10104000036063B1916893689942FCD0DEF80810A0
:101050000368013BFDD8DEF808309942EED0036802
:10106000394ADFF8ECB05B080360D0F800E0924644
:101070004FF0080C5FEA5E0E19D003684EEA0303D6
:101080000360916893689942FCD0DAF8081003680D
:10109000013BFDD8DAF80830994205D0DBF8003082
:1010A00023EA0E03CBF80030BCF1010CE2D1484634
:1010B00001F0C0FCCEB10399224801F069FA224B3D
:1010C000029A1A605C62019BABB9032F19D1F5B18A
:1010D000B8F1000F03D01F48002100F0C5FE09B091
:1010E000BDE8F08F0294264697E7304602F0FAFBFF
:1010F000019B002BE9D01348002100F0B5FE032F1F
:10110000E5D039460E4801F009FB002DE0D1012061
:1011100029462A4601F06EFADAE70A48012100F072
:10112000A3FE0123019361E70A48012100F09CFE20
:101130004FF0010842E700BF4473000000400E403A
:1011400005002200A00914000020044000E100E096
:101150001C00002000250A0003460849002B0CD083
:10116000013B88221202003253430A68D80AD20A8D
:101170005043800901D00138FDD870471C00002081
:101180002DE9F0476A4C84B024789DF83CC09DF866
:1011900044E01CB9674804B0BDE8F087072A15464B
:1011A00003D9654804B0BDE8F0870C9A002AF8D04E
:1011B0000D9A002AF5D0109AB2F5006FF1DC0128E3
:1011C00006460F4666D0DFF87C914FEA051809EB1A
:1011D0000802127B0AB95948DDE759480022690123
:1011E00044188DF804208DF805208DF806208DF820
:1011F00007208DF808208DF809208DF80A208DF839
:101200000B208DF80C208DF80D20002F46D104F115
:1012100008024750676042F8047B176094F802A008
:10122000E2784AF0100A42F0300284F802A0E2703C
:10123000BCF1000F03D1D2B242F00302E27000937E
:10124000109B425A013B63F30E12425200EB010C19
:101250000C999CF80330CCF808106EF383030D99B9
:10126000CCF80410012E8CF8033031D0129B002BE7
:1012700055D009EB08032846129D49F8085022462C
:10128000139D5D60002469465E739C6001F0B6FFAB
:10129000204680E70E9A002A95D182E704F1080AD9
:1012A000425062604AF8042BCAF8002094F802A069
:1012B000E2784AF0100A42F0030284F802A0E270D9
:1012C000BCF1000FBBD1D2B242F03002E270B6E7FF
:1012D0009CF80C3043F003038CF80C30DCF80C3035
:1012E000042161F39F03CCF80C309CE80F000CF153
:1012F000100E8EE80F00DCF81C200E9B6FF003012F
:1013000061F39F02012FCCF81C20CEF80430B0D13D
:101310000D9BCCF818300E9BCCF80430A9E7002EBA
:10132000A7D19CF8023066F304138CF80230A0E7D2
:1013300074020020028000F0018000F0078000F0BD
:1013400078020020F4010020114B1B780BB91148E2
:10135000704780B170B5054601F068FB0E49002268
:101360000B461C7B103344B10132082AF9D101F03D
:1013700061FB0A4870BD0A4870471301CE182A6005
:101380000122CC50327301F055FB204670BD00BFE6
:1013900074020020028000F0F4010020048000F0BC
:1013A000018000F010B5134A82B00023106801904C
:1013B0008DF8043001F03AFB0F4B1C7824B101F09A
:1013C00039FB0E4802B010BD01221A7001F032FB49
:1013D0000B4B224603F180011A7310338B42FBD171
:1013E00004230DEB03008DF8073001F0DBFE002035
:1013F00002B010BD5073000074020020038000F0A2
:10140000F4010020F0B589B084469DF838400F9F64
:101410009DF84060119D019300200B4612990092A7
:10142000079162460394049705960695029001463B
:10143000FFF7A6FE09B0F0BDF0B589B084469DF86F
:1014400038400F9F9DF84060119D019300200B468E
:1014500012990092079162460394049705960695A7
:1014600002900121FFF78CFE09B0F0BD2DE9F84391
:101470001A4B1A6ED96E11EA02081DD4184C194F76
:1014800099460126002516EA080F0CD02368C9F8F2
:10149000686028463BB1A16862680131A160984745
:1014A000637B012B09D00135082D4FEA460604F174
:1014B0001004E8D1BDE8F883FEE707EB451303F11C
:1014C000080218330028EED1117960F3410111713F
:1014D0001A7960F341021A71E5E700BF00200E405F
:1014E000F4010020780200202DE9F84F2C4C4FF039
:1014F000000A04F1A005064600274FF0010B2379EE
:1015000084F805A053B154E906018F4208BF864212
:1015100009D2801B61EB070144E906012834AC4283
:10152000EDD1BDE8F88FE37933B923712368002B3F
:10153000F4D084F805B0F1E754E90489301A67EB78
:10154000010142464B4604F013F854F8081CB8EB6E
:10155000020869EB0309002944E9068954F8043CB0
:101560000EDD0B441D2B44F8043CDFD918F10108B3
:1015700049F100091E3B44E9068944F8043CD5E7DB
:101580005B1A1D2B44F8043CD0D918F1FF3849F1FF
:10159000FF391E3B44E9068944F8043CC6E700BF16
:1015A0009803002038B5074C0025637F2BB901351F
:1015B000042D04F12804F8D138BDA369216A284616
:1015C0009847F4E7800300201A4BF0B403F1A00120
:1015D0004FF0FF344FF0FF351A7F3AB1D3E900677F
:1015E000AF4208BFA6423CBF34463D4628338B423B
:1015F000F2D1114A002313706B1C08BFB4F1FF3FF6
:1016000016D00E490E4B086000276FF06406AF42FB
:101610004FF0040108BFA642196238BF3446084B98
:1016200004445C65012111705A6A42F004025A6256
:10163000F0BC7047800300207803002024040020C1
:1016400000200440124B1B780BB91248704770B54C
:10165000114C054601F0EAF9002221468B7F283122
:101660003BB10132042AF9D10C4C01F0E3F92046D8
:1016700070BD5DB102EB820104EBC10101261C4685
:101680008E772A6001F0D6F9204670BD044CECE755
:1016900079030020061000F080030020011000F004
:1016A000041000F01C4B1B780BB91C48704770B538
:1016B0004FF400414FF4FA720023E1FB002310467F
:1016C000194682B04FF47A72002303F051FF0025CF
:1016D0006FF064048D4208BF844219D2104A9668A4
:1016E00093680093009B9B1B6633F9D9653041F1E9
:1016F000FF318D4208BF8442F1D3094A9468936850
:101700000193019B1B1B8342F9D3002002B070BDE3
:1017100050EA0103F9D0F0E779030020061000F049
:1017200000200440F8B51D4D2C78002C33D11C4806
:101730001C4E1D4F012100F097FB1C48032100F0B7
:10174000EDFF01211A48347100F08EFB3046194E2E
:1017500002F0CEF80120184902F0A6F8736A174883
:1017600023F4FF6323F007034FF0804E40F2FF7233
:10177000736221463262B460A022C7F880E1C7F8E4
:1017800000E004F008FA0E4B0E490F4A1C700123CA
:101790000C7014602B700020F8BD00BF790300208E
:1017A00000250A002000002000E100E005002200E2
:1017B000A0091400002004402C0000208003002019
:1017C0007A03002078030020200400202DE9F04F48
:1017D000634C247883B01CB9624803B0BDE8F08F35
:1017E0000328054603D9604803B0BDE8F08F4FEAEF
:1017F0008009DFF890A109EB05040AEBC4041F4639
:101800008846164601F012F9A37F83464BB166B9AC
:1018100017B128460C99B847584601F00BF900203B
:10182000DBE701F007F95148D7E7DFF854E14FF45F
:1018300000434FF4FA700021DEF808C0A761E3FB13
:1018400006014FF47A720023CDF804C003F090FE35
:10185000B8F1010FC4E90201DDF804C073D009EB4F
:1018600005030AEBC30301300C9C414A1C6241F1A1
:101870000001E3E80601127883F8078001241C7157
:10188000002AC9D13B4C2368013302D023680133BD
:101890002360394E3378F3B9384B394DC3F800C063
:1018A00000238B426FF0640208BF8242344B38BF82
:1018B0001046042760442F6258655A6A012142F09D
:1018C00004025A62317022682A4B002AA4D01A6896
:1018D000013A1A60A0E72368012BF4D1274F09EBE6
:1018E00005030AEBC30338684FF00008282283F889
:1018F0001C80C0EB0C0002FB05A510E0FFF764FEA6
:101900001F4B3868D3F808C032785B6D08F10108C6
:101910001B1AC0EB0C00002AD5D09842D3D3184A2A
:10192000CDF804C0536A23F004035362FFF7DCFDD3
:10193000FFF738FEDDF804C06046B8F1000FDDD1D6
:1019400001232B77DAE74FF47A7303FB06F6C0EB3B
:101950000013A6EB43030F22236162617FE700BF00
:1019600079030020061000F0021000F0031000F0D0
:101970007A030020200400207803002024040020A3
:1019800000200440800300202DE9F8431B4C01F0A7
:101990004DF8636AA269134023F005025B0707460E
:1019A000226226D5164DDFF860802A68D4F80890A8
:1019B000144E012388F80030C2EB090001E0984280
:1019C00014D3636A23F004036362FFF78DFDFFF70E
:1019D000E9FD4846FFF7F8FDD4F808902A68636DE2
:1019E0003178C2EB09009B1A0029E8D1002388F85E
:1019F00000303846BDE8F84301F01CB80020044030
:101A000024040020780300207A030020F0B4274B40
:101A1000274C284D466B002A1ABF1D461027002769
:101A2000A04201D0F0BC7047022908D01CD9062979
:101A300031D0812903D003292BD000230DE01E4A89
:101A400011681368126803F00F0301F4FE4043EAC3
:101A5000000102F0F0030B43BB4005EA0602144903
:101A600013434B63F0BC704789B10129E5D1134B97
:101A700018681A681968C1F303510B01C0F30660B6
:101A800043EA0021C2F303430B43BB40E5E70B4AA3
:101A9000D6E7094BECE70A4A1368116803F00F0216
:101AA00001F0F0031343BB40D7E700BFFFFF008006
:101AB000002000400080FFFF1482E00F1082E00F42
:101AC0001882E00FF8B50C46022389788360002263
:101AD0000546FFF79BFF607821796379E778E6791F
:101AE000020642EA012242EA034343EAC7030EB177
:101AF00043F00053227A0AB143F00403A2790AB1F9
:101B000043F00203627A0AB143F00103F329A1789A
:101B100017D00A061ED443EA41132B616B6923F4E4
:101B2000F21323F007032178E27A43EA41430AB132
:101B300043F480436A0102F18442A17A6B619160AF
:101B4000F8BD0029E5D10328E5D823F0706242F002
:101B50008063E0E743F0E0022A616A6922F4F2124E
:101B600021F0800322F007021343DCE738B5114B64
:101B70009842054611D8B0F5FA4F17D247F6FF4400
:101B80004FF4FA4569B10819B0FBF5F020B10138FE
:101B90007F2888BF7F200BD938BD1D46064C002901
:101BA000F1D1064800F0CCFA0146ECE7441EE9E723
:101BB000C0B238BD0024F400FF23F400404105000A
:101BC000F8B5CC780E4605467CB3016811F0800765
:101BD00031D00A23AB60B27873783178307912044F
:101BE000240243EA016102F4FE0204F4FE4341EAE6
:101BF00002041C4308B144F0100405F1C06305F170
:101C0000806271792C60C020106019602B681B06FF
:101C100000D4F8BD0D4800F093FA0D4B9D42F8D169
:101C20000C48BDE8F84000F08BBA21460A48FFF79F
:101C30009DFF0446CDE739460748FFF797FF394631
:101C40004FF4FA40FFF792FFC3E700BFB80030003F
:101C50000020004000D204000024F40008B550B178
:101C6000084B00F5742000F23F20A3FB0030800CED
:101C70000138C0B208BD044800F062FA0028EFD174
:101C800008BD00BF83DE1B4340410500F0B4114B8B
:101C9000114D5B68C9B22A46002314798C4202F1C7
:101CA00008020CD00133052BF7D14FF04071094ADF
:101CB000536823F040730B435360F0BC704755F8F2
:101CC0003340054F84424FEAC306EBD33E44737959
:101CD0001906ECE700000E406873000038B5074CA9
:101CE00041F67133256C2364FEF790FA0021FFF76B
:101CF000CDFF0DB10023236438BD00BF00000E40AE
:101D00000C4A0D4BD2F89010516A21F0300141F08D
:101D1000100110B45162146BC0F3C311033123409E
:101D20000F2928BF0F21034343EA017313635DF8B2
:101D3000044B704700400E4000F8FF0F38B5054CCB
:101D400041F67133256C2364FFF7A0FF0DB100232A
:101D5000236438BD00000E40014B1868704700BF77
:101D600034000020334B98425BD01AD9324B984252
:101D70005BD00CD8314B98423AD003F5371303F5BA
:101D8000D86398423FD12E4BD3F8001116E02D4B6B
:101D9000984229D02C4B984235D1294BD3F81011B9
:101DA0000CE02A4B98422AD026D9294B984226D0BB
:101DB000284B984227D1224BD3F8EC10264B274AC8
:101DC00018601368002BFCD1204B98421DD0204B8B
:101DD000984221D0224B984203D121F0C06141F0BA
:101DE0008061204B99617047154BD3F80C11E5E7E2
:101DF000134BD3F8FC10E1E7194B984203D1104B79
:101E0000D3F8E010DAE70021D8E721F0C061154BE4
:101E100041F0007199617047124B21F0C0619961E6
:101E20007047074BD3F8F810C8E7054BD3F80811F3
:101E3000C4E700BF405DC60080BA8C010024F400F6
:101E4000B081E00F0048E80180D5430280841E0085
:101E500000093D00C0CF6A00340000206428C84358
:101E600040420F0000400E40C0F30323013B30B45A
:101E7000092B13D8DFE803F0251D121221272A129F
:101E80000523144D4FF48034134AD2F84431DB0754
:101E9000C0F3043004D528448000016030BC704792
:101EA000D2F840311C42F6D0D2F840311C42F7D172
:101EB000F1E70A4DC0F30430EDE7094DFAE7094DAB
:101EC000F8E7094DF6E7094D0124DDE7084D102438
:101ED000DAE700BF8007F21000400E400006F21063
:101EE0008005F210800AF2100000F2100007F210D4
:101EF0004007F210C0F30313013B092B4FD8DFE872
:101F000003F00E141A204E4E262C3B052E4B984201
:101F100045D12E4BD3F8300100F0030070472B4B16
:101F2000D3F80001C0F304207047284BD3F8140104
:101F3000C0F304207047254BD3F80001C0F30060C4
:101F40007047224BD3F80C01C0F3082070471F4B99
:101F5000D3F80801C0F3082070471D4B984229D0E0
:101F60001C4B98421BD1194BD3F820310120C3F3ED
:101F70000113984001387047174B984211D003F570
:101F8000B01303F58053984209D1104BD3F8283190
:101F9000C3F3012304330120984001387047002027
:101FA00070470A4BD3F828310120C3F3011398403E
:101FB00001387047054BD3F82031012003F00F039F
:101FC00098400138704700BFA009140000400E403F
:101FD0008006160080162C009017180008B5FFF731
:101FE00089FF013008BD00BF00F00F00013807284D
:101FF00047D8DFE800F0121D3346283E4604264B42
:10200000D3F85C3103F03003202B40D0302B40D08C
:10201000102B0CBF0720012070471F4BD3F89430C2
:1020200003F00703023B052B2FD81C4AD05C7047F6
:10203000194BD3F8803003F00703013B032B22D860
:10204000174AD05C7047144BD3F8883003F007036D
:10205000013B032B17D8134AD05C70470E4BD3F8C3
:10206000843003F00703013B032B0CD80E4AD05CED
:102070007047094B1B6F13F0010F14BF0920072095
:1020800070470020704701207047052070470420EA
:1020900070470820704700BF00400E405473000096
:1020A0005C730000647300006073000010B50446A8
:1020B000FFF79AFF1E4B9C422FD01E4B9C4226D00E
:1020C0001D4B9C421DD00138032803D8DFE800F0E7
:1020D0001511042B002010BDFEF7C4F8174BD3F8E0
:1020E0000021C2F30062013201239340B0FBF3F000
:1020F00010BDBDE81040FEF7E3B8BDE81040FEF7A4
:10210000D7B80E4BD3F8800000F00700DBE70B4B8D
:10211000D3F8880000F00700D5E7084BD3F8840017
:1021200000F00700CFE7BDE81040FEF7C5B800BFDC
:1021300003001E000500220002001C0000400E40AB
:1021400000F47810B0F5A01F08B500F098801BD9F6
:10215000B0F5F01F33D054D9B0F5301F34D066D964
:10216000B0F5381F6BD0B0F5401F1AD15B48FFF7B0
:102170003BFF072842D0082800F0A580042810D192
:10218000BDE80840FEF780B8B0F5202F13D00AD97B
:10219000B0F5602F2DD0B0F5801F2FD0B0F5402FB7
:1021A0001CD0002008BDB0F5003F7DD0B0F5802FD9
:1021B0006FD00028F5D1BDE80840FEF72BB848489D
:1021C000BDE80840FFF772BF4648FFF76FFF464B78
:1021D000D3F82031C3F30113D84008BDFEF71AF835
:1021E000414BD3F81431C3F304230133B0FBF3F0B4
:1021F00008BD3E48FFF7F8FE072860D13C4B186841
:1022000008BDB0F5C01F2DD0B0F5E01F25D0B0F54A
:10221000B01FC6D13348FFF749FF334BD3F8202115
:10222000012302F00F029340B0FBF3F008BDB0F5BC
:10223000081FB6D12F48BDE80840FFF737BF284830
:10224000FFF734FF284BD3F82821C2F301220432D0
:1022500001239340B0FBF3F008BD2248BDE80840DD
:10226000FFF724BF1E48FFF721FF1F4BD3F828219B
:102270000123C2F301129340B0FBF3F008BD1D48E7
:10228000FFF714FF184BD3F8303103F00303D840A5
:1022900008BDFDF7BFFF144BD3F80C31C3F308237F
:1022A0000133B0FBF3F008BDFDF7B4FF0E4BD3F8DC
:1022B0000831C3F308230133B0FBF3F008BD09284C
:1022C0007FF46FAF77E7FDF7A5FF074BD3F8003139
:1022D000C3F3042303FB000008BD00BFB8003000B7
:1022E00003001E0002001C0000400E4006000E000D
:1022F0003400002005002200C0F30313013B70B539
:102300000C46092B16D8DFE803F01F5F1569151579
:102310007592A705924B98420CD1924AD2F844315B
:10232000D90708D58F4BD3F8301121F003010C43A6
:10233000C3F8304170BDD2F840315B03F2D5D2F81A
:1023400040315B03F7D4EDE7FFF7C8FC864A854BC5
:1023500001211160D3F8002142F08072C3F80021FE
:10236000D3F8001121F4F85141EA0424C3F80041E4
:10237000FDF778FF7D4B1C68002CFCD17C4B7D4D1C
:1023800059682E6C41F67133C1F301412B64FFF79C
:102390007DFC06B12C647848FFF7D2FE774B98425B
:1023A00078D9774B0121984294BF4FF080704FF05D
:1023B00000706D4B6B4A1960D2F8003123F08073C6
:1023C0001843C2F8000170BD664BD3F8141121F414
:1023D000F85141EA0424C3F8144170BD614BD3F8AD
:1023E0000C1121F4FF3121F4807141EA0421C3F87A
:1023F0000C1170BDFFF772FC5B4A5A4B0121116052
:10240000D3F8002142F08072C3F80021D3F80811FC
:1024100021F4FF3121F4807141EA0421C3F808114D
:10242000FDF720FF514B1C68002CFCD1A6E7554B53
:10243000984278D0544B984257D0494B98427FF4F9
:1024400079AF484AD2F84431DB073FF56BAFD2F899
:1024500040315E03FBD465E74C4B984227D003F52F
:10246000B01303F58053984217D13E4AD2F8440185
:10247000C40701F10103B3FA83F3C3F11B010DD5C6
:10248000384AD2F8283123F4407343EA0123C2F8D2
:10249000283170BD002001468BE770BDD2F8403175
:1024A0005806EDD5D2F840315806F7D4E8E72D4A62
:1024B000D2F84401C60701F10103B3FA83F3C3F173
:1024C0001F0109D5274AD2F8283123F0300343EA07
:1024D0000113C2F8283170BDD2F840315D06F1D544
:1024E000D2F840315D06F7D4ECE71E4AD2F8440139
:1024F000C00701F10103B3FA83F3C3F11F0109D54A
:10250000184AD2F8203123F0300343EA0113C2F80D
:10251000203170BDD2F840315B07F1D5D2F840319F
:102520005B07F7D4ECE70F4AD2F84401C50701F185
:102530000103B3FA83F3C3F11F0108D5094AD2F8A6
:10254000203123F00F030B43C2F8203170BDD2F8C5
:1025500040315C07F2D5D2F840315C07F7D4EDE7A3
:10256000A009140000400E404000C843C800C64304
:1025700000300E4000000E4000250A000048E8012F
:102580000090D0038006160080162C0090171800CB
:102590000139FFF7B1BE00BF144B5B6A13F0300F77
:1025A00010B408D020291DD030294FF4800404D065
:1025B00019B10F4A03E04FF480044FF440020B4975
:1025C000D1F89030094813409342F9D134B1D0F892
:1025D000A0005DF8044BC0F38020704701205DF837
:1025E000044B704700244FF40002E8E700400E401F
:1025F000FF33E107F8B504282AD8DFE800F0484F98
:1026000003542A0000292DD10420082303253F4923
:102610000B66D1F890301842FBD1CAB101223B4978
:10262000AA40D1F890301A42FBD1F8BD3849214474
:1026300089000027354B1E660B68002BFCD03AB191
:10264000334C2C44A4002368002BFCD002282FD04C
:10265000F8BD20231026042405250029E6D10120F9
:10266000A040D4E7294B596A11F0300F3AD12949DB
:10267000C96B596AC90744D55C6A274924F03004FC
:1026800044F010045C62042603250127D2E74FF4CE
:1026900000734FF4807608240925DEE78023402666
:1026A00006240725D9E70126354602230024D4E76E
:1026B000002FCDD0154A536A13F0010117D1FFF74F
:1026C0006BFF124DD5F89C70022000210122FFF70C
:1026D00091FFC7F30A00FFF713FB2E662368002B58
:1026E000FCD0F8BD0C49042603250027A2E72023CF
:1026F0004FF48061C2F8A81019465366FFF74CFFEB
:10270000DFE7054904260325012793E700400E4033
:102710008004F21000300E400812C8431128F8B5AA
:102720000C460FD000F00F000138072809D8DFE869
:1027300010F036016900670008004C0043000800F3
:102740002D00F8BD042900F02381052900F08680C2
:102750000025023C0A2CF4D801A353F824F000BF52
:10276000FB28000075280000012900001B2900003B
:1027700043270000432700004327000043270000B1
:1027800043270000332900007F2900004C1E072C3E
:10279000D7D801A353F824F04B29000043270000A9
:1027A000432700005F290000432700004327000063
:1027B000712900006D290000072900F0E580092932
:1027C00057D1884B01221A67F8BD874D013C092C6F
:1027D000B7D801A353F824F0092800000F280000FF
:1027E0004F28000043270000432700002128000055
:1027F0004327000043270000432700001D28000056
:102800007A4DE3E77A4DE1E700232B60F8BD012123
:102810000A460020FFF7EEFE0223F6E70423F4E762
:10282000FDF720FD734B984200F2868000200146A0
:10283000714B6C4A1960D2F80031704923F08073F3
:1028400003430120C2F8003103230860DDE70120C3
:1028500001460246FFF7CEFE0123D6E7684A694BE0
:1028600015689D427FF674AF2846002100F004FAF7
:102870006FE7F8BD0120032401210A46FFF7BAFEE5
:10288000FFF72CFA1DB1604A1368002BFCD1554BA1
:102890005E485C67FFF754FC564B984271D95C4B1D
:1028A0000121984294BF4FF080704FF00070524B5E
:1028B0004C4A1960D2F8003123F080731843C2F8F3
:1028C0000001FDF7CFFC504B1C68002CFCD1514B94
:1028D000514E5968376C41F67133C1F3014133648D
:1028E000FFF7D4F907B13464002D7FF42AAF2846EE
:1028F0000121BDE8F84000F0BFB900200424BBE787
:102900003D4B384A01211960D2F80031022043F0D2
:102910008073C2F800310446AEE7374B314A0124D8
:102920001C60D2F8003143F08073C2F800310320FC
:10293000A2E7032005249FE7354B0121984294BF6D
:102940004FF080704FF0007072E70021254AD2F8F6
:102950005C3123F030030B43C2F85C31F8BD012138
:102960000A460220FFF746FE2021EFE73021EDE77F
:1029700001210A460420FFF73DFE1021E6E7072467
:102980007EE70020014692E7164B00221A67F8BD49
:10299000FDF77AFC054600287FF466AFD8E68C1E6A
:1029A00000250A2C3FF6CDAE01A353F824F000BF5A
:1029B000FB28000075280000012900001B290000E9
:1029C000432700004327000043270000432700005F
:1029D0004327000033290000DD2900000724FFF70A
:1029E0007DF954E700400E4088400E4084400E4080
:1029F00080400E400048E8014000C8430816C84324
:102A00000C000020002D3101C800C64300250A003B
:102A10000090D00300300E4000000E40024BC0007A
:102A200003441960704700BF042AC843EFF31080C5
:102A300072B6704700B962B6704700BF0279C378BA
:102A40004179F0B447780478094D0A4E80785201F4
:102A500042EA8303002F43EA040314BF0222002248
:102A6000134301F03F026A602B603060F0BC704796
:102A700000E0014080013C4270B500283FD0334B5C
:102A8000334C1878334B344D344AC0F102001021D6
:102A90008140216145F60E01D3F88041C3F88011D1
:102AA000286840F25511014004F0010419661368CA
:102AB000002BFCD1264B1B68DE060FD4284E317844
:102AC000052918D12B68DB0702D4224B02221A6693
:102AD0001CB1204B0022C3F8802170BD1D49D1F8E4
:102AE00040311C4AD801FAD41D4E1E4B31781B6868
:102AF000136105291CD01120FFF710FEE2E7154AEB
:102B0000154BD2F890201A601120FFF76DFA144B84
:102B1000124A18701368002BFCD10D4B0B485B68F0
:102B20000C49104AC3F3014303700B69136070BD75
:102B30000D4B0A4A18681368002BFCD1044B5968E6
:102B4000C1F30141FFF7FAF8B9E700BF2C040020F8
:102B500000300E4000400E4030040020C800C64344
:102B600035040020280400200C000020094A1368C6
:102B7000002BFCD1084B19685A68C1F30121C2F33C
:102B8000014291421A688CBF42F0100222F01002FA
:102B90001A607047C800C64300300E40044B1B69E2
:102BA000C3F30443082B02D1024B034A1A60704757
:102BB00000400E400C000020C0EA210110B5044680
:102BC00080B9FFF7D3FF0F4A136943F00403136181
:102BD00030BF8CB90C4B1B68DB0607D4BDE8104036
:102BE000FDF740BB0020FFF747FFEAE7FFF7D6FFFE
:102BF000BDE81040FDF736BB0120BDE81040FFF7EF
:102C00003BBF00BF00ED00E000300E40F8B5174BB1
:102C100004460D46D3F80031FDF7FCFA144A064687
:102C20001368002BFCD1134F7B68C3F301439C4214
:102C30000CD0022C11D0C4F10202102393403B614E
:102C40001DB10B4A1368002BFCD104B1F8BD30460E
:102C50002146BDE8F840FFF771B830462146FFF73E
:102C60006DF810233B61002DF0D0EAE700400E40E4
:102C7000C800C64300300E4010B5104B82B0D3F8E8
:102C8000004158B10E4B1B7813B10E4B98420ED930
:102C9000002002B0BDE81040FFF7B8BF0191FDF77A
:102CA000B9FAC4F3042404FB00000199EAE7022006
:102CB00002B0BDE81040FFF7A9BF00BF00400E40C2
:102CC00034040020FF2C3101034B02781A700020DD
:102CD0000121FFF7D1BF00BF34040020064942782C
:102CE0000B6823F4407343EA0223022A0B6004BFFB
:102CF000024B5B6A704700BF00300E4000400E4040
:102D00002DE9F047072A9DF820609DF824502AD825
:102D1000DFF87CA0DFF87C90DFF87C80DFF87CC0F7
:102D200001F0030194004FF00F0E0327A040A140D3
:102D30000EFA04FEA740CAF800E0C9F80000C8F87F
:102D40000070CCF800101049104C1144890001208B
:102D500000FA02F20B60C1F88060C4F82424C1F8C4
:102D60000053BDE8F087A2F1080401F00301A400BC
:102D70004FF00F0EDFF828A0DFF82890DFF828804A
:102D8000DFF828C0D1E700BF8020851000A00040F8
:102D900000A4004400A4004608A4004408A400467F
:102DA00004A4004404A400460CA400440CA400465F
:102DB000F0B545003AB12E189BBB1C4C360134448B
:102DC00001268E4026602C18240104F18044072936
:102DD00004F5204415D84FEA810E67680F2606FADD
:102DE0000EF627EA060702FA0EF63E4366603AB987
:102DF0002844C3B90D4B0001034401228A401A60E4
:102E0000F0BD01F18046083EA768B6004FF00F0EF6
:102E10000EFA06FE27EA0E0702FA06F63E43A66001
:102E2000E5E7034CCAE7024BE5E700BF0CA000440E
:102E30000CA00046F0B50446006803F0030504F159
:102E4000806704F1C06320F440704FF4407E2E028E
:102E5000206083B0C7F800E01E6029B9154B9C4282
:102E60001AD0154B9C421ED0144B20685B5D02FBB0
:102E700003F35BB16FEAC20220681A441144B1FB4C
:102E8000F3F1830701F1FF3102D4216103B0F0BDFA
:102E9000002908BF0121F8E709480192FFF750F91E
:102EA000019A0146E0E707480192FFF749F9019AC4
:102EB0000146D9E700C0004000C400409073000004
:102EC0000082040000920400F8B500F10474E400EC
:102ED0000D46621C49780A4F95F80CE0920081F08B
:102EE000010100230364C7631160AA68696812B115
:102EF0007346FFF79FFFA4002B782360F8BD00BF47
:102F0000FFFF0700844A90422DE9F041034600F09C
:102F1000C38002F58062904240F0BA807F4A946894
:102F20004025052600274FF0030E596B11F4C06FA2
:102F300040F0C9801078082800F2B080DFE800F087
:102F4000152649553D8E6A710500C9051BD54FF4FC
:102F50008070D86309215078117040B20021012897
:102F6000196400F0A080BDE8F08160882188C50662
:102F700040F19D80090A01F0060141F0F0010120B5
:102F80001070D96258600120BDE8F081080600F198
:102F9000A7804906F7D56188DD63C80600F1B680D1
:102FA00089073CD5117904EBC104072021891070F1
:102FB0000129E8D108225A60E5E7080600F190806F
:102FC0004806E0D56188DD63490728D507231370DB
:102FD000D9E7080600F184804806D4D56188DD630E
:102FE00089071CD582F800E09FE760882188C50624
:102FF00043BF090A01F0060141F0F00101F0FE01B2
:10300000440748BF41F001010424012014705860B6
:10301000D962B8E7080663D44906B4D5DD631670F3
:1030200083E78806AFD511795088DD6904EBC104C8
:103030002189814242D96468461C568025545088B3
:1030400081423BD9042401295C6002D001398842C5
:103050004FD01178092996D150787EE711795088A0
:1030600004EBC10CBCF80880804546D80131C9B2D8
:1030700011716088578010F0040FB3D1C00702D4DB
:1030800001297FF652AF08200221107059607AE7BB
:103090006FF00300BDE8F081214A40E7FB200921E1
:1030A0005070117059E751700846BDE8F08101F089
:1030B000FE01840748BF41F0010160E70129E2D128
:1030C00008215960DFE78F0504D5FD2050700921E4
:1030D000117042E74E054ABFFE2050785070F6E767
:1030E0008025FF2408200221DD6354701070596090
:1030F00049E7082159601178ACE7DCF80410441C5A
:103100005480095CD962062313703CE721780220C1
:103110001070D96237E700BF00C0004044040020AF
:10312000380400201B4B984230B430D003F5806344
:10313000984228D1184B8268D20744BF20224260AF
:103140004A88950701D50C89ECB1540718D40022A0
:103150000125C0241A705A801A7199605D7044600C
:10316000C368DA0503D5C369C368DB05FBD40B4B21
:10317000C363036C43F4FC63036430BCFFF7C2BE5B
:103180000A8A002AE3D16FF0030030BC7047044B79
:10319000D1E700BF00C0004044040020FFFF07004B
:1031A00038040020F8B5044601211148FEF75CFE02
:1031B000A178627825780F4B0F4841EA022242EA53
:1031C000056200214FF400754FF000474FF0FF36C5
:1031D0001A601962D9625963DF669E66C0F8805131
:1031E000E3785B01DBB280F809330560F8BD00BF0E
:1031F00000550A0000200E4000E100E0F8B500EBA9
:1032000040031B0103F1804303F562230C46096868
:10321000C3F88010617BC3F88810A57AE17A94F82E
:103220000CE01E4E2D04C0B245EA0151012522F0EA
:103230000302854041EA4E51C3F88410C3F8982038
:10324000B566FFF7F3FBF36E227A2B43F36612B1F8
:10325000736B2B437363637A1BB1104AD36A2B439E
:10326000D3620E4B22791B6822B1D243120262F460
:103270007F42134062790AB143EA0223A2790AB17C
:1032800023EA0203E27902B11343044A04491360BA
:103290000D60D563BDE8F840FFF7CCBB00200E40C1
:1032A00028200E4470B40E7826B98368DA0744BF2C
:1032B000022343604B788A78002B0CBF00234FF425
:1032C000805302B3CA68026143F40073CA780AB13A
:1032D00043F480730A790AB143F040034A790AB192
:1032E00043F08003CC798A790D7A210141EA820288
:1032F0002A431343036026B18368DB075CBF0123C5
:10330000436070BC7047CA68002ADFD0DBE700BFAB
:1033100039B9036943F4003303614368D902FCD42B
:103320007047012902D0022908D07047036943F48D
:103330000023036143689A02FCD47047036943F495
:103340000013036143685B02FCD470472DE9F84F1A
:103350000D4614468046FFF7DBFF012D00F0BD80CF
:10336000C0F0B480022D00F0A18094F817A0237D56
:10337000002194F8312022B9626B21F0F84141EA32
:10338000826194F8382022B9E26B21F0F87141EAA9
:103390000251A768E26894F815B0B4F8009094F868
:1033A00002C0DFF8C0E260683A4342EA0909BBF1B3
:1033B000000F49EA0C0C14BF4FF4801200224CEAB3
:1033C00002065A1E01EA0E0ED2B2216994F8249028
:1033D00094F825C0022A4FEA451740EA010008EB9D
:1033E000070B98BF9D49CBF8B8E0CBF8B060CBF89D
:1033F000B40098BF51F82200B4F81AB0A28B216A29
:1034000094F818E0A67D4BEA020292B242EA010269
:1034100094BF00024FF4C840B9F1000F43EA020321
:1034200014BF4FF400194FF00009BCF1000F43EA3C
:10343000090394F830C0A16AE46A14BF4FF48019FC
:103440004FF00009BEF1000F14BF4FF4807E4FF023
:10345000000E43EA0903002E14BF1022002243EAA3
:103460000E03BCF1000F43EA020314BF082200223E
:10347000BAF1000F43EA0203474414BF04220022BA
:1034800044EA014113430843C7F8AC00C7F8A83029
:10349000A5B1012D00F0A180022D05D1D8F8103082
:1034A00043F48013C8F81030BDE8F88F237D032B58
:1034B00000F28F80DFE803F0847C736AD8F8103064
:1034C00043F48033C8F81030BDE8F88F237D032B18
:1034D0007FD8DFE803F051483E34237D032B78D8B2
:1034E000DFE803F022180D02E37D5D4A002B00F0B7
:1034F000B0800323D2F8AC114FF0010A39E7E37D25
:10350000574A002B00F0A0800223D2F8A8114FF0F8
:10351000010A2EE7E37D524A002B00F09080012340
:10352000D2F8A4119A4624E7E37D4D4A002B00F01F
:1035300082800023D2F8A0114FF0010A19E7E37D41
:10354000474A002B72D00323D2F89C114FF0010A96
:103550000FE7E37D424A002B63D00223D2F8981193
:103560004FF0010A05E7E37D3D4A002B54D00123CB
:10357000D2F894119A46FCE6E37D394A002B47D0F5
:103580000023D2F890114FF0010AF2E6E37D344AAD
:10359000CBB30323D2F8BC114FF0010AE9E6E37D77
:1035A0002F4A5BB30223D2F8B8114FF0010AE0E6CC
:1035B000E37D2B4AEBB10123D2F8B4119A46D8E649
:1035C000E37D274A8BB10023D2F8B0114FF0010AF6
:1035D000CFE694F817A00021CBE6D8F8103043F4DA
:1035E0008023C8F81030BDE8F88F9A46D2F8F01161
:1035F000BFE69A46D2F8F4110123BAE69A46D2F809
:10360000F8110223B5E69A46D2F8FC110323B0E67E
:103610009A46D2F8D011ACE69A46D2F8D4110123DA
:10362000A7E69A46D2F8D8110223A2E69A46D2F823
:10363000DC1103239DE69A46D2F8E01199E69A46FA
:10364000D2F8E411012394E69A46D2F8E811022355
:103650008FE69A46D2F8EC1103238AE694730000B1
:10366000B081E00FEFEDF67D30B4046814F007058B
:1036700005D0036CDB0722D524F007030360036C3D
:10368000DB0723D54161036CDB072DD502234360A3
:10369000036CDB0721D501238A42436008D0036C09
:1036A000D9072AD54261036CD9072DD5022343607F
:1036B0001DB1036CDA0730D5046030BC7047436C31
:1036C000DB07D9D5436CDB07F9D4D5E7436C5B073F
:1036D000D8D5436C5B07F9D4D4E7436C9B07DAD5A4
:1036E000436C9B07F9D4D6E7436C13F0060FCDD09B
:1036F000436C13F0060FF7D1C8E7436C9B07D1D595
:10370000436C9B07F9D4CDE7436C13F0060FCDD083
:10371000436C13F0060FF7D1C8E7436C9B07CBD07F
:10372000436C9B07F9D1C7E70368026C23F00703DA
:10373000D20741EA030102D4436CDB07FCD40160E9
:10374000704700BF41B1012905D1400100F184401B
:10375000C0F82C2D70477047400100F18440C0F83C
:10376000142D7047826E2DE9F04122F473730446E4
:10377000C87C0F7D0E7B23F0030303430D4604F149
:103780004040497B43EA8713002EA0F59C20A366A6
:103790004FEA90280CBF00234FF4004309B143F4D3
:1037A0008043AA7B0AB143F00803EA7B0AB143F4E1
:1037B00080732A7C0AB143F40073697CAA7C43EAD3
:1037C0008123002A4FD0022A2FD81203660106F166
:1037D00084461036012131604046002143EA020749
:1037E000FFF71CF92A78931E012B20D8236CDE07E3
:1037F00047EA020712D510232360236CD90702D4AD
:10380000626CD207FCD440460121FFF707F9AB6890
:103810006361022363602760BDE8F081626CD007BA
:10382000E9D5626CD007F9D4E5E70022CEE723683A
:103830005B0705D047F010032360236CD8070BD536
:10384000002333606968AA682046FFF70DFF2B78D4
:10385000012B0BD0BDE8F081636CD907F0D5636C08
:10386000D907F9D4ECE74FF44052AFE7236CDA07FD
:1038700004D547F001032360BDE8F081636CDB07EA
:10388000F7D5636CDB07F9D4F3E700BF0A4347F6CB
:10389000077114300A40034B42F0804243F8202065
:1038A000704700BF00600E40F0B58D7891F801C000
:1038B0000B790C78CA7891F805E08F79084EA90148
:1038C00041EA8C01214341EA0212043042EAC32258
:1038D000000142EA0E3343EA47433350F0BD00BFD4
:1038E00000200440014B1860704700BF0000844274
:1038F000427990F804C00178C379F0B5120390F8CA
:1039000001E08778C6788579007A134C42EA0C2268
:103910000A43BEF1000F42EA034314BF0421002111
:10392000002F14BF102200220B43002E43EA020393
:1039300014BF20220022002D43EA020314BF4FF4DB
:1039400000420022002843EA020314BF4FF4003271
:10395000002213432360F0BD0020044070B50446EC
:1039600015461E4601B3202E24D01AD9402E16D05B
:10397000602E21D104222368104823F060032360C5
:1039800005FB02F24901236801EB5201B1FBF2F29F
:10399000203AD20010401E432660606170BD0622AE
:1039A000E9E756B91022E6E70548FEF7C9FB202EE5
:1039B0000146DAD10822DEE770BD70BDF8FF7F0056
:1039C0004041050038B50546144619B90548FEF7CB
:1039D000B7FB014601396400B1FBF4F109026961EA
:1039E00038BD00BF40410500164A1749002330B4D6
:1039F000904240F6AA6541F20504C5600360446048
:103A000083604361C3648164036643678367C367FC
:103A10000ED002F5806290420DD002F58062904295
:103A200006D002F58062904205D0836530BC7047B5
:103A300000230365F9E7036583650023C36530BC94
:103A4000704700BF00000140F9FF0100F8B50C46C7
:103A50000546FFF7C9FFA37C1BB12B6843F08043E9
:103A60002B60E37C1BB1237D43F08003AB65278A89
:103A7000607BE689237B6168A268384330436860D5
:103A80002846FFF76BFF637D1BB12B6843F480333F
:103A90002B60E27DA37D207E217812051B0702F4B6
:103AA000E00203F0E04313432B666A6F22F030021A
:103AB0006A676B6F03436B67E960F8BD70B50C46CE
:103AC0000546FFF791FF238AA67B2A68207DA17C0B
:103AD00043F00103002E9BB243EA020314BF4FF4EC
:103AE0008062002213432B602B68002814BF4FF024
:103AF0000052002213432B6019B1E37C43F0800392
:103B0000AB65237B6168A26843F480536B602846F1
:103B1000FFF758FF637B0BB11023EB60637D1BB194
:103B20002B6843F480332B60E27DA37D217812055E
:103B30001B0702F4E00203F0E04313432B66E96045
:103B400070BD00BF03695B06FCD54163704700BFD1
:103B500003695B06FCD5C163704700BF014B0122BE
:103B60001A707047210A00202DE9F843177992F85E
:103B700000E092F80390547992F80180937892F8DB
:103B800006C08D00EDB2FF014EEA48120E4647EA2C
:103B90000917A91CE4001F4301F0FE01D2B204F092
:103BA0003804804644EA8C14FFB2FCF7ADFBE91CF4
:103BB0003A46C9B24046FCF7A7FB711CE4B2890043
:103BC000224601F0FC014046FCF79EFB691D404681
:103BD000C9B20022BDE8F843FCF796BBF0B589B046
:103BE0004FF0A60E8DF808100023012702AE022523
:103BF00001AC03A90A488DF80920ADF80CE0ADF836
:103C00000E700496ADF814500694ADF81C30FCF715
:103C10009BFE003018BF0120404209B0F0BD00BF3C
:103C200000C0004070B586B006AB042503F8181D2F
:103C30000122A6260DF103040B4802930DEB0501AA
:103C4000ADF80460ADF80650ADF80C20ADF81420C6
:103C50000494FCF779FE20B99DF8030000B206B089
:103C600070BD4FF6FF70F9E700C00040F0B587B0B7
:103C700006AE154606F8181D04221C46A627012389
:103C80000F48ADF814500DEB020104940296ADF804
:103C90000470ADF80620ADF80C30FCF755FE58B1B5
:103CA00045B16A1E54FA82F2631EFF2103F8011F18
:103CB0009342FBD14FF6FF7000B207B0F0BD00BFDA
:103CC00000C00040000000002DE9F04F2DED028BF8
:103CD000BD4FBE4EDFF81CA3BD4C93B00CAD03909E
:103CE0000FCF0FC597E803004FF002090B2785E8B7
:103CF00003004FF00A080CA88DF835708DF8378056
:103D00008DF834908DF83690FCF7C0FD01221546F1
:103D1000394613460320FFF74BF839463A4603204D
:103D2000002300950195FEF7EBFF12A84FF4806287
:103D30004FF48023C6F880213260C6F880313360AA
:103D400000F8305DFEF7C0FF4FF0000307A88DF8C4
:103D50001C308DF81D90FEF7C1FFDAF80070384670
:103D6000FCF7B4FA12AB40460493FDF79BFC049BAE
:103D70008DF822500D2203F8282D0DF1480B4FF03D
:103D8000040C4FF0030838461A46059300214FF003
:103D900000038DF825308DF823C0CDF810C08DF8C4
:103DA00024508DF826508DF82180FFF7DDFE0BF8AA
:103DB000205DDDF810C08DF82BC038465A462946E4
:103DC0008DF82D908DF82A508DF82C508DF8298083
:103DD0008DF82E50FFF7C8FE384629464246FCF7BC
:103DE00093FA0F2142463846FFF7F8FEFDF79AFC9A
:103DF000059B784F4FF0804218463260FDF722FC59
:103E0000002300930898744B29464FF47A72FDF70B
:103E1000DDFC1221DAF80000FFF704FF0023DAF8D6
:103E200000002370FCF764FA23782BB90120FEF719
:103E3000C5FE2378002BF9D000232370122107221E
:103E40005B46DAF80000FFF711FF9DF82A209DF885
:103E500029C09DF82D309DF82B009DF82C509DF821
:103E60002E10120202EB0C421B02161803EB054344
:103E7000320203EB010501D546F07F462B0248BF15
:103E800045F07F4507EE905AB8EEE78A07EE906A54
:103E9000F8EEE77AB7EE007A88EE278AB4EEC78AA2
:103EA000F1EE10FA45DD304601F03AF838A3D3E9D7
:103EB000002301F09BF880462846894601F030F83F
:103EC00035A3D3E9002301F091F802460B464046A2
:103ED000494600F0D9FE414B002201F087F801F07D
:103EE0001FFB039B8046F3B90C2001F075FE3C4894
:103EF00001F0FEFE31463B4801F056FE29463A48A5
:103F000001F052FE18EE100A01F01CF802460B46B2
:103F1000364801F049FE4146354801F045FE02E0D1
:103F20000120FEF74BFE3B78002BF9D000233B70BD
:103F30006FE718EE100A01F005F819A3D3E9002382
:103F400001F0E4FA80B1304600F0EAFF16A3D3E9AD
:103F5000002301F04BF880462846894600F0E0FF38
:103F600013A3D3E90023AEE7304600F0D9FF12A334
:103F7000D3E9002301F03AF880462846894600F04C
:103F8000CFFF0FA3D3E900239DE700BFAFF300806D
:103F900095D40968226CB83FE63FA4DFBE0E8CBF03
:103FA000666666666666E63F499D8026C286C73FAE
:103FB000984C158C4AEAB4BF1E166A4DF38ECBBFDF
:103FC000F90FE9B7AF03E13FA073000000E100E0A3
:103FD000200A0020210A00205D3B00000000104064
:103FE000B8730000BC730000C8730000D4730000F5
:103FF000E87300001C0A0020402A2CD870B596B047
:104000008DF818105AB3541EE4B206AD0134591E8F
:104010002C442B4611F8010F03F8010FA342F9D1EC
:1040200001320023A626012401A90E48ADF80C2078
:104030000295ADF80460ADF80640CDF810D0ADF8AB
:104040001430FCF781FC003018BF0120404280B2E0
:1040500000B216B070BD4FF6FC7000B2704706ADEE
:10406000DEE700BF00C000400A20FDF71BBB00BF19
:1040700038B505460C2001F0AFFD114801F038FEBF
:10408000104801F035FE104801F032FE0F4801F0F3
:104090002FFE0F4801F02CFE0E4801F029FE0E48BD
:1040A00001F082FD0235002401340C48E4B201F035
:1040B0001FFEAC42F8DD0A48BDE8384001F074BD8F
:1040C00010740000247400002C740000347400008C
:1040D0004474000054740000B87300009C74000025
:1040E00098740000984A994B2DE9F04F01215164D2
:1040F000DB6C1B0E91B040F0CE80954995484AF696
:10410000E8520A60026842F0040202600B60924AC0
:10411000136843F400531360904ADFF854B2136AF3
:104120008F4FDFF854A2DFF85482DFF8549223F463
:10413000441343F4881300251362022604A88DF863
:1041400011608DF81050FEF7C9FD10A8012400F889
:10415000344DFEF7B9FD21468248FDF785FE2B461A
:10416000032008210422FEF723FE30462A462B4670
:104170000921FEF71DFE28462A462B460621FEF79A
:1041800017FE234603200A210422FEF711FE3046C3
:1041900023460B210A22FEF70BFE0A213046234656
:1041A0000A46FEF705FE234603200B210A22FEF7EE
:1041B000FFFD3246234605200621FEF7F9FD0621C4
:1041C0000A46009401942B460520FEF799FD3246DD
:1041D000234605200721FEF7EBFD07210A46009440
:1041E00001942B460520FEF78BFD4FF480624FF4BF
:1041F0008023CBF880215C48CBF800200321CBF84A
:104200008031CBF80030FEF789FA0FCF05AE0FC62C
:1042100097E8030086E8030021465448FDF724FE92
:1042200004237D22504605A98DF827308DF81440CF
:1042300007928DF82450FFF795FA224629465046FA
:10424000FFF780FA4FF40003CBF80030DAF824309F
:1042500043F00203CAF82430FCF79CF805A928466D
:10426000FCF7B2F8FCF7C6FB28462C46FFF700FF28
:10427000D8F8003001E0A34211D199F80020002ABB
:10428000F9D09A1ED2B2012A1ED9032B0FD8DFE82B
:1042900003F0130F170B012B7FF43EAF37E7DCB2AF
:1042A0002046FFF7E5FEE3E70120FFF70DFDFEE7FF
:1042B0000020FFF709FDFAE7002000F027FBF6E7F2
:1042C000012000F023FBF2E7294C4FF48063C4F88F
:1042D0008030BFF34F8FBFF36F8F4FF48023C4F84C
:1042E0008030BFF34F8FBFF36F8F05200621002270
:1042F0000123FEF75DFD0022012305200721FEF7C3
:1043000057FD1C480021FDF7AFFD1B480021FFF7BA
:104310000BFA16480021FDF7A7FD4FF08043C4F8C3
:104320008030BFF34F8FBFF36F8F4FF40003C4F89B
:104330008030BFF34F8FBFF36F8F00210A9B05A81A
:104340009847D8F80030A0E700000E40B081E00F99
:1043500090310E4098310E4064310E4000400E40C6
:10436000F873000000350A0002001C00000A1C005F
:1043700000E100E0A009140000E004405404002023
:1043800050040020134A1449D2F81C34C2F82434D3
:104390000A787AB9580644BF01220A701A0613D562
:1043A0000E490F4B0A6801321340002B0DDBDBB2C4
:1043B0000B607047094A126822F00202012A03D1F9
:1043C0001B0544BF074B1A707047013B63F00303A2
:1043D0000133ECE700A0004050040020540400200A
:1043E00003000080200A0020FFF7CCBFFFF7CABF00
:1043F000014B02221A62704700E004402DE9F043AD
:10440000834F90F80080386095B00E46B8F1000FE9
:1044100000F0C48004AD7F480121FDF725FD002494
:104420001F238DF800408DF801408DF803408DF872
:1044300004408DF805408DF80230002E00F08A808F
:1044400080238DF80530FDF787FC01467248FDF7A3
:104450008DFB8DF80300FDF77FFCFDF7FFFB0123CB
:104460008E2219464FF0030C4FF0070E8DF8020014
:1044700049264FF480108DF817308DF818308DF8DC
:1044800016308DF815208DF813C08DF811E08DF8D9
:1044900010408DF812408DF819408DF81A408DF8B3
:1044A0001B408DF81460FDF7DFFC5B48FDF75AFCFC
:1044B0005A4B1022C3F85C21594C69462046FDF73F
:1044C0007FFB20462946FDF7FDFA63695549564AA8
:1044D00023F440536361636943F4405363613B6871
:1044E0000D68986841086B1A9A422944B8BF1A4669
:1044F00047F6FF739942A8BF194692B242EA0143B8
:104500000121E3620A460520FEF774F801214748BD
:10451000FDF7AAFC464B18680290052303220024ED
:1045200002A88DF80D308DF80B208DF80C40FEF7A9
:1045300085FA40480121FDF797FC224620464FF4BA
:10454000D051FFF7A3F93C4B4FF480621A6015B0CD
:10455000BDE8F0833046FDF781FB072401234FF0CF
:10456000030E49218E228DF802008DF810608DF81F
:1045700012608DF819608DF81A608DF81B608DF847
:1045800013E08DF817308DF818308DF816308DF84F
:1045900011408DF814108DF815208DE7274D28480F
:1045A000DFF8A0900121FDF75FFC0FCD04AC0FC434
:1045B0000FCD0FC40FCD0FC495E80F004FF0010EC3
:1045C00004AD84E80F004FF47343F224484671466B
:1045D0002A46CDF81C80CDF81880ADF81030CDF803
:1045E0001480CDF820E08DF81240FEF7AFFED9F828
:1045F000C83043F00403C9F8C830D9F8C83023F0F4
:104600000303C9F8C830D9F8C830C9F8C83002E780
:10461000C804002000D2040080D5430200400E40B0
:1046200000200040C00400200080FFFF00C2040002
:10463000E074000000450A009CA00046A074000041
:1046400000F2040000800040F0B51C4E1C4D3468A0
:104650002B680CB9032B26D01A4A611E82FB01720B
:10466000A2EBE17202EB42028A1A9A421BD05A1C58
:104670001AD0032C1CD001332B60134CD0F810E05F
:10468000D0F800C047688668C568007D03EB430327
:10469000DB00E218114644F803C041F810EF576000
:1046A0009660D5600871F0BD00232B603360E4E7AD
:1046B000002BE0D000232B60DFE700BF3C00002090
:1046C00044000020565555555C0400202DE9F04F5C
:1046D000DFF88CA15A4BDAF80020D3F88430002A96
:1046E0008BB0C0F2A080002B00F0A380554B564F3A
:1046F000564A039300261B683C68D2F80090504D40
:10470000DFF8608100900293B346AA6C0694D20051
:104710000592E96AEB6A09148A4206F101060FFA6A
:1047200083FE5EDDD9F808305B08D41A3C604FF098
:10473000010BE21A4245234447F6FF70B8BF4246D8
:104740008342A8BF034692B242EA0342EA62D5F826
:104750008430009A003318BF0123BAB9002B4CD122
:104760003B4AD268D24392B2CAF800200492029A1D
:10477000002A40D18BF0010204A801938DF8242077
:104780000791CDF820E0FFF75FFF019B002BBCD124
:10479000029B93B9BBF1000F20D02C4B03981A68F1
:1047A0002C4B526802604FF480621A60006800303F
:1047B00018BF01200BB0BDE8F08F9E421A468CBF97
:1047C0009B1A9B1B1E46039B1E60002EE2D1224BB0
:1047D0004FF480621A60BBF1000FDED1039B1868B2
:1047E000E5E7724516DAD9F808305B089C183C609A
:1047F0004FF0010B9DE70022BEE7DAF80000174AF0
:104800002030A2FB00C2D20BC2EB0242821ACAF8CD
:104810000020ABE7A4EB6414D9F8083004EB621471
:104820003C605B0885E70A4AD268D243CAF8002098
:1048300059E7044B039318680028CFD1B7E700BFAE
:104840000020004058040020C0040020C8040020BC
:10485000006004409CA000449CA0004601800080B1
:10486000380000200080FFFF0A4B0B485A6C0B49B0
:1048700010B59C6B22404FF400441A64C0F880418C
:104880000878FFF723FF064A064B107001221A70C2
:1048900010BD00BF0020004000E100E0400000200B
:1048A000BC040020C4040020144B1A68501C00B53E
:1048B00020D0134B1B68591C1CD06AB11149501EE3
:1048C00081FB00E1A1EBE07101EB4101411A8B4258
:1048D00004D104205DF804FB032BFAD09B1A0A488C
:1048E000013318400028F5DA013860F00300013088
:1048F0005DF804FB00205DF804FB00BF3C000020D5
:104900004400002056555555030000802DE9F04F16
:10491000564B574F574C9DB08646079093E807007B
:104920004FF480733B6009AD0126734685E80700AC
:1049300084F800E08DF82460002B67D00CAC28468A
:104940000121FFF75BFDDFF85CA14B4BDFF858E17D
:104950004A494B4D4B4EDFF8309100220120CEF8F2
:1049600000208AF8002098605A6C02435A645A6CFE
:104970004FF4004042F480325A64D3460860A8469F
:1049800002E00120FEF71AF99AF80030002BF8D067
:1049900000238BF80030079B002BF2D122E03A4A2B
:1049A0001268934203F1010229D0032B06BF0023B2
:1049B000C8F80030C8F8002091F814E091E80C0025
:1049C000CDF800E08F680197CF68029709690391DD
:1049D000002004902D49204601F01AFAC1B2204669
:1049E00000F0E6F8FFF760FF0028CAD02B6803EB61
:1049F00043015A1C06EBC101D1D10021DCE74FF085
:104A0000FF33C8F80030C9F80030D5E700F0D8F817
:104A10001F480321FDF782FE31461E48FDF724FAA8
:104A200031461D48FDF720FA0CAC1B482021FDF74C
:104A3000AFFD079B19488DF8306021468DF8313065
:104A40008DF832308DF833308DF834308DF83530C4
:104A50008DF836308DF837308DF838300F93FEF7FB
:104A600021FC0F4801F0A0F869E700BF287500009D
:104A70009CA00046400000200020004000E100E033
:104A80003C0000205C040020440000206875000009
:104A900002001C0000250A00800616000060044089
:104AA00034750000C404002058040020044B1B6827
:104AB000984202D1034B00221A700020704700BFB9
:104AC000CC040020E504002000B50A4A0A4B106817
:104AD00087B0012203930023009201920293049372
:104AE0004FF44021054A064BFCF7A6FC07B05DF8E1
:104AF00004FB00BFE8040020054B0000D0040020A8
:104B00001C00014008B5054B1B68984201D00120EC
:104B100008BDFFF7D9FF012008BD00BFE804002051
:104B200070B51C4C237886B043B11B4A136923F03F
:104B30000403136130BF2378002BF7D10123002930
:104B4000237009DD0022154E13465D1CC35CB3546F
:104B5000ABB28B421A46F8DB114B124A186801912E
:104B600000230121009102930493039201F5402157
:104B70000D4A0A4BFCF746FC2378002BFCD10B4A6C
:104B800013699904FCD4094A13699B04FCD506B047
:104B900070BD00BFE504002000ED00E0EC04002043
:104BA000CC040020AD4A0000340001400000014068
:104BB000024B1B780BB1FFF7B3BF7047E404002032
:104BC00070B52748274E284C88B00121FDF74CF9D5
:104BD00026480121FDF748F900200146042201235F
:104BE000FEF7E6F80020012103460A46FEF7E0F84A
:104BF0000020052104220123FEF7DAF80FCE01ADD3
:104C00000FC596E807004FF4E13385E8070001A9D6
:104C100020460393FEF71AFFA36F23F01F0343F010
:104C20000103A367636F43F001036367A36F23F47A
:104C3000F853A367636F43F002036367FCF7B2FBAB
:104C400000210B48FCF780FB00210A48FCF77CFBA5
:104C5000FFF73AFF084B01221A7008B070BD00BF81
:104C6000004204008C7500000000014000350A007D
:104C7000CC040020E8040020E404002081F000417E
:104C800002E000BF83F0004330B54FEA41044FEA31
:104C9000430594EA050F08BF90EA020F1FBF54EACC
:104CA000000C55EA020C7FEA645C7FEA655C00F068
:104CB000E2804FEA5454D4EB5555B8BF6D420CDD39
:104CC0002C4480EA020281EA030382EA000083EABC
:104CD000010180EA020281EA0303362D88BF30BD5C
:104CE00011F0004F4FEA01314FF4801C4CEA1131B2
:104CF00002D0404261EB410113F0004F4FEA033311
:104D00004CEA133302D0524263EB430394EA050F9B
:104D100000F0A780A4F10104D5F1200E0DDB02FA0A
:104D20000EFC22FA05F2801841F1000103FA0EF29E
:104D3000801843FA05F359410EE0A5F120050EF164
:104D4000200E012A03FA0EFC28BF4CF0020C43FA95
:104D500005F3C01851EBE37101F0004507D54FF0A2
:104D6000000EDCF1000C7EEB00006EEB0101B1F5F2
:104D7000801F1BD3B1F5001F0CD349085FEA300038
:104D80004FEA3C0C04F101044FEA445212F5800F43
:104D900080F09A80BCF1004F08BF5FEA500C50F1E0
:104DA000000041EB045141EA050130BD5FEA4C0CC3
:104DB000404141EB010111F4801FA4F10104E9D14C
:104DC00091F0000F04BF01460020B1FA81F308BF43
:104DD0002033A3F10B03B3F120020CDA0C3208DD0F
:104DE00002F1140CC2F10C0201FA0CF021FA02F1EA
:104DF0000CE002F11402D8BFC2F1200C01FA02F15A
:104E000020FA0CFCDCBF41EA0C019040E41AA2BF7E
:104E100001EB0451294330BD6FEA04041F3C1CDA46
:104E20000C340EDC04F11404C4F1200220FA04F066
:104E300001FA02F340EA030021FA04F345EA030110
:104E400030BDC4F10C04C4F1200220FA02F001FAD2
:104E500004F340EA0300294630BD21FA04F0294654
:104E600030BD94F0000F83F4801306BF81F48011ED
:104E70000134013D4EE77FEA645C18BF7FEA655C60
:104E800029D094EA050F08BF90EA020F05D054EA32
:104E9000000C04BF1946104630BD91EA030F1EBF37
:104EA0000021002030BD5FEA545C05D1400049413B
:104EB00028BF41F0004130BD14F580043CBF01F52E
:104EC000801130BD01F0004545F0FE4141F4700114
:104ED0004FF0000030BD7FEA645C1ABF19461046EF
:104EE0007FEA655C1CBF0B46024650EA013406BFF0
:104EF00052EA033591EA030F41F4002130BD00BFAF
:104F000090F0000F04BF0021704730B54FF480646B
:104F100004F132044FF000054FF0000150E700BFEC
:104F200090F0000F04BF0021704730B54FF480644B
:104F300004F1320410F0004548BF40424FF0000138
:104F40003EE700BF42004FEAE2014FEA31014FEA7B
:104F500002701FBF12F07F4393F07F4F81F06051CA
:104F6000704792F0000F14BF93F07F4F704730B539
:104F70004FF4607401F0004521F0004120E700BFCC
:104F800050EA010208BF704730B54FF000050AE053
:104F900050EA010208BF704730B511F0004502D554
:104FA000404261EB41014FF4806404F132045FEA56
:104FB000915C3FF4DCAE4FF003025FEADC0C18BFFB
:104FC00003325FEADC0C18BF033202EBDC02C2F1F1
:104FD000200300FA03FC20FA02F001FA03FE40EA83
:104FE0000E0021FA02F11444C1E600BF70B54FF083
:104FF000FF0C4CF4E06C1CEA11541DBF1CEA135565
:1050000094EA0C0F95EA0C0F00F0DEF82C4481EACC
:10501000030621EA4C5123EA4C5350EA013518BFEC
:1050200052EA033541F4801143F4801338D0A0FBD9
:1050300002CE4FF00005E1FB02E506F00042E0FB86
:1050400003E54FF00006E1FB03569CF0000F18BF8C
:105050004EF0010EA4F1FF04B6F5007F64F5407434
:1050600004D25FEA4E0E6D4146EB060642EAC621C7
:1050700041EA55514FEAC52040EA5E504FEACE2E34
:10508000B4F1FD0C88BFBCF5E06F1ED8BEF1004F37
:1050900008BF5FEA500E50F1000041EB045170BDB3
:1050A00006F0004646EA010140EA020081EA0301F7
:1050B000B4EB5C04C2BFD4EB0C0541EA045170BDF3
:1050C00041F480114FF0000E013C00F3AB8014F16D
:1050D000360FDEBF002001F0004170BDC4F10004B6
:1050E000203C35DA0C341BDC04F11404C4F1200537
:1050F00000FA05F320FA04F001FA05F240EA020092
:1051000001F0004221F0004110EBD37021FA04F6C7
:1051100042EB06015EEA430E08BF20EAD37070BD81
:10512000C4F10C04C4F1200500FA04F320FA05F0E0
:1051300001FA04F240EA020001F0004110EBD370E2
:1051400041F100015EEA430E08BF20EAD37070BD52
:10515000C4F1200500FA05F24EEA020E20FA04F32B
:1051600001FA05F243EA020321FA04F001F00041DA
:1051700021FA04F220EA020000EBD3705EEA430E4B
:1051800008BF20EAD37070BD94F0000F0FD101F07A
:105190000046400041EB010111F4801F08BF013CB3
:1051A000F7D041EA060195F0000F18BF704703F0F1
:1051B0000046520043EB030313F4801F08BF013D78
:1051C000F7D043EA0603704794EA0C0F0CEA135534
:1051D00018BF95EA0C0F0CD050EA410618BF52EAEE
:1051E0004306D1D181EA030101F000414FF00000F4
:1051F00070BD50EA410606BF1046194652EA430602
:1052000019D094EA0C0F02D150EA013613D195EA75
:105210000C0F05D152EA03361CBF104619460AD1BD
:1052200081EA030101F0004141F0FE4141F47001C7
:105230004FF0000070BD41F0FE4141F4780170BDB7
:1052400070B54FF0FF0C4CF4E06C1CEA11541DBF1C
:105250001CEA135594EA0C0F95EA0C0F00F0A7F81E
:10526000A4EB050481EA030E52EA03354FEA01314B
:1052700000F088804FEA03334FF0805545EA13135E
:1052800043EA12634FEA022245EA111545EA106526
:105290004FEA00260EF000419D4208BF964244F1BD
:1052A000FD0404F5407402D25B084FEA3202B61ADC
:1052B00065EB03055B084FEA32024FF480104FF4B0
:1052C000002CB6EB020E75EB030E22BFB61A754624
:1052D00040EA0C005B084FEA3202B6EB020E75EBB7
:1052E000030E22BFB61A754640EA5C005B084FEA1F
:1052F0003202B6EB020E75EB030E22BFB61A7546EC
:1053000040EA9C005B084FEA3202B6EB020E75EBF6
:10531000030E22BFB61A754640EADC0055EA060EB7
:1053200018D04FEA051545EA16754FEA06164FEAFA
:10533000C30343EA52734FEAC2025FEA1C1CC0D1A6
:1053400011F4801F0BD141EA00014FF000004FF033
:10535000004CB6E711F4801F04BF01430020B4F1F4
:10536000FD0C88BFBCF5E06F3FF6AFAEB5EB030CAC
:1053700004BFB6EB020C5FEA500C50F1000041EBA9
:10538000045170BD0EF0004E4EEA113114EB5C0476
:10539000C2BFD4EB0C0541EA045170BD41F4801149
:1053A0004FF0000E013C90E645EA060E8DE60CEA51
:1053B000135594EA0C0F08BF95EA0C0F3FF43BAF6E
:1053C00094EA0C0F0AD150EA01347FF434AF95EA25
:1053D0000C0F7FF425AF104619462CE795EA0C0F09
:1053E00006D152EA03353FF4FDAE1046194622E7D6
:1053F00050EA410618BF52EA43067FF4C5AE50EAB0
:1054000041047FF40DAF52EA43057FF4EBAE12E79F
:105410004FF0FF3C06E000BF4FF0010C02E000BF80
:105420004FF0010C4DF804CD4FEA410C7FEA6C5C63
:105430004FEA430C18BF7FEA6C5C1BD001B050EA06
:10544000410C0CBF52EA430C91EA030F02BF90EAF1
:10545000020F0020704710F1000F91EA030F58BFB0
:10546000994208BF90422CBFD8176FEAE37040F012
:10547000010070474FEA410C7FEA6C5C02D150EAB0
:10548000013C07D14FEA430C7FEA6C5CD6D152EA6B
:10549000033CD3D05DF8040B704700BF8446104630
:1054A00062468C461946634600E000BF01B5FFF72F
:1054B000B7FF002848BF10F1000F01BD4DF808EDFF
:1054C000FFF7F4FF0CBF012000205DF808FB00BFD0
:1054D0004DF808EDFFF7EAFF34BF012000205DF82A
:1054E00008FB00BF4DF808EDFFF7E0FF94BF012077
:1054F00000205DF808FB00BF4DF808EDFFF7CEFF78
:1055000094BF012000205DF808FB00BF4DF808EDB6
:10551000FFF7C4FF34BF012000205DF808FB00BF87
:105520004FEA410212F5001215D211D56FF47873CB
:10553000B3EB625212D94FEAC12343F0004343EA6E
:10554000505311F0004F23FA02F018BF4042704749
:105550004FF00000704750EA013005D111F00040D3
:1055600008BF6FF0004070474FF00000704700BF69
:1055700053B94AB9002908BF00281CBF4FF0FF31BA
:105580004FF0FF3000F03CB882B0EC462DE90050FF
:1055900000F01EF8DDF804E002B00CBC704700BF5C
:1055A0002DE9F041069C154606460F46984600F048
:1055B00029F805FB01F300FB0838A5FB0023B21A0C
:1055C000434467EB0303C4E90023BDE8F08100BF57
:1055D0002DE9F041069C904606460F461D4600F018
:1055E0005FF900FB05F5A0FB082308FB0155B21A83
:1055F0002B4467EB0303C4E90023BDE8F08100BF3F
:10560000704700BF00292DE9F043C0F2A6800026B4
:10561000002BC0F29C80884694469E461546044660
:105620000F46002B3DD18A4259D9B2FA82F33BB1E1
:10563000C3F120029F4020FA02F29D4017439C4094
:10564000290C220CB7FBF1FEA8B201FB1E7742EA3F
:10565000074700FB0EF3BB420AD97F190EF1FF3258
:1056600080F00581BB4240F20281AEF1020E2F4470
:10567000FF1AA4B2B7FBF1F301FB137744EA074723
:1056800000FB03F0B84208D97F1903F1FF3280F024
:10569000F080B84240F2ED80023B43EA0E43002224
:1056A00003E08B420FD900221346341C18BF01249B
:1056B00060424FF0000565EB45015840514000192C
:1056C0006941BDE8F083B3FA83F2002A40F0868096
:1056D0008B4202D3844500F2DB800123E5E712B957
:1056E0000123B3FBF2F5B5FA85F000283BD1781B16
:1056F0004FEA154E1FFA85FC0122B0FBFEF8210C83
:105700000EFB180741EA07470CFB08F3BB4207D919
:105710007F1908F1FF3102D2BB4200F2BD808846FA
:10572000FF1AA4B2B7FBFEF30EFB137744EA074758
:105730000CFB03FCBC4507D97F1903F1FF3102D2F2
:10574000BC4500F2A7800B4643EA0843ADE752424E
:105750006FEA060663EB43035DE7404261EB4101FC
:105760004FF0FF3654E7C0F1200224FA02F107FAA5
:1057700000F385404FEA154ED7401943B7FBFEF2C0
:105780000B0C0EFB12771FFA85FC43EA07430CFB58
:1057900002F79F4204FA00F407D95B1902F1FF30C7
:1057A00074D29F4272D9023A2B44DF1B89B2B7FBF5
:1057B000FEF80EFB187341EA03430CFB08F79F4207
:1057C00008D95B1908F1FF315CD29F425AD9A8F180
:1057D00002082B44D81B48EA02428EE7C2F120039C
:1057E0002CFA03F10EFA02FE20FA03F741EA0E0E3C
:1057F00008FA02F028FA03F14FEA1E453843B1FBDC
:10580000F5F8030C05FB18111FFA8EF743EA014166
:1058100007FB08F38B420CFA02FC09D911EB0E01CD
:1058200008F1FF3930D28B422ED9A8F10208714419
:10583000C91A80B2B1FBF5F305FB131140EA01412F
:1058400007FB03F78F4208D911EB0E0103F1FF307C
:1058500016D28F4214D9023B714443EA0843C91B54
:10586000A3FB0C89494509D305D000221DE79646C4
:10587000FEE6134611E794404445F6D2013BF4E7B7
:105880000346EAE78846A5E7C846D1E702468CE723
:1058900013460AE7023B57E7A8F102082F443FE707
:1058A0002DE9F041002B44D18A42154604464FD9D8
:1058B000B2FA82F70E464FB1C7F12003B94020FA81
:1058C00003F602FA07F50E4300FA07F44FEA154E05
:1058D000230CB6FBFEF0AFB20EFB106143EA0143AE
:1058E00007FB00F1994209D95B1900F1FF3280F002
:1058F000EC80994240F2E98002382B445A1AA4B253
:10590000B2FBFEF30EFB132244EA024207FB03F74D
:10591000974208D9521903F1FF3180F0D88097429D
:1059200040F2D580023B43EA004000263146BDE804
:10593000F0818B4247D8B3FA83F6002E48D18B42D0
:1059400002D3824200F2CD8001203146BDE8F081D1
:1059500012B90125B5FBF2F5B5FA85F8B8F1000FDB
:1059600077D14A1B4FEA154EAFB20126B2FBFEF0CB
:10597000230C0EFB102143EA014107FB00F38B428D
:1059800007D9491900F1FF3202D28B4200F2BA80E6
:105990001046C91AA4B2B1FBFEF30EFB131144EA80
:1059A000014407FB03F7A74208D9641903F1FF324A
:1059B00080F08F80A74240F28C80023B43EA004097
:1059C0003146BDE8F081002630463146BDE8F08121
:1059D000C6F1200422FA04F5B3402B4320FA04FC5C
:1059E00001FA06F721FA04F54FEA134E4CEA0707CD
:1059F000B5FBFEF8390C0EFB18551FFA83FC41EA83
:105A000005450CFB08F1A94202FA06F204D9ED188B
:105A100008F1FF3467D3A0466D1ABFB2B5FBFEF4A0
:105A20000EFB145547EA05410CFB04FC8C4504D9D8
:105A3000C91804F1FF355CD32C4644EA0844CCEB8A
:105A40000101A4FB0223994248D344D020460026FA
:105A50006CE7C8F1200401FA08F305FA08F520FA0A
:105A600004F7E1404FEA154E1F43B1FBFEF63A0C36
:105A70000EFB16111FFA85FC42EA01430CFB06F2ED
:105A80009A4200FA08F407D95B1906F1FF3137D2C0
:105A90009A4235D9023E2B449B1ABFB2B3FBFEF0AB
:105AA0000EFB103347EA03430CFB00F1994207D980
:105AB0005B1900F1FF3221D299421FD902382B44E1
:105AC0005A1A40EA0646674650E7104616E70B4664
:105AD00029E7134672E7B0409042B7D2601E002615
