:1000000000000420DD0100000902000009020000D8
:1000100009020000090200000902000009020000B4
:1000200009020000090200000902000009020000A4
:100030000902000009020000090200000902000094
:100040000902000009020000090200000902000084
:100050000902000009020000090200000902000074
:1000600009020000B12000001D7D0000090200000F
:100070000902000009020000090200007586000064
:100080000902000009020000297D000009020000A9
:10009000090200000902000009020000997D000029
:1000A0000902000009020000090200000902000024
:1000B0000902000009020000C92A0000090200002C
:1000C0000902000009020000090200000902000004
:1000D00009020000090200000902000009020000F4
:1000E00009020000090200000902000009020000E4
:1000F00009020000090200000902000009020000D4
:1001000009020000090200000902000010B5054CB8
:10011000237833B9044B13B10448AFF300800123B3
:10012000237010BD080100200000000008D100006D
:10013000084B10B51BB108480849AFF300800848C8
:10014000036803B910BD074B002BFBD0BDE810407E
:10015000184700BF0000000008D100000C0100207B
:100160000001002000000000154B002B08BF134BBE
:100170009D46A3F5803A00218B460F461348144A4A
:10018000121A09F00CFD0F4B002B00D098470E4BB4
:10019000002B00D098470020002104000D000D48DE
:1001A000002802D00C48AFF3008009F0C7FC200003
:1001B000290007F0F3FB09F0ADFC00BF00000800C8
:1001C00000000420000000000000000008010020E2
:1001D000740A00200000000000000000064880476C
:1001E0000649074A074B9A42BEBF51F8040B42F832
:1001F000040BF8E7FFF7B8FFED02000014D1000090
:100200000000002004010020FEE700BF80B582B09E
:1002100000AF00F027F878600A4BD3F808210A4BAA
:1002200013401B0A3B603B6801337A68B2FBF3F36F
:100230007B60064A7B6813607B6818460837BD46BA
:1002400080BD00BF00400E4000FF010008000020FC
:1002500080B400AF024B1846BD465DF8047B704782
:10026000005A620280B483B000AF164BD3F89430CA
:1002700003F00703032B08D0042B02D0022B08D075
:100280000BE0114B1B687B600BE04FF400437B607D
:1002900007E00E4B1B687B6003E00D4B1B687B6027
:1002A00000BF084BD3F8003103F4F8531B0A0133A5
:1002B0007A68B2FBF3F318460C37BD465DF8047B51
:1002C000704700BF00400E400400002000000020E6
:1002D0000C00002080B400AF034B1B681846BD46DD
:1002E0005DF8047B704700BF0000002080B400AFC1
:1002F000074B084A9A60064A054BD3F8883043F406
:100300007003C2F88830BD465DF8047B704700BFBB
:1003100000ED00E00000000080B400AF4FF40043A7
:100320001846BD465DF8047B704700BF80B400AF3F
:100330004FF47A731846BD465DF8047B704700BFE2
:1003400080B400AF034B1B681846BD465DF8047BC4
:10035000704700BF0400002080B582B000AF114B91
:100360007B60114B1B7883F00103DBB2002B13D0B1
:100370000D4B01221A700BE07B681B6898473860B0
:100380003B68002B01D03B6807E07B6804337B604F
:100390007B681B68002BEFD1002318460837BD4649
:1003A00080BD00BF100000205001002080B584B047
:1003B00000AF78603960114B1B7883F00103DBB22A
:1003C000002B02D00E4BFB6012E07B68002B0DDC93
:1003D0007B682C2202FB03F30A4A1344386819464F
:1003E0002C2209F0D1FB0023FB6001E0064BFB60EF
:1003F000FB6818461037BD4680BD00BF5001002085
:1004000005001180240100200200118080B584B015
:1004100000AF7860134B1B7883F00103DBB2002B35
:1004200002D0114BFB6017E0104B1B68002B11DC56
:100430000E4B1B685A1C0D490A602C2202FB03F369
:100440000B4A1344184679682C2209F09DFB0023BF
:10045000FB6001E0074BFB60FB6818461037BD46A8
:1004600080BD00BF50010020050011805401002014
:10047000240100200100118080B58CB000AF00F095
:100480009DFA00F02FFA00F0B3FA022008210022B2
:10049000002300F0BDFA022006210022002300F014
:1004A000B7FA03200E210022002300F0B1FA032046
:1004B0000F210022002300F0ABFA03200D210022BF
:1004C000002300F0A5FA03200D217D2200F0E6FABA
:1004D000F862FB6A002B01D0FB6A27E0154B3B60FA
:1004E00001233B7400237B7480237B608023FB60AB
:1004F0007B68BB60104B7B61104BBB61104BFB6199
:10050000104B3B62104B7B62104BBB623B46184664
:10051000FFF77CFFF862FB6A002B06D13B461846CA
:10052000012100F025F800F03BF8FB6A184630374F
:10053000BD4680BD5CC8000071050000E9050000F3
:1005400059060000B50600007506000051050000C0
:1005500080B584B000AF78600023FB6000F02EFA15
:1005600000F0C0F9FB6818461037BD4680BD00BFDB
:1005700080B582B000AF78600B46FB70FB78002B33
:1005800004D003200F2100F065FA03E003200F21BF
:1005900000F072FA002318460837BD4680BD00BF40
:1005A00080B582B000AF03200E2100F053FA062080
:1005B00000F010FA0B4B1B7843F00403DBB29BB244
:1005C000FB80BB1D1846022100F0BEF9022000F09E
:1005D00001FA03200E2100F04FFA002318460837D5
:1005E000BD4680BD5801002080B487B000AFF860E0
:1005F000B9607A603B60BB68DB087A6802FB03F392
:100600007B61BB68802B01D00F4B16E00F4B1A6843
:100610007B6913440E4A934204D93B6800221A6056
:100620000C4B0AE0094B1A683B681A60074B1A68C2
:100630007B691344054A1360002318461C37BD46E6
:100640005DF8047B704700BF020011801800002095
:10065000DC0100200100118080B483B000AF78601D
:100660003960034B18460C37BD465DF8047B704774
:100670000400118080B586B000AFF860B9607A6080
:100680003B60BB687B6100233B610AE07869002125
:10069000102209F084FA7B6910337B613B690133D6
:1006A0003B613A693B689A42F0D3002318461837F9
:1006B000BD4680BD80B588B000AFF860B9607A6093
:1006C0003B60BB68BB61BB6A0133BB6203200E2188
:1006D00000F0C0F9062000F07DF9BB6A9BB21B0256
:1006E0009BB243F001039BB2FB8207F1160318464D
:1006F000022100F029F90023FB6126E0B8691021EE
:1007000000F022F9BB691033BB61FB6A5A1EFB691A
:100710009A4203D14FF6FF73FB820DE0BB6A9AB297
:10072000FB699BB213449BB201339BB21B029BB289
:1007300043F0FF039BB2FB8207F116031846022128
:1007400000F002F9FB690133FB61FA69FB6A9A4226
:10075000D4D3022000F03EF903200E2100F08CF9E2
:10076000002318462037BD4680BD00BF80B485B049
:1007700000AF786039607B6803F1C063FB60FB68A1
:100780003A681A601437BD465DF8047B704700BFB5
:1007900080B485B000AF786039607B6803F1806316
:1007A000FB60FB683A681A601437BD465DF8047B4D
:1007B000704700BF80B582B000AF03463960FB715F
:1007C000FB79002B1CD0FB79012B19D0FB79022B74
:1007D00016D0FB79032B13D0FB79042B10D0FB79B7
:1007E000052B0DD0FB79062B0AD0FB79072B07D000
:1007F000FB79082B04D0FB79092B01D0FB790A2B5C
:10080000FA7913465B0013441B010C3303F1804358
:1008100003F520433A68012101FA02F21846114615
:10082000FFF7B6FF0837BD4680BD00BF80B582B078
:1008300000AF03463960FB71FB79002B1CD0FB79BC
:10084000012B19D0FB79022B16D0FB79032B13D087
:10085000FB79042B10D0FB79052B0DD0FB79062BEF
:100860000AD0FB79072B07D0FB79082B04D0FB7942
:10087000092B01D0FB790A2BFA7913465B0013444C
:100880001B010C3303F1804303F520433A68012137
:1008900001FA02F218461146FFF768FF0837BD4615
:1008A00080BD00BF80B483B000AF78603960064A75
:1008B0007B6804331B0113443A685A600C37BD4609
:1008C0005DF8047B704700BF0020044080B582B013
:1008D00000AF7860396078683968FFF7E3FF083760
:1008E000BD4680BDB0B588B000AF0023FB61124BA0
:1008F0003C1D1D460FCD0FC495E8030084E803009E
:100900000E48012103F046F90D4BFB603B1D0D48DD
:10091000194606F071F90B4B0A225A67094A094B2E
:100920009B6F23F01F2343F00B239367FB6918464B
:100930002037BD46B0BD00BF74C80000005204009F
:10094000E06735000004014080B584B000AF7860F6
:1009500039600023FB6020E03B68012B04D07B68FA
:1009600003F00103002B0CD07B681B78124819465A
:1009700006F02CFA3B68013B3B607B6801337B60EF
:100980000BE07B681B880C48194606F035FA3B687B
:10099000023B3B607B6802337B603B68002BDBD112
:1009A00000BF054B1B6903F02003002BF9D0FB6847
:1009B00018461037BD4680BD0004014080B582B0A6
:1009C00000AF00237B6001F037F97B6818460837D9
:1009D000BD4680BD80B584B000AF78600023FB6069
:1009E000786801F0F1F9FB6818461037BD4680BD04
:1009F00080B582B000AF00237B600448012103F082
:100A0000C9F87B6818460837BD4680BD00350A0026
:100A100080B586B000AFF860B9603B601346FB71EB
:100A200000237B61FB79002B0DD10423FB7400BFF5
:100A3000FB68DAB2FB7C1046B9681A463B6804F0E2
:100A40008DFC7B6900E0024B18461837BD4680BD1F
:100A50000100138080B584B000AF78603960002356
:100A6000FB607B68DBB218463968FFF7DFFEFB6886
:100A700018461037BD4680BD80B584B000AF7860A1
:100A800039600023FB607B68DBB218463968FFF7EA
:100A900091FEFB6818461037BD4680BD80B588B012
:100AA00000AFF860B9607A600023FB614FF43063F7
:100AB000BB6102237B611348012103F06BF8042022
:100AC000B9697A6905F0C2FE0F4A0F4B5B6923F0E2
:100AD000070343F0040353610B4A0B4B9B6843F03D
:100AE00010039360FB68DBB21846B9680422002348
:100AF00004F034FC786800F01BF8FB6918462037D6
:100B0000BD4680BD00450A0000600E4080B582B041
:100B100000AF78600548012103F03CF878680A21AD
:100B200003F076FC0837BD4680BD00BF00250A00F3
:100B300080B588B000AF7860204A07F114031068D0
:100B4000516803C3127A1A7000233B761C48FFF7E2
:100B5000DDFF1C48012103F01DF800233B75002335
:100B60007B750123FB7507F11403184605F0FCFEA5
:100B7000154A07F10C0310681860918892799980E2
:100B80009A7101237B7307F10C030120194605F0CC
:100B9000ADFE0C4803F064F802467B68B2FBF3F349
:100BA000013B01201946FFF791FE084B00229A6095
:100BB000012005F0C9FE2037BD4680BD8CC800006D
:100BC00005002400A009140098C80000002004407B
:100BD00080B485B000AF786039607B6803F1C06392
:100BE000FB60FB683A681A601437BD465DF8047B09
:100BF000704700BF80B485B000AF786039607B6813
:100C000003F18063FB60FB683A681A601437BD46E5
:100C10005DF8047B704700BF80B582B000AF03462B
:100C20003960FB71FB79002B1CD0FB79012B19D0AB
:100C3000FB79022B16D0FB79032B13D0FB79042B05
:100C400010D0FB79052B0DD0FB79062B0AD0FB7950
:100C5000072B07D0FB79082B04D0FB79092B01D097
:100C6000FB790A2BFA7913465B0013441B010C3302
:100C700003F1804303F520433A68012101FA02F2AF
:100C800018461146FFF7B6FF0837BD4680BD00BFC6
:100C900080B582B000AF03463960FB71FB79002B51
:100CA0001CD0FB79012B19D0FB79022B16D0FB79D4
:100CB000032B13D0FB79042B10D0FB79052B0DD01F
:100CC000FB79062B0AD0FB79072B07D0FB79082B81
:100CD00004D0FB79092B01D0FB790A2BFA79134652
:100CE0005B0013441B010C3303F1804303F52043E5
:100CF0003A68012101FA02F218461146FFF768FF2F
:100D00000837BD4680BD00BF80B588B000AF7860B1
:100D10003448012102F03EFF7B681B68324A93424F
:100D200002D1324BBB6106E07B681B68304A9342BC
:100D300055D1304BBB61B869012102F02BFF7B68B4
:100D40001A797B685B79104619460A22012304F060
:100D500005FB7B689A797B68DB79104619460A2285
:100D6000012304F0FBFA0023FB6112E07B681A798F
:100D70007B685B7910461946FFF78AFF7B681A7912
:100D80007B685B7910461946FFF746FFFB69013324
:100D9000FB61FB69082BE9DD7B681B6803225A6451
:100DA0007B681B687A68527A11467A68127A120256
:100DB0000A439A6401233B7201237B727B681B699F
:100DC0003B617B68DB68FB607B681B7D3B757B68F8
:100DD0001A6807F108031046194604F07BFC203717
:100DE000BD4680BD4041050000C0004000820400B7
:100DF00000C400400092040080B584B000AF786069
:100E000039600E4BBB607868396804F0C9FE034650
:100E1000FB7304E0786804F097FC0346FB7397F9D2
:100E20000F30012B04D1BB685A1EBA60002BF1D1E0
:100E3000FB7B5BB218461037BD4680BDE0930400D3
:100E400080B483B000AF7860002318460C37BD46ED
:100E50005DF8047B704700BF80B483B000AF78605A
:100E6000FEE700BF80B483B000AF786039603B68B4
:100E70004FF400525A60002318460C37BD465DF807
:100E8000047B704780B483B000AF786001231846BC
:100E90000C37BD465DF8047B704700BF80B485B059
:100EA00000AFF860B9607A60002318461437BD4679
:100EB0005DF8047B704700BF80B586B000AFF86076
:100EC000B9607A6000237B6111E000F08BF8386133
:100ED0003B69B3F1FF3F09D0BB685A1CBA603A695D
:100EE000D2B21A707B6901337B6100E004E07B6859
:100EF0005A1E7A60002BE8D17B69002B02DC4FF090
:100F0000FF3300E07B6918461837BD4680BD00BF3F
:100F100080B485B000AF78600B4B1B68002B02D10A
:100F2000094B0A4A1A60084B1B68FB60064B1A689B
:100F30007B681344044A1360FB6818461437BD46A7
:100F40005DF8047B704700BFDC010020780A0020B8
:100F500080B586B000AFF860B9607A6000237B612D
:100F600009E0BB685A1CBA601B78184600F044F8C8
:100F70007B6901337B617A697B689A42F1DB7B682C
:100F800018461837BD4680BD80B58EB000AF07F15A
:100F9000080300201946FFF709FA78637B6B002BE2
:100FA00017D100233B6000233B7101237B713B463B
:100FB00018460A4900F07EF978637B6B002B08D154
:100FC000074B1B689B68184600210222002309F08A
:100FD00031FB7B6B18463837BD4680BDE0010020F1
:100FE000BC00002080B400AF4FF0FF331846BD4670
:100FF0005DF8047B704700BF80B582B000AF034648
:10100000FB71094B1B68002B08D0074B1A68FB7952
:101010001046194600F032FAFB7901E04FF0FF3339
:1010200018460837BD4680BDE001002080B584B079
:1010300000AF7860FF23BB730023FB7317E0786871
:10104000112106F0B7FA0346BB7397F90E3003F08F
:10105000E003202B00D10DE097F90E30002B03DACE
:1010600097F90E309BB206E0FB7B0133FB73FB7BF1
:10107000042BE4D900231BB218461037BD4680BDAF
:1010800080B584B000AF78600023FB6006F078FB89
:1010900006F076FB06F074FB78680B21012206F05F
:1010A00053FA03461A46FB681344FB6006F068FBDC
:1010B000FB689BB21BB218461037BD4680BD00BF0F
:1010C00080B584B000AF78600B46FB70FB78786821
:1010D0000B211A4606F038FA0346FB7397F90F30D6
:1010E000002B03D097F90F309BB200E000231BB216
:1010F00018461037BD4680BD80B582B000AF78601D
:1011000078681121FFF7DCFF034618460837BD4613
:1011100080BD00BF80B582B000AF786078681321D1
:10112000FFF7CEFF034618460837BD4680BD00BF17
:1011300080B584B000AF78600B46FB701346BB707F
:101140007868FFF773FF0346BB81B7F90C30002BBB
:1011500001D0BB893AE07868112106F02BFA0346EA
:1011600003F01F037B81BB783B72FB7803F03F03E6
:10117000DBB2803BDBB27B7207F1080378680A219F
:10118000022206F09DFA0346BB81B7F90C30002B12
:1011900001D0BB891AE07868112106F00BFA0346EA
:1011A000FB8105E07868112106F004FA0346FB8113
:1011B000FB8903F01F02B7F90A309A42F2D0B7F95F
:1011C0000C30002B01DABB8900E000231BB218466B
:1011D0001037BD4680BD00BF80B582B000AF7860DB
:1011E00078681221FFF76CFF034618460837BD46A2
:1011F00080BD00BF80B584B000AF786000237B73F2
:1012000005E07868112106F0D5F903467B7397F95C
:101210000D3003F0E003202BF3D10023FB7340E0FB
:101220000023BB7313E07868112106F0C3F903466D
:101230007B737B7B03F01F03002B00D10AE07868EF
:101240000B21002206F080F9BB7B0133BB73BB7B13
:10125000042BE8D97868FFF7BFFF0023BB730EE0CB
:101260007868112106F0A6F903467B737B7B03F0B7
:101270001F03002B00D005E0BB7B0133BB73BB7B9E
:10128000042BEDD97868112106F094F903467B739D
:101290007B7B03F01F03012B00D105E0FB7B0133B7
:1012A000FB73FB7B042BBBD900231BB21846103702
:1012B000BD4680BD90B587B000AF7860396000232F
:1012C0007B6100233B6117E0684A3B69582101FBC1
:1012D00003F3134450335B7983F00103DBB2002B3B
:1012E00007D03B69582202FB03F3604A13447B6139
:1012F00005E03B6901333B613B69002BE4DD7B6921
:10130000002B01D15A4BADE07B681A687B6904332E
:1013100010461946FFF74AF8B860BB68002B01D0A9
:10132000BB689FE07B695B7D002B24D17B69DC6916
:101330007B69191D7B699A687B693C3308461146B5
:101340000822A047B860BB68002B01D0BB6889E0C9
:101350007B699C6A7B69191D7B69DA6B7B699B6879
:10136000084611461A460823A047B860BB68002B00
:1013700004D0BB6876E07B690022DA633D4A3B69B2
:101380001B0113441A687B691B69DB089A4201D967
:10139000394B67E0374A3B691B0113445A687B6944
:1013A0009B68DB089A4201D9334B5BE0314A3B69C9
:1013B0001B0113441A687B695A632E4A3B691B015F
:1013C00013445A687B691A632A4A3B691B01134418
:1013D00008331A687B691A64264A3B691B01134467
:1013E00008335A687B695A647B681A687B691A609B
:1013F0007B681A797B6983F838207B685A797B6926
:1014000083F839200023FB6010E07B695A6CFB688D
:101410009B0013447A69116C7A69126BF86800FBBF
:1014200002F20A441A60FB680133FB607B695A6B65
:10143000FB689A42E9D87B69002283F848207B69DF
:10144000002283F849207B69002283F84A207869CA
:1014500000F086F87B69012283F855203B687A69A1
:101460001A60002318461C37BD4690BDE4010020D9
:10147000050012801C0000200200128080B584B09C
:1014800000AF78600B46FB707B68FB60FB6893F8ED
:10149000553083F00103DBB2002B01D02F4B58E015
:1014A000FB685B7D002B04D1FB68012283F854208C
:1014B00003E0FB68022283F85420FB6893F838307D
:1014C000002B0FD0FB68DB6C002B17D1FB681A6D6B
:1014D000FB685B6B013B9A4210D1FB68002283F8EA
:1014E00054200BE0FB68DB6C002B07D1FB681B6D05
:1014F000002B03D1FB68002283F85420FB780C2BCF
:101500000BD1F86800F02CF8FB68002283F8542017
:10151000F86800F0D1FA03461BE0FB6893F8393015
:10152000002B06D0FB780A2B03D1F8680D2100F0C0
:101530004FF9FB78F868194600F04AF9FB6893F810
:101540005430032B04D0F86800F0B6FA034600E0EC
:10155000002318461037BD4680BD00BF060012802C
:1015600080B582B000AF78607B685B6C002B16D0D2
:101570007B68196C7B685B6B7A68126B02FB03F308
:10158000084600211A4608F00AFB7B680022DA644C
:101590007B6800221A657B68002283F85420083794
:1015A000BD4680BD80B584B000AF78600023FB608D
:1015B00016E07B685A6CFB689B00134419687B68D3
:1015C0005A6CFB6801339B0013441A687B681B6BE1
:1015D000084611461A4608F0D7FAFB680133FB604B
:1015E0007B685B6B5A1EFB689A42E2D87B685A6C38
:1015F0007B685B6B03F18043013B9B0013441A68DB
:101600007B681B6B104600211A4608F0C8FA7B68FD
:101610000022DA647B685B6B5A1E7B681A657B6804
:10162000002283F854201037BD4680BD80B586B0B7
:1016300000AF786039600023FB733B681B2B0ED131
:1016400061480021042208F0AAFA3B68DAB25E4B36
:101650001A707B68032283F854200123AFE05A4BB1
:101660001B781B2B01D00023A9E0574B7B617B69C2
:1016700001337B617B691B78002BF8D13B68DAB2C0
:101680007B691A70504809F081F8B86000233B610B
:1016900076E03B699B004D4A13444B481946BA68B3
:1016A00009F07CF80346002B67D10123FB737B68AC
:1016B000032283F854203B699B00444A1344184694
:1016C00009F064F80246BB689A4255D13B69052B84
:1016D00047D801A252F823F0F1160000F1160000DD
:1016E000FF16000015170000311700004D1700000D
:1016F0007B6800221A657B680022DA6431E07B682F
:101700001B6D002B05D07B681B6D5A1E7B681A650C
:1017100027E026E07B681A6D7B685B6B013B9A4291
:1017200005D27B681B6D5A1C7B681A6519E018E0AE
:101730007B68DA6C7B681B6B013B9A4205D27B6845
:10174000DB6C5A1C7B68DA640BE00AE07B68DB6CBC
:10175000002B05D07B68DB6C5A1E7B68DA64FFE7E0
:1017600000BF19480021042208F019FA7B680322FF
:1017700083F85420012322E005E03B6901333B61FB
:101780003B69052B85DDFB7B83F00103DBB2002B7E
:1017900006D00D480021042208F001FA00230EE0D3
:1017A000BB68032B0AD108480021042208F0F7F98E
:1017B0007B68032283F85420012300E0FB7B18465A
:1017C0001837BD4680BD00BF3C020020C0CB0000E2
:1017D00080B582B000AF786039603B680A2B08D0D2
:1017E0000D2B02D0082B25D039E07B680022DA646B
:1017F00083E07B681B6D5A1C7B681A657B6800223E
:10180000DA647B681A6D7B685B6B9A4211D37B68E4
:1018100093F83830002B08D07868FFF7C3FE7B6858
:101820005B6B5A1E7B681A6503E07868FFF798FEC9
:1018300063E062E07B681B7D002B10D07B681B7D22
:10184000012B0CD07B68FF2283F848207B680022A4
:1018500083F849207B68002283F84A204DE07868AD
:101860003968FFF7E3FE0346002B00D045E0244B28
:101870001A683B68013313441B7803F09703002B6D
:1018800001D120233B607B68DA6C7B681B6B9A423A
:1018900007D37B680022DA647B681B6D5A1C7B6867
:1018A0001A657B681A6D7B685B6B9A4210D37B6804
:1018B00093F83830002B08D07868FFF773FE7B6808
:1018C0005B6B5A1E7B681A6502E07868FFF748FE7A
:1018D0007B685A6C7B681B6D9B0013441A687B689D
:1018E000DB6C13443A68D2B2203AD2B21A707B68E9
:1018F000DB6C5A1C7B68DA6400BF0837BD4680BDCC
:1019000058000020B0B58EB002AF786039607B68B7
:10191000DB6B7B620023BB62AEE00023FB622EE048
:101920007B685A6C3B689B0013441A68FB6A13443B
:101930001B78FB73FA7BBB6A642101FB03F313443E
:101940005B4AD35CBB737B681B7D002B04D0002BF0
:1019500010DB022B0EDC05E07A6AFB6A1344BA7BCB
:101960001A7009E07A6AFB6A1344BA7BD243D2B296
:101970001A7001E04F4B97E0FB6A0133FB627B6812
:101980001A6BFB6A9A42CBD87B681B7D022B6AD10B
:101990007B6893F84830DB09DBB2DAB27B6893F8F6
:1019A000493003F080039B11DBB21343DAB27B684A
:1019B00093F84A3003F080035B11DBB21343DBB2D0
:1019C000FB757B6A3B617B689B68DB08013BFB61C5
:1019D00046E000233B620023BB611BE0FB693A69E0
:1019E00013441B781A46BB6942FA03F303F0010360
:1019F000002B01D1FA7D00E00722B9690B465B009C
:101A00000B4402FA03F31A463B6A13433B62BB6979
:101A10000133BB61BB69072BE0DDFA6913465B004C
:101A200013441A463B6913443A6AD2B21A70FA69EF
:101A300013465B00134401333A6913443A6A120AAD
:101A4000D2B21A70FA6913465B00134402333A6942
:101A500013443A6A120CD2B21A70FB69013BFB6163
:101A6000FB69002BB5DA7B68DB68DB087A6A134414
:101A70007B62BB6A0133BB62BB6A072B7FF64DAF4B
:101A80007B685C6A7B68191D7B68DA6B7B681B6B03
:101A9000DD003B68DB0000930823019308461146F4
:101AA00000222B46A047034618463037BD46B0BD3E
:101AB000A0C8000004001280B0B586B002AF786004
:101AC0007B6893F85430012B76D0022B00F0828093
:101AD000002B02D000BF00237DE07B685B7D002BE4
:101AE00068D10023FB6006E07868F968FFF70AFF19
:101AF000FB680133FB607B685A6BFB689A42F3D842
:101B00007B685B6BDA007B681B699A4251D27B6809
:101B10001B7D012B0ED0022B17D0002B23D17B680D
:101B2000DA6B7B689B68DB08104600211A4608F0D8
:101B300036F81AE07B68DA6B7B689B68DB08104636
:101B4000FF211A4608F02BF80FE07B68D96B7B6801
:101B50009A6813465B001344DB080846FF211A46C7
:101B600008F01DF801E01E4B35E07B685B6BDB0085
:101B7000FB6019E07B685C6A7B68191D7B68DA6B27
:101B80007B689D68FB68009301230193084611461A
:101B900000222B46A047B860BB68002B01D0BB6871
:101BA00019E0FB680133FB607B681A69FB689A42A5
:101BB000E0D801E00A4B0EE07B685B7D002B07D18B
:101BC0007B681B6D78681946FFF79CFE034602E0B0
:101BD000034B00E0024B18461037BD46B0BD00BFB6
:101BE0000400128080B483B000AF0346FB7197F904
:101BF0000730002B0CDB094997F907305B09FA79AC
:101C000002F01F02012000FA02F2603341F82320A3
:101C10000C37BD465DF8047B704700BF00E100E073
:101C200080B400AF034B9B681846BD465DF8047B4B
:101C3000704700BF0020044080B58AB000AF002389
:101C400087F82730002387F82630002387F82530CF
:101C5000002387F82430002387F82330544A3B467A
:101C60001068516803C3127A1A700023FB610023C5
:101C7000BB61504BD3F8B03003F00403002B06D106
:101C80004D48012101F086FF012387F827304B489A
:101C900002F0DEFA0346FB75FB7D032B02D0012325
:101CA00087F82530434BD3F8903003F04003002BE6
:101CB00002D1012387F824304048032102F0A8FB19
:101CC0003F4801F04BFF38613A4BD3F8F03003F056
:101CD0000103002B06D13A48012101F05BFF0123EB
:101CE00087F8263002F032FFF860364B1B6803F0AD
:101CF0000103002B15D0334B1B68FB61314B5B6A32
:101D0000BB61304B00221A602E4B00225A622D4BD1
:101D100040F2FF721A621E20FFF764FF012387F86A
:101D200023300023BB700023FB7008233B713B462C
:101D3000184604F019FE00F063F8F86802F016FF88
:101D400097F82330002B0AD01D48396901F014FFA1
:101D50001C4AFB6913601B4ABB69536202E0002006
:101D600004F0F2FD97F82630002B03D01448002130
:101D700001F010FF97F82530002B04D0FB7D0F48B1
:101D8000194602F045FB97F82430002B04D00120BF
:101D90000021002202F0C0FC97F82730002B03D06E
:101DA0000548002101F0F6FE2837BD4680BD00BF82
:101DB000D8CB000000400E4000250A00050024009A
:101DC000A00914000020044080B483B000AF786004
:101DD0007B680A49002B0CD0013B8822120200329A
:101DE00053430A68D80AD20A5043800901D0013807
:101DF000FDD80C37BD465DF8047B70472C000020F1
:101E000080B584B000AF0823BB60324B4FF48052E2
:101E10001A601BE000F060F8786000BF00F05CF82A
:101E200002467B689A42F9D000F056F87860294B58
:101E30001B68184600F058F800F04EF802467B6820
:101E4000D31A7B607B68002B00D006E0214B1B6817
:101E50005B00204A1360002BDCD11E4B1B685B0823
:101E60001C4A13601B4B1B68FB6024E0194B1A686B
:101E7000FB681343174A136000F02EF8786000BF28
:101E800000F02AF802467B689A42F9D000F024F864
:101E90007860104B1B68184600F026F800F01CF81C
:101EA00002467B689A4206D0FB68DA43094B1B68FE
:101EB0001340084A1360BB685A1EBA60002B05D055
:101EC000FB685B08FB60FB68002BCFD11037BD4679
:101ED00080BD00BF2C00002080B500AFFFF7A0FE42
:101EE0000346184680BD00BF80B483B000AF786061
:101EF0007B68013BFDD80C37BD465DF8047B70471D
:101F000080B584B000AF78603960214B1B7883F0D6
:101F10000103DBB2002B01D01E4B34E07B68002BA9
:101F200001D11D4B2FE002F011FEB8600023FB60D1
:101F300022E01A4AFB681B01134408331B7983F023
:101F40000103DBB2002B14D0FA687B681A60134AD5
:101F5000FB681B011344083301221A710F4AFB6806
:101F60001B01134400221A60B86802F0FFFD002331
:101F700009E0FB680133FB60FB68072BD9DDB8681B
:101F800002F0F4FD064B18461037BD4680BD00BF79
:101F900040020020028000F0018000F04402002096
:101FA000048000F080B584B000AF194A3B1D106872
:101FB000186000233B7102F0C9FDB860154B1B7817
:101FC000002B04D0B86802F0D1FD134B1CE0114B7C
:101FD00001221A70B86802F0C9FD0023FB6009E015
:101FE0000E4AFB681B011344083300221A71FB6878
:101FF0000133FB60FB68072BF2DD0423FB713B1D03
:10200000184603F0B3FE002318461037BD4680BDC6
:10201000E4CB000040020020038000F044020020D6
:1020200080B58CB008AFF860B9607A603B607B68BF
:1020300000933B680193002302933B7E0393FB696B
:10204000049397F8203005937B6A0693BB6A079345
:1020500000200021FA68BB6800F098F80346184693
:102060001037BD4680BD00BF80B58CB008AFF860AA
:10207000B9607A603B607B6800933B680193002302
:1020800002933B7E0393FB69049397F820300593FA
:102090007B6A0693BB6A079300200121FA68BB683C
:1020A00000F074F8034618461037BD4680BD00BFE7
:1020B00080B586B000AF324B1B6EFB60304BDB6EE1
:1020C000FA681340FB60FB68002B00DAFEE7002390
:1020D0007B6101233B614CE0FA683B691340002BB4
:1020E00041D0274A3B6993667B691B01254A13440B
:1020F000BB60BB681B68002B35D0BB689B685A1C53
:10210000BB689A60BB681B68BA689168BA68526815
:10211000786998470346002B14BF01230023DBB2E4
:1021200083F00103DBB2FB71FB7903F00103FB7168
:10213000BB685B7B012B16D1FB79002B13D0124AB5
:102140007B695B01134403F1080213796FF34103C8
:1021500013710D4A7B695B01134403F11802137973
:102160006FF3410313717B6901337B613B695B0052
:102170003B617B69072BAFD91837BD4680BD00BFD7
:1021800000200E4044020020C402002090B58BB015
:1021900000AFBA607B600346FB730B46BB73884B92
:1021A0001B7883F00103DBB2002B01D0854B03E1E8
:1021B000BB68072B0FD8BB6B002B0CD0FB6B002B25
:1021C00009D0BB6CB3F5006F05DCFB7B012B04D1A0
:1021D0003B6C002B01D17C4BEEE0BB681B017B4AC2
:1021E00013447B627B6A1B7B83F00103DBB2002B11
:1021F00001D0774BE0E000233B6100233B750023D7
:102200007B750023BB750023FB7500233B76002301
:102210007B760023BB760023FB7600233B770023ED
:102220007B77BB685B016B4A13443B62BB7B002B33
:1022300023D13B6A00221A60043300221A6004335F
:1022400000221A60043300221A6004333A6A937839
:1022500043F0100393703A6AD37843F03003D3709D
:1022600097F8443083F00103DBB2002B28D03A6AA0
:10227000D37843F00303D37022E03B6A00221A6054
:10228000043300221A60043300221A60043300224F
:102290001A6004333A6A937843F0100393703A6AF1
:1022A000D37843F00303D37097F8443083F00103ED
:1022B000DBB2002B04D03A6AD37843F03003D370FA
:1022C0007B683B61BB6C9BB2013B9BB2C3F30A03CF
:1022D00099B23A6A138861F30E131380BA6B3B6AA2
:1022E0009A60FA6B3B6A5A6097F84C3003F003032C
:1022F000D9B23A6AD37861F38303D370FB7B012BA5
:102300003AD13A6A137B43F0010313733A6A137BA1
:1023100043F0020313733A6AD368042161F39F0305
:10232000D3602C4ABB685B01134403F110023B6A83
:1023300014460FCB84E80F00264ABB685B011344A8
:1023400003F1180253686FF0030161F39F035360B8
:102350003A6C2049BB685B010B4410335A60BB7B6D
:10236000012B09D1FA6B1B49BB685B010B44183385
:102370001A603A6C3B6A5A603B6D002B07D1FB7BBD
:10238000002B04D13A6A93786FF3041393707B6A3D
:102390003A6D1A607B6A7A6D5A607B6A00229A6095
:1023A0007B6AFA7B5A73BA6807F110031046194624
:1023B0003A6A03F019FD002318462C37BD4690BD3C
:1023C00040020020028000F0018000F04402002062
:1023D000078000F0C402002080B483B000AF034641
:1023E000FB7197F90730002B0BDB084997F9073091
:1023F0005B09FA7902F01F02012000FA02F241F8AB
:1024000023200C37BD465DF8047B704700E100E0F7
:1024100080B483B000AF0346FB7197F90730002BFF
:102420000CDB094997F907305B09FA7902F01F02C2
:10243000012000FA02F2603341F823200C37BD4638
:102440005DF8047B704700BF00E100E080B485B018
:1024500000AF78607B68002B04D07B68B3F5004F39
:1024600000D800BF7B68B3FA83F3DBB2C3F11F036C
:10247000FB60FB6818461437BD465DF8047B704767
:1024800080B483B000AF7860054A7B6804331B01D9
:1024900013445B6818460C37BD465DF8047B7047F3
:1024A0000020044080B483B000AF78603960064AF1
:1024B0007B6804331B0113443A685A600C37BD46ED
:1024C0005DF8047B704700BF0020044080B582B0F7
:1024D00000AF78607868FFF7D3FF034618460837E7
:1024E000BD4680BD80B582B000AF78603960786845
:1024F0003968FFF7D7FF0837BD4680BD80B400AF0D
:10250000034B9B681846BD465DF8047B704700BFCF
:102510000020044080B483B000AF7860034A7B6839
:1025200013620C37BD465DF8047B70470020044001
:1025300080B483B000AF78600549054B5A6A7B6868
:10254000DB4313404B620C37BD465DF8047B70479C
:102550000020044080B483B000AF78600549054B8B
:102560005A6A7B6813434B620C37BD465DF8047BA7
:10257000704700BF0020044080B483B000AF064B1A
:102580005B6A7B60044B9A697B68134018460C3782
:10259000BD465DF8047B70470020044080B586B0DE
:1025A00000AF786000237B6100233B61204B1B78E8
:1025B00083F00103DBB2002B01D01E4B33E002F0AD
:1025C000C5FAF86002E07B6901337B617B69032B0C
:1025D0000ADC19497A6913469B001344DB000B445B
:1025E00018339B79002BEED17B69042B02D1134B5E
:1025F0003B6114E07B68002B0FD00F497A691346CA
:102600009B001344DB000B44183301229A717A6952
:102610007B681A6000233B6101E0094B3B61F8686D
:1026200002F0A4FA3B6918461837BD4680BD00BFCA
:1026300072040020061000F0C8030020011000F012
:10264000041000F080B584B000AF78601F490978AD
:1026500081F00101C9B2002901D01D4B32E0796837
:1026600008464FF00001CB0343EA5043C20312F582
:10267000FA7243F10003104619464FF47A724FF094
:10268000000306F079FF02460B46C7E902230AE081
:102690006FF0640000F0CEFBD7E90223653243F10E
:1026A000FF33C7E90223D7E902236FF064004FF03C
:1026B0000001994208BF9042EAD3BB68184600F077
:1026C000B9FB002318461037BD4680BD72040020B8
:1026D000061000F080B500AF224B1B78002B01D014
:1026E00000233CE02048012101F054FA1F48032157
:1026F00001F08EFE0120FFF7A9FE0346DAB21C4B63
:102700001A711C48012101F045FA194804F02CF90E
:102710000120194904F0EAF840F2FF70FFF708FFC2
:1027200040F2FF70FFF7F6FE144B00229A601E2065
:10273000FFF76EFE1E20FFF74FFE11480021A0227A
:1027400007F02DFA0F4B00221A700F4B00221A705F
:102750000E4B00221A60034B01221A700023184608
:1027600080BD00BF7204002000250A00050024007F
:1027700030000020A00914003C000020002004408C
:10278000C803002070040020710400206C040020A5
:10279000B0B58EB000AFF8607A603B600B46FB725C
:1027A00000233B638F4B1B7883F00103DBB2002BCC
:1027B00001D08D4B7BE1FB68032B01D98B4B76E17C
:1027C00002F0C4F9F8628A49FA6813469B00134480
:1027D000DB000B4418339B7983F00103DBB2002B41
:1027E00004D0F86A02F0C2F9824B60E17B68002BEA
:1027F0000BD13B68002B03D03B68F868B96C984755
:10280000F86A02F0B3F9002351E1FFF777FE78632D
:102810007749FA6813469B001344DB000B441833D6
:102820003A681A607B681A464FF00003DD0345EAF8
:102830005245D40314F5FA7245F1000310461946C7
:102840004FF47A724FF0000306F096FE02460B46F4
:1028500010461946664CFA6813469B001344DB0089
:1028600023440833C3E90001FB7A012B28D17B689C
:102870004FF47A7202FB03F15D48FA6813469B003D
:102880001344DB0003440833D3E9002313461B0140
:102890009B1A5B00CB1A18465549FA6813469B00F1
:1028A0001344DB000B44103318605149FA68134697
:1028B0009B001344DB000B4410330F225A6013E0DB
:1028C0004B49FA6813469B001344DB000B44083362
:1028D000D3E90001464CFA6813469B001344DB0021
:1028E00023440833C3E900014149FA6813469B00B9
:1028F0001344DB000B440833D3E90023501C43F19D
:1029000000013B4CFA6813469B001344DB00234450
:10291000C3E900013649FA6813469B001344DB0003
:102920000B44183301221A713149FA6813469B008F
:102930001344DB000B441833FA7ADA712C49FA6835
:1029400013469B001344DB000B442033BA6C1A601F
:10295000294B1B78002B04D0F86A02F007F90023FA
:10296000A5E0264B1B68B3F1FF3F04D0234B1B6847
:102970000133224A1360224B1B7883F00103DBB240
:10298000002B41D01F4A7B6B13600420FFF7C2FD70
:102990001749FA6813469B001344DB000B44D3E944
:1029A0000023C7E908236FF06403FB61FB69184645
:1029B0004FF00001D7E908238B4208BF824201D2C1
:1029C000104619460346BB617A6BBB69134401206C
:1029D0001946FFF787FD0420FFF7BCFD084B0122D5
:1029E0001A7057E072040020061000F0021000F088
:1029F000C8030020031000F0700400206C040020C5
:102A000071040020680400202B4B1B68012B41D16E
:102A10002A49FA6813469B001344DB000B44183321
:102A200000221A710420FFF783FD254B1B687A6B87
:102A3000D31A7B61786900F099F800F013FA3B6BC8
:102A4000002B09D11D49FA6813469B001344DB0093
:102A50000B44183301221A713B6B01333B63786BD3
:102A600000F032FAFFF74AFD7863154B1B687A6B6A
:102A7000D31A7B610120FFF729FD0246104B1B682A
:102A8000D31A3B610F4B1B78002B03D07A693B694B
:102A90009A42C7D2084B1B68002B04D0064B1B6818
:102AA000013B054A1360F86A02F060F800231846FB
:102AB0003837BD46B0BD00BF6C040020C8030020FD
:102AC000680400207104002080B586B000AF02F0D9
:102AD0003DF83861FFF750FDF860FB6823F005030F
:102AE0001846FFF717FDFB6803F00403002B30D0F6
:102AF0001B4B01221A70FFF701FD78610420FFF7DC
:102B000017FD184B1B687A69D31ABB60B86800F0D0
:102B10002DF800F0A7F9786900F0D6F9FFF7EEFC80
:102B20007861104B1B687A69D31ABB600120FFF7EC
:102B3000CDFC02460B4B1B68D31A7B600A4B1B78FB
:102B4000002B03D0BA687B689A42D7D2044B00228C
:102B50001A70386902F00AF81837BD4680BD00BF08
:102B6000700400206804002071040020B0B586B015
:102B700000AF786000237B6153E1AD497A69134669
:102B80009B001344DB000B44183300225A71A84900
:102B90007A6913469B001344DB000B4418331B79FE
:102BA000002B00F03B81A2497A6913469B00134435
:102BB000DB000B44D3E90023796808464FF000019D
:102BC000994208BF904219D299497A6913469B00ED
:102BD0001344DB000B44D3E900017B681A464FF035
:102BE0000003801A61EB0301914C7A6913469B0044
:102BF0001344DB002344C3E900010FE18C497A69E7
:102C000013469B001344DB000B441833DB79002B85
:102C10000AD187497A6913469B001344DB000B44B1
:102C2000183300221A71E4E07B6818464FF0000167
:102C30007F4C7A6913469B001344DB002344D3E99D
:102C40000023821A61EB0303C7E9022378497A69FA
:102C500013469B001344DB000B440833D3E90045C3
:102C600073497A6913469B001344DB000B44083315
:102C7000D3E90023D7E9020106F07EFC204629466D
:102C8000801A61EB03016A4C7A6913469B00134476
:102C9000DB002344C3E9000165497A6913469B00C0
:102CA0001344DB000B4410331B68002B50DD6049DC
:102CB0007A6913469B001344DB000B4410335968B8
:102CC0005B487A6913469B001344DB0003441033CE
:102CD0001B68194456487A6913469B001344DB006D
:102CE00003441033596052497A6913469B001344D8
:102CF000DB000B4410335B681D2B7AD94C497A6991
:102D000013469B001344DB000B44D3E90023501C03
:102D100043F10001464C7A6913469B001344DB00E3
:102D20002344C3E9000142497A6913469B001344D6
:102D3000DB000B4410335B68A3F11E013C487A6949
:102D400013469B001344DB0003441033596050E0EA
:102D500037497A6913469B001344DB000B44103358
:102D6000596833487A6913469B001344DB000344D7
:102D700010331B68C91A2E487A6913469B00134406
:102D8000DB0003441033596029497A6913469B00DC
:102D90001344DB000B4410335B681D2B29D92449F5
:102DA0007A6913469B001344DB000B44D3E90023EC
:102DB00012F1FF3043F1FF311D4C7A6913469B003D
:102DC0001344DB002344C3E9000119497A6913461F
:102DD0009B001344DB000B4410335B68A3F11E011E
:102DE00013487A6913469B001344DB0003441033F5
:102DF00059600F497A6913469B001344DB000B446A
:102E000018331B68002B09D009497A6913469B00C7
:102E10001344DB000B44183301225A717B690133E0
:102E20007B617B69032B7FF7A8AE1837BD46B0BD29
:102E3000C803002080B584B000AF78607B68002BA9
:102E40000CD0FFF75BFBF860FFF758FB0346BB6055
:102E5000BA68FB68D21A7B689A42F5D31037BD4630
:102E600080BD00BF90B583B000AF00237B6022E03F
:102E700014497A6813469B001344DB000B44183353
:102E80005B79002B14D00F497A6813469B001344DA
:102E9000DB000B4418331C6878680A497A681346CB
:102EA0009B001344DB000B4420331B681946A047EA
:102EB0007B6801337B607B68032BD9DD0C37BD4613
:102EC00090BD00BFC803002080B58AB000AF786015
:102ED0004FF0FF324FF0FF33C7E9062300237B6238
:102EE00027E030497A6A13469B001344DB000B4409
:102EF00018331B79002B19D02A497A6A13469B0094
:102F00001344DB000B44D3E90001D7E906239942BF
:102F100008BF90420AD223497A6A13469B001344A1
:102F2000DB000B44D3E90023C7E906237B6A0133A6
:102F30007B627B6A032BD4DD1B4B00221A70D7E91E
:102F40000623B3F1FF3F08BFB2F1FF3F27D0D7E917
:102F50000623C7E904236FF06403FB60FB681A468D
:102F60004FF00003D7E90401994208BF904201D213
:102F700002460B46C7E906230C4A7B68136004200F
:102F8000FFF7C8FABA697B68134401201946FFF7B6
:102F9000A9FA054B01221A700420FFF7DBFA283743
:102FA000BD4680BDC80300207104002068040020D5
:102FB00080B487B000AFF860B9607A60FB6803F155
:102FC0000473DA00BB6813449B007B617B697A68F9
:102FD0001A601C37BD465DF8047B704780B485B02D
:102FE00000AF786039607B6803F1C063FB60FB6809
:102FF0003A681A601437BD465DF8047B704700BF1D
:1030000080B485B000AF786039607B6803F180637D
:10301000FB60FB683A681A601437BD465DF8047BB4
:10302000704700BF80B584B000AFF860B9607A60C7
:10303000F868B968FFF7E4FFF8687968FFF7CEFF32
:103040001037BD4680BD00BF80B489B000AF786046
:103050000B46FB701346BB70BB78002B04D01023CB
:103060007B61644BBB6103E000237B61624BBB610E
:103070007B685A6BBB6913403B610023FB617B6833
:103080005E4A934205D15E4BFB60FB78022B40D039
:1030900000E0A9E0022B04DC002B09D0012B1DD09D
:1030A00098E0062B6CD0812B7BD0032B4AD091E08B
:1030B000FB681B6803F4FE43FA691343FB61FB687A
:1030C0001B6803F00F03FA691343FB61FB681B687D
:1030D00003F0F003FA691343FB617EE0FB681B68B1
:1030E00003F0FE431B0E1B02FA691343FB61FB68EE
:1030F0001B6803F470231B0CFA691343FB61FB6824
:103100001B6803F470031B0D1B01FA691343FB6179
:1031100063E0FB6804331B6803F4FE43FA6913435E
:10312000FB61FB6804331B6803F00F03FA69134368
:10313000FB61FB6804331B6803F0F003FA69134377
:10314000FB614AE0FB6804331B6803F0FE431B0E7F
:103150001B02FA691343FB61FB6804331B6803F429
:1031600070231B0CFA691343FB61FB6804331B6873
:1031700003F470031B0D1B01FA691343FB612CE080
:10318000FB6808331B6803F00F03FA691343FB6104
:10319000FB6808331B6803F0F003FA691343FB6113
:1031A0001BE0FB6804331B6803F4FE43FA69134316
:1031B000FB61FB6804331B6803F00F03FA691343D8
:1031C000FB61FB6804331B6803F0F003FA691343E7
:1031D000FB6102E00023FB6100BF7B69FA699A4052
:1031E0003B691A437B685A632437BD465DF8047B0C
:1031F000704700BFFFFF00800080FFFF00200040FD
:103200001082E00F80B588B000AF786039603B680D
:10321000DB78FB76FB7E002B06D12B48002100F0EB
:10322000F1F80346FB760EE07B681B6803F0800331
:10323000002B08D12448002100F0E4F84FF4FA40B4
:10324000002100F0DFF87B680A229A603B681B7857
:103250001A063B689B781B0403F4FE031A43FB7EAB
:103260001B0203F4FE4313433A6852781343FB6195
:103270003B681B79002B03D0FB6943F01003FB6113
:103280007B68FA691A607A683B685B791046C021EE
:103290001A46FFF7C7FE7B681B6803F08003002B0C
:1032A0000FD00A4B7B6100233B61786900F0D8FCAA
:1032B000F8607B68064A934203D1064800F0D0FCD0
:1032C00038612037BD4680BD0024F400B8003200CC
:1032D0000020004000D2040080B584B000AF7860C8
:1032E00039607B6802229A603B689B78786819464F
:1032F0000022FFF7A9FE3B685B781A063B681B7942
:103300001B021A433B685B791B041A433B68DB785A
:10331000DB001343FB603B68DB79002B03D0FB68C9
:1033200043F00053FB603B681B7A002B03D0FB6823
:1033300043F00403FB603B689B79002B03D0FB68E0
:1033400043F00203FB603B685B7A002B03D0FB6811
:1033500043F00103FB603B681B79F32B0DD13B6805
:103360009B78002B09D13B685B78032B05D8FB6861
:1033700023F0706343F08063FB603B689B78DBB2B3
:103380005BB2002B04DAFB6843F0E003FB6005E06E
:103390003B689B785B01FA681343FB607B68FA68C3
:1033A0001A617B685B6923F4F21323F00703FB6067
:1033B0003B689B78DBB25BB2002B06DA3B689B78FC
:1033C00023F08003FA681343FB603B681B785B04BF
:1033D000FA681343FB603B68DB7A002B03D0FB6881
:1033E00043F48043FB607B68FA685A617A683B6803
:1033F0009B7A104602211A46FFF7DAFD1037BD46C8
:1034000080BD00BF80B584B000AF786039607B6854
:10341000164A934202D9154B7B6006E07B68B3F5F0
:10342000FA4F02D24FF4FA437B603B68002B03D182
:103430000F4800F015FC38603A687B6813445A1E48
:103440007B68B2FBF3F3FB60FB68002B02D0FB68E8
:10345000013BFB60FB687F2B01D97F23FB60FB688E
:10346000DBB218461037BD4680BD00BF0024F40013
:103470004041050080B582B000AF78607B68002BCA
:1034800008D10E4800F0ECFB78607B68002B01D17E
:1034900001237B607B6803F5742303F23F237B6089
:1034A0007B68074AA2FB03239B0C7B607B68DBB233
:1034B000013BDBB218460837BD4680BD40410500E0
:1034C00083DE1B4380B487B000AFF860B9607A60D8
:1034D000FB6803F10473DA00BB6813449B007B6153
:1034E0007B697A681A601C37BD465DF8047B7047BB
:1034F00080B485B000AF786039607B6803F10473F5
:10350000DA003B6813449B00FB60FB681B681846AD
:103510001437BD465DF8047B704700BF80B483B0AC
:1035200000AF78607B68012202FA03F318460C377B
:10353000BD465DF8047B704780B584B000AF78600D
:103540007B680133B3FA83F3DBB2C3F11F03FB6083
:10355000F868FFF7E3FFFB6818461037BD4680BDEB
:1035600080B500AF00BF04481221FFF7C1FF03463A
:10357000002BF8D180BD00BF04300E4080B500AFF5
:10358000FFF7EEFF034B5B6803F440331B0CDBB229
:10359000184680BD00300E4080B584B000AF786022
:1035A0000123FB607B68124A934204D80023FB602E
:1035B0000023BB6008E07B680E4A934202D80123D7
:1035C000BB6001E00223BB600B481021FA68FFF7E3
:1035D00079FF0949084BD3F8003123F08072BB68AA
:1035E0001B061343C1F800311037BD4680BD00BF34
:1035F0000048E8010090D00300400E4080B483B042
:1036000000AF054B1B687B607B6818460C37BD46D6
:103610005DF8047B704700BF4400002080B582B095
:1036200000AFFCF71FFE7860064BD3F8003103F4BF
:10363000F8531B0A01337A6802FB03F31846083774
:10364000BD4680BD00400E4080B582B000AF0D4841
:1036500000F0FEFD0346FB70FB78072B05D0092B1D
:1036600007D1FCF7FFFD786006E0FFF7C7FF786041
:1036700002E000237B6000BF7B6818460837BD4628
:1036800080BD00BF06000E0080B584B000AF78603A
:103690007B68002B1CD11B4800F0DAFD0346FB724F
:1036A00000BFFB7A013B072B23D801A252F823F07D
:1036B000D5360000F3360000F3360000E336000094
:1036C000F3360000F3360000DB360000EB36000076
:1036D000002312E00023FB600EE0FFF78FFFF8608D
:1036E0000AE0FCF7F7FDF86006E0FFF797FFF860E7
:1036F00002E00023FB6000BFFB6818461037BD46A0
:1037000080BD00BFB800320080B485B000AF7860E3
:1037100039601D4B5B6803F04073FB600023BB60A6
:1037200013E01A4ABB68DB0013441A793B68DBB22A
:103730009A4207D1154ABB6852F833207B689A42F7
:1037400000D305E0BB680133BB60BB68042BE8D93C
:10375000BB68052B02D10323FB6005E00B4ABB6865
:10376000DB0013445B79FB60FB681B06FB600649CA
:10377000054B5B6823F04072FB6813434B601437C2
:10378000BD465DF8047B704700000E40E8CB0000AA
:1037900080B582B000AF0D4B1B6C002B14BF012312
:1037A0000023FB71094B41F671321A64FCF750FD9E
:1037B000034618460021FFF7A7FFFB79002B02D034
:1037C000024B00221A640837BD4680BD00000E403F
:1037D00080B584B000AF786039600C4B1B6C002B57
:1037E00014BF01230023FB73084B41F671321A64A6
:1037F00078683968FFF788FFFB7B002B02D0034B0A
:1038000000221A641037BD4680BD00BF00000E4084
:1038100080B487B000AF78600F237B617B6803338F
:103820003B617B69FB60FA683B69934228BF1346A2
:10383000BB60BB681B07BB60BB6818461C37BD4636
:103840005DF8047B704700BF80B400AF044B5B6A37
:1038500003F030031B091846BD465DF8047B704732
:1038600000400E4080B483B000AF78600649064B3C
:103870005B6A23F030027B681B0113434B620C37F9
:10388000BD465DF8047B704700400E4090B585B0A2
:1038900000AF78600023BB607B68354A934206D056
:1038A000344A934203D0344A934200D000E000BF30
:1038B000786800F0CDFC0346FB607B682C4A93429D
:1038C0000DD02C4A934211D02B4A934200D014E0E1
:1038D0002A4BD3F8803003F00703FB600DE0274B41
:1038E000D3F8843003F00703FB6006E0234BD3F8E2
:1038F000883003F00703FB6000BFFB68042B2ED861
:1039000001A252F823F000BF593900001D39000010
:1039100025390000353900002D390000FCF7FCFC8A
:10392000B8601FE0FCF70CFDB8601BE0FCF7FEFC84
:10393000B86017E0FCF76AFC0446104BD3F800317E
:1039400003F080731B0E01331846FFF7E7FD0346B3
:10395000B4FBF3F3BB6005E00023BB6002E000238F
:10396000BB6000BFBB6818461437BD4690BD00BFA2
:10397000030020000500240002001E0000400E404D
:1039800080B483B000AF78600A4BD3F8443103F0C1
:103990000103002B00D007E000BF064BD3F8402105
:1039A0007B681340002BF8D10C37BD465DF8047BD3
:1039B000704700BF00400E4080B400AFBD465DF8C8
:1039C000047B704780B400AFBD465DF8047B704750
:1039D00080B483B000AF78607B68294A93422FD0CF
:1039E000274A934210D8274A934221D0254A93422E
:1039F00003D8254A93421BD03AE0244A934217D079
:103A0000234A934218D033E0224A934224D0214AD9
:103A1000934206D8204A934216D0204A934217D0A8
:103A200026E01F4A93421BD01E4A93421CD01FE03F
:103A30001D4BD3F8E0301CE01B4BD3F8EC3018E002
:103A4000194BD3F8F83014E0174BD3F8FC3010E0E2
:103A5000154BD3F800310CE0134BD3F8083108E0D4
:103A6000114BD3F80C3104E00F4BD3F8103100E0C8
:103A7000002318460C37BD465DF8047B704700BF35
:103A8000405DC60080841E0040420F0000093D00DA
:103A9000C0CF6A0080BA8C010024F400C0EA210182
:103AA0000048E80180D54302B081E00F80B400AF48
:103AB000034B1B681846BD465DF8047B704700BF8A
:103AC0004400002080B584B000AF78607868FFF7CC
:103AD0007FFFF860FB68002B04D0FB68B3F1FF3F69
:103AE00000D000BF174A7B68136000BF1648192139
:103AF000FFF7FEFC0346002BF8D17B68134A934284
:103B00000DD0134A934211D0124A934200D012E0D2
:103B1000FB6823F0C06343F08063FB600BE0FB684D
:103B200023F0C06343F00073FB6004E0FB6823F004
:103B3000C063FB6000BF084AFB6893611037BD4655
:103B400080BD00BF4400002040410E4080841E0024
:103B500000093D0040420F0000400E4080B582B099
:103B600000AF7860786800F083F9034601331846A7
:103B70000837BD4680BD00BF80B582B000AF786019
:103B800039603B68013B7868194600F035FA083720
:103B9000BD4680BD80B586B000AF78600B46FB7037
:103BA00000233B617B681B0A03F00F03013B092BD9
:103BB00044D801A252F823F0E13B0000ED3B0000A5
:103BC0003D3C00003D3C0000E73B0000F33B0000B3
:103BD000FD3B00003D3C0000073C0000133C0000A2
:103BE000184B7B6118E0184B7B6115E0174B7B612C
:103BF00012E0174B7B6101233B610DE0154B7B61AC
:103C000010233B6108E0144B7B614FF480333B6130
:103C100002E0124B7B6100BF7B681B0B03F01F03AC
:103C2000FB603B69002B02D03869FFF7A9FEFB78E7
:103C30007869F9681A46FFF745FC00E000BF1837BD
:103C4000BD4680BD00400E40B0400E40C0400E401A
:103C5000E0400E40E8400E40F0400E4050410E4023
:103C600080B584B000AF78607B6803F47813B3F557
:103C7000A01F7DD0B3F5A01F1AD8B3F5202F50D0C8
:103C8000B3F5202F08D8B3F5003F4ED0B3F5802F01
:103C900038D0002B32D0D8E0B3F5602F00F0C880C8
:103CA000B3F5801F00F0C880B3F5402F4CD0CCE0B6
:103CB000B3F5001F00F08B80B3F5001F0AD8B3F5F1
:103CC000D01F00F08980B3F5F01F4CD0B3F5B01FC2
:103CD0005CD0BAE0B3F5381F6AD0B3F5381F04D80A
:103CE000B3F5101F00F09F80AFE0B3F5401F00F068
:103CF0008680B3F5481F00F0A380A6E0FCF7B2FA77
:103D0000F860A5E0FCF7AEFAF860544BD3F80C214C
:103D1000534B13401B0A0133FA68B2FBF3F3FB6009
:103D200096E0FCF79FFAF86092E0FCF79BFAF860E7
:103D30004A4BD3F808214A4B13401B0A0133FA6857
:103D4000B2FBF3F3FB6083E0FCF78CFAF860434BC3
:103D5000D3F8143103F4F8531B0A0133FA68B2FBA9
:103D6000F3F3FB6074E03F48FFF790FDF8606FE00D
:103D70003D48FFF78BFDF860384BD3F8303103F046
:103D800003031A46FB68D340FB6061E03548FFF748
:103D90007DFDF860314BD3F8203103F00F03184656
:103DA000FFF7BCFB0246FB68B3FBF2F3FB604FE09E
:103DB0002C48FFF76BFDF860284BD3F8203103F057
:103DC00030031B091A46FB68D340FB6040E02748DC
:103DD000FFF75CFDF8603BE02448FFF757FDF86013
:103DE0001E4BD3F8283103F030031B091846FFF7A8
:103DF00095FB0246FB68B3FBF2F3FB6028E01B482F
:103E0000FFF744FDF860154BD3F8283103F44073F5
:103E10001B0A04331846FFF781FB0246FB68B3FB1D
:103E2000F2F3FB6014E01048FFF730FDF8600FE09C
:103E3000FFF70AFCF8600BE0FFF7E0FBF86007E033
:103E40000020FFF721FCF86002E00023FB6000BFC8
:103E5000FB6818461037BD4680BD00BF00400E40CD
:103E600000FF010002001E000500240003002000E6
:103E700080B584B000AF78607B681B0903F00F0346
:103E8000BB60BB68013B092B00F2A08001A252F885
:103E900023F000BFBD3E0000CD3E0000DD3E00002F
:103EA000ED3E0000CD3F0000CD3F0000FD3E000094
:103EB0000D3F00005B3F0000AF3F0000474BD3F8D1
:103EC000003103F4F8531B0AFB6082E0434BD3F844
:103ED000143103F4F8531B0AFB607AE03F4BD3F82C
:103EE000003103F080731B0EFB6072E03B4BD3F894
:103EF0000C213B4B13401B0AFB606AE0374BD3F8A5
:103F00000821374B13401B0AFB6062E07B68354A8F
:103F1000934203D0344A93420DD01AE02F4BD3F88A
:103F2000203103F00F03FB60F868FFF7F7FA034650
:103F3000013BFB6010E0294BD3F8203103F0300344
:103F40001B09FB60F868FFF7E9FA0346013BFB60D9
:103F500002E00023FB6000BF3BE07B68234A934202
:103F600003D0234A93420ED01DE01C4BD3F82831D6
:103F700003F030031B09FB60F868FFF7CFFA034634
:103F8000013BFB6012E0154BD3F8283103F440737A
:103F90001B0AFB60FB6804331846FFF7BFFA0346B1
:103FA000013BFB6002E00023FB6000BF11E07B6887
:103FB000104A934206D1094BD3F8303103F0030382
:103FC000FB6002E00023FB6000BF02E00023FB6017
:103FD00000BFFB6818461037BD4680BD00400E404C
:103FE00000FF01008006160080162E0090171A00B0
:103FF00090273000A009140080B584B000AF78602D
:1040000039607B681B0903F00F03FB60FB68013B11
:10401000092B00F2088101A252F823F0454000006C
:104020009140000027420000A94000002742000004
:1040300027420000C54000000D4100008D410000F6
:10404000FD410000FFF7A4FB7948FFF7A5FAFFF751
:10405000B3FC7849774BD3F8003123F4F8523B682E
:104060001B021343C1F80031FCF7D0F8B860FFF72A
:1040700085FA0346B8681946FFF7AAFB6E48FFF7B2
:10408000EFFD03461846FFF787FAFFF79BFCCBE0EE
:104090006849684BD3F8143123F4F8523B681B028B
:1040A0001343C1F81431BFE06249624BD3F80C31BD
:1040B00023F4FF3323F480733A6812021343C1F8E8
:1040C0000C31B1E0FFF764FB5948FFF765FA594935
:1040D000584BD3F8083123F4FF3323F480733A6844
:1040E00012021343C1F80831FCF790F8B860FFF7EB
:1040F00045FA0346B8681946FFF76AFB4E48FFF7D2
:10410000AFFD03461846FFF747FA8DE07B684B4A40
:10411000934215D04A4A934224D04A4A934200D04F
:1041200033E04FF48020FFF72BFC4249414BD3F89A
:10413000303123F003023B681343C1F8303124E0EF
:104140003868FFF7F9F938600420FFF719FC39499E
:10415000384BD3F8203123F00F023B681343C1F8EA
:10416000203112E03868FFF7E7F938600420FFF7E4
:1041700007FC30492F4BD3F8203123F030023B6845
:104180001B011343C1F8203100BF4DE07B682E4A6C
:10419000934203D02D4A934213D02EE03868FFF7A4
:1041A000CBF938604020FFF7EBFB2249214BD3F8D5
:1041B000283123F030023B681B011343C1F828313A
:1041C0001BE03B687F2B03D83B680E2B00D900BF58
:1041D0003868FFF7B1F90346043B3B604020FFF726
:1041E000CFFB1449134BD3F8283123F440723B68BA
:1041F0001B021343C1F8283100BF15E07B68114A48
:10420000934200D00EE04FF48020FFF7B9FB09493C
:10421000084BD3F8303123F003023B681343C1F855
:10422000303100BF00E000BF1037BD4680BD00BF89
:104230000148E80100400E4000250A0080061600F3
:1042400080162E00A009140090171A009027300045
:1042500080B485B000AF78600123FB737B6803F006
:104260000F03BB60BB68013B072B00F2C48001A2B7
:1042700052F823F095420000EB4200001B4300007F
:10428000F74300006143000091430000F743000042
:10429000B54300005D4BD3F8943003F00703023BB5
:1042A000052B1ED801A252F823F000BFD142000016
:1042B000CB420000C5420000D7420000E3420000AC
:1042C000DD4200000223FB730EE00323FB730BE0CF
:1042D0000423FB7308E00B23FB7305E00C23FB7343
:1042E00002E00523FB7300BF88E0484BD3F8803021
:1042F00003F00703022B06D0042B07D0012B08D1B3
:104300000323FB7308E00223FB7305E00A23FB731E
:1043100002E00123FB7300BF70E03C4BD3F8843014
:1043200003F00703013B032B16D801A252F823F038
:104330004143000047430000534300004D43000049
:104340000323FB730BE00223FB7308E00A23FB73D8
:1043500005E00623FB7302E00123FB7300BF4DE081
:104360002A4BD3F8883003F00703022B06D0042B26
:1043700007D0012B08D10323FB7308E00223FB7352
:1043800005E00A23FB7302E00123FB7300BF35E065
:104390001E4B1B6F03F00103002B04D0012B05D132
:1043A0000923FB7305E00723FB7302E00123FB7382
:1043B00000BF23E0154BD3F85C3103F03003102B22
:1043C0000CD0102B02D8002B05D010E0202B08D0E9
:1043D000302B09D00BE00123FB730BE00723FB73A9
:1043E00008E00423FB7305E00823FB7302E00123CC
:1043F000FB7300BF02E00023FB7300BFFB7B18468A
:104400001437BD465DF8047B704700BF00400E4086
:1044100080B58AB000AF78600B46FB7003237B62E7
:10442000032387F823300023BB6100237B617B6873
:10443000112B19D1FB78042B03D1FBF74BFF7861CB
:104440000BE0FB78052B08D100F05AF90246A44B8B
:104450009A4202D900F054F978617B69002B03D0AD
:104460007869002100F05CFD7B6803F00F033B617D
:104470003B69013B072B00F2298101A252F823F08E
:10448000A144000095450000A7450000CD4600006E
:10449000994500003D460000CD4600005B46000007
:1044A000FB78023B0A2B00F2138101A252F823F0A1
:1044B000DD440000E9440000F54400000745000029
:1044C000D1460000D1460000D1460000D146000090
:1044D000D1460000194500002545000004237B62F9
:1044E000002387F8233023E003237B62012387F82E
:1044F00023301DE002237B62022387F823307948B2
:10450000FFF74AF814E001237B62032387F8233086
:104510007448FFF741F80BE005237B62032387F81B
:10452000233005E007237B62062387F8233000BF92
:1045300097F82330062B06D097F823301846012130
:10454000012200F0E9F8FFF723F9FFF735FA7B695C
:10455000002B01D0FFF704F8634A7B6A5367634876
:10456000FFF77EFB03461846FFF716F8FBF74EFEF3
:10457000F860FFF703F80346F8681946FFF728F9D3
:104580007B69002B03D10020012100F0C9FCFFF75B
:1045900019FAA2E0564BBB61BB69002B01D0BB6985
:1045A00000E0544BBB61BB69002B01D0BB6900E04C
:1045B000514BBB61FB78013B092B00F28B8001A2C0
:1045C00052F823F0ED450000F345000003460000DB
:1045D000D5460000D546000013460000D546000031
:1045E000D5460000D54600002F4600000023FB61A1
:1045F00020E000200121012200F08EF80223FB615F
:1046000018E001200121012200F086F80123FB615E
:1046100010E0FBF7FBFD03461846FEF7BDFF3748E9
:1046200002210122FEF74EFF0323FB6102E0042377
:10463000FB6100BFBB69FA691A604EE0FB78072B8B
:1046400002D0092B04D048E0274B00221A6703E070
:10465000254B01221A6700BF3FE0FB78013B072B87
:104660003AD801A252F823F089460000D94600004A
:10467000D94600009F460000D9460000D9460000F8
:104680008F460000AF4600000023FB6112E00420CB
:104690000121012200F040F80123FB610AE0022021
:1046A0000121012200F038F80223FB6102E003231C
:1046B000FB6100BF0C490C4BD3F85C3123F0300296
:1046C000FB691B011343C1F85C3106E000BF04E045
:1046D00000BF02E000BF00E000BF2837BD4680BD3C
:1046E000002D31010148E80100400E4000250A007C
:1046F00080400E4088400E4084400E40B0400E4046
:1047000080B400AF034B1B681846BD465DF8047BC0
:10471000704700BF0C00002080B588B000AF034692
:10472000FB710B46BB7113467B71FB79042B00F2C6
:10473000B88001A252F823F095470000834700009B
:104740005F4700004D4700007147000001237B6177
:1047500002233B610123FB610023BB6125E00423AD
:104760007B6108233B610323FB610223BB611CE0E7
:1047700010237B6120233B610523FB610423BB6184
:1047800013E040237B6180233B610723FB61062309
:10479000BB610AE04FF480737B614FF400733B61AF
:1047A0000923FB610823BB6100BFBB79002B5BD0F1
:1047B0000023FB73FB79022B11D1FFF745F8034669
:1047C000002B0CD1394BDB6B0123FB73384B5B6A3D
:1047D00003F00103002B02D00120FFF743F8344A15
:1047E0007B69136600BF3348B969FEF781FE034653
:1047F000002BF8D07B79002B35D000BF2D48F9690C
:10480000FEF776FE0346002BF8D0FB79022B2AD167
:10481000FB7B002B27D0264B5B6A03F00103002BA8
:1048200005D002202021012200F04AF903E00220F5
:10483000002100F0FBF8022000F03EF8B8600220F2
:1048400000210122FFF768FF0220B96800F06EF82E
:10485000174A7B69136600BF1648F969FEF748FEE0
:104860000346002BF8D01DE0114A3B69136600BFD8
:104870000F4BD3F89030BA69012101FA02F21340CC
:10488000002BF5D17B79002B0CD000BF084BD3F85F
:104890009030FA69012101FA02F21340002BF5D1A0
:1048A00000E000BF2037BD4680BD00BF00300E4095
:1048B00000400E4090400E4080B485B000AF0346EB
:1048C000FB71FB79013B032B23D801A252F823F0A3
:1048D000E148000005490000ED480000F9480000EB
:1048E000114B1B6AC3F30803FB6015E00E4B1B69F9
:1048F00003F07F03FB600FE00B4B9B6903F07F032A
:10490000FB6009E0084BD3F89C30C3F30A03FB605B
:1049100002E00023FB6000BFFB6818461437BD4669
:104920005DF8047B704700BF00400E4080B584B046
:1049300000AF03463960FB71FB79013B032B6AD85A
:1049400001A252F823F000BF59490000DB490000E2
:1049500087490000B14900003B68C3F308033B608E
:1049600000BF2F481A21FEF7C3FD0346002BF8D1E4
:104970002C492C4B1B6A23F4FF7323F001033A6884
:1049800013430B6248E03B6803F07F033B6000BFCA
:1049900023481821FEF7ACFD0346002BF8D121492E
:1049A000204B1B6923F07F023B6813430B6133E00C
:1049B0003B6803F07F033B6000BF19481921FEF7F5
:1049C00097FD0346002BF8D11649164B9B6923F03F
:1049D0007F023B6813438B611EE0124BD3F890308B
:1049E000104A104B5B6A23F0300343F0100353620C
:1049F0003B6803F4F063DB091846FEF709FFF86033
:104A00000849084B1A6B084B13403A681A43FB6875
:104A100013430B6300E000BF1037BD4680BD00BFED
:104A200040410E4000400E4000F8FF0F80B584B0BA
:104A300000AF03460A46FB711346BB71FEF704FF45
:104A40000346002B03D14FF44003FB6016E0BB7913
:104A5000202B04D0302B0AD0002B04D00BE04FF4D5
:104A60000003FB600AE04FF44003FB6006E04FF4F4
:104A70004003FB6002E0104BFB6000BF00BF0F4B28
:104A8000D3F89020FB681A40FB689A42F7D1FB6884
:104A900003F48003002B0AD0084BD3F8A03003F4B2
:104AA0008063002B14BF01230023DBB200E001234D
:104AB00018461037BD4680BDFF33E10700400E4069
:104AC00080B582B000AF0346FB710B46BB71134645
:104AD0007B71FB79022B00D016E0BB79002B07D04D
:104AE0000C4B4FF48062C3F8A8200A4ABB79536686
:104AF0007B79002B07D0FA79BB7910461946FFF76E
:104B000095FF034601E000BF012318460837BD4664
:104B100080BD00BF00400E4080B584B000AF78601B
:104B20000B46FB700023FB60FB78002B01D00123B8
:104B3000FB607B685B00013303481946FA68FEF7A7
:104B4000C1FC1037BD4680BD50410E4080B483B0DB
:104B500000AFEFF310833B603B687B6072B67B680D
:104B600018460C37BD465DF8047B704780B483B0AF
:104B700000AF78607B68002B00D162B60C37BD4671
:104B80005DF8047B704700BF80B487B000AFF86069
:104B9000B9607A60FB6803F10473DA00BB68134400
:104BA0009B007B617B697A681A601C37BD465DF8A3
:104BB000047B704780B582B000AF0346FB71FB7980
:104BC000034800211A46FFF7DFFF0837BD4680BDC6
:104BD0000CE0014080B582B000AF7860134A7B687A
:104BE0005B7903F03F03536010497B681B78002B0F
:104BF00001D0012200E000227B685B78002B01D00D
:104C0000022300E000231A437B68DB789B001A43F1
:104C10007B681B795B0113430B607B689B781846AC
:104C2000FFF7C8FF0837BD4680BD00BF00E0014068
:104C300080B500AFFBF7EAFA80BD00BF80B485B055
:104C400000AF786039607B6803F10473DA003B6879
:104C500013449B00FB60FB681B6818461437BD4675
:104C60005DF8047B704700BF80B500AF00BF04480B
:104C70001221FFF7E3FF0346002BF8D180BD00BFF0
:104C800004300E4080B500AFFFF7EEFF034B5B68CA
:104C900003F440331B0CDBB2184680BD00300E40DD
:104CA00080B400AF034B0022C3F88021BD465DF8FD
:104CB000047B704700400E4080B400AF044B45F6C3
:104CC0000E02C3F88021BD465DF8047B704700BF2B
:104CD00000400E4080B483B000AF0346FB71FB7907
:104CE000C3F102031A461023934018460C37BD4601
:104CF0005DF8047B704700BF90B585B000AF0346F8
:104D0000FB71FB79002B1AD1474BD3F89030474AFF
:104D100013601120FFF79CFA03461A46444B1A70A1
:104D2000FFF7A2FF434B5B6803F440331B0CDAB27E
:104D3000414B1A703C4B1B69404A136070E03D4C7C
:104D40003D4B1B781846FFF7C5FF03462361364BE2
:104D5000D3F8803103F00103FB60FFF7ADFF0023C0
:104D6000BB60324B1B6803F00103BA681343BB609E
:104D70002E4B1B6803F01003BA681343BB602B4B28
:104D80001B6803F04003BA681343BB60274B1B68E2
:104D900003F00403BA681343BB60244B1B6803F49D
:104DA0008073BA681343BB601F4ABB681366FFF782
:104DB0005BFF204B1B6803F01003002B18D000BFD3
:104DC000194BD3F8403103F08073002BF8D1164A09
:104DD0001A4B1B681361164B1B78052B08D1184B17
:104DE0001C68FFF74FFF034620461946FEF7F0FC0C
:104DF0000F4B1B78052B05D00D4B1B781120194646
:104E0000FFF706FB094B1B6803F00103002B02D1DF
:104E1000054B02221A66FB68002B01D0FFF740FF0A
:104E20001437BD4690BD00BF00400E4078040020FE
:104E30007C04002000300E407D040020800400200F
:104E40000C00002080B582B000AFFFF70DFF104BC3
:104E50001B6803F440731B0A7B600D4B5B6803F413
:104E600040331B0C3B607A683B689A4206D9084A7B
:104E7000074B1B6843F01003136005E0044A044B22
:104E80001B6823F0100313600837BD4680BD00BFC8
:104E900000300E4080B483B000AF0B4B1B6803F0B2
:104EA0001003002B0BD0094B1B6903F4F8131B0CE8
:104EB0007B607B68082B02D1054B064A1A600C37D1
:104EC000BD465DF8047B704700300E4000400E4048
:104ED0000C000020C0EA210180B582B000AF03467B
:104EE000FB71FB79002B02D00020FFF705FFFFF7D5
:104EF000A9FF0A4A094B1B6943F00403136130BF41
:104F0000FB79002B03D00120FFF7F6FE03E0FFF74B
:104F1000C1FFFFF78DFE0837BD4680BD00ED00E004
:104F200080B584B000AF78600B46FB70154BD3F8AA
:104F3000003103F4F8531B0A0133BB607B68002B7C
:104F400007D1FBF78FF90246BB6803FB02F3FB6056
:104F500001E07B68FB600C4B1B78002B09D0FB68E1
:104F60000A4A934205D8FB780220194600F010F84F
:104F700004E0FB780020194600F00AF81037BD461F
:104F800080BD00BF00400E4074040020FF2C3101A2
:104F900090B587B000AF03460A46FB711346BB715C
:104FA0001A4BD3F8003103F4F8531B0A01337B6129
:104FB000FBF758F93861FFF765FE0346FB73FA7B90
:104FC000FB799A4200D11EE03B697A6902FB03F348
:104FD000BB60FB79022B03D138690221FEF7F8FB95
:104FE0000B4CFB791846FFF775FE03462361BB792E
:104FF000002B01D0FFF738FEFB79002B03D1386975
:105000000021FEF7E5FB1C37BD4690BD00400E4079
:1050100000300E4080B582B000AF78607B681A78AF
:10502000044B1A7000200121FFF77AFF0837BD46B4
:1050300080BD00BF7404002080B483B000AF7860EE
:105040000A490A4B1B6823F440727B685B781B0299
:1050500013430B607B685B78022B01D1044B5B6AC6
:105060000C37BD465DF8047B704700BF00300E4032
:1050700000400E4080B487B000AFF860B9607A603D
:10508000FB6803F10473DA00BB6813449B007B6187
:105090007B697A681A601C37BD465DF8047B7047EF
:1050A00080B485B000AF786039607B6803F1C0637D
:1050B000FB60FB683A681A601437BD465DF8047BF4
:1050C000704700BF80B485B000AF786039607B68FE
:1050D00003F18063FB60FB683A681A601437BD46D1
:1050E0005DF8047B704700BF80B584B000AFF86006
:1050F000B9607A60F868B968FFF7E4FFF868796822
:10510000FFF7CEFF1037BD4680BD00BF80B483B02F
:1051100000AF7860044A7B68C2F824340C37BD467F
:105120005DF8047B704700BF00A0004080B582B0EE
:1051300000AF03463960FB71FB79002B1CD0FB7973
:10514000012B19D0FB79022B16D0FB79032B13D03E
:10515000FB79042B10D0FB79052B0DD0FB79062BA6
:105160000AD0FB79072B07D0FB79082B04D0FB79F9
:10517000092B01D0FB790A2BFA7913465B00134403
:105180001B010C3303F1804303F520433A680121EE
:1051900001FA02F218461146FFF794FF0837BD46A0
:1051A00080BD00BF80B582B000AF03463960FB719F
:1051B000FB79002B1CD0FB79012B19D0FB79022B3A
:1051C00016D0FB79032B13D0FB79042B10D0FB797D
:1051D000052B0DD0FB79062B0AD0FB79072B07D0C6
:1051E000FB79082B04D0FB79092B01D0FB790A2B22
:1051F000FA7913465B0013441B010C3303F180431F
:1052000003F520433A68012101FA02F218461146DB
:10521000FFF746FF0837BD4680BD00BF80B586B0AA
:1052200000AFB9607A601A460346FB731346BB733E
:1052300000237B61FB7B002B1CD0FB7B012B19D057
:10524000FB7B022B16D0FB7B032B13D0FB7B042BA9
:1052500010D0FB7B052B0DD0FB7B062B0AD0FB7BF4
:10526000072B07D0FB7B082B04D0FB7B092B01D03D
:10527000FB7B0A2B7B68072B0ED87B689B001A46AA
:105280000F2303FA02F1FB7B7A68920093402C48CB
:105290001A46FFF729FF10E07B68083B7B617B69BA
:1052A0009B001A460F2303FA02F1FB7B7A699200F6
:1052B000934024481A46FFF717FF7B68072B10D846
:1052C0007B689B001A46032303FA02F1BB6803F0D4
:1052D00003037A68920093401B481A46FFF704FFC5
:1052E0000FE07B699B001A46032303FA02F1BB68B7
:1052F00003F003037A699200934014481A46FFF7BB
:10530000F3FEBB7B124879681A46FFF7B3FE97F8A5
:105310002030104879681A46FFF7ACFE7B680122FE
:1053200002FA03F31846FFF7F1FE97F824300A4813
:1053300079681A46FFF79EFE1837BD4680BD00BF4C
:1053400000A4004004A4004008A400400CA40040B5
:1053500010A4004014A4004028A4004090B585B0DB
:1053600000AFB9607B600346FB731346BB73FB7BE6
:10537000002B1CD0FB7B012B19D0FB7B022B16D002
:10538000FB7B032B13D0FB7B042B10D0FB7B052B6B
:105390000DD0FB7B062B0AD0FB7B072B07D0FB7BBA
:1053A000082B04D0FB7B092B01D0FB7B0A2BBB7B9A
:1053B000002B0DD07B68002B05D0FB7B1846B9680D
:1053C000FFF7F0FE04E0FB7B1846B968FFF7AEFE7E
:1053D000BB68072B1CD82B4CFA7B2A48F97B0B4661
:1053E0005B000B441B0103445968BB689B001846D3
:1053F0000F238340DB430B40B97BB86880008140BA
:10540000194313465B0013441B012344596024E0F5
:105410001C4CFA7B1B48F97B0B465B000B441B01C1
:10542000034408331968BB6803F18043083B9B00C1
:1054300018460F238340DB431940B87BBB6803F158
:105440008043083B9B0000FA03F3194313465B00BB
:1054500013441B01234408331960BB7B002B0DD17F
:105460007B68002B05D0FB7B1846B968FFF79AFED6
:1054700004E0FB7B1846B968FFF758FE1437BD46B9
:1054800090BD00BF00A0004080B483B000AF786042
:1054900039607B683A68DA630C37BD465DF8047B97
:1054A000704700BF80B487B000AFF860B9607A6021
:1054B000FB6803F10473DA00BB6813449B007B6153
:1054C0007B697A681A601C37BD465DF8047B7047BB
:1054D00080B485B000AF786039607B6803F1C06349
:1054E000FB60FB683A681A601437BD465DF8047BC0
:1054F000704700BF80B485B000AF786039607B68CA
:1055000003F18063FB60FB683A681A601437BD469C
:105510005DF8047B704700BF80B584B000AFF860D1
:10552000B9607A60F868B968FFF7E4FFF8687968ED
:10553000FFF7CEFF1037BD4680BD00BF80B483B0FB
:1055400000AF786001E07B68DB697B68DB6803F4AF
:105550008073002BF7D10C37BD465DF8047B704794
:1055600080B588B000AFF860B9607A60FB707B6886
:10557000002B00D179E0FB7803F00303FB70FB689C
:105580001B6823F44072FB681A60FA68FB781B0200
:1055900010464FF440711A46FFF7BEFFBB68002B60
:1055A00010D1FB68324A934204D13248FEF758FBCF
:1055B000B86007E0FB68304A934203D12F48FEF7FA
:1055C0004FFBB8604FF0FF33BB61FB681B6803F013
:1055D0000203002B11D0FB78012B07D0022B08D03F
:1055E000002B00D008E0264BBB6105E0254BBB61DA
:1055F00002E0254BBB6100BF10E0FB78012B07D018
:10560000022B08D0002B00D008E01D4BBB6105E049
:105610001E4BBB6102E01E4BBB6100BFFB781D4A05
:10562000D35C7B617B697A6802FB03F33B613B6976
:10563000002B00D119E07B68DB00BA68D21A3B6905
:1056400013445A1E3B69B2FBF3F3013BFB61FB6859
:105650001B6803F00203002B04D0FB69002B01D16F
:105660000123FB61FA69FB681A612037BD4680BDE2
:1056700000C000400082040000C40040009204000A
:1056800080841E00404B4C00809FD5004054890010
:10569000002D310110CC000080B582B000AF7860E1
:1056A0000B46FB707B68094A934203D07B68084A2B
:1056B000934200D100BF7A68FB78104600211A4659
:1056C000FFF7F0FE0837BD4680BD00BF00C00040B8
:1056D00000C4004080B582B000AF786039607B685C
:1056E000164A934203D07B68154A934200D100BF0B
:1056F0007B6800221A6478681249FFF7C5FE7A6851
:105700003B685B78002B01D0002300E001231046AA
:1057100001211A46FFF7C6FE3B6859683B689A6844
:105720003B681B7B7868FFF71BFF3B681B7878683A
:105730001946FFF7B1FF0837BD4680BD00C00040E5
:1057400000C40040FFFF070080B588B000AF78605C
:105750007B68A04A934203D07B689F4A934200D162
:1057600000BF7B689B4A934202D19C4BBB6108E01F
:105770007B68994A934202D1994BBB6101E0FC23BB
:1057800009E2BB699B687B617B685B6B3B613B6942
:1057900003F4C063002B14D03B6903F40073002BA7
:1057A00003D0BB69FD225A7007E03B6903F48063B4
:1057B000002B02D0BB69FE225A70BB6909221A7005
:1057C000D5E1BB691B78082B00F2C98101A252F810
:1057D00023F000BFF95700004B580000D5580000D7
:1057E0002B5900007D590000E55900006D5A00005A
:1057F000AF5A0000415B00007B695B8803F0100337
:10580000002B09D07B691B881B0A9BB203F006039F
:1058100043F0F003FB610EE07B691B8803F0FE039D
:10582000FB617B695B8803F00203002B03D0FB69FB
:1058300043F00103FB61BB6901221A707B68FA69BE
:10584000DA627B6801225A6091E13B6903F08003D0
:10585000002B0DD078688021FFF716FEBB69FF2270
:105860005A70BB6908221A707B6802225A6030E0C5
:105870003B6903F04003002B2BD078684021FFF7F1
:1058800003FE7B695B8803F01003002B08D0BB6923
:1058900002221A707B691B88DAB27B68DA6218E030
:1058A0007B695B8803F00203002B0ED0BB690722E3
:1058B0001A70BB691B797A69DB0013441B89012BC1
:1058C00007D17B6808225A6051E1BB6905221A7032
:1058D0004CE14CE13B6903F08003002B0DD078686C
:1058E0008021FFF7D1FDBB69FF225A70BB690822F6
:1058F0001A707B6802225A6016E03B6903F040038D
:10590000002B11D078684021FFF7BEFD7B695B88D2
:1059100003F00203002B03D0BB6903221A7025E1B8
:10592000BB6905221A7021E121E17B695B8803F0E4
:105930001003002B09D07B691B881B0A9BB203F064
:10594000060343F0F003FB6104E07B691B8803F06E
:10595000FE03FB617B695B8803F00403002B03D02B
:10596000FB6943F00103FB61BB6904221A707B6889
:1059700001225A607B68FA69DA62F8E03B6903F059
:105980008003002B0DD078688021FFF77DFDBB6977
:10599000FF225A70BB6908221A707B6802225A6083
:1059A00016E03B6903F04003002B11D078684021DA
:1059B000FFF76AFD7B695B8803F00403002B03D0CB
:1059C000BB6907221A7003E0BB6905221A70CDE09B
:1059D000CDE000BF00C0004000C4004084040020AF
:1059E00090040020BB695A88BB691B797969DB0088
:1059F0000B441B899A4224D3BB6900225A80BB699D
:105A00001B790133DAB2BB691A717B695B8803F0D9
:105A10000403002B03D0BB6903221A70A6E07B6944
:105A20005B8803F00103002B03D1BB691B79012BB9
:105A300006D9BB6908221A707B6802225A6096E078
:105A400094E0BB691B797A69DB0013445A68BB692F
:105A50005B88591C88B2B969488013441B781A4680
:105A60007B68DA62BB6906221A7080E03B6903F04A
:105A70008003002B0DD078688021FFF705FDBB69FE
:105A8000FF225A70BB6908221A707B6802225A6092
:105A90000CE03B6903F04003002B07D078684021FD
:105AA000FFF7F2FCBB6905221A705FE05FE03B691B
:105AB00003F02003002B42D0BB691B797A69DB001D
:105AC00013441B89FB607B68DB69FB72BB695B88E5
:105AD0001A46FB689A420ED2BB691B797A69DB00D1
