:1000000000000420DD0100000902000009020000D8
:1000100009020000090200000902000009020000B4
:1000200009020000090200000902000009020000A4
:100030000902000009020000090200000902000094
:100040000902000009020000090200000902000084
:100050000902000009020000090200000902000074
:100060000902000001150000F94A00000902000021
:1000700009020000090200000902000051540000BA
:100080000902000009020000054B000009020000FF
:10009000090200000902000009020000754B00007F
:1000A0000902000009020000090200000902000024
:1000B00009020000090200001D1A000009020000E8
:1000C0000902000009020000090200000902000004
:1000D00009020000090200000902000009020000F4
:1000E00009020000090200000902000009020000E4
:1000F00009020000090200000902000009020000D4
:1001000009020000090200000902000010B5054CB8
:10011000237833B9044B13B10448AFF300800123B3
:10012000237010BDF800002000000000009F0000B8
:10013000084B10B51BB108480849AFF300800848C8
:10014000036803B910BD074B002BFBD0BDE810407E
:10015000184700BF00000000009F0000FC000020C6
:10016000F000002000000000154B002B08BF134BCF
:100170009D46A3F5803A00218B460F461348144A4A
:10018000121A06F0FAFB0F4B002B00D098470E4BCB
:10019000002B00D098470020002104000D000D48DE
:1001A000002802D00C48AFF3008006F0B5FB200019
:1001B000290004F0E1FA06F09BFB00BF00000800F4
:1001C000000004200000000000000000F8000020F3
:1001D000600A002000000000000000000648804780
:1001E0000649074A074B9A42BEBF51F8040B42F832
:1001F000040BF8E7FFF7B8FF950200000C9F000022
:1002000000000020F4000020FEE700BF0048704717
:1002100000F049020F4BD3F8943003F00703032B8F
:1002200014D0042B0FD0022B0AD00B4B1868094BAB
:10023000D3F80031C3F304230133B0FBF3F070476C
:10024000064B1868F3E7064B1868F0E74FF40040D8
:10025000EDE700BF00400E400C000020040000202D
:100260000000002008B5FFF7D5FF054B054AD3F87D
:100270000831C3F308230133B0FBF3F0106008BD6D
:1002800000400E4008000020014B1868704700BF76
:1002900004000020044B054A9A60D3F8882042F4F9
:1002A0007002C3F88820704700ED00E000000000F5
:1002B0004FF40040704700BF4FF47A70704700BFA2
:1002C000014B1868704700BF000000200A4A1378ED
:1002D0006BB910B5094C2368012111701BB908E0F6
:1002E00054F8043F2BB198470028F9D010BD0020E6
:1002F0007047002010BD00BF440100201000002006
:10030000124B1B7813B9124B18467047002802DDB8
:10031000104B18467047104BF0B42C2404FB0034EB
:100320000D4604F1200726460FCEBE4228606960C4
:10033000AA60EB60344605F11005F4D107CC002328
:1003400028606960AA601846F0BC7047440100202C
:10035000050011800200118018010020134B1B784A
:100360000BB913487047134A1368002B01DD12487C
:100370007047F0B4114D0446591C2C2004F120079D
:1003800000FB0355116020686168A268E3682E468F
:100390000FC61034BC423546F5D120686168A268AA
:1003A000334607C30020F0BC704700BF4401002063
:1003B00005001180140100200100118018010020A7
:1003C000802901D0094870470949086810B4094CD0
:1003D00000EB0212A24205D9002207481A605DF81C
:1003E000044B704718600A600020F8E70200118093
:1003F00018000020C801002001001180004870474B
:100400000400118008B500F029F900F0DFF80020A1
:1004100008BD00BF70B51E4653B10C4600252046EE
:10042000102201350021144406F0A7FAB542F6D196
:10043000002070BD2DE9F04782B00C460A9D0B9F4D
:100440000E210320013500F02DF9ADB2062000F099
:100450000BF902AE2B0243F0010326F8023D022104
:10046000304600F0DBF807B3013507F1FF384FF0F5
:10047000000A4FF6FF79102120460C4400F0CEF818
:10048000D04505EB0A031CBF1B0243F0FF034FF0EE
:1004900002010AF1010A30460CBFADF80690ADF832
:1004A000063000F0BBF8BA45E5D1022000F0DCF8D8
:1004B0000E21032000F004F9002002B0BDE8F0870F
:1004C00008B5032021B90F2100F0FAF8002008BD7B
:1004D0000F2100F0E7F8002008BD00BFF0B58DB097
:1004E00000F0BCF800F072F800F0C4F800221346E7
:1004F0000821022000F0C8F800221346062102203D
:1005000000F0C2F8002213460E21032000F0BCF8D0
:10051000002213460F21032000F0B6F800221346F4
:100520000D21032000F0B0F803200D217D2200F002
:10053000D5F808B10DB0F0BD8023DFF88CC01C4C9D
:100540001C491D4A8DF815004FF0010E1B4F1C4E23
:100550001C4D099401A8CDF804C08DF814E0029355
:10056000049303930697079608950A910B92FFF759
:10057000F5FE04460028DDD10F21032000F092F89B
:100580000E21032000F08EF8062000F06DF80CA874
:10059000042320F82E3D022100F040F8022000F054
:1005A00063F80E21032000F08BF820460DB0F0BD5B
:1005B000350400001504000005040000C10400001B
:1005C000C1030000FD0300003496000070B50F4D1C
:1005D0000F4E0FCD86B06C460FC495E8030084E83B
:1005E00003000C48012101F089FC30460A4B0293BC
:1005F000694603F0ADFA0A237367B36F23F01F2334
:1006000043F00B230020B36706B070BD4C9600008A
:100610000004014000520400E067350038B505468B
:100620000C465CB1012C0C4801D0EA070CD5013C0A
:1006300015F8011B03F0D0FA002CF3D1064A136918
:100640009B06FCD5002038BD034835F8021B03F09B
:10065000C9FA023CE5E700BF0004014008B500F01C
:10066000E5FC002008BD00BF08B500F0BFFD00207C
:1006700008BD00BF08B50348012101F03FFC002080
:1006800008BD00BF00350A0010B514460AB1044881
:1006900010BDC0B2042202F0D5FB204610BD00BF41
:1006A00001001380C0B200EB4000044B0001034482
:1006B00001228A401A600020704700BF0CA000464B
:1006C000C0B200EB4000044B0001034401228A4009
:1006D0001A600020704700BF0CA000442DE9F041D3
:1006E000804686B00D463048304C314F01211646C9
:1006F00001F004FC04204FF43061022203F010F9F1
:100700002C4A536923F0070343F0040353619368B1
:1007100043F010035FFA88F0294693600422002317
:1007200002F090FB224603AB52F8180F5168127A80
:1007300003C3002520481A7001218DF8105001F0E4
:10074000DDFB1E480A2102F033F83846012101F092
:10075000D5FB4FF0010803A88DF80C508DF80D5013
:100760008DF80F8003F00EF9234601A953F8240FEA
:1007700001909A889B79ADF8082040468DF80A30A0
:100780008DF8058003F0DAF8384601F023FD0C4BB4
:10079000B0FBF6F0461E5E6540469D6003F0ECF847
:1007A000284606B0BDE8F08100450A004C960000DE
:1007B000A009140000600E4000250A000500240076
:1007C00000200440F0B5044685B00121274801F01F
:1007D00095FB2368264A934245D002F580629342F6
:1007E00001D005B0F0BD2348012101F087FB20793D
:1007F00061790A22012302F025FBA079E1790A221E
:10080000012302F01FFB23791B4803EB43031B0169
:10081000184400F1C065092300F18060012261796C
:1008200002FA01F129606179013B02FA01F10160EC
:100830004FF00101F3D120682569E268267D8DF82B
:10084000001003234364277A637A8DF8011043EA8A
:10085000072383646946029501928DF80C6002F0CB
:100860007DFB05B0F0BD0548BEE700BF4041050077
:1008700000C00040009204000CA000400082040070
:1008800038B5054602F098FC012808D1054C01E076
:10089000013C04D0284602F07FFB0128F8D040B28A
:1008A00038BD00BFE093040000207047FEE700BFA2
:1008B0004FF400534B600020704700BF0120704789
:1008C0000020704770B5164682B10D46002404E042
:1008D0000134A64205F8010B06D000F04FF8431C86
:1008E000F6D11CB1204670BD304670BD4FF0FF30D0
:1008F00070BD00BF044A05491368002B08BF0B46B2
:100900001844106018467047C8010020600A002093
:1009100070B5161E07DD0C468D1914F8010B00F09A
:1009200031F8AC42F9D1304670BD00BF10B58EB081
:10093000002003A9FFF7E4FC044610B120460EB0E6
:1009400010BD012301A80B4901948DF808408DF8D2
:10095000093000F0BDFA04460028EFD1064B1B68B1
:10096000014602229868234606F052FD20460EB04A
:1009700010BD00BFCC010020AC0000204FF0FF30C4
:10098000704700BF064B1B683BB110B504462146BB
:10099000184600F0FDFA204610BD4FF0FF307047BA
:1009A000CC01002010B5044603F0D2FD03F0D0FDC9
:1009B00003F0CEFD0B210122204603F0ADFC0446DE
:1009C00003F0C6FD204610BD08B50B21112203F02F
:1009D000A3FCC0B208B140B280B200B208BD00BFF3
:1009E00008B50B21132203F097FCC0B208B140B246
:1009F00080B200B208BD00BFF0B5054683B00E4618
:100A0000174605242846112103F0BCFC40B200F033
:100A1000E002202A04F1FF3304D000282EDB13F07B
:100A2000FF04EFD11121284603F0ACFC06F03F068D
:100A30000446803E28460A21022201AB8DF805605B
:100A40008DF8047003F024FD10B100B203B0F0BDC6
:100A50002846112103F096FC04F01F0300F01F0448
:100A60009C4207D12846112103F08CFC00F01F00A6
:100A7000A042F7D0002000B203B0F0BD80B200B2B7
:100A800003B0F0BD70B505462846112103F07AFC8D
:100A900000F0E0002028F7D1052605241121284682
:100AA00003F070FC10F01F0F4FF00B014FF000022D
:100AB000284605D003F030FC631E13F0FF04EDD18F
:100AC00028460B21122203F027FC05242846112179
:100AD00003F058FCC20604F1FF3302D113F0FF0407
:100AE000F4D12846112103F04DFC00F01F0001282D
:100AF00003D0731E13F0FF06CFD1002070BD00BFDE
:100B00002DE9F04F036BC76BDFF8E4C083B08E00B4
:100B10004FF0000EA3B13C4600220CEB0E08456CD2
:100B2000037DAD59AD5C18F8055013B1022B20D8E8
:100B3000ED432570036B0132934204F10104EED8BA
:100B4000027D022A19D0C2680EF1640EBEF5487FFC
:100B500007EBD207DED10A46D2000825C16B446AF2
:100B60000092DB00019500220430A04703B0BDE8ED
:100B7000F08F1E4803B0BDE8F08F90F84A4090F81F
:100B80004950826890F8488024F07F04640925F079
:100B90007F0544EA9514D20844EAD818D3D007EB6D
:100BA000020A0AEB420900231AF8015D1C4645FAC5
:100BB00003F212F0010F0CBF4246072203EB430B76
:100BC000013302FA0BF2082B44EA0204EFD1220AA5
:100BD000230C09F8034C09F8022C09F8013CA9F18F
:100BE0000309B945DFD1036BADE700BF04001280F4
:100BF00078960000436C7BB110B5036B426B0446E2
:100C000002FB03F2006C002105F0B7FE0023E36451
:100C1000236584F8543010BD704700BF2DE9F041C2
:100C200090F85430012B82B0044617D006D3022B23
:100C30002A4818BF002002B0BDE8F081457D7DB98B
:100C4000436B43B129462046FFF75AFF636B0135DA
:100C5000AB42F7D8DB0022699A420CD8637D1BB106
:100C60001E4802B0BDE8F081216D204602B0BDE80B
:100C7000F041FFF745BF237D012B21D027D3022B65
:100C8000EED1A268E06B02EB4202D208FF2105F030
:100C900074FE656B2369ED009D42DFD204F1040808
:100CA0000127E16BA3688DE8A0004046666A002238
:100CB000B04701350028BED12369AB42F1D8CDE75A
:100CC000A268E06BD208FF2105F057FEE1E7A268B9
:100CD000E06BD208002105F050FEDAE70400128034
:100CE000436B012B70B505460DD00024696C2A6B4F
:100CF000A300CE18C858716805F034FE6B6B013440
:100D00005A1EA242F2D803F18043013B696C2A6B60
:100D100051F82300002105F030FE6B6B0022013BEF
:100D20002B65EA6485F8542070BD00BF2DE9F047BB
:100D30000A2982B00E46044648D00D2941D0082920
:100D400031D01B297CD0DFF8808198F800301B2B34
:100D50004DD05C4B1B6833445B7813F0970563D12F
:100D6000E26C236B9A4228BF0022236D28BFE26405
:100D7000626B24BF013323659A4209D894F8383056
:100D80002046002B58D0FFF7ABFF636B013B236578
:100D9000616CE26C51F823309D54E36C0133E364E1
:100DA00002B0BDE8F087037D012BCCD90023FF22E0
:100DB00080F8482080F8493080F84A3002B0BDE819
:100DC000F0870023C36402B0BDE8F087036D426B77
:100DD0000133002193420365C164E1D390F83830B8
:100DE0002BB3FFF77DFF636B013B2365D8E74246DA
:100DF00012F8013F002BFBD1334816701D4606F058
:100E0000B3FB324F8246DFF8C0903946484652461F
:100E100006F0B2FBE0B10135062D07F10407F2D16F
:100E20000023C9F8003094E7203EF5B298E702B0FD
:100E3000BDE8F047FFF7DEBEFFF7DCFE236DA7E756
:100E4000214B00210322196080F854201E70A7E76F
:100E50000322019084F85420384606F085FB824531
:100E6000019B05D0BAF1030F9AD1C9F8003097E77A
:100E7000AB1E032B1CD8DFE803F0150D021F226BFD
:100E8000E36C013A934201D20133E3640023C8F8D2
:100E9000003085E7626B236D013A9342F6D201334D
:100EA0002365F3E7236D002BF0D0013B2365EDE7CD
:100EB00000232365E364E9E7E36C002BE6D0013B04
:100EC000E364E3E748000020D00100209899000087
:100ED000F8B52A4C94F855300BB12948F8BD0E46A8
:100EE0000546211D0068FFF70BFA40B9637D3BB151
:100EF000E0632269214B7F2A14D82248F8BDF8BD4F
:100F0000E769A168201D082204F13C03B8470028C6
:100F1000F5D1A76AE16BA268201D0823B847002815
:100F2000E7D0F8BD9A687F2AE7D9102229795A6359
:100F30001A632F6883F838106879134A13491F60C1
:100F400083F839001A645964002301E0616C226C53
:100F500002EB8302CA500433402BF7D10025074827
:100F600084F8485084F8495084F84A50FFF742FE0C
:100F7000012384F8553028463460F8BDD4010020A0
:100F8000050012800200128014090020140A0020BB
:100F900038B590F855300BB9234838BD437D13B3AD
:100FA000022380F8543090F838301BB3C36C23B957
:100FB000436B026D013B9A4222D00C290D46044638
:100FC00024D090F839300BB10A2929D0294620467F
:100FD000FFF7ACFE94F85430032B15D02046BDE843
:100FE0003840FFF71BBE012380F8543090F83830AA
:100FF000002BDBD1C36C002BDFD1036D002BDCD1C8
:10100000002380F85430D8E7002038BDFFF7F2FD08
:10101000002384F854302046BDE83840FFF7FEBD79
:101020000D21FFF783FED1E7060012802DE9F04F76
:10103000664B674A186859681C7AD2F8B02089B0A4
:1010400005AB03C352071C7040F1B8804FF0000895
:1010500060485F4C01F012F8032107465D48D4F860
:10106000905001F0A5FB5C4801F002F8D4F8F03094
:101070000390DB0705F0400540F1998000230193C0
:1010800001F01EFD554A136813F00104814673D028
:1010900013685349029340F2FF7600234FF08040DB
:1010A000546A1360536216620126C1F8800100235E
:1010B000082205A88DF816308DF817308DF8182005
:1010C00002F060FC4748454A4FF48053036096465F
:1010D00003685B00036063B1916893689942FCD038
:1010E000DEF808100368013BFDD8DEF808309942AD
:1010F000EED00368394ADFF8ECB05B080360D0F843
:1011000000E092464FF0080C5FEA5E0E19D00368CB
:101110004EEA03030360916893689942FCD0DAF8C1
:1011200008100368013BFDD8DAF80830994205D071
:10113000DBF8003023EA0E03CBF80030BCF1010CE1
:10114000E2D1484601F0C0FCCEB10399224801F03B
:1011500069FA224B029A1A605C62019BABB9032FB9
:1011600019D1F5B1B8F1000F03D01F48002100F0EC
:10117000C5FE09B0BDE8F08F0294264697E73046D9
:1011800002F0FAFB019B002BE9D01348002100F08C
:10119000B5FE032FE5D039460E4801F009FB002DBE
:1011A000E0D1012029462A4601F06EFADAE70A4822
:1011B000012100F0A3FE0123019361E70A48012108
:1011C00000F09CFE4FF0010842E700BFB09900001C
:1011D00000400E4005002400A00914000020044037
:1011E00000E100E01C00002000250A000346084939
:1011F000002B0CD0013B88221202003253430A68B4
:10120000D80AD20A5043800901D00138FDD870476E
:101210001C0000202DE9F0476A4C84B024789DF82A
:101220003CC09DF844E01CB9674804B0BDE8F087B5
:10123000072A154603D9654804B0BDE8F0870C9A23
:10124000002AF8D00D9A002AF5D0109AB2F5006F56
:10125000F1DC012806460F4666D0DFF87C914FEAA4
:10126000051809EB0802127B0AB95948DDE759480D
:101270000022690144188DF804208DF805208DF8AE
:1012800006208DF807208DF808208DF809208DF8AC
:101290000A208DF80B208DF80C208DF80D20002FE2
:1012A00046D104F108024750676042F8047B17609A
:1012B00094F802A0E2784AF0100A42F0300284F872
:1012C00002A0E270BCF1000F03D1D2B242F00302DF
:1012D000E2700093109B425A013B63F30E1242529C
:1012E00000EB010C0C999CF80330CCF808106EF35D
:1012F00083030D99CCF80410012E8CF8033031D003
:10130000129B002B55D009EB08032846129D49F883
:1013100008502246139D5D60002469465E739C6000
:1013200001F0B6FF204680E70E9A002A95D182E7A9
:1013300004F1080A425062604AF8042BCAF80020FF
:1013400094F802A0E2784AF0100A42F0030284F80E
:1013500002A0E270BCF1000FBBD1D2B242F0300269
:10136000E270B6E79CF80C3043F003038CF80C30C5
:10137000DCF80C30042161F39F03CCF80C309CE8BE
:101380000F000CF1100E8EE80F00DCF81C200E9BF5
:101390006FF0030161F39F02012FCCF81C20CEF8FF
:1013A0000430B0D10D9BCCF818300E9BCCF8043033
:1013B000A9E7002EA7D19CF8023066F304138CF83D
:1013C0000230A0E7AC020020028000F0018000F0B3
:1013D000078000F0B00200202C020020114B1B7887
:1013E0000BB91148704780B170B5054601F068FB34
:1013F0000E4900220B461C7B103344B10132082AEF
:10140000F9D101F061FB0A4870BD0A487047130129
:10141000CE182A600122CC50327301F055FB2046D1
:1014200070BD00BFAC020020028000F02C02002042
:10143000048000F0018000F010B5134A82B0002350
:10144000106801908DF8043001F03AFB0F4B1C78C6
:1014500024B101F039FB0E4802B010BD01221A7010
:1014600001F032FB0B4B224603F180011A7310335B
:101470008B42FBD104230DEB03008DF8073001F004
:10148000DBFE002002B010BDBC990000AC020020C1
:10149000038000F02C020020F0B589B084469DF84E
:1014A00038400F9F9DF84060119D019300200B462E
:1014B0001299009207916246039404970596069547
:1014C00002900146FFF7A6FE09B0F0BDF0B589B065
:1014D00084469DF838400F9F9DF84060119D019310
:1014E00000200B46129900920791624603940497DC
:1014F0000596069502900121FFF78CFE09B0F0BD1C
:101500002DE9F8431A4B1A6ED96E11EA02081DD460
:10151000184C194F99460126002516EA080F0CD0E1
:101520002368C9F8686028463BB1A1686268013148
:10153000A1609847637B012B09D00135082D4FEA44
:10154000460604F11004E8D1BDE8F883FEE707EB96
:10155000451303F1080218330028EED1117960F326
:10156000410111711A7960F341021A71E5E700BF78
:1015700000200E402C020020B00200202DE9F84F80
:101580002C4C4FF0000A04F1A005064600274FF04E
:10159000010B237984F805A053B154E906018F4269
:1015A00008BF864209D2801B61EB070144E90601AE
:1015B0002834AC42EDD1BDE8F88FE37933B923711B
:1015C0002368002BF4D084F805B0F1E754E90489CE
:1015D000301A67EB010142464B4604F0BBFE54F85B
:1015E000081CB8EB020869EB0309002944E90689E5
:1015F00054F8043C0EDD0B441D2B44F8043CDFD9A9
:1016000018F1010849F100091E3B44E9068944F834
:10161000043CD5E75B1A1D2B44F8043CD0D918F1E3
:10162000FF3849F1FF391E3B44E9068944F8043C80
:10163000C6E700BFD003002038B5074C0025637F04
:101640002BB90135042D04F12804F8D138BDA36964
:10165000216A28469847F4E7B80300201A4BF0B4F3
:1016600003F1A0014FF0FF344FF0FF351A7F3AB17C
:10167000D3E90067AF4208BFA6423CBF34463D46AF
:1016800028338B42F2D1114A002313706B1C08BF20
:10169000B4F1FF3F16D00E490E4B086000276FF0E3
:1016A0006406AF424FF0040108BFA642196238BF7A
:1016B0003446084B04445C65012111705A6A42F0BB
:1016C00004025A62F0BC7047B8030020B003002047
:1016D0005C04002000200440124B1B780BB9124818
:1016E000704770B5114C054601F0EAF90022214619
:1016F0008B7F28313BB10132042AF9D10C4C01F027
:10170000E3F9204670BD5DB102EB820104EBC1013B
:1017100001261C468E772A6001F0D6F9204670BD5E
:10172000044CECE7B1030020061000F0B8030020E1
:10173000011000F0041000F01C4B1B780BB91C4882
:10174000704770B54FF400414FF4FA720023E1FB8B
:1017500000231046194682B04FF47A72002304F039
:10176000F9FD00256FF064048D4208BF844219D250
:10177000104A966893680093009B9B1B6633F9D9C7
:10178000653041F1FF318D4208BF8442F1D3094AEF
:10179000946893680193019B1B1B8342F9D300203B
:1017A00002B070BD50EA0103F9D0F0E7B1030020A8
:1017B000061000F000200440F8B51D4D2C78002CD8
:1017C00033D11C481C4E1D4F012100F097FB1C48D3
:1017D000032100F0EDFF01211A48347100F08EFB67
:1017E0003046194E02F0CEF80120184902F0A6F852
:1017F000736A174823F4FF6323F007034FF0804E0A
:1018000040F2FF72736221463262B460A022C7F8D0
:1018100080E1C7F800E005F0B0F80E4B0E490F4A22
:101820001C7001230C7014602B700020F8BD00BFE9
:10183000B103002000250A002000002000E100E0A4
:1018400005002400A0091400002004402C00002002
:10185000B8030020B2030020B00300205804002089
:101860002DE9F04F634C247883B01CB9624803B073
:10187000BDE8F08F0328054603D9604803B0BDE8F2
:10188000F08F4FEA8009DFF890A109EB05040AEB1D
:10189000C4041F468846164601F012F9A37F83460A
:1018A0004BB166B917B128460C99B847584601F0B4
:1018B0000BF90020DBE701F007F95148D7E7DFF823
:1018C00054E14FF400434FF4FA700021DEF808C0F1
:1018D000A761E3FB06014FF47A720023CDF804C040
:1018E00004F038FDB8F1010FC4E90201DDF804C0CD
:1018F00073D009EB05030AEBC30301300C9C414A8A
:101900001C6241F10001E3E80601127883F80780C8
:1019100001241C71002AC9D13B4C2368013302D039
:10192000236801332360394E3378F3B9384B394D8E
:10193000C3F800C000238B426FF0640208BF8242EC
:10194000344B38BF1046042760442F6258655A6AEA
:10195000012142F004025A62317022682A4B002AA7
:10196000A4D01A68013A1A60A0E72368012BF4D1C9
:10197000274F09EB05030AEBC30338684FF0000853
:10198000282283F81C80C0EB0C0002FB05A510E0A8
:10199000FFF764FE1F4B3868D3F808C032785B6DE0
:1019A00008F101081B1AC0EB0C00002AD5D09842A0
:1019B000D3D3184ACDF804C0536A23F0040353620A
:1019C000FFF7DCFDFFF738FEDDF804C06046B8F134
:1019D000000FDDD101232B77DAE74FF47A7303FB95
:1019E00006F6C0EB0013A6EB43030F2223616261EE
:1019F0007FE700BFB1030020061000F0021000F0E6
:101A0000031000F0B203002058040020B0030020AF
:101A10005C04002000200440B80300202DE9F843B6
:101A20001B4C01F04DF8636AA269134023F00502D4
:101A30005B070746226226D5164DDFF860802A68CC
:101A4000D4F80890144E012388F80030C2EB090046
:101A500001E0984214D3636A23F004036362FFF742
:101A60008DFDFFF7E9FD4846FFF7F8FDD4F8089033
:101A70002A68636D3178C2EB09009B1A0029E8D10E
:101A8000002388F800303846BDE8F84301F01CB860
:101A9000002004405C040020B0030020B2030020BA
:101AA000F0B4274B274C284D466B002A1ABF1D4621
:101AB00010270027A04201D0F0BC7047022908D0AF
:101AC0001CD9062931D0812903D003292BD000232A
:101AD0000DE01E4A11681368126803F00F0301F449
:101AE000FE4043EA000102F0F0030B43BB4005EA6D
:101AF0000602144913434B63F0BC704789B10129B6
:101B0000E5D1134B18681A681968C1F303510B012A
:101B1000C0F3066043EA0021C2F303430B43BB401A
:101B2000E5E70B4AD6E7094BECE70A4A1368116868
:101B300003F00F0201F0F0031343BB40D7E700BFEF
:101B4000FFFF0080002000400080FFFF1482E00FB4
:101B50001082E00F1882E00FF8B50C460223897856
:101B6000836000220546FFF79BFF60782179637947
:101B7000E778E679020642EA012242EA034343EAB1
:101B8000C7030EB143F00053227A0AB143F00403B5
:101B9000A2790AB143F00203627A0AB143F0010369
:101BA000F329A17817D00A061ED443EA41132B610A
:101BB0006B6923F4F21323F007032178E27A43EAF6
:101BC00041430AB143F480436A0102F18442A17A9D
:101BD0006B619160F8BD0029E5D10328E5D823F0B9
:101BE000706242F08063E0E743F0E0022A616A69D4
:101BF00022F4F21221F0800322F007021343DCE703
:101C000038B5114B9842054611D8B0F5FA4F17D2A6
:101C100047F6FF444FF4FA4569B10819B0FBF5F0F7
:101C200020B101387F2888BF7F200BD938BD1D46E1
:101C3000064C0029F1D1064800F0CCFA0146ECE749
:101C4000441EE9E7C0B238BD0024F400FF23F400CD
:101C500040410500F8B5CC780E4605467CB30168D6
:101C600011F0800731D00A23AB60B27873783178F5
:101C700030791204240243EA016102F4FE0204F402
:101C8000FE4341EA02041C4308B144F0100405F18C
:101C9000C06305F1806271792C60C020106019600A
:101CA0002B681B0600D4F8BD0D4800F093FA0D4BCD
:101CB0009D42F8D10C48BDE8F84000F08BBA2146AF
:101CC0000A48FFF79DFF0446CDE739460748FFF76E
:101CD00097FF39464FF4FA40FFF792FFC3E700BF82
:101CE000B80032000020004000D204000024F400BC
:101CF00008B550B1084B00F5742000F23F20A3FB5B
:101D00000030800C0138C0B208BD044800F062FA0F
:101D10000028EFD108BD00BF83DE1B434041050012
:101D2000F0B4114B114D5B68C9B22A4600231479F7
:101D30008C4202F108020CD00133052BF7D14FF091
:101D40004071094A536823F040730B435360F0BC61
:101D5000704755F83340054F84424FEAC306EBD332
:101D60003E4473791906ECE700000E40D499000058
:101D700038B5074C41F67133256C2364FEF746FAFB
:101D80000021FFF7CDFF0DB10023236438BD00BF54
:101D900000000E400C4A0D4BD2F89010516A21F011
:101DA000300141F0100110B45162146BC0F3C31143
:101DB000033123400F2928BF0F21034343EA017356
:101DC00013635DF8044B704700400E4000F8FF0FAE
:101DD00038B5054C41F67133256C2364FFF7A0FF3D
:101DE0000DB10023236438BD00000E40014B18687C
:101DF000704700BF34000020334B98425BD01AD9A3
:101E0000324B98425BD00CD8314B98423AD003F514
:101E1000371303F5D86398423FD12E4BD3F8001106
:101E200016E02D4B984229D02C4B984235D1294BA6
:101E3000D3F810110CE02A4B98422AD026D9294B0E
:101E4000984226D0284B984227D1224BD3F8EC1049
:101E5000264B274A18601368002BFCD1204B984270
:101E60001DD0204B984221D0224B984203D121F023
:101E7000C06141F08061204B99617047154BD3F8E8
:101E80000C11E5E7134BD3F8FC10E1E7194B98422E
:101E900003D1104BD3F8E010DAE70021D8E721F0A6
:101EA000C061154B41F0007199617047124B21F0F0
:101EB000C06199617047074BD3F8F810C8E7054B2C
:101EC000D3F80811C4E700BF405DC60080BA8C019A
:101ED0000024F400B081E00F0048E80180D54302FF
:101EE00080841E0000093D00C0CF6A00340000203D
:101EF0006428C84340420F0000400E40C0F3032353
:101F0000013B30B4092B13D8DFE803F0251D121272
:101F100021272A120523144D4FF48034134AD2F896
:101F20004431DB07C0F3043004D52844800001604D
:101F300030BC7047D2F840311C42F6D0D2F8403164
:101F40001C42F7D1F1E70A4DC0F30430EDE7094D2B
:101F5000FAE7094DF8E7094DF6E7094D0124DDE7F9
:101F6000084D1024DAE700BF8007F21000400E4051
:101F70000006F2108005F210800AF2100000F21044
:101F80000007F2104007F210C0F30313013B092BC6
:101F90004FD8DFE803F00E141A204E4E262C3B05D6
:101FA0002E4B984245D12E4BD3F8300100F0030060
:101FB00070472B4BD3F80001C0F304207047284B27
:101FC000D3F81401C0F304207047254BD3F8000167
:101FD000C0F300607047224BD3F80C01C0F3082017
:101FE00070471F4BD3F80801C0F3082070471D4B02
:101FF000984229D01C4B98421BD1194BD3F8203161
:102000000120C3F30113984001387047174B9842E1
:1020100011D003F5B01303F58053984209D1104B4A
:10202000D3F82831C3F30123043301209840013849
:102030007047002070470A4BD3F828310120C3F3C2
:102040000113984001387047054BD3F82031012027
:1020500003F00F0398400138704700BFA009140037
:1020600000400E408006160080162E0090171A00C1
:1020700008B5FFF789FF013008BD00BF00F00F0071
:102080000138072847D8DFE800F0121D3346283E04
:102090004604264BD3F85C3103F03003202B40D0AC
:1020A000302B40D0102B0CBF0720012070471F4B56
:1020B000D3F8943003F00703023B052B2FD81C4ABA
:1020C000D05C7047194BD3F8803003F00703013B15
:1020D000032B22D8174AD05C7047144BD3F88830B2
:1020E00003F00703013B032B17D8134AD05C70475A
:1020F0000E4BD3F8843003F00703013B032B0CD8BD
:102100000E4AD05C7047094B1B6F13F0010F14BFD0
:1021100009200720704700207047012070470520E4
:102120007047042070470820704700BF00400E40F1
:10213000C0990000C8990000D0990000CC99000017
:1021400010B50446FFF79AFF1E4B9C422FD01E4B42
:102150009C4226D01D4B9C421DD00138032803D839
:10216000DFE800F01511042B002010BDFEF77AF80F
:10217000174BD3F80021C2F30062013201239340D0
:10218000B0FBF3F010BDBDE81040FEF799B8BDE814
:102190001040FEF78DB80E4BD3F8800000F007001A
:1021A000DBE70B4BD3F8880000F00700D5E7084BBE
:1021B000D3F8840000F00700CFE7BDE81040FEF739
:1021C0007BB800BF030020000500240002001E00B1
:1021D00000400E4000F47810B0F5A01F08B500F0E4
:1021E00098801BD9B0F5001F33D054D9B0F5381FF3
:1021F00034D066D9B0F5401F6BD0B0F5481F1AD166
:102200005B48FFF73BFF072842D0082800F0A58075
:10221000042810D1BDE80840FEF736B8B0F5202FED
:1022200013D00AD9B0F5602F2DD0B0F5801F2FD074
:10223000B0F5402F1CD0002008BDB0F5003F7DD088
:10224000B0F5802F6FD00028F5D1BDE80840FDF72C
:10225000E1BF4848BDE80840FFF772BF4648FFF7B6
:102260006FFF464BD3F82031C3F30113D84008BDAC
:10227000FDF7D0FF414BD3F81431C3F304230133EE
:10228000B0FBF3F008BD3E48FFF7F8FE072860D129
:102290003C4B186808BDB0F5D01F2DD0B0F5F01F2D
:1022A00025D0B0F5B01FC6D13348FFF749FF334BF7
:1022B000D3F82021012302F00F029340B0FBF3F08A
:1022C00008BDB0F5101FB6D12F48BDE80840FFF794
:1022D00037BF2848FFF734FF284BD3F82821C2F333
:1022E0000122043201239340B0FBF3F008BD2248E1
:1022F000BDE80840FFF724BF1E48FFF721FF1F4B32
:10230000D3F828210123C2F301129340B0FBF3F06C
:1023100008BD1D48FFF714FF184BD3F8303103F008
:102320000303D84008BDFDF775FF144BD3F80C31FB
:10233000C3F308230133B0FBF3F008BDFDF76AFFD8
:102340000E4BD3F80831C3F308230133B0FBF3F08D
:1023500008BD09287FF46FAF77E7FDF75BFF074BF8
:10236000D3F80031C3F3042303FB000008BD00BF12
:10237000B80032000300200002001E0000400E40A2
:1023800006000E003400002005002400C0F30313F3
:10239000013B70B50C46092B16D8DFE803F01F5F30
:1023A000156915157592A705924B98420CD1924A62
:1023B000D2F84431D90708D58F4BD3F8301121F02A
:1023C00003010C43C3F8304170BDD2F840315B03C8
:1023D000F2D5D2F840315B03F7D4EDE7FFF7C8FC44
:1023E000864A854B01211160D3F8002142F08072AA
:1023F000C3F80021D3F8001121F4F85141EA042474
:10240000C3F80041FDF72EFF7D4B1C68002CFCD16A
:102410007C4B7D4D59682E6C41F67133C1F30141FF
:102420002B64FFF77DFC06B12C647848FFF7D2FEE1
:10243000774B984278D9774B0121984294BF4FF05F
:1024400080704FF000706D4B6B4A1960D2F800310C
:1024500023F080731843C2F8000170BD664BD3F8B7
:10246000141121F4F85141EA0424C3F8144170BD59
:10247000614BD3F80C1121F4FF3121F4807141EA52
:102480000421C3F80C1170BDFFF772FC5B4A5A4B74
:1024900001211160D3F8002142F08072C3F80021BD
:1024A000D3F8081121F4FF3121F4807141EA0421AD
:1024B000C3F80811FDF7D6FE514B1C68002CFCD167
:1024C000A6E7554B984278D0544B984257D0494B89
:1024D00098427FF479AF484AD2F84431DB073FF5A0
:1024E0006BAFD2F840315E03FBD465E74C4B9842AA
:1024F00027D003F5B01303F58053984217D13E4A15
:10250000D2F84401C40701F10103B3FA83F3C3F124
:102510001B010DD5384AD2F8283123F4407343EA21
:102520000123C2F8283170BD002001468BE770BD41
:10253000D2F840315806EDD5D2F840315806F7D4DC
:10254000E8E72D4AD2F84401C60701F10103B3FAC6
:1025500083F3C3F11F0109D5274AD2F8283123F0AC
:10256000300343EA0113C2F8283170BDD2F840317C
:102570005D06F1D5D2F840315D06F7D4ECE71E4A8E
:10258000D2F84401C00701F10103B3FA83F3C3F1A8
:102590001F0109D5184AD2F8203123F0300343EA4D
:1025A0000113C2F8203170BDD2F840315B07F1D57C
:1025B000D2F840315B07F7D4ECE70F4AD2F8440178
:1025C000C50701F10103B3FA83F3C3F11F0108D575
:1025D000094AD2F8203123F00F030B43C2F820310F
:1025E00070BDD2F840315C07F2D5D2F840315C07BB
:1025F000F7D4EDE7A009140000400E404000C843A6
:10260000C800C64300300E4000000E4000250A00FE
:102610000048E8010090D0038006160080162E00C6
:1026200090171A000139FFF7B1BE00BF144B5B6A67
:1026300013F0300F10B408D020291DD030294FF4EA
:10264000800404D019B10F4A03E04FF480044FF422
:1026500040020B49D1F89030094813409342F9D118
:1026600034B1D0F8A0005DF8044BC0F3802070476F
:1026700001205DF8044B704700244FF40002E8E7A6
:1026800000400E40FF33E107F8B504282AD8DFE800
:1026900000F0484F03542A0000292DD104200823BC
:1026A00003253F490B66D1F890301842FBD1CAB1DF
:1026B00001223B49AA40D1F890301A42FBD1F8BD23
:1026C0003849214489000027354B1E660B68002BD2
:1026D000FCD03AB1334C2C44A4002368002BFCD02E
:1026E00002282FD0F8BD2023102604240525002918
:1026F000E6D10120A040D4E7294B596A11F0300FF0
:102700003AD12949C96B596AC90744D55C6A274936
:1027100024F0300444F010045C62042603250127F1
:10272000D2E74FF400734FF4807608240925DEE7E2
:102730008023402606240725D9E7012635460223B3
:102740000024D4E7002FCDD0154A536A13F00101BD
:1027500017D1FFF76BFF124DD5F89C7002200021B6
:102760000122FFF791FFC7F30A00FFF713FB2E6664
:102770002368002BFCD0F8BD0C4904260325002754
:10278000A2E720234FF48061C2F8A81019465366CF
:10279000FFF74CFFDFE7054904260325012793E7F0
:1027A00000400E408004F21000300E400812C84372
:1027B0001128F8B50C460FD000F00F00013807289B
:1027C00009D8DFE810F036016900670008004C0006
:1027D000430008002D00F8BD042900F023810529DD
:1027E00000F086800025023C0A2CF4D801A353F89F
:1027F00024F000BF8F29000009290000952900005E
:10280000AF290000D7270000D7270000D7270000F6
:10281000D7270000D7270000C7290000132A00008F
:102820004C1E072CD7D801A353F824F0DF29000051
:10283000D7270000D7270000F3290000D727000082
:10284000D7270000052A0000012A0000072900F010
:10285000E580092957D1884B01221A67F8BD874DB9
:10286000013C092CB7D801A353F824F09D2800009F
:10287000A3280000E3280000D7270000D727000086
:10288000B5280000D7270000D7270000D727000071
:10289000B12800007A4DE3E77A4DE1E700232B6091
:1028A000F8BD01210A460020FFF7EEFE0223F6E7FD
:1028B0000423F4E7FDF7D6FC734B984200F28680C0
:1028C00000200146714B6C4A1960D2F80031704902
:1028D00023F0807303430120C2F800310323086012
:1028E000DDE7012001460246FFF7CEFE0123D6E7D1
:1028F000684A694B15689D427FF674AF28460021EF
:1029000000F004FA6FE7F8BD0120032401210A4614
:10291000FFF7BAFEFFF72CFA1DB1604A1368002BCF
:10292000FCD1554B5E485C67FFF754FC564B984210
:1029300071D95C4B0121984294BF4FF080704FF0E9
:102940000070524B4C4A1960D2F8003123F080736A
:102950001843C2F80001FDF785FC504B1C68002CA1
:10296000FCD1514B514E5968376C41F67133C1F36C
:1029700001413364FFF7D4F907B13464002D7FF4CB
:102980002AAF28460121BDE8F84000F0BFB9002079
:102990000424BBE73D4B384A01211960D2F80031CD
:1029A000022043F08073C2F800310446AEE7374B93
:1029B000314A01241C60D2F8003143F08073C2F820
:1029C00000310320A2E7032005249FE7354B0121B6
:1029D000984294BF4FF080704FF0007072E7002172
:1029E000254AD2F85C3123F030030B43C2F85C3146
:1029F000F8BD01210A460220FFF746FE2021EFE73D
:102A00003021EDE701210A460420FFF73DFE1021A9
:102A1000E6E707247EE70020014692E7164B0022F6
:102A20001A67F8BDFDF730FC054600287FF466AF55
:102A3000D8E68C1E00250A2C3FF6CDAE01A353F834
:102A400024F000BF8F29000009290000952900000B
:102A5000AF290000D7270000D7270000D7270000A4
:102A6000D7270000D7270000C7290000712A0000DF
:102A70000724FFF77DF954E700400E4088400E40E0
:102A800084400E4080400E400048E8014000C843AA
:102A90000816C8430C000020002D3101C800C643B1
:102AA00000250A000090D00300300E4000000E40C8
:102AB000024BC00003441960704700BF042AC8439A
:102AC000EFF3108072B6704700B962B6704700BF6E
:102AD0000279C3784179F0B447780478094D0A4EF9
:102AE0008078520142EA8303002F43EA040314BFB3
:102AF00002220022134301F03F026A602B60306023
:102B0000F0BC704700E0014080013C4270B50028F5
:102B10003FD0334B334C1878334B344D344AC0F1EB
:102B2000020010218140216145F60E01D3F8804159
:102B3000C3F88011286840F25511014004F00104E7
:102B400019661368002BFCD1264B1B68DE060FD4D8
:102B5000284E3178052918D12B68DB0702D4224B87
:102B600002221A661CB1204B0022C3F8802170BDDE
:102B70001D49D1F840311C4AD801FAD41D4E1E4BD4
:102B800031781B68136105291CD01120FFF710FE56
:102B9000E2E7154A154BD2F890201A601120FFF792
:102BA0006DFA144B124A18701368002BFCD10D4BB0
:102BB0000B485B680C49104AC3F3014303700B696F
:102BC000136070BD0D4B0A4A18681368002BFCD1C6
:102BD000044B5968C1F30141FFF7FAF8B9E700BFA8
:102BE0006404002000300E4000400E4060040020CD
:102BF000C800C643650400206C0400200C000020BF
:102C0000094A1368002BFCD1084B19685A68C1F3B4
:102C10000121C2F3014291421A688CBF42F01002B6
:102C200022F010021A607047C800C64300300E4000
:102C3000044B1B69C3F30443082B02D1024B034A24
:102C40001A60704700400E400C000020C0EA2101CD
:102C500010B5044680B9FFF7D3FF0F4A136943F05C
:102C60000403136130BF8CB90C4B1B68DB0607D41F
:102C7000BDE81040FDF7F6BA0020FFF747FFEAE78E
:102C8000FFF7D6FFBDE81040FDF7ECBA0120BDE824
:102C90001040FFF73BBF00BF00ED00E000300E40EA
:102CA000F8B5174B04460D46D3F80031FDF7B2FADC
:102CB000144A06461368002BFCD1134F7B68C3F3FC
:102CC00001439C420CD0022C11D0C4F1020210230B
:102CD00093403B611DB10B4A1368002BFCD104B13A
:102CE000F8BD30462146BDE8F840FFF771B83046E0
:102CF0002146FFF76DF810233B61002DF0D0EAE785
:102D000000400E40C800C64300300E4010B5104BC6
:102D100082B0D3F8004158B10E4B1B7813B10E4B63
:102D200098420ED9002002B0BDE81040FFF7B8BFAE
:102D30000191FDF76FFAC4F3042404FB000001992C
:102D4000EAE7022002B0BDE81040FFF7A9BF00BFCC
:102D500000400E4068040020FF2C3101034B027834
:102D60001A7000200121FFF7D1BF00BF68040020C6
:102D7000064942780B6823F4407343EA0223022A8F
:102D80000B6004BF024B5B6A704700BF00300E400F
:102D900000400E402DE9F047072A9DF820609DF87D
:102DA00024502AD8DFF87CA0DFF87C90DFF87C8004
:102DB000DFF87CC001F0030194004FF00F0E0327F1
:102DC000A040A1400EFA04FEA740CAF800E0C9F8EE
:102DD0000000C8F80070CCF800101049104C1144E5
:102DE0008900012000FA02F20B60C1F88060C4F88B
:102DF0002424C1F80053BDE8F087A2F1080401F0D3
:102E00000301A4004FF00F0EDFF828A0DFF8289090
:102E1000DFF82880DFF828C0D1E700BF80208510C8
:102E200000A0004000A4004400A4004608A4004400
:102E300008A4004604A4004404A400460CA40044D2
:102E40000CA40046F0B545003AB12E189BBB1C4CB3
:102E50003601344401268E4026602C18240104F1EA
:102E60008044072904F5204415D84FEA810E67688D
:102E70000F2606FA0EF627EA060702FA0EF63E437A
:102E800066603AB92844C3B90D4B000103440122DE
:102E90008A401A60F0BD01F18046083EA768B6007E
:102EA0004FF00F0E0EFA06FE27EA0E0702FA06F69C
:102EB0003E43A660E5E7034CCAE7024BE5E700BFE7
:102EC0000CA000440CA00046F0B50446006803F0D6
:102ED000030504F1806704F1C06320F440704FF4EF
:102EE000407E2E02206083B0C7F800E01E6029B942
:102EF000154B9C421AD0154B9C421ED0144B206897
:102F00005B5D02FB03F35BB16FEAC20220681A4407
:102F10001144B1FBF3F1830701F1FF3102D42161C8
:102F200003B0F0BD002908BF0121F8E7094801926C
:102F3000FFF750F9019A0146E0E707480192FFF7D1
:102F400049F9019A0146D9E700C0004000C4004099
:102F5000FC9900000082040000920400F8B500F122
:102F60000474E4000D46621C49780A4F95F80CE0A1
:102F7000920081F0010100230364C7631160AA6815
:102F8000696812B17346FFF79FFFA4002B78236096
:102F9000F8BD00BFFFFF0700844A90422DE9F041D1
:102FA000034600F0C38002F58062904240F0BA8090
:102FB0007F4A94684025052600274FF0030E596B81
:102FC00011F4C06F40F0C9801078082800F2B0807A
:102FD000DFE800F0152649553D8E6A710500C905E8
:102FE0001BD54FF48070D86309215078117040B21E
:102FF00000210128196400F0A080BDE8F0816088FC
:103000002188C50640F19D80090A01F0060141F0C2
:10301000F00101201070D96258600120BDE8F081F4
:10302000080600F1A7804906F7D56188DD63C80668
:1030300000F1B68089073CD5117904EBC104072063
:10304000218910700129E8D108225A60E5E70806B5
:1030500000F190804806E0D56188DD63490728D5F6
:1030600007231370D9E7080600F184804806D4D5F9
:103070006188DD6389071CD582F800E09FE76088DE
:103080002188C50643BF090A01F0060141F0F0019D
:1030900001F0FE01440748BF41F001010424012072
:1030A00014705860D962B8E7080663D44906B4D5ED
:1030B000DD63167083E78806AFD511795088DD6926
:1030C00004EBC1042189814242D96468461C5680C0
:1030D0002554508881423BD9042401295C6002D0E8
:1030E000013988424FD01178092996D150787EE76E
:1030F0001179508804EBC10CBCF80880804546D893
:103100000131C9B211716088578010F0040FB3D13A
:10311000C00702D401297FF652AF082002211070A7
:1031200059607AE76FF00300BDE8F081214A40E77B
:10313000FB2009215070117059E751700846BDE815
:10314000F08101F0FE01840748BF41F0010160E712
:103150000129E2D108215960DFE78F0504D5FD2060
:1031600050700921117042E74E054ABFFE20507889
:103170005070F6E78025FF2408200221DD6354709B
:103180001070596049E7082159601178ACE7DCF804
:103190000410441C5480095CD962062313703CE778
:1031A000217802201070D96237E700BF00C00040CC
:1031B0007C040020700400201B4B984230B430D0B7
:1031C00003F58063984228D1184B8268D20744BF28
:1031D000202242604A88950701D50C89ECB154073A
:1031E00018D400220125C0241A705A801A719960DF
:1031F0005D704460C368DA0503D5C369C368DB0545
:10320000FBD40B4BC363036C43F4FC63036430BC1B
:10321000FFF7C2BE0A8A002AE3D16FF0030030BC78
:103220007047044BD1E700BF00C000407C04002081
:10323000FFFF070070040020F8B504460121114883
:10324000FEF75CFEA178627825780F4B0F4841EAC3
:10325000022242EA056200214FF400754FF0004758
:103260004FF0FF361A601962D9625963DF669E66B5
:10327000C0F88051E3785B01DBB280F80933056068
:10328000F8BD00BF00550A0000200E4000E100E03C
:10329000F8B500EB40031B0103F1804303F5622303
:1032A0000C460968C3F88010617BC3F88810A57AC2
:1032B000E17A94F80CE01E4E2D04C0B245EA0151AB
:1032C000012522F00302854041EA4E51C3F88410E3
:1032D000C3F89820B566FFF7F3FBF36E227A2B4311
:1032E000F36612B1736B2B437363637A1BB1104A9D
:1032F000D36A2B43D3620E4B22791B6822B1D2438F
:10330000120262F47F42134062790AB143EA022357
:10331000A2790AB123EA0203E27902B11343044A13
:10332000044913600D60D563BDE8F840FFF7CCBBDE
:1033300000200E4028200E4470B40E7826B9836811
:10334000DA0744BF022343604B788A78002B0CBF16
:1033500000234FF4805302B3CA68026143F4007340
:10336000CA780AB143F480730A790AB143F0400382
:103370004A790AB143F08003CC798A790D7A210128
:1033800041EA82022A431343036026B18368DB07C4
:103390005CBF0123436070BC7047CA68002ADFD05D
:1033A000DBE700BF39B9036943F4003303614368C5
:1033B000D902FCD47047012902D0022908D07047F5
:1033C000036943F40023036143689A02FCD4704705
:1033D000036943F40013036143685B02FCD4704744
:1033E0002DE9F84F0D4614468046FFF7DBFF012D0F
:1033F00000F0BD80C0F0B480022D00F0A18094F8F0
:1034000017A0237D002194F8312022B9626B21F0AE
:10341000F84141EA826194F8382022B9E26B21F048
:10342000F87141EA0251A768E26894F815B0B4F85F
:10343000009094F802C0DFF8C0E260683A4342EAC4
:103440000909BBF1000F49EA0C0C14BF4FF48012BC
:1034500000224CEA02065A1E01EA0E0ED2B221697F
:1034600094F8249094F825C0022A4FEA451740EAC0
:10347000010008EB070B98BF9D49CBF8B8E0CBF8EB
:10348000B060CBF8B40098BF51F82200B4F81AB07D
:10349000A28B216A94F818E0A67D4BEA020292B250
:1034A00042EA010294BF00024FF4C840B9F1000F94
:1034B00043EA020314BF4FF400194FF00009BCF1B6
:1034C000000F43EA090394F830C0A16AE46A14BF0C
:1034D0004FF480194FF00009BEF1000F14BF4FF4F4
:1034E000807E4FF0000E43EA0903002E14BF102225
:1034F000002243EA0E03BCF1000F43EA020314BFAB
:1035000008220022BAF1000F43EA0203474414BF25
:103510000422002244EA014113430843C7F8AC00E7
:10352000C7F8A830A5B1012D00F0A180022D05D16A
:10353000D8F8103043F48013C8F81030BDE8F88F85
:10354000237D032B00F28F80DFE803F0847C736A15
:10355000D8F8103043F48033C8F81030BDE8F88F45
:10356000237D032B7FD8DFE803F051483E34237DD1
:10357000032B78D8DFE803F022180D02E37D5D4AC3
:10358000002B00F0B0800323D2F8AC114FF0010AF9
:1035900039E7E37D574A002B00F0A0800223D2F8E0
:1035A000A8114FF0010A2EE7E37D524A002B00F0EC
:1035B00090800123D2F8A4119A4624E7E37D4D4A76
:1035C000002B00F082800023D2F8A0114FF0010AF6
:1035D00019E7E37D474A002B72D00323D2F89C11F0
:1035E0004FF0010A0FE7E37D424A002B63D002232C
:1035F000D2F898114FF0010A05E7E37D3D4A002B10
:1036000054D00123D2F894119A46FCE6E37D394A5E
:10361000002B47D00023D2F890114FF0010AF2E6B8
:10362000E37D344ACBB30323D2F8BC114FF0010A37
:10363000E9E6E37D2F4A5BB30223D2F8B8114FF0DD
:10364000010AE0E6E37D2B4AEBB10123D2F8B41185
:103650009A46D8E6E37D274A8BB10023D2F8B01111
:103660004FF0010ACFE694F817A00021CBE6D8F876
:10367000103043F48023C8F81030BDE8F88F9A4624
:10368000D2F8F011BFE69A46D2F8F4110123BAE657
:103690009A46D2F8F8110223B5E69A46D2F8FC1100
:1036A0000323B0E69A46D2F8D011ACE69A46D2F897
:1036B000D4110123A7E69A46D2F8D8110223A2E634
:1036C0009A46D2F8DC1103239DE69A46D2F8E0111F
:1036D00099E69A46D2F8E411012394E69A46D2F884
:1036E000E81102238FE69A46D2F8EC1103238AE60A
:1036F000009A0000B081E00FEFEDF67D30B4046871
:1037000014F0070505D0036CDB0722D524F007036E
:103710000360036CDB0723D54161036CDB072DD508
:1037200002234360036CDB0721D501238A424360F7
:1037300008D0036CD9072AD54261036CD9072DD56F
:10374000022343601DB1036CDA0730D5046030BC3E
:103750007047436CDB07D9D5436CDB07F9D4D5E759
:10376000436C5B07D8D5436C5B07F9D4D4E7436C53
:103770009B07DAD5436C9B07F9D4D6E7436C13F06B
:10378000060FCDD0436C13F0060FF7D1C8E7436C9A
:103790009B07D1D5436C9B07F9D4CDE7436C13F05D
:1037A000060FCDD0436C13F0060FF7D1C8E7436C7A
:1037B0009B07CBD0436C9B07F9D1C7E70368026C2A
:1037C00023F00703D20741EA030102D4436CDB076D
:1037D000FCD40160704700BF41B1012905D140010F
:1037E00000F18440C0F82C2D70477047400100F173
:1037F0008440C0F8142D7047826E2DE9F04122F408
:1038000073730446C87C0F7D0E7B23F003030343D0
:103810000D4604F14040497B43EA8713002EA0F592
:103820009C20A3664FEA90280CBF00234FF400436E
:1038300009B143F48043AA7B0AB143F00803EA7B51
:103840000AB143F480732A7C0AB143F40073697CA3
:10385000AA7C43EA8123002A4FD0022A2FD81203E0
:10386000660106F184461036012131604046002190
:1038700043EA0207FFF71CF92A78931E012B20D890
:10388000236CDE0747EA020712D510232360236C5E
:10389000D90702D4626CD207FCD440460121FFF75D
:1038A00007F9AB686361022363602760BDE8F081BC
:1038B000626CD007E9D5626CD007F9D4E5E7002245
:1038C000CEE723685B0705D047F010032360236C25
:1038D000D8070BD5002333606968AA682046FFF734
:1038E0000DFF2B78012B0BD0BDE8F081636CD9075D
:1038F000F0D5636CD907F9D4ECE74FF44052AFE749
:10390000236CDA0704D547F001032360BDE8F0819A
:10391000636CDB07F7D5636CDB07F9D4F3E700BF13
:103920000A4347F6077114300A40034B42F08042C5
:1039300043F82020704700BF00600E40F0B58D783E
:1039400091F801C00B790C78CA7891F805E08F796D
:10395000084EA90141EA8C01214341EA02120430D8
:1039600042EAC322000142EA0E3343EA474333509E
:10397000F0BD00BF00200440014B1860704700BF3D
:1039800000008442427990F804C00178C379F0B510
:10399000120390F801E08778C6788579007A134C95
:1039A00042EA0C220A43BEF1000F42EA034314BF6D
:1039B00004210021002F14BF102200220B43002EEF
:1039C00043EA020314BF20220022002D43EA02032F
:1039D00014BF4FF400420022002843EA020314BF40
:1039E0004FF40032002213432360F0BD0020044056
:1039F00070B5044615461E4601B3202E24D01AD9B0
:103A0000402E16D0602E21D104222368104823F0C6
:103A10006003236005FB02F24901236801EB5201B8
:103A2000B1FBF2F2203AD20010401E4326606061E2
:103A300070BD0622E9E756B91022E6E70548FEF711
:103A4000C9FB202E0146DAD10822DEE770BD70BD29
:103A5000F8FF7F004041050038B50546144619B906
:103A60000548FEF7B7FB014601396400B1FBF4F1EC
:103A70000902696138BD00BF40410500164A174977
:103A8000002330B4904240F6AA6541F20504C560B7
:103A90000360446083604361C36481640366436779
:103AA0008367C3670ED002F5806290420DD002F5A5
:103AB0008062904206D002F58062904205D0836514
:103AC00030BC704700230365F9E703658365002375
:103AD000C36530BC704700BF00000140F9FF010022
:103AE000F8B50C460546FFF7C9FFA37C1BB12B6850
:103AF00043F080432B60E37C1BB1237D43F08003C4
:103B0000AB65278A607BE689237B6168A2683843BE
:103B1000304368602846FFF76BFF637D1BB12B685D
:103B200043F480332B60E27DA37D207E2178120553
:103B30001B0702F4E00203F0E04313432B666A6FB5
:103B400022F030026A676B6F03436B67E960F8BD70
:103B500070B50C460546FFF791FF238AA67B2A68BD
:103B6000207DA17C43F00103002E9BB243EA0203B7
:103B700014BF4FF48062002213432B602B6800288F
:103B800014BF4FF00052002213432B6019B1E37CA5
:103B900043F08003AB65237B6168A26843F48053E4
:103BA0006B602846FFF758FF637B0BB11023EB6077
:103BB000637D1BB12B6843F480332B60E27DA37DD2
:103BC000217812051B0702F4E00203F0E0431343DF
:103BD0002B66E96070BD00BF03695B06FCD54163DD
:103BE000704700BF03695B06FCD5C163704700BF27
:103BF00080B483B000AF0346FB7197F90730002B08
:103C00000BDB084997F907305B09FA7902F01F02CC
:103C1000012000FA02F241F823200C37BD465DF87E
:103C2000047B704700E100E080B483B000AF03463E
:103C3000FB7197F90730002B0CDB094997F9073026
:103C40005B09FA7902F01F02012000FA02F26033E8
:103C500041F823200C37BD465DF8047B704700BF58
:103C600000E100E090B585B002AF396011461A4618
:103C70000346FB710B46BB7113467B71FA79BC7925
:103C80007B7900933B7E0193104639683A6823465E
:103C9000FFF780F80C37BD4690BD00BFB0B592B0BD
:103CA00002AF0346FB71644B07F118041D460FCDAC
:103CB0000FC495E8030084E8030002233B770A233E
:103CC0007B770223BB770B23FB7707F1180318469A
:103CD000FCF778FD0120072101220123FFF7B2F84C
:103CE000012300930120072100220123FFF7BAFFDF
:103CF0000A20FFF799FF0A20FFF77AFF1220FFF74B
:103D000093FF1220FFF774FF00233B7501233B75DF
:103D100007F114031846FFF721F800233B74002332
:103D20007B7400233B7402237B7407F11003184655
:103D3000FFF71EF8FDF740FD012387F83F303F4BAA
:103D40001A6897F83F301046194600F001F9B86339
:103D5000BB6B002B09DAFB7983F00103DBB2002B8C
:103D600002D0374803F022FBFEE71E20FFF740FF9A
:103D700007F10C031846FDF7AFFC4FF47A737B6331
:103D8000FA6800230093104601217A6B2D4BFDF752
:103D900067FD2A4B1B681846122100F0F3FA2A4BE4
:103DA00000221A7097F83F30002B05D1234B1B6877
:103DB0001846FCF715FE04E0204B1B681846FCF77C
:103DC00003FE02E00120FEF743FF1F4B1B78DBB22E
:103DD00083F00103DBB2002BF4D11B4B00221A70DD
:103DE00097F83F30002B04D1144B1B681846FCF7A2
:103DF00049FE124B1A68FB791046194600F048F943
:103E00003863FB7983F00103DBB2002B03D00F484A
:103E1000396B03F027FA02E00120FEF719FF0C4B83
:103E20001B78DBB283F00103DBB2002BF4D1084B2B
:103E300000221A70ADE700BF3C9A0000540A00202F
:103E40000C9A00005D450000580A00202C9A0000E2
:103E5000590A002080B588B000AFF8600B467A6040
:103E6000FB727B681B78DAB27B685B785B01DBB244
:103E70001343DBB2FB777B689B78DAB27B68DB7835
:103E80001B01DBB21343DAB27B681B79DB01DBB2C7
:103E90001343DBB2BB777B685B79DB00DBB203F0FB
:103EA0003803DAB27B689B799B01DBB21343DBB248
:103EB0007B7700233B7700237B83FB7A9B00DBB27D
:103EC00002337B76FB7A9B00DBB203333B76FB7AD3
:103ED0000133DBB29B00FB75FB7A9B00DBB2053341
:103EE000BB757A7EFB7FF86811461A46FCF784FDA5
:103EF00003469AB27B8B13449BB27B833A7EBB7F93
:103F0000F86811461A46FCF777FD03469AB27B8B98
:103F100013449BB27B83FA7D7B7FF86811461A4677
:103F2000FCF76AFD03469AB27B8B13449BB27B83FA
:103F3000BA7D3B7FF86811461A46FCF75DFD0346E3
:103F40009AB27B8B13449BB27B832037BD4680BDE6
:103F500080B588B000AF78600B46FB707868FCF7DE
:103F600021FD0346FB8300F0F3FA00233B75002399
:103F70007B750023BB750023FB7500233B76012373
:103F80007B760023BB760123BB750423FB750123DD
:103F90003B7603237B750123BB7600237B760D23C1
:103FA0003B7507F11403786800211A46FFF752FFAA
:103FB00000233B7300237B730023BB730023FB733D
:103FC00000233B7401237B740023BB740123BB7368
:103FD0000423FB7301233B7403237B730123BB7412
:103FE00002237B7401233B7307F10C0378680121E2
:103FF0001A46FFF72FFF786801210322FCF7FCFC2B
:1040000003469AB2FB8B13449BB2FB83FB78002BD5
:104010002BD178681B210222FCF7EEFC03469AB2F2
:10402000FB8B13449BB2FB8378681C210122FCF7B5
:10403000E3FC03469AB2FB8B13449BB2FB83786884
:1040400005218022FCF7D8FC03469AB2FB8B13446F
:104050009BB2FB83786809218022FCF7CDFC0346E4
:104060009AB2FB8B13449BB2FB8378680F21032227
:1040700000F052F903469AB2FB8B13449BB2FB83C8
:10408000B7F91E3018462037BD4680BD000000003D
:104090002DE9B0438AB000AF78600B46FB7007F1A2
:1040A0000C0378681221072200F0A4F97B7B1A0424
:1040B000BB7B1B021344FA7B13447B623B7C1A04D8
:1040C0007B7C1B021344BA7C13443B627B6A03F47F
:1040D0000003002B03D07B6A43F07F437B623B6A83
:1040E00003F40003002B03D03B6A43F07F433B62A1
:1040F0003B6A07EE903AB8EEE77A7B6A07EE903AB1
:10410000F8EEE77AC7EE277AC7ED067A04237B61DB
:10411000D7ED067AB7EE007AF4EEC77AF1EE10FA30
:1041200036DD7B69184601F0EDFD04460D46786AE0
:1041300001F0E8FD02460B461046194668A3D3E994
:10414000002301F045FE02460B4690469946386A28
:1041500001F0D8FD02460B461046194662A3D3E98A
:10416000002301F035FE02460B464046494601F069
:104170007DFC02460B462046294601F029FE0246F8
:104180000B461046194602F0BDF80346FB617BE082
:10419000B86901F0C9FD02460B461046194654A302
:1041A000D3E9002302F0A4F80346002B36D07B6944
:1041B000184601F0A7FD04460D46786A01F0A2FDFD
:1041C00002460B46104619464BA3D3E9002301F0E3
:1041D000FFFD02460B4690469946386A01F092FD73
:1041E00002460B461046194645A3D3E9002301F0C9
:1041F000EFFD02460B464046494601F037FC0246B9
:104200000B462046294601F0E3FD02460B461046C8
:10421000194602F077F80346FB6135E07B691846E2
:1042200001F070FD04460D46786A01F06BFD024610
:104230000B461046194634A3D3E9002301F0C8FD0C
:1042400002460B4690469946386A01F05BFD0246ED
:104250000B46104619462EA3D3E9002301F0B8FD02
:1042600002460B464046494601F000FC02460B461A
:104270002046294601F0ACFD02460B461046194681
:1042800002F040F80346FB61FB7883F00103DBB2E8
:10429000002B15D00C2002F0FDFF0D4803F086F82E
:1042A0000C48796A02F0DEFF0B48396A02F0DAFF47
:1042B000B86901F039FD02460B46084802F0D2FF0A
:1042C000FB6918462837BD46BDE8B083AFF30080D0
:1042D000549A0000589A0000649A0000709A0000F6
:1042E00095D40968226CB83FE63FA4DFBE0E8CBFB0
:1042F000666666666666E63F499D8026C286C73F5B
:10430000984C158C4AEAB4BF1E166A4DF38ECBBF8B
:10431000F90FE9B7AF03E13F80B58AB000AF78602D
:104320000B46FB701346BB705323FB84FB8C5B0076
:104330009BB23B8201237B82FB783B73BB787B7310
:1043400007F10C037B6102233B8307F10803FB6148
:1043500000233B8407F1100309481946FCF790FA43
:10436000034687F8253097F92530002B02D04FF609
:10437000FF7300E000231BB218462837BD4680BDFE
:1043800000C0004080B58AB000AF78600B46FB707B
:104390005323FB84FB8C5B009BB23B8204237B8218
:1043A000FB783B7307F10C037B6101233B8307F12F
:1043B0002403FB6101233B8407F110030C481946D9
:1043C000FCF75EFA034687F8253097F92530002B75
:1043D00005D0FF2387F824304FF6FF7302E097F8EB
:1043E00024309BB21BB218462837BD4680BD00BFA3
:1043F00000C0004080B58CB000AFF8607B600B4619
:10440000FB721346BB725323BB85BB8D5B009BB213
:10441000BB820423FB82FB7A3B7407F11003BB6170
:104420000123BB837B683B62BB7A9BB2BB8407F1F1
:10443000140316481946FCF723FA034687F82B3075
:1044400097F92B30002B13D0002387F82F300AE088
:1044500097F82F307A681344FF221A7097F82F309C
:10446000013387F82F3097F82F20BB7A9A42EFD389
:1044700097F92B30002B02D04FF6FF7300E000239A
:104480001BB218463037BD4680BD00BF00C000409B
:1044900080B59CB000AFF8607B600B46FB721346A2
:1044A000BB725323A7F86C30BB7A402B02D94FF66E
:1044B000FC7345E0FB7A3B74002387F86F3011E012
:1044C00097F86F30013397F86F2079680A441278B3
:1044D00007F170010B4403F8602C97F86F3001333B
:1044E00087F86F3097F86F20BB7A9A42E8D3B7F815
:1044F0006C305B009BB2A7F854300123A7F856300C
:1045000007F11003BB65BB7A9BB201339BB2A7F8DE
:104510005C3007F150033B660023A7F8643007F1D5
:1045200054030A481946FCF7ABF9034687F86B3089
:1045300097F96B30002B02D04FF6FF7300E0002399
:104540001BB218467037BD4680BD00BF00C000409A
:1045500080B500AF0A20FDF7EFF880BD80B483B0CE
:1045600000AF78603960044B01221A700C37BD46E9
:104570005DF8047B704700BF590A002080B483B007
:1045800000AF0346FB7197F90730002B0BDB08499E
:1045900097F907305B09FA7902F01F02012000FA4F
:1045A00002F241F823200C37BD465DF8047B7047CA
:1045B00000E100E080B483B000AF0346FB7197F9DF
:1045C0000730002B10DB0B4997F907305B09FA79AC
:1045D00002F01F02012000FA02F2203341F82320EA
:1045E000BFF34F8FBFF36F8F0C37BD465DF8047B71
:1045F000704700BF00E100E080B483B000AF034625
:10460000FB7197F90730002B0CDB094997F907304C
:104610005B09FA7902F01F02012000FA02F260330E
:1046200041F823200C37BD465DF8047B704700BF7E
:1046300000E100E080B400AF044BDB6C1B0EDBB28A
:104640001846BD465DF8047B704700BFB081E00F9F
:1046500080B483B000AF7860044A7B68C2F8243429
:104660000C37BD465DF8047B704700BF00A00040DA
:1046700080B400AF034BD3F81C341846BD465DF838
:10468000047B704700A0004090B585B002AF396050
:1046900011461A460346FB710B46BB7113467B71EC
:1046A000FA79BC797B7900933B7E01931046396897
:1046B0003A682346FEF76EFB0C37BD4690BD00BF3F
:1046C00080B582B000AF184B01225A64FFF7B2FFE9
:1046D0000346FB71FB79002B0CD1144B4AF6E852D0
:1046E0001A60134A124B1B6843F0040313600F4B0C
:1046F00000221A60FB79012B05D80E4A0D4B1B686E
:1047000043F4005313600C4A0B4B1B6A23F444130D
:1047100043F488131362044A034B1B6843F4807309
:1047200013600837BD4680BD00000E4090310E403A
:1047300098310E4064310E4000400E4080B483B08A
:1047400000AF786039607B683A681A620C37BD4602
:104750005DF8047B704700BF80B483B000AF786021
:1047600039607B685A6A3B681A437B685A620C3727
:10477000BD465DF8047B704780B58EB000AFFFF793
:104780009FFF002387F83430002387F83530022359
:1047900087F83530002387F8343007F134031846A2
:1047A000FEF7E6FA002387F83030012387F830302F
:1047B00007F130031846FEF7D1FA00F0F5F83B1D7B
:1047C000184600F035F800F04BF8034687F837300C
:1047D00097F83730022B03D097F83730032B03D1EB
:1047E0003B1D184600F0AAF8104B1B68032B1BD882
:1047F00001A252F823F000BF094800001948000048
:104800001148000021480000002000F0E9FA0CE007
:10481000012000F0E5FA08E00020FFF73FFA04E08D
:104820000120FFF73BFA00E000BFFEE78C04002008
:1048300080B582B000AF786008480321FDF7B8FF6B
:1048400000F066F9FBF742FD00207968FBF758FDA0
:10485000FCF76CF80837BD4680BD00BF02001E00A3
:1048600080B582B000AF0023FB71FB79184600F0E1
:1048700021F80BE0FA790D4B1B689A4206D00B4BDE
:104880001B68FB71FB79184600F014F8084B1B7885
:10489000DBB283F00103DBB2002BEBD1034B1B68CF
:1048A000DBB218460837BD4680BD00BF8C0400202F
:1048B0008804002080B584B000AF0346FB710C2053
:1048C00002F0E8FC144802F071FD144802F06EFD9D
:1048D000134802F06BFD134802F068FD124802F025
:1048E00065FD124802F062FD114802F0BBFC002396
:1048F000FB7305E00F4802F059FDFB7B0133FB73AE
:10490000FA7BFB7903339A42F4DB0B4802F0AAFCF2
:104910001037BD4680BD00BF849A0000989A000001
:10492000A09A0000A89A0000B89A0000C89A000057
:104930000C9B0000109B0000149B000080B582B00F
:1049400000AF78600A20FFF735FE1220FFF732FE35
:104950000520062100220123FEF774FA0520072115
:1049600000220123FEF76EFA0C480021FDF7C6FA7B
:104970000B480021FEF722FF0A480021FDF7BEFA8E
:104980001E20FFF717FE1720FFF714FE7B685B69F8
:104990007868002198470837BD4680BDA0091400FB
:1049A00000E00440000A1E0080B582B002AF2C482F
:1049B0000121FDF7A3FA0220092104220023FEF7BA
:1049C00041FA0320082100220023FEF73BFA0020D1
:1049D000062100220023FEF735FA012006210422D9
:1049E0000123FEF72FFA02200A210A220123FEF7F3
:1049F00029FA02200B210A220123FEF723FA0120C3
:104A000007210A220123FEF71DFA052006210222B2
:104A10000123FEF717FA0123009305200621002247
:104A20000123FFF731FE0520072102220123FEF7B3
:104A300009FA012300930520072100220123FFF733
:104A400023FE0A20FFF7D8FD0A20FFF797FD12206A
:104A5000FFF7D2FD1220FFF791FDBD4680BD00BFDC
:104A600000350A0080B582B000AFFFF701FE786024
:104A70007868FFF7EDFD1C4B1B78DBB283F0010378
:104A8000DBB2002B1CD07B6803F04003002B02D06C
:104A9000154B01221A707B6803F08003002B1FD096
:104AA000124B1B685A1C124B1340002B03DA013BBC
:104AB00063F003030133DBB21A460C4B1A600FE0BC
:104AC0000A4B1B68012B03D0084B1B68032B07D133
:104AD0007B6803F08003002B02D0064B01221A7082
:104AE0000837BD4680BD00BF880400208C0400202C
:104AF00003000080580A002080B500AFFFF7B2FF26
:104B000080BD00BF80B500AFFFF7ACFF80BD00BF28
:104B1000B0B586B000AF144B3C461D460FCD0FC458
:104B200095E8030084E8030010480121FDF7E6F949
:104B300001233B707D23BB6000233B740423FB7483
:104B40003B460B481946FEF757FE09480021012253
:104B5000FEF742FE1720FFF711FD05480221FFF77F
:104B6000FBFD1837BD46B0BD189B0000000A1E00B3
:104B700000E0044080B500AF02480221FFF7DEFDEF
:104B800080BD00BF00E0044080B483B000AF0346A6
:104B9000FB7197F90730002B0BDB084997F90730B9
:104BA0005B09FA7902F01F02012000FA02F241F8D3
:104BB00023200C37BD465DF8047B704700E100E020
:104BC00080B483B000AF0346FB7197F90730002B28
:104BD0000CDB094997F907305B09FA7902F01F02EB
:104BE000012000FA02F2603341F823200C37BD4661
:104BF0005DF8047B704700BF00E100E080B485B041
:104C000000AF786039607B6803F1C063FB60FB68CC
:104C10003A681A601437BD465DF8047B704700BFE0
:104C200080B485B000AF786039607B6803F1806341
:104C3000FB60FB683A681A601437BD465DF8047B78
:104C4000704700BF80B582B000AF03463960FB718A
:104C5000FB79002B1CD0FB79012B19D0FB79022B9F
:104C600016D0FB79032B13D0FB79042B10D0FB79E2
:104C7000052B0DD0FB79062B0AD0FB79072B07D02B
:104C8000FB79082B04D0FB79092B01D0FB790A2B87
:104C9000FA7913465B0013441B010C3303F1804384
:104CA00003F520433A68012101FA02F21846114641
:104CB000FFF7B6FF0837BD4680BD00BF80B582B0A4
:104CC00000AF03463960FB71FB79002B1CD0FB79E8
:104CD000012B19D0FB79022B16D0FB79032B13D0B3
:104CE000FB79042B10D0FB79052B0DD0FB79062B1B
:104CF0000AD0FB79072B07D0FB79082B04D0FB796E
:104D0000092B01D0FB790A2BFA7913465B00134477
:104D10001B010C3303F1804303F520433A68012162
:104D200001FA02F218461146FFF768FF0837BD4640
:104D300080BD00BF80B483B000AF78607B689B6C9F
:104D400018460C37BD465DF8047B704780B483B0CD
:104D500000AF786039607B683A681A640C37BD46EA
:104D60005DF8047B704700BF80B483B000AF78600B
:104D700039607B685A6C3B681A437B685A640C370D
:104D8000BD465DF8047B704780B485B000AF7860A5
:104D90007B685B6CFB607B689A6BFB681340184612
:104DA0001437BD465DF8047B704700BF80B483B004
:104DB00000AF78600B46FB70FA787B689A600C371E
:104DC000BD465DF8047B704780B483B000AF786067
:104DD0007B68DB6818460C37BD465DF8047B70477E
:104DE00080B586B000AF0346FB7102200921FFF7B2
:104DF00065FF1F4A07F1080307CA83E8070001237C
:104E00003B721C4AFB791370FB7983F00103DBB220
:104E1000002B06D000F0CCFD00F058FB164802F045
:104E200021FA07F108031846012100F029F800F0E3
:104E300043F8124B1B78DBB2002B14D00F4B00222F
:104E40001A70FB7983F00103DBB2002B0BD005E075
:104E500000F034FC7861786900F070FB00F06AFCC7
:104E60000346002BF4D10120FDF7F2FEE1E700BF7D
:104E7000649B000038000020309B00009504002057
:104E800080B582B000AF78600B46FB70094A7B6842
:104E900013607B681B78002B01D100F02DF8FB78A4
:104EA000184600F095F8FB78184600F003FB083729
:104EB000BD4680BD9004002080B500AF0B4B0022A2
:104EC0001A600B4B00221A700A480121FFF76EFF8F
:104ED00008480121FFF748FF06484FF48031FFF7EB
:104EE00043FF0F20FFF750FE80BD00BF9804002055
:104EF0009504002000200040B0B592B000AF002320
:104F000087F847302F480121FCF7F8FF2E4B3C462D
:104F10001D460FCD0FC40FCD0FC40FCD0FC495E8A4
:104F20000F0084E80F000023FB600023BB6097F8AC
:104F30004730002B09D1F223BB704FF473433B8001
:104F400000237B6001233B6108E08223BB704FF4A8
:104F5000E6433B8000237B6001233B6101233B64EC
:104F60003B461A4801211A46FEF73AFA1749174AF2
:104F70003B6C5B011344A8331B6843F004023B6C99
:104F80005B010B44A8331A601049104A3B6C5B016B
:104F90001344A8331B6823F003023B6C5B010B44F2
:104FA000A8331A600949094A3B6C5B011344A833D2
:104FB0001A683B6C5B010B44A8331A604837BD4646
:104FC000B0BD00BF00F20400709B000000800040F4
:104FD00080B58AB000AF0346FB7169480121FCF738
:104FE0008DFF002387F82030002387F821301F230E
:104FF00087F82230002387F82330002387F82430F5
:10500000002387F82530002387F82030FB79002B18
:1050100016D0802387F82530FCF7E8FE0346594870
:105020001946FCF7EDFD034687F82330FCF7DEFE5A
:1050300003461846FCF75CFE034687F8223005E07D
:105040000020FCF755FE034687F8223000233B750D
:1050500000237B750023BB750023FB7500233B7683
:10506000FF237B760023BB760023FB7600233B7770
:1050700000237B770023BB770023FB770323FB759B
:105080000023BB750123FB7600233B7501233B778F
:1050900007237B753C4B1B78012B0AD0022B0FD0CA
:1050A000002B14D160233B76FF237B760023BB7655
:1050B0000DE06E233B76FF237B760023BB7606E074
:1050C00060233B768E237B760123BB7600BFFB7982
:1050D000002B0BD04FF480100121FCF70FFF294863
:1050E000FCF78AFE294B1022C3F85C2107F120034C
:1050F00027481946FCF7AEFD07F11403244819466A
:10510000FCF72AFD224A224B5B6923F4405353618A
:105110001F491F4B5A6903231B0313434B611D4B4C
:105120001A681D4B1B689B681046194600F03CF836
:10513000052001210122FDF7A7FA18480121FCF7FB
:10514000DDFE174A07F10C031068186092889A80F8
:105150000323FB7300233B7405237B7407F10C03CB
:105160001846FDF7B5FC0F480121FCF7C7FE0020EB
:105170004FF4D0510022FEF7D3FB2837BD4680BD47
:1051800000D2040080D543023900002000400E40C8
:10519000002000409C0400209004002000C2040075
:1051A000F09B000000450A0080B487B000AF786033
:1051B00039603B685A087B6813447B617A683B68B6
:1051C0005B08D31A3B61144B1B78022B05D147F6C1
:1051D000FF73FB60114BBB6004E04FF6FF73FB6095
:1051E0000023BB607A69FB689A4201DDFB687B6142
:1051F0003A69BB689A4201DABB683B61084A7B693D
:105200001B0419463B699BB20B43D3621C37BD4656
:105210005DF8047B704700BF390000200080FFFF6D
:105220000020004080B590B000AF0346FB71002322
:1052300087F83F300023BB637D4BD3F88430002BCD
:1052400014BF0123002387F837307A4B1B68002BEB
:1052500007DA7948FFF7B8FD0346DB431A46754B7A
:105260001A60B1E0BB6B0133BB637148FFF762FDAD
:105270000346DB00BB62BB6AFB60704B1B683B6193
:105280006F4B1B78022B0BD1694BDB6A1B0C9BB25B
:105290001BB23B63664BDB6A9BB21BB2FB6208E04E
:1052A000634BDB6A1B0C9BB23B63614BDB6A9BB2BB
:1052B000FB62BA6A3B6B9A420CDDBA6A614B1B68AF
:1052C0009B685B08D31A1A465C4B1A60012387F867
:1052D0003F3020E0BA6AFB6A9A420CDA594B1B68ED
:1052E0009B685A08BB6A13441A46544B1A60012340
:1052F00087F83F300FE005237B627B6ABA6A1A4168
:105300004E4B19684D4B18687B6A40FA03F3CB1A71
:1053100013444A4A1360494B1A684A4B1B689B68FE
:1053200010461946FFF740FF414BD3F88430002B5D
:1053300014BF0123002387F83730FB7983F0010382
:10534000DBB2002B40D097F8373083F00103DBB29B
:10535000002B0AD03848FFF737FD03469BB2DB43EA
:105360009BB21A46334B1A6010E020233B62314B4C
:105370001B681A463B6AD118334BA3FB0123DA0B97
:1053800013461B049B1ACA1A2A4B1A60294B1B6826
:10539000BB602E4B1B68002B08D197F83F3083F081
:1053A0000103DBB2002B01D0012300E0002303F056
:1053B0000103DBB23B773B6B7B61FB6ABB6107F1AF
:1053C0000803184600F0ECF897F83730002B7FF40C
:1053D00049AF1E4B1B68002B12D01C4B1A681B4B8D
:1053E0001968BB6B8B4228BF0B46D31A174A136050
:1053F000164B1B68002B03D1FB79184600F05AF8B6
:1054000097F83F30002B08D00E4B1B685B680F4AA3
:105410001360FB79184600F041F80C4B1B68002B19
:1054200014BF01230023DBB218464037BD4680BDC0
:105430000020004044000020006004409C04002044
:105440003900002090040020018000809804002092
:1054500080B582B000AF0D48FFF796FC78600B482E
:105460007968FFF773FC0F20FFF7AAFB084B1B7846
:105470001846FFF7D7FE03461A46064B1A70064B2E
:1054800001221A700837BD4680BD00BF00200040D1
:1054900038000020940400209504002080B582B0DC
:1054A00000AF0346FB7101200621FFF7CBFB083755
:1054B000BD4680BD80B582B000AF0346FB710120C0
:1054C0000621FFF7FBFB0837BD4680BD80B584B0E1
:1054D00000AF16480321FDF76BF915480121FCF7D1
:1054E0000DFD14480121FCF709FD12482021FDF7AC
:1054F00099F801233B7000237B700023BB700023CD
:10550000FB7000233B7100237B710023BB710023E0
:10551000FB7100233B720023FB603B4606481946A3
:10552000FDF70AFF1037BD4680BD00BF02001E0018
:1055300000250A008006160000600440F0B59BB00C
:1055400006AF7860002387F84F307B681D687B6862
:105550005C687B681B7D1E467B6899687B68DA689F
:105560007B681B6907F10C0000960191029203937E
:105570000023049309492A46234601F0D1FF03463C
:1055800087F84F3097F84F3007F10C021046194654
:1055900000F098F95437BD46F0BD00BFF89B0000FD
:1055A00080B483B000AF7860404B1B68002B03D100
:1055B0003F4B1B68032B0FD03C4B1B68591E3D4BC8
:1055C00083FB0132CB17D21A13465B001344CA1A6D
:1055D000374B1B689A4200D163E0354B1B68B3F12F
:1055E000FF3F06D1324B00221A60304B00221A6076
:1055F00010E02E4B1B68032B07D12D4B1B68002B93
:1056000003D02B4B00221A6004E0294B1B680133A6
:10561000274A1360264B1A687B6819682648134688
:105620005B001344DB0003441960214B1A687B685C
:105630005968214813465B001344DB00034459605A
:105640001B4B1A687B6899681B4813465B00134420
:10565000DB00034408331960154B1A687B68D9686E
:10566000154813465B001344DB00034408335960BC
:105670000F4B1A687B6819690F4813465B00134487
:10568000DB00034410331960094B1A687B68187DEE
:10569000094913465B001344DB000B4410330246F8
:1056A0001A710C37BD465DF8047B70473C00002042
:1056B0004000002056555555A004002080B483B00A
:1056C00000AF194B1B68B3F1FF3F01D1002325E068
:1056D000154B1A6813465B001344DB00134A13444E
:1056E0007B60114B1A68124B1B689A4208D10E4B13
:1056F0004FF0FF321A600E4B4FF0FF321A600CE091
:10570000094B1B68032B03D1074B00221A6004E0EE
:10571000054B1B680133044A13607B6818460C373D
:10572000BD465DF8047B70473C000020A0040020CB
:105730004000002080B400AF1C4B1B68B3F1FF3F5A
:1057400004D01B4B1B68B3F1FF3F01D1002327E0BE
:10575000164B1B68002B03D1154B1B68032B0FD076
:10576000124B1B68591E134B83FB0132CB17D21A05
:1057700013465B001344CA1A0D4B1B689A4201D1B1
:1057800004230DE00A4B1A68084B1B68D31A5A1CF5
:10579000094B1340002B03DA013B63F00303013391
:1057A0001846BD465DF8047B704700BF3C000020F2
:1057B00040000020565555550300008080B400AFCE
:1057C000054A054B1B6923F00403136130BFBD4636
:1057D0005DF8047B704700BF00ED00E080B588B045
:1057E00006AF01237B600B4B1A68012300937B6893
:1057F000019300230293084B039300230493104664
:105800004FF44021054A064BFBF760FE0837BD46C2
:1058100080BD00BF0409002025580000EC080020CE
:105820001C00014080B58AB000AFF860B9607A60B2
:105830000F4B1B68FA689A4215D100237B620DE07A
:105840000C4A7B6A13441B78D9B207F110027B6AB9
:1058500013440A461A707B6A01337B627B6A002B11
:10586000EEDDFFF7BBFF012318462837BD4680BD9C
:1058700004090020EC08002080B485B000AFF86077
:10588000B9607A60074B1B68FA689A4202D1064BEE
:1058900000221A70002318461437BD465DF8047BB9
:1058A000704700BF000900200005002080B400AF51
:1058B000034B1B781846BD465DF8047B704700BF5C
:1058C0000809002080B58AB006AF78603960FFF71C
:1058D000EDFF034683F00103DBB2002B00D041E073
:1058E00001E0FFF76BFF214B1B78DBB2002BF8D1F7
:1058F0001E4B01221A700023FB8109E0FB89FA8903
:1059000079680A4411781A4AD154FB890133FB8122
:10591000FA893B689A42F1DB164B1A68012300931F
:105920003B68019300230293134B039300230493DA
:1059300010461249124A0E4BFBF7AEFD00BF0B4B4F
:105940001B78DBB2002BFAD100BF0E4B1B6903F4AE
:105950000053002BF9D100BF0A4B1B6903F400531D
:10596000002BF9D01037BD4680BD00BF00050020D8
:1059700004050020000900207958000001000C00F7
:10598000340001400000014080B500AFFBF754FD3A
:1059900005480021FBF722FD04480021FBF71EFD0E
:1059A000FFF71CFF80BD00BF000900200409002094
:1059B000B0B588B000AF25480121FCF79FFA244814
:1059C0000121FCF79BFA0020002104220123FDF7AE
:1059D00039FA0020012101220023FDF733FA0020CB
:1059E000052104220123FDF72DFA1A4B3C1D1D460B
:1059F0000FCD0FC495E8070084E807004FF4E133AA
:105A0000FB603B1D14481946FEF76AF8124A124B18
:105A10009B6F23F01F0393670F4A0F4B5B6F43F09D
:105A2000010353670C4A0C4B9B6F23F4F8539367A5
:105A3000094A094B5B6F43F002035367FFF7A4FF6A
:105A4000064B01221A702037BD46B0BD004204004B
:105A500000350A001C9C00000000014008090020DD
:105A600081F0004102E000BF83F0004330B54FEA0F
:105A700041044FEA430594EA050F08BF90EA020F7C
:105A80001FBF54EA000C55EA020C7FEA645C7FEA0F
:105A9000655C00F0E2804FEA5454D4EB5555B8BF32
:105AA0006D420CDD2C4480EA020281EA030382EAA3
:105AB000000083EA010180EA020281EA0303362D35
:105AC00088BF30BD11F0004F4FEA01314FF4801C08
:105AD0004CEA113102D0404261EB410113F0004F1A
