:1000000000000420C1010000ED010000ED0100002E
:10001000ED010000ED010000ED010000ED01000028
:10002000ED010000ED010000ED010000ED01000018
:10003000ED010000ED010000ED010000ED01000008
:10004000ED010000ED010000ED010000ED010000F8
:10005000ED010000ED010000ED010000ED010000E8
:10006000ED010000E1120000493D0000ED0100003B
:10007000ED010000ED010000ED010000194100005C
:10008000ED010000ED0100004D3D0000ED0100001C
:10009000ED010000ED010000ED010000513D000008
:1000A000ED010000ED010000ED010000ED01000098
:1000B000ED010000ED010000B9170000ED010000A6
:1000C000ED010000ED010000ED010000ED01000078
:1000D000ED010000ED010000ED010000ED01000068
:1000E000ED010000ED010000ED010000ED01000058
:1000F000ED010000ED010000ED010000ED01000048
:10010000ED010000ED010000ED01000010B5054C0F
:10011000237833B9044B13B10448AFF300800123B3
:10012000237010BD20020020000000001086000097
:1001300008B5034B1BB103490348AFF3008008BD6A
:10014000000000002402002010860000154B002B48
:1001500008BF134B9D46A3F5803A00218B460F46FE
:100160001348144A121A04F0EAFF0F4B002B00D078
:1001700098470E4B002B00D0984700200021040028
:100180000D000D48002802D00C48AFF3008004F0A9
:1001900087FF2000290003F05BFC04F06DFF00BF27
:1001A0000000080000000420000000000000000023
:1001B00020020020900B0020000000000000000042
:1001C000064880470649074A074B9A42BEBF51F886
:1001D000040B42F8040BF8E7FFF7B8FF71020000C8
:1001E0001C860000000000201C020020FEE700BF6B
:1001F0000048704700F049020D4AD2F8943003F0ED
:100200000703032B11D0042B03D0022B0BD1094B76
:1002100000E0094B1868D2F80031C3F3042301331E
:10022000B0FBF3F07047054BF4E74FF40040F2E702
:1002300000400E40040000200C00002008000020B8
:1002400008B5FFF7D9FF054BD3F80831C3F30823EE
:100250000133B0FBF3F0024B186008BD00400E40C4
:1002600000000020014B1868704700BF0400002008
:10027000044B054A9A60D3F8882042F47002C3F810
:100280008820704700ED00E0000000004FF40040BF
:1002900070474FF47A707047014B1868704700BF81
:1002A0000C00002010B5084B1A780AB1002010BDD0
:1002B0000122064C1A7054F8043F002BF6D09847E0
:1002C0000028F8D0F3E700BF6C0200200C000020EB
:1002D00008B5094A1278034608464AB1002B09DCE2
:1002E00006492C2202FB031104F01EFF002008BD6A
:1002F0000348FCE70348FAE76C0200203C020020B8
:10030000050011800200118008B50B4B1B780146D7
:100310006BB10A4A1368002B0BDC581C10600848AC
:100320002C2202FB030004F0FFFE002008BD05485C
:10033000FCE70548FAE700BF6C02002068020020D5
:100340003C020020050011800100118010B58029B9
:100350000DD1084908480C6804EB021282424FF0A4
:10036000000087BF186005481C600A6010BD044883
:10037000FCE700BF18000020ED0200200100118002
:1003800002001180004870470400118008B500F099
:100390001DF900F0D3F8002008BD70B50E461D46CB
:1003A0000024AC4206EB041001D1002070BD1022E5
:1003B000002104F0C4FE0134F3E72DE9F7430F46B2
:1003C00003200E210B9E00F023F9062000F003F914
:1003D0000A9D0135ADB22B020DF1080843F001036F
:1003E00028F8023D0221404600F0D0F8002406F132
:1003F000FF390135B44207EB04100AD1022000F0A6
:10040000EAF80E21032000F00FF9002003B0BDE848
:10041000F083102100F0BAF8A1451BBF2B191B0275
:100420004FF6FF7343F0FF0302214046ADF806305C
:10043000013400F0ABF8DDE708B529B10F21032046
:1004400000F0E6F8002008BD0F21032000F0ECF8D2
:10045000F8E7000010B58CB000F0B8F800F06EF8C6
:1004600000F0BEF800231A460821022000F0C2F86E
:1004700000231A460621022000F0BCF800231A4689
:100480000E21032000F0B6F800231A460F210320A6
:1004900000F0B0F800231A460D21032000F0AAF85E
:1004A0007D220D21032000F0CBF80446002834D132
:1004B0001B4B019301238DF8143080230293CDE967
:1004C0000333184B0693184B0793184B0893184B9C
:1004D0000993184B8DF815000A9301A8164B0B933E
:1004E000FFF712FF0446C0B90F21032000F090F877
:1004F0000E21032000F08CF8062000F06CF80CA808
:100500000423022120F82E3D00F040F8022000F0E4
:1005100062F80E21032000F087F820460CB010BDD1
:10052000607D0000390400004D03000085030000D9
:10053000BB0300009B0300008D03000030B587B0B3
:100540000E4D0FCD6C460FC495E8030084E8030000
:100550000B4C0C48012101F0C3FB0B4B02932046CE
:10056000694602F085FF0A236367A36F23F01F2308
:1005700043F00B230020A36707B030BD787D000057
:100580000004014000520400E067350070B50E4ED3
:1005900005460C462CB90C4A13699B06FCD5002075
:1005A00070BD012C01D0EA0706D515F8011B3046B5
:1005B00002F09FFF013CEDE735F8021B304602F0E8
:1005C0009DFF023CE6E700BF0004014008B500F0D3
:1005D00047FC002008BD08B500F018FD002008BD4C
:1005E00008B50121024801F07BFB002008BD00BFD7
:1005F00000350A0010B514462AB9C0B2042202F030
:1006000097F9204610BD0148FCE700BF01001380A8
:10061000012303FA01F1C0B230235843014B1950B2
:10062000002070470CA00046012303FA01F1C0B27C
:1006300030235843014B1950002070470CA0004450
:100640002DE9F04186B004460D463048DFF8D480ED
:100650000121164601F044FB02224FF430610420D0
:1006600002F0F6FD2A4A536923F0070343F004031E
:1006700053619368E0B243F01003264C936029461F
:100680000023042202F054F9224603AB52F8180F5B
:100690005168127A03C3002501211F481A708DF892
:1006A000105001F01DFB0A211C4801F0A3FE01219E
:1006B000404601F015FB012703A88DF80C508DF87A
:1006C0000D508DF80F7002F0F1FD234601A953F88B
:1006D000210F01909A889B79ADF8082038468DF853
:1006E0000A308DF8057002F0C1FD404601F042FC71
:1006F0000B4BB0FBF6F00138586538469D6002F0B0
:10070000CFFD284606B0BDE8F08100BF00450A00D5
:1007100000600E40787D000000250A0005002400DE
:1007200000200440A009140030B585B00446012122
:10073000244801F0D5FA2368234A93423FD002F5BA
:100740008062934239D12148012101F0C9FA012385
:100750000A226179207902F0EBF801230A22E1797B
:10076000A07902F0E5F8237930225A43184B13445C
:1007700003F1C065092103F180630122607902FA67
:1007800000F028606079013902FA00F01860F5D1B4
:1007900020688DF800200323436423898DF801200D
:1007A0005BBA9BB2836423690293E3680193694651
:1007B000237D8DF80C3002F043F905B030BD0548BB
:1007C000C2E700BF4041050000C0004000920400A5
:1007D0000CA000400082040038B5054602F048FA3B
:1007E000044C012801D1013C00D138BD284602F05B
:1007F00043F9F6E7E193040000207047FEE74FF469
:1008000000534B6000207047012070470020704764
:10081000F8B50E468F180D46BD42A5EB060405D16E
:10082000002C08BF4FF0FF342046F8BD00F046F81A
:10083000431CF5D005F8010BEEE70000044B1968E6
:10084000024609B903491960186802441A607047E2
:10085000F0020020900B002070B50E4615460C46A5
:10086000A31B9D4201DC284670BD14F8010B00F06B
:1008700029F8F5E710B58EB003A90020FFF728FD91
:10088000044698B901908DF80800012309498DF8B4
:10089000093001A800F03AFA044638B9064B186846
:1008A000022223462146806805F0C8F820460EB093
:1008B00010BD00BFF4020020440000204FF0FF30C4
:1008C0007047000010B5064B0446186820B1214659
:1008D00000F080FA204610BD4FF0FF30FBE700BF6C
:1008E000F402002008B50A460B2102F047FE40B290
:1008F00008BD10B5044602F0D5FE02F0D3FE02F0AA
:10090000D1FE01220B21204602F038FE044602F0FF
:10091000C9FE204610BD1121FFF7E4BFF7B505461B
:100920000C46174605261121284602F049FE40B222
:1009300000F0E003202B09D0002803DA04B220469F
:1009400003B0F0BD013E16F0FF06ECD111212846A0
:1009500002F036FE04F03F04803C064601AB022262
:100960000A2128468DF805408DF8047002F06EFECD
:1009700004460028E3D11121284602F021FE06F0AA
:100980001F0600F01F00B042D9D11121284602F005
:1009900017FEF6E72DE9F74FC66BDFF8D4C04FEA34
:1009A000810E002700230CEB07050AE0426C52F889
:1009B0000E20D25CAA5C14B1022C54D8D243F2545B
:1009C0000133026B047D9A42F0D8022C14D0C36824
:1009D0006437B7F5487F06EBD306E3D1036B0822F3
:1009E000C90001920091446AC16BDB00002204300F
:1009F000A04703B0BDE8F08F90F8493090F84A2046
:100A000084689B11521102F0040203F002031343A5
:100A100090F84820E40843EAD21304EB440232443D
:100A200006EB04089642D2D0002518F801AD2C46FA
:100A30004AFA05F919F0010F0CBF99464FF0070962
:100A400005EB450B013509FA0BF9082D44EA0904B9
:100A5000EED102F8034C250A240C02F8025C02F8DD
:100A6000014C033ADEE70148C3E700BF04001280EF
:100A7000A07D00002DE9F34190F85430012B04468D
:100A80002ED005D3022B45D1234802B0BDE8F0811A
:100A9000457D002DF8D1636BAB420DD82269B2EBD6
:100AA000C30F1DD9237D012B24D00BD3022BEBD1F7
:100AB000A26802EB42021EE029462046FFF76AFFC9
:100AC0000135E8E7A2680021D208E06B04F037FBAB
:100AD000656B261DED004FF001082369AB420DD870
:100AE000637D002BD0D1216D204602B0BDE8F041DE
:100AF000FFF750BFA268D208FF21E6E7CDE9005812
:100B0000A368E16B676A00223046B8470028BCD171
:100B10000135E2E70020B8E70400128038B504464A
:100B20000025636B606C226B591EA9420FD803F13C
:100B30008043013B002150F8230004F000FB636B6D
:100B40000022013BE264236584F8542038BDAB00E9
:100B5000C118C0584968013504F0E6FAE1E710B55C
:100B6000436C04465BB1D0E90C2300215A43006C6E
:100B700004F0E5FA0023C4E9133384F8543010BDBF
:100B80002DE9F84F0A2904460D4610D00D290BD047
:100B9000082922D1037D012B2CD9FF23A0F848304E
:100BA000002380F84A3012E00023E3640FE0036D75
:100BB0000022C264426B01339342036507D390F86D
:100BC000383033B1FFF7AAFF636B013B2365BDE803
:100BD000F88FBDE8F84FFFF7C2BF1B290AD1494E75
:100BE00004220021304604F0AAFA3570032384F869
:100BF0005430ECE7434B1A781B2A58D113F8016F95
:100C0000002EFBD11D703F48DFF8FCA0DFF8F4B0E8
:100C100004F0E2FF07460AEB86093A464946584681
:100C200004F0E2FF8046002839D1032384F85430D1
:100C3000484604F0D1FF874209D0032FC7D10422D0
:100C40004146304804F07BFA84F85470BFE7023E16
:100C5000032E03D8DFE806F00610171E00232365D5
:100C6000E36403E0236D0BB1013B23650422002103
:100C7000244804F064FAB9E7626B236D013A9342A9
:100C8000F4D20133F1E7226BE36C013A9342EDD2E7
:100C90000133E5E7E36C002BE8D0013BE0E70136E8
:100CA000062EB8D104220021164804F048FA04F0B8
:100CB0001BFA2844E26C437813F0970F236B08BFAC
:100CC00020259A4204D3236D00220133E264236578
:100CD000226D636B9A4208D394F83830204673B182
:100CE000FFF71CFF636B013B2365636C226D53F8B8
:100CF0002220E36C203DD554E36C013355E7FFF728
:100D00002EFFF2E7F8020020C08000002DE9F84332
:100D10002B4D95F85530814688462C46002B4AD1FC
:100D2000291D0068FFF7D4FA0646002840D16B7DE4
:100D300083B9EF69A96805F13C030822281DB8476B
:100D400030B9AF6AAA68E96B0823281DB84710B10B
:100D500006462DE0E06323697F2B2ED9A3687F2B05
:100D60002BD91023C4E90C33D9F80030236099F84B
:100D700004301449144A84F8383099F8053084F85E
:100D8000393021646264002301EB031042F8230030
:100D90000133102BF8D10023A4F8483084F84A30EE
:100DA0000748FFF7DCFE012384F85530C8F80040FF
:100DB0003046BDE8F883054EFAE7054EF8E700BF78
:100DC000FC020020440A0020440B00200500128091
:100DD0000200128038B590F8553004460D46002BBD
:100DE00039D0437DE3B9012394F8382084F8543096
:100DF000E36CBAB13BB9636B226D013B9A4202D1FD
:100E0000002384F854300C2D12D12046FFF7A7FEA2
:100E1000002384F854302046BDE83840FFF72ABE4E
:100E20000223E1E7002BEED1236D002BE8D0EAE7A7
:100E300094F839302BB10A2D03D10D212046FFF74C
:100E40009FFE29462046FFF79BFE94F85430032B63
:100E5000E1D1002000E0014838BD00BF060012804B
:100E60002DE9F04F87B0614A614C10685168127AE1
:100E700003AB03C31A70D4F8B0305A0700F18B806B
:100E800001215C4800F02CFF01265B4800F0D0FFF8
:100E9000032107465848D4F8905001F0ABFA574860
:100EA00000F0C0FFD4F8F0300190DB0705F04005FA
:100EB00073D40121514800F013FF4FF0010801F0F5
:100EC00098FB4F4B1C6814F0010483464FF000025E
:100ED00066D0D3F800905C6A1A605A6240F2FF72E2
:100EE0001A62484B4FF08042C3F880214FF0010A4C
:100EF00000238DF80E308DF80F3003A808238DF8ED
:100F0000103002F0D3F9404B3D494FF480521A6043
:100F10001A6852001A6052B188688A689042FCD000
:100F200088681A68013AFDD88A689042F0D01A6839
:100F3000334952081A601B68334A0920013801D02E
:100F40005B0830D1584601F058FBBAF1000F48D089
:100F500001992A4801F092F9294BC3F800905C628C
:100F6000B8F1000F03D00021244800F0B9FE032F90
:100F700003D03946204801F03DFA25B92A462946D2
:100F8000012001F0B3F91EB100211A4800F0A8FEBB
:100F900007B0BDE8F08F002677E74FF000088EE736
:100FA000A146A246A4E7D2F800C04CEA030CC2F85E
:100FB00000C0D1F808E0D1F808C0E645FBD0D1F870
:100FC00008E0D2F800C0BCF1010CFCD8D1F808C090
:100FD000E6451EBFD2F800C02CEA030CC2F800C0E0
:100FE000ACE7504602F05CF9BAE700BFD8800000D9
:100FF00000400E4000250A0005002400A00914004E
:101000000020044000E100E01C00002003460849E5
:10101000002B0CD0013B88221202003253430A6895
:10102000D80AD20A5043800901D00138FDD8704750
:101030001C0000202DE9F04F85B09B46574B109FB8
:101040001B789DF844A0DDF8508006468946154679
:10105000002B00F09280072A00F291800E9B002B5B
:1010600000F08D800F9B002B00F08980129BB3F560
:10107000006F00F38480012801D1002F7FD0484BFE
:1010800003EB05131B7B002B7BD0464C1022002169
:10109000684604F054F804EB45141022B9F1000F2F
:1010A0005CD14946204604F04AF8A37843F0100387
:1010B000A370E37843F03003E370BAF1000F03D17B
:1010C000DBB243F00303E3703649129BCDF800B066
:1010D0006A01013B885A01EB020C63F30E1088523F
:1010E0000E9BCCF808300F9BCCF804309DF84C10C8
:1010F0009CF80330012E61F383038CF8033042D156
:101100001323CCF80C309CE80F000CF1100E8EE885
:101110000F00DCF81C20CCF814706FF0030161F3B1
:101120009F02B9F1010FCCF81C2004D10F9BCCF821
:101130001830CCF804701A492A018B1841F8028043
:101140000027159A5A6028469F605E7322466946BA
:1011500001F0FAFD384605B0BDE8F08F00212046C9
:1011600003F0EDFF1023A3700323E370BAF1000F27
:10117000AAD1DBB243F03003A5E70B48EBE70B48FD
:10118000E9E70B48E7E7B8F1000FD4D19CF802304B
:1011900068F304138CF80230CDE700BFD4040020BC
:1011A00054030020D4030020028000F0018000F0EE
:1011B000078000F038B5104B1B780546BBB1C0B1B5
:1011C00001F017FA0D49002301EB0312147B3CB91F
:1011D0002B6001231373146001F00FFA204638BD11
:1011E0000133082BF0D101F008FA0548F7E705486C
:1011F000F5E70548F3E700BFD404002054030020BE
:10120000048000F0028000F0018000F013B5164B5E
:101210001868019000238DF8043001F0EAF9134BAF
:101220001C7824B101F0E9F9114802B010BD012287
:101230001A7001F0E2F90F4B1C731C7783F82C40F5
:1012400083F83C4083F84C4083F85C4083F86C4062
:1012500083F87C4004230DEB03008DF8073001F088
:1012600047FD2046E1E700BFE1800000D4040020F4
:10127000038000F05403002010B588B00E9C079442
:101280000D9C06949DF8304005940B9C04949DF8A9
:10129000284003940024CDE9013400920B46024615
:1012A00021462046FFF7C6FE08B010BD10B588B035
:1012B0000E9C07940D9C06949DF8304005940B9C61
:1012C00004949DF8284003940024CDE90134009251
:1012D0000B46024601212046FFF7ACFE08B010BDC8
:1012E0002DE9F843174E326EF36E12EA030800D56B
:1012F000FEE7154CDFF854900127002518EA070F88
:1013000016D02368B7669BB1A16862680131A160FD
:1013100028469847637B012B0AD148B909EB45134E
:10132000197B1A7F60F3410160F3410219731A7748
:101330000135082D4FEA470704F11004DED1BDE85E
:10134000F88300BF00200E4054030020D403002087
:101350002DE9F84F284C4FF0000A04F1A005804613
:101360004FF000094FF0010B237F84F81DA06BB1F3
:10137000D4E90023994508BF9045104619460AD282
:10138000B2EB080063EB0901C4E900012834AC4268
:10139000EAD1BDE8F88FE37F33B92377A369002B47
:1013A000F4D084F81DB0F1E7D4E90267B8EB00008F
:1013B00069EB010132463B4603F0DEFCB01A67EBF5
:1013C000030123696269002BC4E900010BDD1344AA
:1013D0001D2B6361E2D9461C41F100071E3BC4E9A5
:1013E00000676361DAE7D31A1D2B6361D6D910F168
:1013F000FF3641F1FF37F1E7E804002038B5074C2C
:101400000025637F1BB1A369216A284698470135EF
:10141000042D04F12804F4D138BD00BFE8040020F5
:10142000F0B5194E00214FF0FF324FF0FF33741822
:10143000257F3DB1D4E900459D4208BF94423CBFA1
:1014400022462B462831A029F1D1104900240C70E6
:101450005C1C08BFB2F1FF3F0C4614D000279F422E
:101460000B496FF0640608BF9642086038BF3246E9
:101470000849042502440D6201234A6523704B6A22
:1014800043F004034B62F0BDE8040020DC040020BC
:10149000D80400200020044070B50F4B1B7805468F
:1014A000BBB101F0A6F80D490023282606FB031264
:1014B000947F14B935B90A4C07E00133042BF5D1F8
:1014C000084C02E0012191772B6001F096F820464C
:1014D00070BD054CFBE700BFDD040020E8040020E0
:1014E000041000F0011000F0061000F02DE977481C
:1014F0001D4B1B78002B34D04FF400414FF4FA748D
:101500000025E1FB00454FF47A722046294600236E
:1015100003F032FC154A83468C466FF064040025C4
:10152000654508BF5C4507D35946BBF1000F0FD195
:10153000002003B0BDE87088966893680093009B14
:101540009B1B6633F9D91BF1650B4CF1FF3CE7E7B8
:10155000064B98689A680192019A121A9142F9D83A
:10156000E6E70348E5E700BFDD0400200020044073
:10157000061000F070B51C4D2C78002C32D10121E2
:101580001A481B4E00F0ACFB03211A4800F032FF52
:1015900001211948347100F0A3FB304601F086FEAA
:1015A0001649012001F062FE154A1648536A23F4D9
:1015B000FF6323F00703536240F2FF731362124B81
:1015C00094604FF08042C3F8802121461A60A02227
:1015D00003F0B5FD0D4B1C700D4B1C700D4B1C60CA
:1015E00001232B70002070BDDD04002000250A00BF
:1015F0002000002005002400A0091400290000207C
:1016000000200440E804002000E100E0D5040020B0
:10161000DC040020E00400202DE9F74F93465C4AEB
:101620001278074689461E46002A00F0AD8003283E
:1016300000F2AC8000F0DDFF564A282404FB0724AA
:101640008046A17F924629B900F0D7FF524803B0E7
:10165000BDE8F08FBBF1000F08D116B10C993846E8
:10166000B047404600F0C9FF0020F0E74B4A4FF476
:10167000004C4FF4FA7000219568A6614FF47A721D
:101680000023ECFB0B0103F077FBB9F1010F0246DD
:101690000B46C4E9022309D14FF47A7303FB0BFB19
:1016A0001E2303FB10B323610F236361282303FB75
:1016B00007A301304FF0010241F10001C3E900012D
:1016C0001A770C9A83F81F901A62354B1B78002BFF
:1016D000C7D1344C236801331EBF23680133236014
:1016E000314B01931A78E2B9304B2C4E1D60042324
:1016F000336200236FF064028B4208BF824238BF1E
:10170000104628447065736A019A43F004037362BB
:10171000012313702368002BA3D02368013B2360AF
:101720009FE72368012BF5D1282303FB07A300269D
:10173000DFF86890DFF874B01E77D9F8242022F023
:101740000402C9F82420DBF80000281AFFF700FE85
:10175000FFF754FE26B9282202FB07A201201077CA
:101760002846FFF75DFE114BD9F808501868D9F8E4
:101770005420019BA5EB000C121A187801360028A2
:10178000C8D09445D9D2C5E7094860E709485EE763
:10179000DD040020E8040020031000F000200440D5
:1017A000D5040020E0040020DC040020D804002040
:1017B000061000F0021000F02DE9F843194C00F07B
:1017C00018FF626AA1690A4022F005015307064624
:1017D000216221D5144AA768144DDFF854900121E5
:1017E00011709046636A23F0040363622868381A14
:1017F000FFF7AEFDFFF702FE3846FFF711FE2A683D
:10180000A768636DB91A9B1A99F800200AB199422A
:10181000E8D2002388F800303046BDE8F84300F0F5
:10182000ECBE00BF00200440D5040020D8040020F6
:10183000DC04002070B52D4B2D4D446B002A08BFF1
:101840001D462C4B14BF1026002698423AD102297F
:101850003FD004D8B9B1012921D000232DE00629B9
:1018600031D0812935D00329F7D1234B1A68196863
:101870001B68120C1B0C03F0F00302F4FE421A4327
:10188000C1F3034318E01D490B680A6803F4FE43E3
:1018900002F00F021A430B6803F0F0030CE0174A42
:1018A0001368116812681B0C120C02F0F00203F4AA
:1018B000FE431343C1F303421343B3402C400D4A8C
:1018C0002343536370BD0E4B1A681B6802F00F026E
:1018D000E2E7094A13681168126803F4FE4301F055
:1018E0000F010B4302F0F002E6E700BF0080FFFFAC
:1018F000FFFF0080002000401482E00F1082E00F04
:101900001882E00F38B50C460223836000228978E4
:101910000546FFF78FFF207961786279030243EA79
:10192000016343EA0243E27843EAC203E2790AB17F
:1019300043F00053227A0AB143F00403A2790AB1BA
:1019400043F00203627A0AB143F00103F328A2785C
:1019500006D12AB903299CBF23F0706343F080634A
:1019600051B20029ACBF43EA421343F0E0032B61BC
:101970006B69002923F4F21323F00703BCBF22F0A4
:1019800080021343227843EA4243E27A0AB143F4E5
:1019900080436B616D0105F18445A37AAB6038BD6E
:1019A00010B5B0F5FA4F0B4C38BF4FF4FA408442F3
:1019B00028BF044619B9084800F0DCFA0146631E46
:1019C0001944B1FBF4F018B101387F2828BF7F20FB
:1019D000C0B210BD0024F40040410500F8B5CC7839
:1019E00005460E4674BB21461E48FFF7D9FF044644
:1019F0000A23AB607178337841EA0361B3781B0442
:101A000003F4FE0319432402337904F4FE44214312
:101A10000BB141F0100105F180632960C02172799A
:101A2000196005F1C0631A602B681B0618D50E48B3
:101A300000F0A0FA0D4B9D4212D10D48BDE8F840D0
:101A400000F098BA076817F08007D1D139460548E9
:101A5000FFF7A6FF39464FF4FA40FFF7A1FFC7E7AB
:101A6000F8BD00BF0024F400B800320000200040A0
:101A700000D2040008B528B9074800F07BFA002816
:101A800008BF012000F57420044B00F23F20B0FB9A
:101A9000F3F00138C0B208BD4041050040420F00DC
:101AA0000C4B984210D90C4B984210D902220123BA
:101AB0000A490B600A49D1F8003123F0807343EAE8
:101AC0000263C1F80031704700221346F0E701229B
:101AD000FBE700BF0048E8010090D0034000C84386
:101AE00000400E4030B50E4B0E4C5B68C9B200236F
:101AF00004EBC30215798D4203D154F8335085426B
:101B00000BD20133052BF3D1032205494B6823F097
:101B1000407343EA02634B6030BD5279F5E700BF82
:101B200000000E40F480000038B5074C41F67133D8
:101B3000256C2364FEF75CFB0021FFF7D3FF0DB19A
:101B40000023236438BD00BF00000E40044BD3F8CF
:101B50004421D20703D4D3F840211042FBD170476F
:101B600000400E4010B50C4AD2F89030516A0B4B31
:101B700021F0300141F010015162146BC0F3C31128
:101B800003310F2903EA040328BF0F21034343EA6B
:101B90000173136310BD00BF00400E4000F8FF0F3B
:101BA000044A1368002BFCD1034B5868C0F3014072
:101BB000704700BFC800C64300300E4038B5054C22
:101BC00041F67133256C2364FFF78CFF0DB10023C0
:101BD000236438BD00000E40014B1868704700BFF9
:101BE00030000020314B984247D012D8304B9842F9
:101BF0002AD004D82F4B984226D0002327E02E4B22
:101C0000984221D02D4B9842F7D12D4BD3F8EC3090
:101C10001DE02C4B984238D00CD82B4B984230D03A
:101C200003F5371303F5D8639842E6D1244BD3F874
:101C300000310CE0254B98422BD0254B9842DCD14B
:101C40001F4BD3F8103102E01D4BD3F8E030214A8E
:101C5000214910600A68002AFCD1154A90421CD024
:101C6000154A90421ED0134A904203D123F0C0631C
:101C700043F08063194A93617047114BD3F8F830F1
:101C8000E5E70F4BD3F8FC30E1E70D4BD3F8083113
:101C9000DDE70B4BD3F80C31D9E723F0C06343F0F9
:101CA0000073E7E723F0C063E4E700BF405DC600D0
:101CB00080841E0040420F0000093D00C0CF6A0032
:101CC000B081E00F80BA8C010024F4000048E801E4
:101CD00080D54302300000206428C84300400E40F5
:101CE00038B5C0F30322013A0546092A13D8DFE8C4
:101CF00002F023131212051619121C20104C00209A
:101D0000C5F3043508B1FFF721FF04F1047405EBB6
:101D1000C404A400216038BD00200A4CF0E7012073
:101D2000094CEDE71020094CEAE74FF48030084CED
:101D3000E6E70020074CE3E70020074CE0E700BFA0
:101D4000B0400E40C0400E40E0400E40E8400E4023
:101D5000F0400E4050410E4000400E40C0F30313CF
:101D6000013B092B26D8DFE803F0050B0F152525CD
:101D70001B1F364A264BD3F80001C0F304207047DE
:101D8000234BD3F81401F8E7214BD3F80001C0F33B
:101D9000006070471E4BD3F80C01C0F30820704759
:101DA0001B4BD3F80801F8E71A4B984204D01A4BA2
:101DB00098420AD000207047154BD3F8203103F029
:101DC0000F030120984001387047114BD3F82031A0
:101DD000C3F30113F5E7114B98420CD003F5B01390
:101DE00003F580539842E5D1094BD3F82801C0F39D
:101DF0000120031DE5E7064BD3F82831E8E7084B3F
:101E00009842D7D1024BD3F8300100F0030070475D
:101E100000400E408006160080162E0090171A0013
:101E2000A009140008B5FFF799FF013008BD0000B4
:101E300000F00F000138072848D8DFE800F0040F51
:101E40001947232D4735244BD3F8943003F007036B
:101E5000023B052B3CD8214AD05C70471E4BD3F87F
:101E6000803003F00703013B032B33D81C4AF3E710
:101E7000194BD3F8843003F00703013B032B29D817
:101E8000184AE9E7144BD3F8883003F00703013B05
:101E9000032B1FD8144ADFE70F4B1B6F13F0010F02
:101EA00014BF0920072070470B4BD3F85C3103F0B7
:101EB0003003202B06D0302B06D0102B0CBF072070
:101EC00001207047042070470820704700207047A9
:101ED000052070470120704700400E40E58000005B
:101EE000EB800000EF800000EB80000008B50146A9
:101EF000FFF79EFF1B4B994211D01B4B994212D00A
:101F00001A4B994204D11A4BD3F8800000F0070015
:101F10000138032824D8DFE800F00A0E1612144B0B
:101F2000D3F88400F2E7124BD3F88800EEE7BDE85F
:101F30000840FEF7ABB9BDE80840FEF7ADB9BDE813
:101F40000840FEF7A6B9FEF77BF9094BD3F800313C
:101F5000C3F300635A1C01239340B0FBF3F008BDA8
:101F60000020FCE7030020000500240002001E0002
:101F700000400E4008B500F47810B0F5A01F6CD0FA
:101F800021D8B0F5202F07D00AD8B0F5003F59D09E
:101F9000B0F5802F4BD0A8BBBDE80840FEF72CB9A8
:101FA000B0F5602F00F08380B0F5801F00F08780CF
:101FB000B0F5402F26D1FEF71FF9474BD3F8143167
:101FC000C3F304233AE0B0F5001F59D013D8B0F59D
:101FD000D01F57D0B0F5F01F3AD0B0F5B01F11D1D7
:101FE0003E48FFF783FF3C4BD3F8202102F00F025D
:101FF0000123934023E0B0F5381F38D004D8B0F562
:10200000101F52D0002008BDB0F5401F43D0B0F5DE
:10201000481FF7D13248FFF70BFF07284FD0082899
:1020200050D00428EED1BDE80840FEF71BB9FEF7FA
:10203000E3F8294BD3F80C31C3F308230133B0FB89
:10204000F3F0E0E7FEF7D8F8234BD3F80831F3E7D5
:102050002248BDE80840FFF749BF2248FFF746FF86
:102060001D4BD3F8303103F00303D840CBE71B48B6
:10207000FFF73CFF184BD3F82031C3F30113F4E70B
:102080001948E6E71848FFF731FF134BD3F828212A
:10209000C2F30112ACE71448FFF728FF0E4BD3F848
:1020A0002831C3F301231A1DA2E70E48D1E70F48D8
:1020B000FFF7BEFE072802D00928A3D16CE70C4B1E
:1020C0001868A0E7FEF798F8034BD3F80031C3F384
:1020D000042303FB000096E700400E4002001E00B0
:1020E000B8003200050024000300200006000E00A6
:1020F0003000002010B5C0F30313013B0C46092B40
:102100002DD8DFE803F005232C2D2C2C394A8150E3
:10211000FFF70AFD5248FFF7C3FC524BD3F80011FA
:1021200021F4F85141EA0424C3F80041FEF788F88D
:102130000446FFF735FD01462046FFF73FFD4A48BC
:10214000FFF718FFBDE81040FFF7AABC454BD3F8D6
:10215000141121F4F85141EA0424C3F8144110BDCC
:10216000404BD3F80C1121F4FF3121F4807141EA86
:102170000421C3F80C11F2E7FFF7D6FC3848FFF74B
:102180008FFC384BD3F8081121F4FF3121F4807112
:1021900041EA0421C3F80811C8E7344B984212D031
:1021A000334B984220D0334B9842D8D14FF4802003
:1021B000FFF7CCFC2B4BD3F8301121F003010C437B
:1021C000C3F83041CBE701340420B4FA84F1FFF7BF
:1021D000BDFC244BD3F82041C1F11F0124F00F04B2
:1021E0000C43C3F82041BAE701340420B4FA84F167
:1021F000FFF7ACFC1B4BD3F82041C1F11F0124F0C9
:10220000300444EA0114ECE71B4B984215D003F567
:10221000B01303F580539842A1D101344020B4FAA1
:1022200084F1FFF793FC0F4BD3F82841C1F11B0158
:1022300024F4407444EA01240EE001344020B4FA4E
:1022400084F1FFF783FC074BD3F82841C1F11F014C
:1022500024F0300444EA0114C3F828417FE700BFAA
:102260000148E80100400E4000250A0080061600E3
:1022700080162E00A009140090171A000139FFF7EC
:1022800039BF00000E4B5A6A12F0300F04D02029DB
:1022900013D0302900D011B94FF4400200E0094AB0
:1022A000D3F8901032EA0101FAD1520246BFD3F8B6
:1022B000A000C0F38020012070474FF40002EFE738
:1022C00000400E40FF33E10702280AD129B1064B36
:1022D0004FF48060C3F8A800596612B10220FFF7DE
:1022E000D1BF0120704700BF00400E40F8B5042860
:1022F00050D8DFE800F00A03116F740080264024F4
:1023000006230725002951D048E04FF400764FF40A
:10231000807408230925F5E7002944D0324C636A0C
:1023200013F0300F37D1314BDB6B636ADB0705D518
:10233000636A23F0300343F0100363620424022332
:102340000325294E34662A4E33449B001F68002F14
:10235000FCD0FAB13544AD002B68002BFCD002282C
:1023600018D1B9B1204E716A11F0010118D00122C3
:102370002021FFF7A9FFD6F89C700122002102203E
:10238000FFF7B4FFC7F30A00FFF7ECFB34662B68D6
:10239000002BFCD0F8BD0424022303250021D0E744
:1023A000FFF770FFE7E70826022303250E49012007
:1023B0000E6600FA03F3D1F890001842FBD1002A10
:1023C000E8D00123084A03FA05F5D2F890302B42F1
:1023D000FBD1DFE7012402260023254692E72026D1
:1023E0001024042305258DE700400E4000300E40E8
:1023F0008004F21070B5112806460C4626D1042937
:1024000012D1FDF72FFF0546A8B10021284600F0A4
:1024100007FA06F00F06013E072E72D8DFE806F035
:1024200023186D716B8B7196052904D1624B1D6861
:10243000624B9D42E9D8023C0A2C62D8DFE804F0E6
:102440001E51434A616161616155B7000025E0E7B3
:102450005B4D013C092C54D8DFE804F06B545B530E
:10246000536253535351023C0A2C4AD8DFE804F01C
:10247000073A2C3349494949493E4100002500208B
:10248000042401221146FFF731FFFFF74DFB1DB178
:102490004C4A1368002BFCD14B4B4C485C67FFF750
:1024A00069FDFFF7FDFAFDF7CBFE0446FFF778FB69
:1024B00001462046FFF782FB1DBB28460121BDE8EF
:1024C000704000F0ADB900254148FFF7E9FA02205D
:1024D0000446D6E700253E48FFF7E2FA0124032030
:1024E000CFE7002501200324CBE7002503200524A6
:1024F000C7E70724C9E7374DABE7374DA9E7042302
:102500002B6070BD012211460020FFF7EFFE022371
:10251000F6E7012211461046FFF7E8FE0123EFE738
:10252000FDF78EFEFFF7BCFA2C4B01221A60032345
:10253000E6E70023E4E7072C04D0092CE1D1224B85
:10254000012201E0204B00221A67DAE7013C072C48
:10255000D7D801A353F824F0AB25000003250000D1
:10256000032500009D250000032500000325000031
:102570008F2500007925000003221349D1F85C3132
:1025800023F0300343EA0213C1F85C31B9E70122BA
:1025900011460420FFF7AAFE0122EEE701221146B0
:1025A0000220FFF7A3FE0222E7E70022E5E7FFF79C
:1025B000BBFA002507246FE708000020002D310139
:1025C00080400E40C800C64300400E4000250A006F
:1025D0000148E80188400E4084400E400816C84378
:1025E000C000014B19507047042AC84300B962B6B5
:1025F0007047EFF3108072B67047FFF7F7BF000027
:1026000030B543790B4AC578047803F03F03536033
:102610004378002B03794FEA431343EA850314BF41
:102620000221002123430B431360034B82781A607D
:1026300030BD00BF00E0014080013C42024A136807
:10264000002BFCD1704700BFC800C64308B5FFF798
:10265000F5FF084B19685A68C1F30121C2F3014222
:1026600091421A688CBF42F0100222F010021A60E8
:1026700008BD00BF00300E40064B1B68DB0608D5C6
:10268000054B1B69C3F30443082B02BF034B044AE9
:102690001A60704700300E4000400E4008000020D5
:1026A000C0EA210138B5234B234D1B782349244828
:1026B000C3F10202102393402B6145F60E03D1F8BB
:1026C0008041C1F88031036823F0AA03DB05DB0DEC
:1026D0000B66FFF7B3FF2B6813F0100F04F0010433
:1026E000054614D0D1F84031DA01FBD4154B1B68F4
:1026F0000B61154B197805290DD1144B1868FFF79C
:102700009DFF0D4B5968C1F30141FFF757FA0E4B7E
:102710001978052902D01120FFF76CFE2B68DB0722
:102720005EBF064B02221A661CB1044B0022C3F89E
:10273000802138BD9505002000300E4000400E403D
:1027400088050020900500208C050020080000204E
:1027500010B50B4C0B4BD4F890201A601120FFF7EA
:1027600067FB094B1870FFF769FF084B084A5B6865
:10277000C3F301431370074B22691A6010BD00BFF9
:1027800000400E40880500208C05002000300E40DF
:10279000950500209005002010B5044608B1FFF70C
:1027A000D7FFFFF753FF084A136943F0040313618F
:1027B00030BF1CB1BDE81040FFF774BFFFF75CFFEE
:1027C000BDE81040FDF73CBD00ED00E0F8B5124B50
:1027D000124DD3F8003104460F46FDF70DFD0646B5
:1027E000FFF72CFF6A68C2F30142944213D0022C17
:1027F00002D12146FFF7E2F9C4F10202102393400F
:102800002B610FB1FFF71AFF2CB921463046BDE806
:10281000F840FFF7D3B9F8BD00400E4000300E403D
:1028200038B50C4B0D46D3F8004128B9FDF7E4FC50
:10283000C4F3042404FB0000074B1B7829463BB17A
:10284000064B984204D80220BDE83840FFF7BEBFCF
:102850000020F9E700400E4094050020FF2C3101D4
:10286000034B02781A7001210020FFF7D9BF00BF87
:1028700094050020064942780B6823F4407343EA2C
:102880000223022A0B6004BF024B5B6A704700BF41
:1028900000300E4000400E4070B5072A01F00301E1
:1028A0004FF00F0523D896001A4CB540256004F16F
:1028B0000074B04020600320B04001FA06F61649CB
:1028C000086001F100710E601449114489000B6029
:1028D0009DF81030C1F88030012303FA02F2104B4A
:1028E000C3F824249DF81430C1F8003370BDA2F160
:1028F0000804A4000B4EA54035600B4DA040286095
:102900000320A04001FA04F40849086001F10071B5
:102910000C60D9E700A4004408A40044802085107E
:1029200000A0004004A4004404A400460CA40044F9
:10293000F0B54AB130261E4C012546438D40344443
:102940000BB304F1C06425603024444304F1804497
:10295000072904F5204419D865688E000F27B74071
:1029600025EA070502FA06F63543656052B90122E9
:1029700002FA01F1302250430D4A0244A3B102F1A0
:10298000C0621160F0BD04F18064DCE701F18045B4
:10299000083DA668AD000F27AF4026EA070602FAF9
:1029A00005F53543A560E1E702F18062E9E700BF84
:1029B0000CA0004070B50546144608464AB32A6884
:1029C00003F0030605F1806322F440724FF4407176
:1029D0002A60196005F1C06332021A6028B9104BF1
:1029E0009D4217D10F48FFF7C5FA2B680E4B9B5D30
:1029F00063430ED06FEAC4041C442118B1FBF3F109
:102A00002B689B0701F1FF3102D5002908BF012186
:102A1000296170BD054B9D42E7D10548E3E700BF42
:102A200000C00040008204001C81000000C400407F
:102A30000092040000F10470400101607047000042
:102A400038B5002303640B4BC3634A78430103F199
:102A5000844382F001020C465A6005460B7BD1E9A3
:102A60000112FFF7A7FF21782846BDE83840FFF79D
:102A7000E1BF00BFFFFF07002DE9F041794B98420D
:102A800014D003F58063984240F0E780764B9A6853
:102A9000402505244FF0000E0327416B11F4C06F51
:102AA0000BD08E0504D5FD225A70D2E06F4BEEE7B5
:102AB0004D0540F1CE80FE22F6E71E78082E00F28A
:102AC000CA80DFE816F009002C004F0059006F00A3
:102AD0007A0098009F00C10051881288CC0617D553
:102AE000120A02F0060242F0F00201211970C262DD
:102AF00041601A78092A40F0B38093F9011000224E
:102B00000129026408BF5A7093F90100BDE8F08101
:102B100002F0FE028F0748BF42F00102E5E70E0611
:102B200008D58022C263FF225A7008221A7002223E
:102B30004260DEE7490640F193805188C563CE06C6
:102B400004D5022112781970C262D2E7890757D5DD
:102B500007211970197902EBC1021289012A7FD16C
:102B60000822E5E70E06DCD4490679D55188C5630D
:102B70008E0745D51F7090E751881288CC0643BF59
:102B8000120A02F0060242F0F00202F0FE024F07C3
:102B90004FF0040119704FF0010148BF42F00102EB
:102BA0004160D1E70E06BCD44E0659D55188C563A5
:102BB000490725D507221A709BE719795E8802EB31
:102BC000C10CBCF80880B0450DD80131C9B21971EB
:102BD0005688A3F802E016F0040FCBD1F607A4D470
:102BE0000129A2D859E7DCF80420711C5980925DB4
:102BF000C2620622DFE70E0693D44E0630D5C563C7
:102C00001C704AE789062BD519795C88C56902EBE7
:102C1000C1021189A14281BF5268661C5E801555B0
:102C20005A88914206D801294FF008027FF47EAFFE
:102C300042607BE70424012944607FF65AAF0139E2
:102C40008A427FF456AF8BE7CA0509D54FF48072EC
:102C5000C2630922AFE7FB2226E76FF0030055E7C6
:102C6000012053E700C00040A40500209805002083
:102C700010B41B4B984208D003F5806398422BD0C8
:102C80006FF003005DF8044B7047164B8268D20763
:102C900044BF202242604A88940702D50C89002C48
:102CA000EED0520702D50A8A002AE9D00022012478
:102CB0001A705C705A801A719960C0234360C368AF
:102CC000DB050BD4084BC363036C5DF8044B43F482
:102CD000FC630364FFF7D0BE044BD7E7C369EEE79C
:102CE00000C0004098050020FFFF0700A405002059
:102CF00010B5044601211148FEF7F2FFB4F8013087
:102D000022785BBA9BB243EA02630D4A1360002348
:102D10001362D36253634FF00043D3664FF0FF3327
:102D20009366084A4FF40071C2F88011E3785B01A2
:102D3000DBB282F80933116010BD00BF00550A00F4
:102D400000200E4000E100E02DE9F041254D91F812
:102D50000BE091F80AC00F7B0C464FF03008C3B26D
:102D6000012608FB00509E402368497BC0F8803054
:102D70004FEA0E5343EA0C4343EA475322F003025F
:102D8000C0F88810C0F88430C0F89820AE66FFF70D
:102D900030FCEB6E3343EB66237A13B16B6B33433A
:102DA0006B63637A13B1EB6A3343EB6222792B686E
:102DB00022B1D243120262F47F42134062790AB117
:102DC00043EA0223A2790AB123EA0203E27902B1BB
:102DD0001343044A1360044B1E60D663BDE8F04100
:102DE000FFF70BBC00200E4028200E4430B50C78B5
:102DF00024B98368DD0744BF022343604B788D7894
:102E0000002B14BF4FF480520022CB6805B913B1D8
:102E100042F400720361CB780BB142F480720B79FB
:102E20000BB142F040024B790BB142F08002CB79FA
:102E30008D79097A1B0143EA85030B431343036031
:102E400024B18368DB075CBF0123436030BD39B91F
:102E5000036943F4003303614368D902FCD470472B
:102E6000012907D1036943F40023036143689A02EF
:102E7000FCD47047022906D1036943F400130361AF
:102E800043685B02FCD470472DE9F8430D461646B3
:102E90000446FFF7DCFF012DF27D317D00F0B280AA
:102EA00004D3022D00F0D58000230BE00329FBD8CA
:102EB000DFE801F0029098A07F4B002A00F08780A5
:102EC000D3F8903196F8310020B9706B23F0F843B5
:102ED00043EA806396F8380020B9F06B23F0F8736A
:102EE00043EA00536801754FB6F81C80D6F820906D
:102EF00004EB000C1F40CCF8B870777DB368002F4E
:102F0000F76843EA0703378843EA0703B7780CBF3B
:102F10004FF0000E4FF4801E3B4343EA0E03CCF803
:102F2000B030376973683B43CCF8B4304B1EDBB22A
:102F3000022B9CBF624F17F803C0D6E90A7388BF03
:102F40004FF0640C43EA0743204443EA0C23C0F8E3
:102F5000AC3096F82430778B002B96F8253048EA71
:102F60000708377E0CBF4FF0000E4FF4001E41EAF9
:102F70000901002B0CBF00234FF4801341EA080124
:102F8000002FB77D96F8306041EA0E010CBF4FF07C
:102F9000000C4FF4807C0B43002F0CBF0027102740
:102FA00043EA0C03002E0CBF002608263B43002AF0
:102FB0000CBF0022042233431343C0F8A830002D75
:102FC0006ED1236943F480332361BDE8F883D3F8DD
:102FD000D03177E7384B12B1D3F8943172E7D3F898
:102FE000D4316FE7344B12B1D3F898316AE7D3F894
:102FF000D83167E7304B12B1D3F89C3162E7D3F890
:10300000DC315FE703293FF64FAFDFE801F0020A4A
:10301000121A294B12B1D3F8A03153E7D3F8E0319B
:1030200050E7254B12B1D3F8A4314BE7D3F8E43184
:1030300048E7214B12B1D3F8A83143E7D3F8E83180
:1030400040E71D4B12B1D3F8AC313BE7D3F8EC317C
:1030500038E703293FF628AFDFE801F0020A121A29
:10306000154B12B1D3F8B0312CE7D3F8F03129E782
:10307000114B12B1D3F8B43124E7D3F8F43121E77E
:103080000D4B12B1D3F8B8311CE7D3F8F83119E77A
:10309000094B12B1D3F8BC3114E7D3F8FC3111E776
:1030A000012D03D1236943F480238DE7022D8CD1B8
:1030B000236943F4801387E7B081E00FEFEDF67DDD
:1030C00020810000036CDB0702D4436C0B42FCD16F
:1030D00070472DE9F041056815F0070804460F46D2
:1030E00005D00121FFF7EEFF25F00703036020461E
:1030F0000421FFF7E7FF022606216761FFF7E2FFE1
:1031000066603146FFF7DEFF01239742636006D019
:10311000FFF7D8FF06216261FFF7D4FF6660B8F1C0
:10312000000F04D003212046FFF7CCFF2560BDE847
:10313000F08110B5026822F007020A430121FFF76F
:10314000C1FF026010BD11B1012906D070474001D6
:1031500000F18440C0F8142D7047400100F1844014
:10316000C0F82C2D70472DE9F8430E46826E097D7C
:10317000F37C22F4737222F0030243EA81131343B7
:103180008366337B727B00F14048002BA8F59C28B6
:1031900004464FEA98280CBF00234FF400430AB1BD
:1031A00043F48043B27B0AB143F00803F27B0AB1D7
:1031B00043F48073327C0AB143F40073757C43EAB4
:1031C0008523B57C3DB3022D88BF0025670107F13B
:1031D000844710374FF00109C7F80090002140469E
:1031E00043EA0535FFF7FCF933789A1E4A4514D8AF
:1031F000494620461D43FFF765FF10232360FFF774
:1032000061FF4046FFF7ECF9B36863610223636036
:103210002560BDE8F8830325D8E723685B0706D05F
:1032200045F01003236049462046FFF74BFF00237B
:103230003B60D6E901122046FFF74BFF31780129A8
:10324000E7D12046FFF73EFF33781D43E0E700005B
:103250000A4322F0F8025204520C1430024B42F09E
:10326000804243F82020704700600E408B784A78F7
:103270009B0143EA82030A781343CA7843EA0213A4
:103280000A7943EAC2234A7943EA02338A7904304D
:1032900043EA42430001014A1350704700200440B2
:1032A000014B1860704700BF0000844270B542783F
:1032B00001790378002A827814BF04260026002AA8
:1032C000C27814BF10250025002A42794FEA023245
:1032D00042EA012242EA0302837914BF2024002437
:1032E000002BC37942EA034343EA0603027A43EA26
:1032F000050314BF4FF4004100212343002A14BFEB
:103300004FF4003200220B431343014A136070BD97
:103310000020044070B5054616461C4619B91448ED
:10332000FEF728FE0146202C08D001D8ECB170BD74
:10333000402C18D0602CFAD1042200E0082206FBB1
:1033400002F35A0802EB4112B2FBF3F2094B203AA6
:1033500003EAC2022B6823F060032B602B681C4336
:103360002C606A61E3E70622E9E71022E7E700BF85
:1033700040410500F8FF7F0038B50546144619B9ED
:103380000548FEF7F7FD014601396400B1FBF4F191
:103390000902696138BD00BF4041050040F6AA63DB
:1033A000C36041F20502002303604260104A83605B
:1033B0004361C3648264036643678367C3670D4BDD
:1033C0000D4A984209D0904207D003F50063984215
:1033D00003D003F58063984201D1002303650023E5
:1033E0009042836502D0054A904200D1C365704780
:1033F000F9FF01000000014000040140000C014001
:1034000038B505460C46FFF7C9FF8B7C1BB1036836
:1034100043F080430360E37C1BB1237D43F08003D2
:10342000AB65228A637B1343E28913436B60D4E963
:103430000112237B2846FFF76DFF637D1BB12B68CC
:1034400043F480332B60A37DE27D1B07120502F459
:10345000E00203F0E04313432B666B6F23F030036D
:103460006B676A6F237E13436B672378EB6038BD0D
:1034700038B50C460546FFF791FF0A8A897B036839
:10348000002942F0010214BF4FF480610021134370
:103490000B43227D03600368002A14BF4FF00052E3
:1034A000002213430360A37C1BB1E37C43F0800341
:1034B0008365237B43F480536B60D4E90112284673
:1034C000FFF75AFF637B0BB11023EB60637D1BB1E9
:1034D0002B6843F480332B60A37DE27D1B0712052C
:1034E00003F0E04302F4E00213432B662378EB6021
:1034F00038BD03695B06FCD54163704703695B0611
:10350000FCD5C16370470000014B01221A7070475F
:10351000890B0020F8B51579D3785479ED0145EA87
:1035200003159378E4001D43937904F0380444EACA
:103530008314890053781278CEB242EA4312B11C48
:10354000D2B201F0FE010746EDB2FDF7E7F9F11C3A
:103550002A46C9B23846FDF7E1F9E4B2311D2246E8
:1035600001F0FC013846FDF7D9F9711D38460022FB
:10357000C9B2BDE8F840FDF7D1B9000000B589B087
:103580000D4B039302AB04930223ADF8143001AB4F
:103590008DF80810069303A9002308488DF8092028
:1035A000ADF81C30FDF718F9003018BF012040427B
:1035B00009B05DF804FB00BFA600010000C0004098
:1035C0007FB50D4B019306AB0DF1030203F8181DF7
:1035D0000A48029301A90123ADF80C300492ADF81A
:1035E0001430FDF7F9F820B99DF8030007B05DF835
:1035F00004FB4FF0FF30F9E7A600040000C00040D4
:1036000030B587B01C460F4B019306AB0E4803F84C
:10361000181D01A9029301231546ADF80C3004943E
:10362000ADF81420FDF7D8F838B12346FF22191B56
:10363000C9B28D4203D84FF0FF3007B030BD03F858
:10364000012BF4E7A600040000C0004030B597B09D
:10365000402A20D816A800F8401D0021CCB2A24272
:1036600014D80E4BCDF810D0CDE901300132002333
:1036700001A90B48ADF80C20ADF81430FDF7ACF8FB
:10368000003018BF0120404217B030BD44185D5CC7
:1036900065700131E2E76FF00300F5E7A600010075
:1036A00000C000400A20FDF721BF0000000000001C
:1036B0002DE9F04F2DED028B93B0B74D03900FCD58
:1036C0000CAC0FC495E8030084E803000CA8FDF7D8
:1036D0002BF801231A46184607210124FFF728F981
:1036E00007221146AD4DDFF8E4A200232046CDE9C4
:1036F0000044FFF7D1F84FF4806312A8C5F8803179
:103700002B604FF48023C5F880312B6000F8304DDA
:10371000FFF7A6F800274FF0020B07A88DF81DB0A1
:103720008DF81C70FFF7A6F8FDF724FFDAF80060AB
:103730003046FDF7DEF80DF148080490FFF7B2FFC0
:103740000D2208F8282D04234FF00309424639467C
:1037500030468DF8233005938DF822408DF82440B3
:103760008DF821908DF826408DF82570FFF7D2FE58
:103770008DF82DB00DF1480B059B0BF8204D21461F
:103780005A4630468DF82B308DF82A408DF82C4063
:103790008DF829908DF82E40FFF7BCFE4A46214651
:1037A0003046FDF7BBF8049B184483B20F214A460C
:1037B00030460493FFF7E2FE049B1844010405D54C
:1037C000039B13B9764802F021F9FEE74FF08043DE
:1037D0002B604046FDF760FE0097724B08984FF44F
:1037E0007A722146FDF718FF12216F4CDAF80000BB
:1037F000FFF7E6FE0023DAF800002370FDF78BF8F0
:1038000025462B78002B7FD000230722237012211E
:103810005B46DAF80000FFF7F3FE9DF82A509DF8AA
:1038200029309DF82D402D0205EB03459DF82B30E6
:103830001D449DF82C30240204EB03449DF82E30E7
:103840002A021C4448BF45F07F4507EE905A2302E8
:1038500048BF44F07F44B8EEE77A07EE904AF8EEAE
:10386000E77A284687EE878A00F05AFF0646204608
:103870000F4600F055FF80468946F7EE007AB4EE19
:10388000E78AF1EE10FA43DD35A3D3E90023304691
:10389000394600F0AFFF34A3D3E9002306460F46B4
:1038A0004046494600F0A6FF02460B4630463946E0
:1038B00000F0EAFD3D4B002200F09CFF01F034FADD
:1038C000039B0646D3B93A4802F0A0F8394802F003
:1038D0009DF82946384802F099F82146374802F009
:1038E00095F818EE100A00F02DFF02460B463448FA
:1038F00002F08CF83146334802F088F8324C2378D5
:1039000053B3002323706FE70120FEF745FF78E7EC
:1039100018EE100A00F016FF15A3D3E9002301F0FA
:10392000F9F960B114A3D3E900233046394600F019
:1039300061FF13A3D3E9002306460F46B0E712A3A5
:10394000D3E900233046394600F054FF10A3D3E9F1
:10395000002306460F46A3E70120FEF71DFFCEE732
:1039600095D40968226CB83FE63FA4DFBE0E8CBF39
:10397000666666666666E63F499D8026C286C73FE4
:10398000984C158C4AEAB4BF1E166A4DF38ECBBF15
:10399000F90FE9B7AF03E13F2481000000E100E047
:1039A0003C81000009350000880B00200000104019
:1039B0005B8100005D810000628100006E8100007B
:1039C0007A8100008B810000890B0020840B00208D
:1039D00070B505461448154E02F018F8144802F068
:1039E00015F8144802F012F8134802F00FF81348C3
:1039F00002F00CF8124802F009F8124802F006F83A
:103A0000114802F003F800240235E3B29D4204F1AC
:103A1000010404DA0D48BDE8704001F0F7BF3046FC
:103A200001F0F4FFF1E700BF5B810000CA810000F4
:103A3000B0810000C4810000CD810000D68100006B
:103A4000E7810000F88100003C8200004082000015
:103A50002DE9F04190B0954B01225A64944BDB6CF8
:103A60001B0E0FD1934994484AF6E8520A60026847
:103A700042F0040202600B60904A136843F4005362
:103A8000136001E0012BF7D08D4ADFF85482136AEE
:103A90008C4F23F4441343F488131362A2F580423D
:103AA0000024136843F480731360022604A88DF881
:103AB00011608DF81040FEF7DDFE10A8012500F81A
:103AC000345DFEF7CDFE29467F48FEF709F9304602
:103AD000234604220921FEF72BFF23462246082114
:103AE0000320FEF725FF2346224606212046FEF747
:103AF0001FFF2B46284604220621FEF719FF0A2243
:103B00002B4611463046FEF713FF2B4630460A225D
:103B10000B21FEF70DFF2B4628460A220721FEF750
:103B200007FF2B46324606210520FEF701FF06223D
:103B30001146CDE9005523460520FEF7ADFE2B4684
:103B4000324607210520FEF7F3FE07221146CDE994
:103B5000005523460520FEF79FFE4FF48063C8F80A
:103B60008031C8F800304FF48023C8F88031032139
:103B7000C8F800305548FEF73DFC0FCF05AE0FC624
:103B800097E8030086E80300514E52482946FEF7A5
:103B9000A7F87D233046079305A904238DF8273025
:103BA0008DF814508DF82440FFF7DDFA2A4621469F
:103BB0003046FFF7C8FA4FF40003C8F80030736AC4
:103BC000454D43F002037362FCF76CFB05A92046E8
:103BD000FCF77EFBFCF74EFE2046FFF7F9FE3F4E5A
:103BE0003378002B48D02B68023BDBB2012B3CD84A
:103BF0003B4C4FF48063C4F88030BFF34F8FBFF36A
:103C00006F8F4FF48023C4F88030BFF34F8FBFF322
:103C10006F8F0123002206210520FEF789FE012374
:103C2000002207210520FEF783FE00212D48FEF724
:103C300057F800212648FFF77CFA00212548FEF7B7
:103C40004FF84FF08043C4F88030BFF34F8FBFF37D
:103C50006F8F4FF40003C4F88030BFF34F8FBFF372
:103C60006F8F002105A80A9B98472B68032B0FD85C
:103C7000DFE803F00B130F172B689C42B0D02C68C1
:103C8000E4B22046FFF7A4FEAAE7002000F0AAFA5B
:103C9000FEE7012000F0A6FAFAE70020FFF708FD92
:103CA000F6E70120FFF704FDF2E700BF00000E4039
:103CB000B081E00F90310E4098310E4064310E40DB
:103CC00000400E409881000000350A0002001E00EE
:103CD00000E00440000A1E00B0050020B4050020EA
:103CE00000E100E0A0091400134AD2F81C34C2F825
:103CF0002434124A117891B9590644BF0121117038
:103D00001A0618D50E490B6801335A4202F0030215
:103D100003F0030358BF5342DBB20B607047084AFD
:103D20001168012902D01268032A04D11B0642BF80
:103D3000044B01221A70704700A00040B405002017
:103D4000B0050020880B0020FFF7CEBFFFF7CCBFE7
:103D5000014B02221A62704700E0044049080B1828
:103D600047F6FF72401A06499342A8BF134688429D
:103D7000B8BF084680B240EA0340024BD8627047A1
:103D80000080FFFF002000402DE9F04194B05F4E1D
:103D9000436807787360836837708846B36067BB91
:103DA0005B4D5C480121FDF79BFF0FCD04AC0FC4B8
:103DB0000FCD0FC40FCD0FC495E80F0084E80F009E
:103DC000554C07974FF47343012104AA2046ADF8E0
:103DD000103005970891FFF757F8D4F8C83043F032
:103DE0000403C4F8C830D4F8C83023F00303C4F87F
:103DF000C830D4F8C830C4F8C83001214748FDF7AE
:103E00006FFF00231F228DF800308DF80130ADF8D0
:103E100002208DF804308DF80530B8F1000F72D013
:103E200080238DF80530FDF7D7FE01463C48FDF7AD
:103E3000B7FD8DF80300FDF7CFFEFDF71BFE002355
:103E40000493069303238DF8133007238DF8113064
:103E5000602301218DF814308E238DF802008DF837
:103E600017108DF818108DF815308DF81610B8F160
:103E7000000F0AD04FF48010FDF732FF2848FDF7FD
:103E8000B1FE284B1022C3F85C21274C694620461E
:103E9000FDF7A4FD04A92046FDF734FD636923F472
:103EA00040536361636943F4405363611F4BB168DE
:103EB0001868FFF753FF012211460520FEF716FA96
:103EC00001211B48FDF70CFF1A4B18689B88ADF8C1
:103ED0000C30032302908DF80B3002A805238DF8D7
:103EE0000D30FEF78DFB01211348FDF7F9FE00228E
:103EF00010464FF4D051FFF7ABF9104B40221A6037
:103F000014B0BDE8F081404697E700BFB805002037
:103F10004482000000F204000080004000D204004F
:103F200080D5430200400E40002000402C060020B7
:103F300000C204008482000000450A003CA0004644
:103F40000A4A002313600A4A13700A4B01229A603E
:103F50005A6C42F001025A645A6C42F480325A643C
:103F6000054B4FF400421A60704700BFC4050020A3
:103F7000C80500200020004000E100E070B5174CAB
:103F8000174B26681A680EB9032A1ED0751E032126
:103F900095FBF1F101EB4101691A914215D0511CD9
:103FA00014D100221A6022601B680E49046818228E
:103FB0005A438B188C5042685A6082689A60C26873
:103FC000DA6002691A61027D1A7570BD032E03D191
:103FD00012B100221A60E7E70132FBE73800002047
:103FE0003C000020CC0500202DE9F04F89B0424B69
:103FF000424CD3F8845023680190003518BF012546
:10400000002B03DA3E4BDB68DB4323600027DFF83D
:10401000E8803C4E3846CDB93B4B1A6842B1BA42B3
:1040200094BF921AD21B1A6012B9384A402111600B
:1040300028B1374A52681A60364A40211160186820
:10404000003018BF012009B0BDE8F08FD8F8483023
:1040500032680492DB000393D8F82C104FEA214B0E
:10406000D8F82C100FFA81FA29495B4507F10107AE
:10407000896828DDA3EB510333603068FFF76EFEDB
:10408000D8F88430019A13F1000918BF4FF00109E4
:10409000B2B923BB1A4BDB68DB439BB223602368B6
:1040A0000293194B1B6823BB85F00103DBB203F0BD
:1040B000010302A88DF81C30CDE905BAFFF75EFFB9
:1040C00028464D46A7E7534502DA03EB5103D3E7F1
:1040D000A2EB621202EB631333600546CDE723685F
:1040E0004FF6FF712033B3FBF1F1C1EB01415B1AD5
:1040F000D4E70023DBE700BF0020004040000020A1
:10410000006004402C060020C40500203CA00046AE
:10411000B80500203CA0004408B5094B5A6C996BC7
:104120000A401A64074B4FF40042C3F88021064B43
:104130001878FFF759FF054B01221A7008BD00BF20
:104140000020004000E100E034000020C80500200D
:1041500030B50E4A1368591C16D00D4C0D49256810
:104160001820AB4200FB031004D14FF0FF33136063
:10417000236030BD032B09BF00230133136001F11D
:10418000480018BF1360F4E70020F2E73800002071
:104190003C000020CC050020104B1A68511C19D09F
:1041A0000F4B1868431C15D00AB9032814D0511EB0
:1041B000032391FBF3F303EB4303CB1A98420BD099
:1041C000801A0130434203F0030300F0030058BF9C
:1041D0005842704700207047042070473800002084
:1041E0003C000020F0B59BB02D4B4FF400721A60DC
:1041F0002C4B044693E807002B4B07AD85E80700DE
:104200001C7004BB00F0E2F803212848FEF7F2F826
:1042100001212748FDF764FD01212648FDF760FDD7
:1042200020212448FEF72AF8102221460AA800F08F
:1042300086FF012320488DF828300AA9FEF7D6FD15
:104240001E4801F0E3FB28460121FFF79DFDFFF723
:1042500077FE1B4D1B4F00262B781BB90120FEF764
:104260009BFAF9E72E70002CF8D1FFF795FF002894
:10427000F4D0FFF76DFF049603690393C3680293BC
:1042800083680193037D0093D0E9002339460AA88F
:1042900001F082FCC1B20AA800F04CF8E5E700BFCB
:1042A0006CA00046CC8200003400002002001E00FA
:1042B00000250A008006160000600440D882000035
:1042C000C80500200A830000044B1B68834202BF1C
:1042D000034B00221A700020704700BF380A0020EC
:1042E000340A00207FB5094A09480023CDE902328B
:1042F00004930123CDE90033064A074B00684FF4CD
:104300004021FCF7D3FF07B05DF804FB1D4300001C
:104310001C0A0020200A00201C00014008B5044BA4
:104320001B68834201D1FFF7DDFF012008BD00BFFC
:104330001C0A002070B586B01B4B1B7843B31B4A88
:104340001B4E1446157805F0FF031DBB01251570A3
:10435000184D9AB2914203F1010321DC164A174825
:1043600001910023CDE90232049301230093144A02
:10437000104B14490068FCF77FFF2378002BFCD119
:10438000114B1A4619698904FCD413699B04FCD5A6
:1043900006B070BD336923F00403336130BFD1E749
:1043A000865CAE54D5E700BF180A0020340A00200E
:1043B00000ED00E030060020C9420000380A00206D
:1043C0003400014001000C000000014030B589B00C
:1043D00001212348234DFDF783FC01212248FDF7ED
:1043E0007FFC0021084601230422FEF7A1FA0023E6
:1043F000012211461846FEF79BFA012304220521EB
:104400000020FEF795FA0FCD01AC0FC495E8070028
:1044100084E80700154C01A92046FEF7F1FFA36FC1
:1044200023F01F03A367636F43F001036367A36F68
:1044300023F4F853A367636F43F002036367FCF749
:10444000E5FE00210A48FCF7B5FE00210948FCF70B
:10445000B1FEFFF747FF084B01221A7009B030BDCB
:10446000004204003083000000350A0000000140D3
:10447000380A00201C0A0020180A002081F00041A0
:1044800002E000BF83F0004330B54FEA41044FEA39
:10449000430594EA050F08BF90EA020F1FBF54EAD4
:1044A000000C55EA020C7FEA645C7FEA655C00F070
:1044B000E2804FEA5454D4EB5555B8BF6D420CDD41
:1044C0002C4480EA020281EA030382EA000083EAC4
:1044D000010180EA020281EA0303362D88BF30BD64
:1044E00011F0004F4FEA01314FF4801C4CEA1131BA
:1044F00002D0404261EB410113F0004F4FEA033319
:104500004CEA133302D0524263EB430394EA050FA3
:1045100000F0A780A4F10104D5F1200E0DDB02FA12
:104520000EFC22FA05F2801841F1000103FA0EF2A6
:10453000801843FA05F359410EE0A5F120050EF16C
:10454000200E012A03FA0EFC28BF4CF0020C43FA9D
:1045500005F3C01851EBE37101F0004507D54FF0AA
:10456000000EDCF1000C7EEB00006EEB0101B1F5FA
:10457000801F1BD3B1F5001F0CD349085FEA300040
:104580004FEA3C0C04F101044FEA445212F5800F4B
:1045900080F09A80BCF1004F08BF5FEA500C50F1E8
:1045A000000041EB045141EA050130BD5FEA4C0CCB
:1045B000404141EB010111F4801FA4F10104E9D154
:1045C00091F0000F04BF01460020B1FA81F308BF4B
:1045D0002033A3F10B03B3F120020CDA0C3208DD17
:1045E00002F1140CC2F10C0201FA0CF021FA02F1F2
:1045F0000CE002F11402D8BFC2F1200C01FA02F162
:1046000020FA0CFCDCBF41EA0C019040E41AA2BF86
:1046100001EB0451294330BD6FEA04041F3C1CDA4E
:104620000C340EDC04F11404C4F1200220FA04F06E
:1046300001FA02F340EA030021FA04F345EA030118
:1046400030BDC4F10C04C4F1200220FA02F001FADA
:1046500004F340EA0300294630BD21FA04F029465C
:1046600030BD94F0000F83F4801306BF81F48011F5
:104670000134013D4EE77FEA645C18BF7FEA655C68
:1046800029D094EA050F08BF90EA020F05D054EA3A
:10469000000C04BF1946104630BD91EA030F1EBF3F
:1046A0000021002030BD5FEA545C05D14000494143
:1046B00028BF41F0004130BD14F580043CBF01F536
:1046C000801130BD01F0004545F0FE4141F470011C
:1046D0004FF0000030BD7FEA645C1ABF19461046F7
:1046E0007FEA655C1CBF0B46024650EA013406BFF8
:1046F00052EA033591EA030F41F4002130BD00BFB7
:1047000090F0000F04BF0021704730B54FF4806473
:1047100004F132044FF000054FF0000150E700BFF4
:1047200090F0000F04BF0021704730B54FF4806453
:1047300004F1320410F0004548BF40424FF0000140
:104740003EE700BF42004FEAE2014FEA31014FEA83
:1047500002701FBF12F07F4393F07F4F81F06051D2
:10476000704732F07F4208BF704793F07F4F04BF1D
:1047700041F40021704730B54FF4607401F00045FA
:1047800021F000411CE700BF50EA010208BF70475A
:1047900030B54FF000050AE050EA010208BF70474B
:1047A00030B511F0004502D5404261EB41014FF4B4
:1047B000806404F132045FEA915C3FF4D8AE4FF0BC
:1047C00003025FEADC0C18BF03325FEADC0C18BF9F
:1047D000033202EBDC02C2F1200300FA03FC20FAF0
:1047E00002F001FA03FE40EA0E0021FA02F114443D
:1047F000BDE600BF70B54FF0FF0C4CF4E06C1CEA56
:1048000011541DBF1CEA135594EA0C0F95EA0C0FC6
:1048100000F0DEF82C4481EA030621EA4C5123EA39
:104820004C5350EA013518BF52EA033541F4801168
:1048300043F4801338D0A0FB02CE4FF00005E1FB1B
:1048400002E506F00042E0FB03E54FF00006E1FB65
:1048500003569CF0000F18BF4EF0010EA4F1FF04A8
:10486000B6F5007F64F5407404D25FEA4E0E6D41E8
:1048700046EB060642EAC62141EA55514FEAC520F9
:1048800040EA5E504FEACE2EB4F1FD0C88BFBCF575
:10489000E06F1ED8BEF1004F08BF5FEA500E50F126
:1048A000000041EB045170BD06F0004646EA0101EC
:1048B00040EA020081EA0301B4EB5C04C2BFD4EB1E
:1048C0000C0541EA045170BD41F480114FF0000E17
:1048D000013C00F3AB8014F1360FDEBF002001F085
:1048E000004170BDC4F10004203C35DA0C341BDCFF
:1048F00004F11404C4F1200500FA05F320FA04F0D1
:1049000001FA05F240EA020001F0004221F0004104
:1049100010EBD37021FA04F642EB06015EEA430E77
:1049200008BF20EAD37070BDC4F10C04C4F12005A7
:1049300000FA04F320FA05F001FA04F240EA02005A
:1049400001F0004110EBD37041F100015EEA430E2B
:1049500008BF20EAD37070BDC4F1200500FA05F24B
:104960004EEA020E20FA04F301FA05F243EA0203CA
:1049700021FA04F001F0004121FA04F220EA0200D9
:1049800000EBD3705EEA430E08BF20EAD37070BD1F
:1049900094F0000F0FD101F00046400041EB0101FF
:1049A00011F4801F08BF013CF7D041EA060195F0E1
:1049B000000F18BF704703F00046520043EB03039B
:1049C00013F4801F08BF013DF7D043EA0603704788
:1049D00094EA0C0F0CEA135518BF95EA0C0F0CD093
:1049E00050EA410618BF52EA4306D1D181EA0301D9
:1049F00001F000414FF0000070BD50EA410606BFD3
:104A00001046194652EA430619D094EA0C0F02D117
:104A100050EA013613D195EA0C0F05D152EA03365C
:104A20001CBF104619460AD181EA030101F000417A
:104A300041F0FE4141F470014FF0000070BD41F0C3
:104A4000FE4141F4780170BD70B54FF0FF0C4CF49D
:104A5000E06C1CEA11541DBF1CEA135594EA0C0FBC
:104A600095EA0C0F00F0A7F8A4EB050481EA030E09
:104A700052EA03354FEA013100F088804FEA0333F0
:104A80004FF0805545EA131343EA12634FEA0222BE
:104A900045EA111545EA10654FEA00260EF000417F
:104AA0009D4208BF964244F1FD0404F5407402D2D1
:104AB0005B084FEA3202B61A65EB03055B084FEA62
:104AC00032024FF480104FF4002CB6EB020E75EB5F
:104AD000030E22BFB61A754640EA0C005B084FEA87
:104AE0003202B6EB020E75EB030E22BFB61A754604
:104AF00040EA5C005B084FEA3202B6EB020E75EB4F
:104B0000030E22BFB61A754640EA9C005B084FEAC6
:104B10003202B6EB020E75EB030E22BFB61A7546D3
:104B200040EADC0055EA060E18D04FEA051545EAC2
:104B300016754FEA06164FEAC30343EA52734FEA6B
:104B4000C2025FEA1C1CC0D111F4801F0BD141EAE4
:104B500000014FF000004FF0004CB6E711F4801F49
:104B600004BF01430020B4F1FD0C88BFBCF5E06F29
:104B70003FF6AFAEB5EB030C04BFB6EB020C5FEA39
:104B8000500C50F1000041EB045170BD0EF0004E8E
:104B90004EEA113114EB5C04C2BFD4EB0C0541EAC0
:104BA000045170BD41F480114FF0000E013C90E6BD
:104BB00045EA060E8DE60CEA135594EA0C0F08BF81
:104BC00095EA0C0F3FF43BAF94EA0C0F0AD150EA80
:104BD00001347FF434AF95EA0C0F7FF425AF104613
:104BE00019462CE795EA0C0F06D152EA03353FF43B
:104BF000FDAE1046194622E750EA410618BF52EAB8
:104C000043067FF4C5AE50EA41047FF40DAF52EA8B
:104C100043057FF4EBAE12E74FF0FF3C06E000BF28
:104C20004FF0010C02E000BF4FF0010C4DF804CD35
:104C30004FEA410C7FEA6C5C4FEA430C18BF7FEAF5
:104C40006C5C1BD001B050EA410C0CBF52EA430C23
:104C500091EA030F02BF90EA020F0020704710F1A3
:104C6000000F91EA030F58BF994208BF90422CBF32
:104C7000D8176FEAE37040F0010070474FEA410C2B
:104C80007FEA6C5C02D150EA013C07D14FEA430C49
:104C90007FEA6C5CD6D152EA033CD3D05DF8040BBA
:104CA000704700BF8446104662468C4619466346EC
:104CB00000E000BF01B5FFF7B7FF002848BF10F1C3
:104CC000000F01BD4DF808EDFFF7F4FF0CBF012008
:104CD00000205DF808FB00BF4DF808EDFFF7EAFF84
:104CE00034BF012000205DF808FB00BF4DF808ED3F
:104CF000FFF7E0FF94BF012000205DF808FB00BF34
:104D00004DF808EDFFF7CEFF94BF012000205DF8BD
:104D100008FB00BF4DF808EDFFF7C4FF34BF0120CA
:104D200000205DF808FB00BF4FEA410212F50012B7
:104D300015D211D56FF47873B3EB625212D94FEAE2
:104D4000C12343F0004343EA505311F0004F23FACC
:104D500002F018BF404270474FF00000704750EA21
:104D6000013005D111F0004008BF6FF000407047DE
:104D70004FF00000704700BF53B94AB9002908BF7F
:104D800000281CBF4FF0FF314FF0FF3000F072B928
:104D9000ADF1080C6DE904CE00F006F8DDF804E092
:104DA000DDE9022304B070472DE9F047089E044670
:104DB0008846002B4BD18A42154667D9B2FA82F257
:104DC0004AB1C2F1200701FA02F320FA07F7954031
:104DD00047EA030894404FEA154E230CB8FBFEF750
:104DE0001FFA85FC0EFB178843EA084307FB0CF10A
:104DF000994209D9EB1807F1FF3080F01B819942E5
:104E000040F21881023F2B445B1AA4B2B3FBFEF0C0
:104E10000EFB103344EA034400FB0CFCA44509D903
:104E20002C1900F1FF3380F00781A44540F2048182
:104E300002382C4440EA0740A4EB0C0400271EB1C2
:104E4000D4400023C6E900433946BDE8F0878B42D1
:104E500009D9002E00F0EB800027C6E90001384692
:104E60003946BDE8F087B3FA83F7002F47D18B426C
:104E700002D3824200F2FA80841A61EB030301201C
:104E80009846002EE0D0C6E90048DDE702B9FFDE13
:104E9000B2FA82F2002A40F08F80491B4FEA154E89
:104EA0001FFA85F80127B1FBFEFC230C0EFB1C1139
:104EB00043EA014308FB0CF1994207D9EB180CF1C6
:104EC000FF3002D2994200F2CD808446591AA3B233
:104ED000B1FBFEF00EFB101443EA044408FB00F89B
:104EE000A04507D92C1900F1FF3302D2A04500F2EA
:104EF000B6801846A4EB080440EA0C409FE7C7F1CF
:104F0000200CBB4022FA0CFE4EEA030E01FA07F415
:104F100020FA0CF521FA0CF34FEA1E482543B3FBA7
:104F2000F8F92C0C08FB19331FFA8EFA44EA0343F4
:104F300009FB0AF49C4202FA07F200FA07F10BD9C6
:104F40001EEB030309F1FF3080F087809C4240F2A2
:104F50008480A9F1020973441B1BADB2B3FBF8F0C6
:104F600008FB103345EA034400FB0AFAA24508D9BE
:104F70001EEB040400F1FF336BD2A24569D902385D
:104F8000744440EA0940A0FB0289A4EB0A044C45A2
:104F9000C2464B4654D351D0002E69D0B1EB0A051E
:104FA00064EB030404FA0CFCFD40FC404CEA0505EC
:104FB000C6E90054002747E7C2F1200320FA03F7AF
:104FC000954001FA02F021FA03F34FEA154E3843F7
:104FD000010CB3FBFEF71FFA85F80EFB173341EA0D
:104FE000034107FB08F38B4204FA02F407D969185E
:104FF00007F1FF3C2FD28B422DD9023F2944CB1A17
:1050000081B2B3FBFEF00EFB103341EA034100FB1B
:1050100008F38B4207D9691800F1FF3C17D28B4285
:1050200015D902382944C91A40EA07473BE73746F1
:10503000304609E70746E7E61846FBE64145ABD2AE
:10504000B8EB020A69EB0E0201381346A4E760468A
:10505000E9E7184695E76746D1E781467CE70238DD
:105060002C4447E7ACF1020C2B442FE7384608E705
:105070003746E9E6704700BF08B5074B044613B151
:105080000021AFF30080054B1868836A03B198478D
:105090002046FBF7B3FB00BF000000004C8300007C
:1050A00070B50D4E0D4CA41BA4100025A54209D1CE
:1050B0000B4E0C4C02F048FEA41BA4100025A54288
:1050C00005D170BD56F8253098470135EEE756F802
:1050D000253098470135F2E7140200201402002021
:1050E0001402002018020020044B054A1B681B6AAA
:1050F000002B08BF1346D3F8EC0070474400002093
:10510000A800002082B001B901A942B14BB11378C7
:105110000B601278101C18BF012002B070471046B7
:10512000FBE76FF00100F8E710B5431E0A44914217
:1051300000D110BD11F8014B03F8014FF7E702440D
:105140000346934200D1704703F8011BF9E72DE9AC
:10515000F04788B0002B149F109EDDE9121A1D46FF
:1051600027F02007BBBF03F100431D4600232D237A
:105170001446B8BF1446462F0B7004D0452F00D1FB
:105180000136022300E0032307AA049206AACDE910
:1051900002A2CDE9003622462B4600F0D1FD472F72
:1051A000804602D1119BDB0726D5462F08EB060966
:1051B00011D198F80030302B0AD10022002320466C
:1051C0002946FFF77FFD18B9C6F10106CAF800604D
:1051D000DAF8003099440022002320462946FFF7E0
:1051E00071FD38B93022079B4B4505D2591C0791F8
:1051F0001A70F8E7CDF81C90079B159AA3EB0803EB
:105200004046136008B0BDE8F087F7B500290446B2
:10521000BABF49422D232B23092904F8022B4370DE
:1052200020DD0DF107031F460A2691FBF6F506FB6C
:1052300015113031092D03F8011C03F1FF32294605
:1052400009DC3031023B02F8011CBB42224604D388
:10525000101A03B0F0BD1346E7E713F8012B04F86A
:10526000012BF2E7302319448370021DC170EFE770
:105270002DE9F04F91B00C46DDF8688016461F46C8
:10528000054601F095FC03680893184600F0A4FC5D
:1052900000230E93D8F800300990073323F007035A
:1052A00003F1080294F818A0D4F800B0C8F8002060
:1052B000D3E90023C4E91223D4E9128929F0004379
:1052C0000B93CDF828804FF0FF32A94BDDE90A019E
:1052D00002F024FD70BB4FF0FF32A54BDDE90A015F
:1052E000FFF704FD30BB0022002340464946FFF78C
:1052F000F3FC10B12D2384F843309E4A9E4BBAF143
:10530000470F8CBF90469846032323612BF004037C
:1053100023604FF00009009733460FAA2146284624
:1053200000F0ECF9013040F090804FF0FF3011B008
:10533000BDE8F08F42464B464046494602F0EEFC3F
:1053400010B18E4A8E4BDAE76368591C4BF48062C9
:105350000EA90DA840D1062363600DF13303CDE9FA
:1053600001234FF0000C63682260CDE9030A00932B
:1053700042464B46CDE9051C2846FFF7E8FE0AF0F9
:10538000DF03472B804609D10D9BD81C02DB6268E6
:10539000934247DDAAF1020A5FFA8AFABAF1650F71
:1053A0000D9924D80139524604F150000D91FFF7B0
:1053B0002CFF0E9A1318012A8146236102DC226811
:1053C000D10701D5013323619DF83330002BA2D0E2
:1053D0002D2384F843309EE7BAF1670F00F07881FF
:1053E000BAF1470FB9D1002BB7D10123B4E7BAF115
:1053F000660F19D1002963680CDD216113B9226899
:10540000D20702D501330B4423610D9BA3654FF0F6
:105410000009D9E713B92268D00701D50233F3E7B1
:105420000123F1E74FF0670ADDE90D32934205DB16
:1054300022682361D107E8D50133E5E7002BD4BF0B
:10544000C3F1020301231344DEE723685A0507D49E
:105450002369424631462846B84701302BD164E7DC
:10546000BAF1650F40F2DD8000220023D4E9120179
:10547000FFF728FC002833D00123424A3146284652
:10548000B84701303FF451AFDDE90D239A4202DB0A
:105490002368D8070FD5DDE9082331462846B847E9
:1054A00001303FF442AF4FF0000804F11A090E9B9F
:1054B000013B434509DC23689B0700F10481E06858
:1054C0000F9B9842B8BF184631E701234A46314640
:1054D0002846B84701303FF428AF08F10108E6E755
:1054E0000D9B002B2BDC0123264A31462846B8476A
:1054F00001303FF41AAF0D9B23B90E9B13B92368FB
:10550000D907D8D5DDE9082331462846B847013008
:105510003FF40BAF4FF0000904F11A0A0D9B5B42F8
:105520004B4501DC0E9B94E7012352463146284649
:10553000B84701303FF4F9AE09F10109EEE70E9AE0
:10554000A36D9A42A8BF1A46002A914607DD13466A
:10555000314642462846B84701303FF4E6AE04F1F2
:105560001A034FF0000B29EAE9790A9316E000BF0D
:10557000FFFFEF7F5C83000058830000648300001E
:10558000608300006883000001230A9A31462846A0
:10559000B84701303FF4C9AE0BF1010BD4F858A065
:1055A000AAEB09035B45EFDCDDE90D239A42D04409
:1055B00015DB2368DA0712D40E9B0D99A3EB0A02C0
:1055C000A3EB010A9245A8BF9246BAF1000F0EDC88
:1055D0004FF000082AEAEA7A04F11A0919E0DDE935
:1055E000082331462846B8470130E5D19DE65346A9
:1055F000424631462846B8470130E9D195E60123B5
:105600004A4631462846B84701303FF48EAE08F18D
:105610000108DDE90D239B1AA3EB0A034345EEDCE9
:1056200049E70E9A012A01DCDB073AD501234246FD
:1056300031462846B84701303FF477AEDDE908230C
:1056400031462846B847013008F101083FF46DAEF5
:105650000E9B002203F1FF3AD4E912010023FFF769
:1056600031FBC8B95346424631462846B847013057
:105670000ED15AE60123524631462846B84701303A
:105680003FF453AE08F101080E9B013B4345F1DCAA
:105690004B4604F15002DDE64FF0000804F11A0A0F
:1056A000F2E70123DFE701234A4631462846B8479F
:1056B00001303FF43AAE08F10108E3680F9A9B1AF3
:1056C0004345F0DCFBE64FF0000804F11909F4E76C
:1056D000002B3FF48AAE4FF0000CCDE9051C0DF114
:1056E00033012260CDE9030ACDE90121009342464E
:1056F0004B462846FFF72BFD804645E62DE9F0474F
:1057000091461F468A680B69DDF820809342B8BF36
:105710001346C9F8003091F8432006460C4612B1F2
:105720000133C9F800302368990642BFD9F8003028
:105730000233C9F80030256815F0060507D104F1D9
:10574000190AE368D9F800209B1AAB4228DC94F8C8
:1057500043302268003318BF012392062DD404F190
:10576000430239463046C047013020D02368E568FF
:10577000D9F8002003F00603042B08BFAD1AA36874
:1057800022690CBF25EAE57500259342C4BF9B1A28
:10579000ED184FF000091A344D451AD1002008E0E9
:1057A0000123524639463046C047013003D14FF0FD
:1057B000FF30BDE8F0870135C3E7E1185A1C3020FF
:1057C00081F84300224494F8451082F843100233D4
:1057D000C5E70123224639463046C0470130E6D0AE
:1057E00009F10109D8E700002DE9F04301F1430C6C
:1057F0000C46097E85B06E291746064698460C9AD7
:1058000000F0B38022D8632936D00AD8002900F0EE
:10581000B980582900F0838004F1420584F84210D1
:1058200032E0642901D06929F6D1206813680506A1
:1058300003F104012AD51B681160002B03DA2D2225
:105840005B4284F843206F480A2239E0732900F054
:105850009D8008D86F2920D07029DDD1236843F0BE
:105860002003236003E0752917D07829D4D1782349
:1058700084F84530644855E01368191D1B681160B1
:1058800004F1420584F8423001238CE01B6811606A
:1058900010F0400F18BF1BB2CFE713682568181D22
:1058A0001060280601D51B6802E06806FBD51B883E
:1058B00054486F2914BF0A220822002184F843109B
:1058C0006568A560002DC0F29580216821F0040173
:1058D0002160002B3DD1002D40F08E806546082AC6
:1058E0000BD12368DB0708D5236962689A42DEBFC3
:1058F000302305F8013C05F1FF35ACEB05032361CE
:10590000CDF800803B4603AA21463046FFF7F6FE5D
:1059100001304DD14FF0FF3005B0BDE8F08339487C
:1059200084F84510136821681D1D1B6815600A0660
:105930000BD5CA0744BF41F0200121601BB9226882
:1059400022F0200222601022B7E74D0648BF9BB22A
:10595000EFE76546B3FBF2F102FB1133C35C05F8D8
:10596000013D0B460029F5D1B9E713682568616947
:10597000181D106028061B6801D5196002E06A0630
:10598000FBD51980002323616546B9E71368191D0B
:1059900011601D6862680021284601F089F908B18C
:1059A000401B606063682361002384F84330A7E7ED
:1059B00023692A4639463046C0470130AAD02368B9
:1059C0009B0713D4E068039B9842B8BF1846A3E72F
:1059D00001234A4639463046C04701309AD0013546
:1059E000E368039A9B1AAB42F2DCEBE7002504F173
:1059F0001909F5E7002BACD1037884F8423004F1A3
:105A000042056CE76A8300007B8300000FB40A4BF9
:105A100013B51C6824B1A36913B9204601F03EF800
:105A200005AB049AA1680193204601F09DFE02B0E7
:105A3000BDE8104004B07047440000202DE9F74352
:105A40001D46514B1E6804460F46904626B1B36969
:105A500013B9304601F022F84C4B9C4252D1746885
:105A6000B8F1020F06D0B8F1010F00F28980002DC5
:105A7000C0F286802146304600F0A6FF616B41B13E
:105A800004F14403994202D0304601F04BFC00235C
:105A900063630023A3616360A3891B0603D52169A7
:105AA000304601F03FFCA38923F44A6323F003034B
:105AB000B8F1020FA3815DD001AB6A4621463046A2
:105AC00001F084F8A3891843A0812DBB009D2846CE
:105AD00001F0E0F8074600284ED1DDF80090A94516
