:1000000000000420C1010000ED010000ED0100002E
:10001000ED010000ED010000ED010000ED01000028
:10002000ED010000ED010000ED010000ED01000018
:10003000ED010000ED010000ED010000ED01000008
:10004000ED010000ED010000ED010000ED010000F8
:10005000ED010000ED010000ED010000ED010000E8
:10006000ED0100007D200000457D0000ED01000055
:10007000ED010000ED010000ED0100009986000097
:10008000ED010000ED010000517D0000ED010000D8
:10009000ED010000ED010000ED010000C57D000054
:1000A000ED010000ED010000ED010000ED01000098
:1000B000ED010000ED010000812A0000ED010000CB
:1000C000ED010000ED010000ED010000ED01000078
:1000D000ED010000ED010000ED010000ED01000068
:1000E000ED010000ED010000ED010000ED01000058
:1000F000ED010000ED010000ED010000ED01000048
:10010000ED010000ED010000ED01000010B5054C0F
:10011000237833B9044B13B10448AFF300800123B3
:10012000237010BD300200200000000048CE000007
:1001300008B5034B1BB103490348AFF3008008BD6A
:10014000000000003402002048CE0000154B002BB8
:1001500008BF134B9D46A3F5803A00218B460F46FE
:100160001348144A121A09F0F8FB0F4B002B00D069
:1001700098470E4B002B00D0984700200021040028
:100180000D000D48002802D00C48AFF3008009F0A4
:1001900095FB2000290007F013FC09F07BFB00BF52
:1001A0000000080000000420000000000000000023
:1001B000300200209C0B0020000000000000000026
:1001C000064880470649074A074B9A42BEBF51F886
:1001D000040B42F8040BF8E7FFF7B8FFCD0200006C
:1001E00054CE00000000002030020020FEE700BFD7
:1001F00080B582B000AF00F025F878600A4BD3F8E4
:1002000008311B0AC3F308033B603B6801337A687B
:10021000B2FBF3F37B60054A7B6813607B6818468A
:100220000837BD4680BD00BF00400E4008000020DA
:1002300080B400AF024B1846BD465DF8047B7047A2
:1002400000F0490280B483B000AF164BD3F894306D
:1002500003F00703032B08D0042B02D0022B08D095
:100260000BE0114B1B687B600BE04FF400437B609D
:1002700007E00E4B1B687B6003E00D4B1B687B6047
:1002800000BF084BD3F800311B0A03F01F030133F2
:100290007A68B2FBF3F318460C37BD465DF8047B71
:1002A000704700BF00400E40040000200000002006
:1002B0000C00002080B400AF034B1B681846BD46FD
:1002C0005DF8047B704700BF0000002080B400AFE1
:1002D000074B084A9A60064BD3F88830044A43F427
:1002E0007003C2F8883000BFBD465DF8047B7047DC
:1002F00000ED00E00000000080B400AF4FF40043C8
:100300001846BD465DF8047B704780B400AF4FF4DB
:100310007A731846BD465DF8047B704780B400AF21
:10032000034B1B681846BD465DF8047B704700BF51
:100330000400002080B582B000AF114B7B60114BF0
:100340001B7883F00103DBB2002B13D00D4B01228D
:100350001A700BE07B681B68984738603B68002B7D
:1003600001D03B6807E07B6804337B607B681B68D7
:10037000002BEFD1002318460837BD4680BD00BFD3
:10038000100000207802002080B584B000AF7860B3
:100390003960114B1B7883F00103DBB2002B02D0D4
:1003A0000E4BFB6012E07B68002B0DDC7B682C227F
:1003B00002FB03F30A4A13442C221946386809F059
:1003C000C1FA0023FB6001E0064BFB60FB681846A6
:1003D0001037BD4680BD00BF7802002005001180A7
:1003E0004C0200200200118080B584B000AF78601C
:1003F000134B1B7883F00103DBB2002B02D0114BAF
:10040000FB6017E0104B1B68002B11DC0E4B1B68C8
:100410005A1C0D490A602C2202FB03F30B4A1344B9
:100420002C227968184609F08DFA0023FB6001E060
:10043000074BFB60FB6818461037BD4680BD00BF08
:1004400078020020050011807C0200204C02002070
:100450000100118080B58CB000AF00F09FFA00F071
:1004600031FA00F0B5FA002300220821022000F042
:10047000BFFA002300220621022000F0B9FA00236F
:1004800000220E21032000F0B3FA002300220F21E6
:10049000032000F0ADFA002300220D21032000F01C
:1004A000A7FA7D220D21032000F0E6FAF862FB6A2C
:1004B000002B01D0FB6A27E0154B3B6001233B7406
:1004C00000237B7480237B608023FB607B68BB60A0
:1004D000104B7B61104BBB61104BFB61104B3B62BF
:1004E000104B7B62104BBB623B461846FFF77CFF0C
:1004F000F862FB6A002B06D13B460121184600F04A
:1005000024F800F039F8FB6A18463037BD4680BD44
:1005100080C500004B050000C10500003106000049
:100520008D0600004D0600002D05000080B584B04A
:1005300000AF78600023FB6000F030FA00F0C2F9F1
:10054000FB6818461037BD4680BD80B582B000AF4D
:1005500078600B46FB70FB78002B04D00F21032042
:1005600000F066FA03E00F21032000F073FA002385
:1005700018460837BD4680BD80B582B000AF0E2159
:10058000032000F055FA062000F014FA0B4B1B78FC
:1005900043F00403DBB29BB2FB80BB1D0221184673
:1005A00000F0C2F9022000F005FA0E21032000F04D
:1005B00051FA002318460837BD4680BD800200204E
:1005C00080B487B000AFF860B9607A603B60BB6808
:1005D000DA087B6802FB03F37B61BB68802B01D0E8
:1005E0000F4B16E00F4B1A687B6913440E4A934277
:1005F00004D93B6800221A600C4B0AE0094B1A68C8
:100600003B681A60074B1A687B691344054A1360FC
:10061000002318461C37BD465DF8047B704700BFB9
:100620000200118018000020040300200100118046
:1006300080B483B000AF78603960034B18460C3744
:10064000BD465DF8047B70470400118080B586B01C
:1006500000AFF860B9607A603B60BB687B610023E3
:100660003B610AE010220021786909F076F97B6984
:1006700010337B613B6901333B613A693B689A42C5
:10068000F0D3002318461837BD4680BD80B588B02A
:1006900000AFF860B9607A603B60BB68BB61BB6A61
:1006A0000133BB620E21032000F0C2F9062000F0E6
:1006B00081F9BB6A9BB21B029BB243F001039BB260
:1006C000FB8207F116030221184600F02DF90023E2
:1006D000FB6126E01021B86900F026F9BB691033F0
:1006E000BB61FB6A013BFA699A4203D14FF6FF7383
:1006F000FB820DE0BB6A9AB2FB699BB213449BB2CA
:1007000001339BB21B029BB243F0FF039BB2FB82FF
:1007100007F116030221184600F006F9FB690133C0
:10072000FB61FA69FB6A9A42D4D3022000F042F9D5
:100730000E21032000F08EF9002318462037BD4615
:1007400080BD80B485B000AF786039607B6803F10C
:10075000C063FB60FB683A681A6000BF1437BD468F
:100760005DF8047B704780B485B000AF7860396075
:100770007B6803F18063FB60FB683A681A6000BF26
:100780001437BD465DF8047B704780B582B000AF7A
:1007900003463960FB71FB79002B1CD0FB79012BE0
:1007A00019D0FB79022B16D0FB79032B13D0FB79E0
:1007B000042B10D0FB79052B0DD0FB79062B0AD02A
:1007C000FB79072B07D0FB79082B04D0FB79092B89
:1007D00001D0FB790A2BFA7913465B0013441B0105
:1007E0000C3303F1804303F5204301213A6801FAF9
:1007F00002F211461846FFF7B6FF00BF0837BD46A4
:1008000080BD80B582B000AF03463960FB71FB79D3
:10081000002B1CD0FB79012B19D0FB79022B16D0B1
:10082000FB79032B13D0FB79042B10D0FB79052B1C
:100830000DD0FB79062B0AD0FB79072B07D0FB796B
:10084000082B04D0FB79092B01D0FB790A2BFA790C
:1008500013465B0013441B010C3303F1804303F583
:10086000204301213A6801FA02F211461846FFF7C7
:1008700068FF00BF0837BD4680BD000080B483B06C
:1008800000AF78603960074A7B6804331B0113446A
:1008900004333A681A6000BF0C37BD465DF8047B2C
:1008A000704700BF0020044080B582B000AF786080
:1008B000396039687868FFF7E1FF00BF0837BD4647
:1008C00080BD0000B0B588B000AF0023FB61124BC3
:1008D0003C1D1D460FCD0FC495E8030084E80300BE
:1008E00001210E4803F050F90D4BFB603B1D1946EA
:1008F0000C4806F0A7F90B4B0A225A67094B9B6F6D
:1009000023F01F23074A43F00B239367FB69184624
:100910002037BD46B0BD00BF98C50000005204009E
:10092000E06735000004014080B584B000AF786016
:1009300039600023FB6020E03B68012B04D07B681A
:1009400003F00103002B0CD07B681B78194612487A
:1009500006F060FA3B68013B3B607B6801337B60DB
:100960000BE07B681B8819460B4806F069FA3B6868
:10097000023B3B607B6802337B603B68002BDBD132
:1009800000BF054B1B6903F02003002BF9D0FB6867
:1009900018461037BD4680BD0004014080B582B0C6
:1009A00000AF00237B6001F02DF97B681846083703
:1009B000BD4680BD80B584B000AF78600023FB6089
:1009C000786801F0E5F9FB6818461037BD4680BD30
:1009D00080B582B000AF00237B600121034803F0A3
:1009E000D3F87B6818460837BD4680BD00350A003D
:1009F00080B586B000AFF860B9603B601346FB710C
:100A000000237B61FB79002B0BD10423FB7400BF17
:100A1000FB68D8B2FA7C3B68B96804F0A7FC7B6934
:100A200000E0024B18461837BD4680BD0100138018
:100A300080B584B000AF786039600023FB607B68CC
:100A4000DBB239681846FFF7DCFEFB681846103742
:100A5000BD4680BD80B584B000AF786039600023AA
:100A6000FB607B68DBB239681846FFF78EFEFB68D7
:100A700018461037BD4680BD80B588B000AFF8601D
:100A8000B9607A600023FB614FF43063BB610223DD
:100A90007B610121124803F077F87A69B969042073
:100AA00005F0ECFE0F4B5B6923F007030D4A43F0A2
:100AB000040353610B4B9B680A4A43F01003936095
:100AC000FB68D8B200230422B96804F04FFC7868B0
:100AD00000F01CF8FB6918462037BD4680BD00BFFA
:100AE00000450A0000600E4080B582B000AF78601B
:100AF0000121054803F048F80A21786803F07EFCDC
:100B000000BF0837BD4680BD00250A0080B588B00B
:100B100000AF7860214A07F1140307CA03C31A70B3
:100B200000233B761E48FFF7DFFF01211D4803F03D
:100B30002BF800233B7500237B750123FB7507F120
:100B40001403184605F030FF174A07F10C0392E82A
:100B5000030018600433198002330A0C1A70012351
:100B60007B7307F10C031946012005F0DDFE0D48EB
:100B700003F070F802467B68B2FBF3F3013B1946C1
:100B80000120FFF791FE094B00229A60012005F039
:100B9000F9FE00BF2037BD4680BD00BFB0C50000D4
:100BA00005002400A0091400BCC50000002004407A
:100BB00080B485B000AF786039607B6803F1C063B2
:100BC000FB60FB683A681A6000BF1437BD465DF8E9
:100BD000047B704780B485B000AF786039607B6873
:100BE00003F18063FB60FB683A681A6000BF14374A
:100BF000BD465DF8047B704780B582B000AF034608
:100C00003960FB71FB79002B1CD0FB79012B19D0CB
:100C1000FB79022B16D0FB79032B13D0FB79042B25
:100C200010D0FB79052B0DD0FB79062B0AD0FB7970
:100C3000072B07D0FB79082B04D0FB79092B01D0B7
:100C4000FB790A2BFA7913465B0013441B010C3322
:100C500003F1804303F5204301213A6801FA02F2CF
:100C600011461846FFF7B6FF00BF0837BD4680BDE6
:100C700080B582B000AF03463960FB71FB79002B71
:100C80001CD0FB79012B19D0FB79022B16D0FB79F4
:100C9000032B13D0FB79042B10D0FB79052B0DD03F
:100CA000FB79062B0AD0FB79072B07D0FB79082BA1
:100CB00004D0FB79092B01D0FB790A2BFA79134672
:100CC0005B0013441B010C3303F1804303F5204305
:100CD00001213A6801FA02F211461846FFF768FF4F
:100CE00000BF0837BD4680BD80B588B000AF7860D2
:100CF0000121344802F048FF7B681B68324A934266
:100D000002D1324BBB6106E07B681B68304A9342DC
:100D100054D1304BBB610121B86902F035FF7B68CB
:100D200018797B685B79194601230A2204F01EFBBF
:100D30007B6898797B68DB79194601230A2204F0E5
:100D400015FB0023FB6112E07B681A797B685B79F5
:100D500019461046FFF78CFF7B681A797B685B7930
:100D600019461046FFF748FFFB690133FB61FB6939
:100D7000082BE9DD7B681B6803225A647B685B7A79
:100D80001A467B681B7A1B021A437B681B689A64AD
:100D900001233B7201237B727B681B693B617B688B
:100DA000DB68FB607B681B7D3B757B681B6807F11C
:100DB00008021146184604F09BFC00E000BF2037F3
:100DC000BD4680BD4041050000C0004000820400D7
:100DD00000C400400092040080B584B000AF786089
:100DE00039600E4BBB603968786804F0EFFE03464B
:100DF000FB7304E0786804F0B3FC0346FB7397F9D7
:100E00000F30012B04D1BB685A1EBA60002BF1D100
:100E100097F90F3018461037BD4680BDE0930400A7
:100E200080B483B000AF7860002318460C37BD460D
:100E30005DF8047B704780B483B000AF7860FEE754
:100E400080B483B000AF786039603B684FF40052E3
:100E50005A60002318460C37BD465DF8047B704786
:100E600080B483B000AF7860012318460C37BD46CC
:100E70005DF8047B704780B485B000AFF860B9605E
:100E80007A60002318461437BD465DF8047B70472E
:100E900080B586B000AFF860B9607A6000237B61EE
:100EA0000FE000F08BF838613B69B3F1FF3F0ED0E3
:100EB000BB685A1CBA603A69D2B21A707B690133B6
:100EC0007B617B685A1E7A60002BEAD100E000BF8C
:100ED0007B69002B02DC4FF0FF3300E07B69184692
:100EE0001837BD4680BD000080B485B000AF786083
:100EF0000B4B1B68002B02D1094B0A4A1A60084BA6
:100F00001B68FB60064B1A687B681344044A136035
:100F1000FB6818461437BD465DF8047B704700BF78
:100F200004030020A00B002080B586B000AFF8605D
:100F3000B9607A6000237B6109E0BB685A1CBA6023
:100F40001B78184600F044F87B6901337B617A69AD
:100F50007B689A42F1DB7B6818461837BD4680BD36
:100F600080B58EB000AF07F1080319460020FFF7E7
:100F70000BFA78637B6B002B16D100233B600023B8
:100F80003B7101237B713B460A49184600F07CF90E
:100F900078637B6B002B07D1074B1B689868002395
:100FA0000222002109F058F97B6B18463837BD46FC
:100FB00080BD00BF080300205800002080B400AFAF
:100FC0004FF0FF331846BD465DF8047B70470000C4
:100FD00080B582B000AF0346FB71094B1B68002B44
:100FE00008D0074B1B68FA791146184600F02EFA14
:100FF000FB7901E04FF0FF3318460837BD4680BD4E
:101000000803002080B584B000AF7860FF23BB7375
:101010000023FB7316E01121786806F0D5FA034629
:10102000BB7397F90E3003F0E003202B0ED097F935
:101030000E30002B03DA97F90E301BB208E0FB7B71
:101040000133FB73FB7B042BE5D900E000BF0023D9
:1010500018461037BD4680BD80B584B000AF7860BB
:101060000023FB6006F090FB06F08EFB06F08CFB85
:1010700001220B21786806F071FA03461A46FB68D4
:101080001344FB6006F080FBFB681BB21846103768
:10109000BD4680BD80B584B000AF78600B46FB7064
:1010A000FB781A460B21786806F058FA0346FB7362
:1010B00097F90F30002B03D097F90F301BB200E0E7
:1010C000002318461037BD4680BD80B582B000AF02
:1010D000786011217868FFF7DDFF0346184608376E
:1010E000BD4680BD80B582B000AF786013217868BE
:1010F000FFF7D0FF034618460837BD4680BD80B5D0
:1011000084B000AF78600B46FB701346BB70786804
:10111000FFF778FF0346BB81B7F90C30002B02D0F4
:10112000B7F90C303CE01121786806F04DFA03461F
:1011300003F01F037B81BB783B72FB7803F03F0316
:10114000DBB2803BDBB27B7207F1080302220A218B
:10115000786806F0BBFA0346BB81B7F90C30002B68
:1011600002D0B7F90C301BE01121786806F02CFA98
:101170000346FB8105E01121786806F025FA034655
:10118000FB81FB8903F01F02B7F90A309A42F2D0C3
:10119000B7F90C30002B02DAB7F90C3000E000236D
:1011A00018461037BD4680BD80B582B000AF78606C
:1011B00012217868FFF76EFF034618460837BD46D0
:1011C00080BD80B584B000AF786000237B7305E0FC
:1011D0001121786806F0F8F903467B7397F90D3012
:1011E00003F0E003202BF3D10023FB7341E0002345
:1011F000BB7312E01121786806F0E6F903467B73B1
:101200007B7B03F01F03002B0BD000220B2178689F
:1012100006F0A4F9BB7B0133BB73BB7B042BE9D97C
:1012200000E000BF7868FFF7BFFF0023BB730DE04D
:101230001121786806F0C8F903467B737B7B03F0C5
:101240001F03002B06D1BB7B0133BB73BB7B042B7D
:10125000EED900E000BF1121786806F0B5F9034629
:101260007B737B7B03F01F03012B06D0FB7B0133D9
:10127000FB73FB7B042BBAD900E000BF00231846A8
:101280001037BD4680BD000090B587B000AF7860D4
:10129000396000237B6100233B6117E0674A3B69AB
:1012A000582101FB03F3134455331B7883F00103EA
:1012B000DBB2002B07D03B69582202FB03F35F4AE5
:1012C00013447B6105E03B6901333B613B69002BC3
:1012D000E4DD7B69002B01D1594BAAE07B681A68D9
:1012E0007B69043319461046FFF74EF8B860BB68B7
:1012F000002B01D0BB689CE07B695B7D002B1FD17C
:101300007B69DC697B69181D7B6999687B693C3363
:101310000822A047B860BB68002B01D0BB6888E0FA
:101320007B699C6A7B69181D7B69D96B7B699A68AC
:101330000823A047B860BB68002B04D0BB6878E0E6
:101340007B690022DA633F4A3B691B0113441A6838
:101350007B691B69DB089A4201D93B4B69E0394A3A
:101360003B691B01134404331A687B699B68DB08E3
:101370009A4201D9344B5CE0324A3B691B01134469
:101380001A687B695A632F4A3B691B011344043373
:101390001A687B691A632B4A3B691B0113440833A3
:1013A0001A687B691A64274A3B691B0113440C3392
:1013B0001A687B695A647B681A687B691A607B6863
:1013C0001A797B6983F838207B685A797B6983F8BE
:1013D00039200023FB6010E07B69196C7B691B6B73
:1013E000FA6802FB03F27B69586CFB689B000344BC
:1013F0000A441A60FB680133FB607B695B6BFA6827
:101400009A42E9D37B69002283F848207B69002255
:1014100083F849207B69002283F84A20786900F02C
:1014200087F87B69012283F855203B687A691A6046
:10143000002318461C37BD4690BD00BF0C0300209A
:10144000050012801C0000200200128080B584B0CC
:1014500000AF78600B46FB707B68FB60FB6893F81D
:10146000553083F00103DBB2002B01D02F4B58E045
:10147000FB685B7D002B04D1FB68012283F85420BC
:1014800003E0FB68022283F85420FB6893F83830AD
:10149000002B0FD0FB68DB6C002B17D1FB681A6D9B
:1014A000FB685B6B013B9A4210D1FB68002283F81A
:1014B00054200BE0FB68DB6C002B07D1FB681B6D35
:1014C000002B03D1FB68002283F85420FB780C2BFF
:1014D0000BD1F86800F02CF8FB68002283F8542048
:1014E000F86800F0D5FA03461BE0FB6893F8393042
:1014F000002B06D0FB780A2B03D10D21F86800F0F1
:1015000051F9FB781946F86800F04CF9FB6893F83C
:101510005430032B04D0F86800F0BAFA034600E018
:10152000002318461037BD4680BD00BF060012805C
:1015300080B582B000AF78607B685B6C002B15D003
:101540007B68186C7B685B6B7A68126B02FB03F339
:101550001A46002108F001FA7B680022DA647B68F1
:1015600000221A657B68002283F8542000BF0837E8
:10157000BD4680BD80B584B000AF78600023FB60BD
:1015800014E07B685A6CFB689B00134418687B6806
:101590005A6CFB6801339B00134419687B681B6B12
:1015A0001A4608F0CFF9FB680133FB607B685B6B80
:1015B000013BFA689A42E4D37B685A6C7B685B6BA8
:1015C00003F18043013B9B00134418687B681B6B4D
:1015D0001A46002108F0C1F97B680022DA647B68B2
:1015E0005B6B5A1E7B681A657B68002283F8542067
:1015F00000BF1037BD4680BD80B586B000AF7860B3
:1016000039600023FB733B681B2B0ED104220021A1
:10161000624808F0A2F93B68DAB2604B1A707B6846
:10162000032283F854200123B3E05C4B1B781B2B6F
:1016300001D00023ADE0594B7B617B6901337B61B5
:101640007B691B78002BF8D13B68DAB27B691A7092
:10165000524808F0CFFEB86000233B6178E03B6958
:101660009B004F4A1344BA6819464C4808F0CAFE1A
:101670000346002B69D10123FB737B68032283F8A7
:1016800054203B699B00464A1344184608F0B2FEBA
:101690000246BB6893425FD13B69052B4AD801A241
:1016A00052F823F0BD160000BD160000CB16000056
:1016B000DF160000F9160000131700007B680022F7
:1016C0001A657B680022DA6434E07B681B6D002BAE
:1016D00029D07B681B6D5A1E7B681A6523E07B68E6
:1016E0001A6D7B685B6B013B9A421ED27B681B6D57
:1016F0005A1C7B681A6518E07B68DA6C7B681B6B88
:10170000013B9A4213D27B68DB6C5A1C7B68DA641B
:101710000DE07B68DB6C002B0BD07B68DB6C5A1E0A
:101720007B68DA6405E000BF04E000BF02E000BFB0
:1017300000E000BF04220021184808F00EF97B6881
:10174000032283F85420012323E03B6901333B61EA
:101750003B69052B83DD00E000BFFB7B83F00103C9
:10176000DBB2002B06D0042200210C4808F0F5F86B
:1017700000230EE0BB68032B0AD104220021074896
:1017800008F0EBF87B68032283F85420012300E083
:10179000FB7B18461837BD4680BD00BF64030020A0
:1017A000E4C8000080B582B000AF786039603B6863
:1017B0000A2B08D00D2B02D0082B24D038E07B68F0
:1017C0000022DA6486E07B681B6D5A1C7B681A6510
:1017D0007B680022DA647B681A6D7B685B6B9A42D7
:1017E00075D37B6893F83830002B08D07868FFF702
:1017F000C1FE7B685B6B5A1E7B681A6567E0786880
:10180000FFF796FE63E07B681B7D002B10D07B68A2
:101810001B7D012B0CD07B68FF2283F848207B685E
:10182000002283F849207B68002283F84A2051E097
:1018300039687868FFF7E0FE0346002B49D108F0CD
:1018400061F802463B68013313441B7803F09703A9
:10185000002B01D120233B607B68DA6C7B681B6B1B
:101860009A4207D37B680022DA647B681B6D5A1C9E
:101870007B681A657B681A6D7B685B6B9A4210D334
:101880007B6893F83830002B08D07868FFF772FE39
:101890007B685B6B5A1E7B681A6502E07868FFF70D
:1018A00047FE3B68DAB27B68596C7B681B6D9B0016
:1018B0000B4419687B68DB6C0B44203AD2B21A7077
:1018C0007B68DB6C5A1C7B68DA6400BF02E000BFF7
:1018D00000E000BF0837BD4680BD0000B0B58EB047
:1018E00002AF786039607B68DB6B7B620023BB6290
:1018F000B0E00023FB622EE07B685A6C3B689B00E3
:1019000013441A68FB6A13441B78FB73FA7BBB6AA7
:10191000642101FB03F313445B4AD35CBB737B6814
:101920001B7D002B04D0002B10DB022B0EDC05E00E
:101930007A6AFB6A1344BA7B1A7009E07A6AFB6A16
:101940001344BA7BD243D2B21A7001E04F4B97E0F6
:10195000FB6A0133FB627B681B6BFA6A9A42CBD34A
:101960007B681B7D022B6CD17B6893F84830DB09C8
:10197000DBB25AB27B6893F849309B115BB203F03B
:1019800002035BB213435AB27B6893F84A305B118F
:101990005BB203F004035BB213435BB2FB757B6A7B
:1019A0003B617B689B68DB08013BFB6146E00023F1
:1019B0003B620023BB611BE0FB693A6913441B785F
:1019C0001A46BB6942FA03F303F00103002B01D16D
:1019D000FA7D00E00722B9690B465B000B4402FA6E
:1019E00003F31A463B6A13433B62BB690133BB6195
:1019F000BB69072BE0DDFA6913465B0013441A4606
:101A00003B6913443A6AD2B21A703B6A190AFA69FE
:101A100013465B00134401333A691344CAB21A7087
:101A20003B6A190CFA6913465B00134402333A69A6
:101A30001344CAB21A70FB69013BFB61FB69002BBE
:101A4000B5DA7B68DB68DB087A6A13447B62BB6AC1
:101A50000133BB62BB6A072B7FF64BAF7B685C6AC6
:101A60007B68181D7B68D96B7B681B6BDD003B684E
:101A7000DB000822019200932B460022A047034678
:101A800018463037BD46B0BDC4C500000400128002
:101A900090B587B002AF78607B6893F85430012B23
:101AA00071D0022B7DD0002B02D000BF002379E043
:101AB0007B685B7D002B63D10023FB6006E0F96847
:101AC0007868FFF70BFFFB680133FB607B685B6B9B
:101AD000FA689A42F3D37B685B6BDA007B681B6918
:101AE0009A424FD27B681B7D012B0DD0022B15D063
:101AF000002B20D17B68D86B7B689B68DB081A467B
:101B0000002107F02AFF18E07B68D86B7B689B6890
:101B1000DB081A46FF2107F020FF0EE07B68D86B38
:101B20007B689A6813465B001344DB081A46FF2162
:101B300007F013FF01E01D4B34E07B685B6BDB00BB
:101B4000FB6017E07B685C6A7B68181D7B68D96B5B
:101B50007B689A6801230193FB6800931346002277
:101B6000A047B860BB68002B01D0BB681AE0FB68D7
:101B70000133FB607B681B69FA689A42E2D301E09B
:101B80000A4B0FE000BF7B685B7D002B07D17B68B1
:101B90001B6D19467868FFF7A1FE034602E0034B70
:101BA00000E0024B18461437BD4690BD0400128079
:101BB00080B483B000AF0346FB7197F90730002B68
:101BC0000CDBFB7903F01F02074997F907305B092B
:101BD000012000FA02F2603341F8232000BF0C37E5
:101BE000BD465DF8047B704700E100E080B400AFC3
:101BF000034B9B681846BD465DF8047B704700BFE9
:101C00000020044080B58AB000AF002387F8273059
:101C1000002387F82630002387F82530002387F833
:101C20002430002387F82330534A3B4607CA03C3B6
:101C30001A700023FB610023BB61504BD3F8B03016
:101C400003F00403002B06D101214D4801F09CFF55
:101C5000012387F827304B4802F0F0FA0346FB7562
:101C6000FB7D032B02D0012387F82530434BD3F8AB
:101C7000903003F04003002B02D1012387F8243079
:101C80000321404802F0BAFB3F4801F061FF386190
:101C90003A4BD3F8F03003F00103002B06D10121B9
:101CA000394801F071FF012387F8263002F046FF22
:101CB000F860364B1B6803F00103002B15D0334B43
:101CC0001B68FB61314B5B6ABB61304B00221A60C1
:101CD0002E4B00225A622D4B40F2FF721A621E20D8
:101CE000FFF766FF012387F823300023BB70002332
:101CF000FB7008233B713B46184604F055FE00F08C
:101D000065F8F86802F02AFF97F82330002B0AD014
:101D100039691D4801F029FF1C4AFB6913601B4A01
:101D2000BB69536202E0002004F02CFE97F82630D5
:101D3000002B03D00021144801F026FF97F825302E
:101D4000002B04D0FB7D19460E4802F057FB97F894
:101D50002430002B04D000220021012002F0D2FC0C
:101D600097F82730002B03D00021054801F00CFF25
:101D700000BF2837BD4680BDFCC8000000400E40B3
:101D800000250A0005002400A009140000200440DA
:101D900080B483B000AF78607B680B49002B0CD017
:101DA000013B88221202003253430A68D80AD20A41
:101DB0005043800901D00138FDD800BF0C37BD4623
:101DC0005DF8047B704700BF2C00002080B584B014
:101DD00000AF0823BB60334B4FF480521A601AE007
:101DE00000F062F8786000BF00F05EF802467B68A1
:101DF0009342F9D000F058F878602A4B1B681846D7
:101E000000F059F800F050F802467B68D31A7B6066
:101E10007B68002B07D1234B1B685B00214A1360B2
:101E2000002BDDD100E000BF1E4B1B685B081D4A84
:101E300013601C4B1B68FB6024E01A4B1A68FB689C
:101E40001343184A136000F02FF8786000BF00F0C9
:101E50002BF802467B689342F9D000F025F87860B1
:101E6000104B1B68184600F026F800F01DF80246DB
:101E70007B68934206D0FB68DA430A4B1B68134029
:101E8000084A1360BB685A1EBA60002B05D0FB6875
:101E90005B08FB60FB68002BCFD100BF1037BD464D
:101EA00080BD00BF2C00002080B500AFFFF79EFE74
:101EB0000346184680BD80B483B000AF78607B686D
:101EC000013BFDD800BF0C37BD465DF8047B704771
:101ED00080B584B000AF78603960214B1B7883F007
:101EE0000103DBB2002B01D01E4B34E07B68002BDA
:101EF00001D11D4B2FE002F021FEB8600023FB60F2
:101F000022E01A4AFB681B0113440C331B7883F050
:101F10000103DBB2002B14D0FA687B681A60134A05
:101F2000FB681B0113440C3301221A700F4AFB6833
:101F30001B01134400221A60B86802F00FFE002350
:101F400009E0FB680133FB60FB68072BD9DDB8684B
:101F500002F004FE064B18461037BD4680BD00BF98
:101F600068030020028000F0018000F06C03002074
:101F7000048000F080B584B000AF194B1B687B6013
:101F800000233B7102F0DAFDB860164B1B78002B82
:101F900004D0B86802F0E2FD134B1CE0114B0122A3
:101FA0001A70B86802F0DAFD0023FB6009E00F4AFE
:101FB000FB681B0113440C3300221A70FB680133C9
:101FC000FB60FB68072BF2DD0423FB713B1D184609
:101FD00003F0E4FE002318461037BD4680BD00BF65
:101FE00008C9000068030020038000F06C03002093
:101FF00080B58CB008AFF860B9607A603B60BB6AAE
:1020000007937B6A069397F820300593FB69049346
:102010003B7E0393002302933B6801937B6800930C
:10202000BB68FA680021002000F096F803461846C5
:102030001037BD4680BD80B58CB008AFF860B96080
:102040007A603B60BB6A07937B6A069397F82030FF
:102050000593FB6904933B7E0393002302933B6843
:1020600001937B680093BB68FA680121002000F0AF
:1020700073F8034618461037BD4680BD80B586B05C
:1020800000AF324B1B6EFB60304BDB6EFA681340C7
:10209000FB60FB68002B00DAFEE700237B61012375
:1020A0003B614CE0FA683B691340002B41D0274A62
:1020B0003B6993667B691B01254A1344BB60BB687F
:1020C0001B68002B35D0BB689B685A1CBB689A60A4
:1020D000BB681B68BA689168BA68526878699847A3
:1020E0000346002B14BF01230023DBB283F001035E
:1020F000DBB2FB71FB7903F00103FB71BB685B7B17
:10210000012B16D1FB79002B13D0124A7B695B019E
:10211000134403F1080213796FF3410313710D4A5D
:102120007B695B01134403F1180213796FF34103D8
:1021300013717B6901337B613B695B003B617B69A8
:10214000072BAFD900BF1837BD4680BD00200E4019
:102150006C030020EC03002090B58BB000AFBA6098
:102160007B600346FB730B46BB737A4B1B7883F093
:102170000103DBB2002B01D0774BE7E0BB68072BF4
:102180000FD8BB6B002B0CD0FB6B002B09D0BB6CAA
:10219000B3F5006F05DCFB7B012B04D13B6C002BFE
:1021A00001D16E4BD2E0BB681B016D4A13447B62C8
:1021B0007B6A1B7B83F00103DBB2002B01D0694BF0
:1021C000C4E007F1100300221A605A609A60DA60D6
:1021D000BB685B01644A13443B62BB7B002B1DD18F
:1021E0003B6A1A460023136053609360D3603A6AD7
:1021F000937843F0100393703A6AD37843F0300336
:10220000D37097F8443083F00103DBB2002B22D067
:102210003A6AD37843F00303D3701CE03B6A1A4652
:102220000023136053609360D3603A6A937843F05D
:10223000100393703A6AD37843F00303D37097F88E
:10224000443083F00103DBB2002B04D03A6AD37828
:1022500043F03003D3707B683B61BB6C9BB2013BA6
:102260009BB2C3F30A0399B23A6A138861F30E135F
:102270001380BA6B3B6A9A60FA6B3B6A5A6097F8B4
:102280004C3003F00303D9B23A6AD37861F3830385
:10229000D370FB7B012B3AD13A6A137B43F00103E5
:1022A00013733A6A137B43F0020313733A6AD368D9
:1022B000042161F39F03D3602B4ABB685B01134485
:1022C00003F110023B6A14460FCB84E80F00264A44
:1022D000BB685B01134403F1180253686FF00301FC
:1022E00061F39F0353603A6C1F49BB685B010B4469
:1022F00014331A60BB7B012B09D1FA6B1A49BB68F6
:102300005B010B4418331A603A6C3B6A5A603B6DB0
:10231000002B07D1FB7B002B04D13A6A93786FF333
:10232000041393707B6A3A6D1A607B6A7A6D5A6007
:102330007B6A00229A607B6AFA7B5A73BB6807F15A
:1023400010013A6A184603F067FD002318462C373F
:10235000BD4690BD68030020028000F0018000F0BF
:102360006C030020078000F0EC03002080B483B0F1
:1023700000AF0346FB7197F90730002B0BDBFB79AD
:1023800003F01F02074997F907305B09012000FAA3
:1023900002F241F8232000BF0C37BD465DF8047BF4
:1023A000704700BF00E100E080B483B000AF034697
:1023B000FB7197F90730002B0CDBFB7903F01F0250
:1023C000074997F907305B09012000FA02F26033F0
:1023D00041F8232000BF0C37BD465DF8047B7047F1
:1023E00000E100E080B485B000AF78607B68002B2E
:1023F00003D07B68B3F5004F00BF7B68B3FA83F36B
:10240000DBB2C3F11F03FB60FB6818461437BD46FF
:102410005DF8047B7047000080B483B000AF786043
:10242000064A7B6804331B01134404331B681846B7
:102430000C37BD465DF8047B704700BF00200440A8
:1024400080B483B000AF78603960074A7B6804339A
:102450001B01134404333A681A6000BF0C37BD46B1
:102460005DF8047B704700BF0020044080B582B057
:1024700000AF78607868FFF7CFFF0346184608374B
:10248000BD4680BD80B582B000AF786039603968E4
:102490007868FFF7D5FF00BF0837BD4680BD000054
:1024A00080B400AF034B9B681846BD465DF8047BC3
:1024B000704700BF0020044080B483B000AF786054
:1024C000044A7B68136200BF0C37BD465DF8047B8D
:1024D000704700BF0020044080B483B000AF786034
:1024E000064B5A6A7B68DB43044913404B6200BFCA
:1024F0000C37BD465DF8047B704700BF00200440E8
:1025000080B483B000AF7860054B5A6A04497B6899
:1025100013434B6200BF0C37BD465DF8047B704728
:102520000020044080B483B000AF064B5B6A7B6040
:10253000044B9A697B68134018460C37BD465DF81A
:10254000047B70470020044080B586B000AF7860FF
:1025500000237B6100233B61204B1B7883F0010348
:10256000DBB2002B01D01E4B33E002F0E7FAF8603B
:1025700002E07B6901337B617B69032B0ADC19492B
:102580007A6913469B001344DB000B441E331B780F
:10259000002BEED17B69042B02D1134B3B6114E07D
:1025A0007B68002B0FD00F497A6913469B001344B8
:1025B000DB000B441E3301221A707A697B681A60B3
:1025C00000233B6101E0094B3B61F86802F0C6FA69
:1025D0003B6918461837BD4680BD00BF9A050020EC
:1025E000061000F0F0040020011000F0041000F0CC
:1025F00090B585B000AF7860214B1B7883F0010364
:10260000DBB2002B01D01F4B35E07B6819464FF041
:1026100000024FF000034FF00004D40344EA514499
:10262000CB0313F5FA7044F100014FF47A724FF0C6
:10263000000306F0AFFF03460C46C7E902340BE087
:102640006FF0640000F0D6FBD7E9023413F16501A6
:1026500044F1FF32C7E90212D7E902346FF0640196
:102660004FF00002A24208BF9942E9D3BB68184666
:1026700000F0C0FB002318461437BD4690BD00BFD4
:102680009A050020061000F080B500AF224B1B78A1
:10269000002B01D000233CE00121204801F074FA16
:1026A00003211F4801F0AAFE0120FFF79BFE03460D
:1026B000DAB21C4B1A7101211B4801F065FA194866
:1026C00004F072F91949012004F02EF940F2FF706C
:1026D000FFF702FF40F2FF70FFF7EEFE144B0022FF
:1026E0009A601E20FFF760FE1E20FFF73FFEA0222B
:1026F0000021104807F031F90F4B00221A700F4BE0
:1027000000221A700E4B00221A60034B01221A702D
:102710000023184680BD00BF9A05002000250A004E
:102720000500240030000020A00914003C00002017
:1027300000200440F00400209805002099050020A6
:102740009405002090B58FB000AFF8607A603B60D0
:102750000B46FB7200233B63904B1B7883F0010315
:10276000DBB2002B01D08E4B7DE1FB68032B01D93E
:102770008C4B78E102F0E2F9F8628B49FA68134673
:102780009B001344DB000B441E331B7883F00103D2
:10279000DBB2002B04D0F86A02F0E0F9834B62E16F
:1027A0007B68002B0BD13B68002B03D03B68B96CD6
:1027B000F8689847F86A02F0D1F9002353E1FFF76F
:1027C0006FFE78637849FA6813469B001344DB0078
:1027D0000B4418333A681A607B6819464FF00002C0
:1027E0004FF000034FF00004D40344EA5144CB03FC
:1027F00013F5FA7044F100014FF47A724FF00003C0
:1028000006F0C8FE03460C4619462246664CF86898
:1028100003469B000344DB0023440833C3E9001252
:10282000FB7A012B29D17B684FF47A7202FB03F10A
:102830005D48FA6813469B001344DB0003440833E9
:10284000D3E900341A4613461B019B1A5B00CB1ACE
:1028500018465549FA6813469B001344DB000B44A5
:10286000103318605049FA6813469B001344DB008C
:102870000B4414330F221A6013E04B49FA681346D5
:102880009B001344DB000B440833D3E90012464C91
:10289000F86803469B000344DB0023440833C3E984
:1028A00000124149FA6813469B001344DB000B44B5
:1028B0000833D3E90034591C44F100023A4CF8685B
:1028C00003469B000344DB002344C3E9001236495E
:1028D000FA6813469B001344DB000B441C330122AF
:1028E0001A703149FA6813469B001344DB000B440D
:1028F0001F33FA7A1A702C49FA6813469B00134466
:10290000DB000B442033BA6C1A60294B1B78002B78
:1029100004D0F86A02F022F90023A4E0254B1B68DA
:10292000B3F1FF3F04D0234B1B680133214A1360EE
:10293000214B1B7883F00103DBB2002B40D01F4AF0
:102940007B6B13600420FFF7B7FD1749FA68134645
:102950009B001344DB000B44D3E90034C7E9063481
:102960006FF064037B617B6919464FF00002D7E981
:102970000634A24208BF994201D20B4614463B617D
:102980007A6B3B69134419460120FFF77BFD042055
:10299000FFF7B6FD084B01221A7057E09A05002098
:1029A000061000F0021000F0F0040020031000F008
:1029B000980500209405002099050020900500202E
:1029C0002B4B1B68012B41D12A49FA6813469B0007
:1029D0001344DB000B441C3300221A700420FFF761
:1029E0007BFD254B1B687A6BD31ABB62B86A00F07B
:1029F00099F800F017FA3B6B002B09D11D49FA68D2
:102A000013469B001344DB000B441C3301221A7055
:102A10003B6B01333B63786B00F036FAFFF740FD08
:102A20007863154B1B687A6BD31ABB620120FFF7E2
:102A30001DFD0246104B1B68D31A7B620F4B1B789F
:102A4000002B03D0BA6A7B6A9A42C7D2084B1B6834
:102A5000002B04D0064B1B68013B054A1360F86A43
:102A600002F07CF8002318463C37BD4690BD00BFFD
:102A700094050020F0040020900500209905002016
:102A800080B586B000AF02F059F83861FFF74AFD13
:102A9000F860FB6823F005031846FFF70DFDFB689F
:102AA00003F00403002B30D01B4B01221A70FFF7F8
:102AB000F7FC78610420FFF70FFD184B1B687A695B
:102AC000D31ABB60B86800F02DF800F0ABF9786954
:102AD00000F0DAF9FFF7E4FC7861104B1B687A69C3
:102AE000D31ABB600120FFF7C1FC02460B4B1B68E9
:102AF000D31A7B600A4B1B78002B03D0BA687B6823
:102B00009A42D7D2044B00221A70386902F026F894
:102B100000BF1837BD4680BD9805002090050020F5
:102B200099050020F0B587B000AF786000237B6185
:102B300056E1AF497A6913469B001344DB000B440E
:102B40001D3300221A70AA497A6913469B00134468
:102B5000DB000B441C331B78002B00F03E81A449A2
:102B60007A6913469B001344DB000B44D3E900341D
:102B70007A6811464FF00002A24208BF99421AD269
:102B80009B497A6913469B001344DB000B44D3E94D
:102B900000567B684FF0000429463246C91A62EBA2
:102BA0000402934C786903469B000344DB002344F2
:102BB000C3E9001211E18E497A6913469B00134460
:102BC000DB000B441F331B78002B0AD188497A693C
:102BD00013469B001344DB000B441C3300221A7085
:102BE000E6E07B6819464FF00002814C78690346A5
:102BF0009B000344DB002344D3E900560B461446F4
:102C00005B1B64EB0604C7E9023479497A69134611
:102C10009B001344DB000B440833D3E9004574499F
:102C20007A6913469B001344DB000B440833D3E955
:102C30000023D7E9020106F0ADFCA41A65EB0305F9
:102C400021462A466A4C786903469B000344DB0010
:102C50002344C3E9001266497A6913469B00134472
:102C6000DB000B4410331B68002B50DD60497A6990
:102C700013469B001344DB000B44143319685C4873
:102C80007A6913469B001344DB00034410331B682E
:102C9000194457487A6913469B001344DB000344E8
:102CA0001433196052497A6913469B001344DB00C0
:102CB0000B4414331B681D2B7AD94D497A6913468E
:102CC0009B001344DB000B44D3E90034591C44F14E
:102CD0000002474C786903469B000344DB00234411
:102CE000C3E9001242497A6913469B001344DB0092
:102CF0000B4414331B68A3F11E013D487A69134647
:102D00009B001344DB0003441433196050E038493E
:102D10007A6913469B001344DB000B441433196893
:102D200033487A6913469B001344DB000344103395
:102D30001B68C91A2E487A6913469B001344DB00AE
:102D40000344143319602A497A6913469B001344DB
:102D5000DB000B4414331B681D2B29D924497A69E5
:102D600013469B001344DB000B44D3E9003413F1FA
:102D7000FF3144F1FF321E4C786903469B00034447
:102D8000DB002344C3E9001219497A6913469B000A
:102D90001344DB000B4414331B68A3F11E011448D9
:102DA0007A6913469B001344DB0003441433196013
:102DB0000F497A6913469B001344DB000B44183318
:102DC0001B68002B09D00A497A6913469B001344FB
:102DD000DB000B441D3301221A707B6901337B61D8
:102DE0007B69032B7FF7A5AE00BF1C37BD46F0BD46
:102DF000F004002080B584B000AF78607B68002BC1
:102E00000CD0FFF74DFBF860FFF74AFB0346BB60B1
:102E1000BA68FB68D31A7A689A42F5D800BF1037AF
:102E2000BD4680BD90B583B000AF00237B6022E03B
:102E300014497A6813469B001344DB000B441D338E
:102E40001B78002B14D00F497A6813469B0013445B
:102E5000DB000B4418331C6878680A497A6813460B
:102E60009B001344DB000B4420331B681946A0472A
:102E70007B6801337B607B68032BD9DD00BF0C3797
:102E8000BD4690BDF004002090B58BB000AF7860D7
:102E90004FF0FF334FF0FF34C7E9063400237B6265
:102EA00027E031497A6A13469B001344DB000B4448
:102EB0001C331B78002B19D02B497A6A13469B00D0
:102EC0001344DB000B44D3E90012D7E90634A242D5
:102ED00008BF99420AD224497A6A13469B001344D8
:102EE000DB000B44D3E90034C7E906347B6A0133C5
:102EF0007B627B6A032BD4DD1C4B00221A70D7E95E
:102F00000634B4F1FF3F08BFB3F1FF3F27D0D7E944
:102F10000634C7E904346FF06403FB60FB681946AC
:102F20004FF00002D7E90434A24208BF994201D20F
:102F30000B461446C7E906340D4A7B68136004202B
:102F4000FFF7BAFABA697B68134419460120FFF704
:102F500099FA064B01221A700420FFF7D1FA00BF3C
:102F60002C37BD4690BD00BFF0040020990500201D
:102F70009005002080B487B000AFF860B9607A6037
:102F8000FB6803F10473DA00BB6813449B007B61A8
:102F90007B697A681A6000BF1C37BD465DF8047B08
:102FA000704780B485B000AF786039607B6803F10A
:102FB000C063FB60FB683A681A6000BF1437BD4607
:102FC0005DF8047B704780B485B000AF78603960ED
:102FD0007B6803F18063FB60FB683A681A6000BF9E
:102FE0001437BD465DF8047B704780B584B000AFF0
:102FF000F860B9607A60B968F868FFF7E4FF79684B
:10300000F868FFF7CEFF00BF1037BD4680BD000057
:1030100080B489B000AF78600B46FB701346BB707C
:10302000BB78002B04D010237B616C4BBB6103E0A9
:1030300000237B616A4BBB617B685B6BBA691340A1
:103040003B610023FB617B68664A934240F0BF808E
:10305000654BFB60FB78022B43D0022B04DC002B7A
:103060000AD0012B22D0A7E0062B75D0812B00F0CF
:103070008680032B52D09FE0FB681B681B0A1B0253
:1030800003F4FE43FA691343FB61FB681B6803F01A
:103090000F03FA691343FB61FB681B681B091B01E3
:1030A00003F0F003FA691343FB6188E0FB681B68D7
:1030B0001B0E1B0203F4FE43FA691343FB61FB681A
:1030C0001B681B0C03F00F03FA691343FB61FB68D9
:1030D0001B681B0D1B0103F0F003FA691343FB612E
:1030E0006DE0FB6804331B681B0A1B0203F4FE43FC
:1030F000FA691343FB61FB6804331B6803F00F0399
:10310000FA691343FB61FB6804331B681B091B014D
:1031100003F0F003FA691343FB6150E0FB680433EA
:103120001B681B0E1B0203F4FE43FA691343FB6189
:10313000FB6804331B681B0C03F00F03FA6913438D
:10314000FB61FB6804331B681B0D1B0103F0F003DC
:10315000FA691343FB6132E0FB6808331B6803F034
:103160000F03FA691343FB61FB6808331B681B09F3
:103170001B0103F0F003FA691343FB611FE0FB68D6
:1031800004331B681B0A1B0203F4FE43FA69134352
:10319000FB61FB6804331B6803F00F03FA691343F8
:1031A000FB61FB6804331B681B091B0103F0F00380
:1031B000FA691343FB6102E00023FB6100BFFA6977
:1031C0007B699A403B691A437B685A6300E000BF01
:1031D0002437BD465DF8047B704700BFFFFF0080C9
:1031E0000080FFFF002000401082E00F80B588B013
:1031F00000AF786039603B68DB78FB76FB7E002BA4
:1032000006D100212A4800F0EFF80346FB760EE0D5
:103210007B681B6803F08003002B08D10021244841
:1032200000F0E2F800214FF4FA4000F0DDF87B688E
:103230000A229A603B681B781A063B689B781B043D
:1032400003F4FE031A43FB7E1B0203F4FE43134305
:103250003A6852781343FB613B681B79002B03D01B
:10326000FB6943F01003FB617B68FA691A607868B8
:103270003B685B791A46C021FFF7B7FE7B681B6885
:1032800003F08003802B0FD10A4B7B6100233B614D
:10329000786900F0DFFCF8607B68074A934203D14D
:1032A000064800F0D7FC386100BF2037BD4680BD1E
:1032B0000024F400B80032000020004000D20400D6
:1032C00080B584B000AF786039607B6802229A6074
:1032D0003B689B78002219467868FFF799FE3B68A7
:1032E0005B781A063B681B791B021A433B685B79C3
:1032F0001B041A433B68DB78DB001343FB603B682D
:10330000DB79002B03D0FB6843F00053FB603B6884
:103310001B7A002B03D0FB6843F00403FB603B687F
:103320009B79002B03D0FB6843F00203FB603B68F2
:103330005B7A002B03D0FB6843F00103FB603B6822
:103340001B79F32B0DD13B689B78002B09D13B688F
:103350005B78032B05D8FB6823F0706343F0806330
:10336000FB603B689B785BB2002B04DAFB6843F0A0
:10337000E003FB6005E03B689B785B01FA68134360
:10338000FB607B68FA681A617B685B6923F4F2135F
:1033900023F00703FB603B689B785BB2002B06DAE7
:1033A0003B689B7823F08003FA681343FB603B681B
:1033B0001B785B04FA681343FB603B68DB7A002BE5
:1033C00003D0FB6843F48043FB607B68FA685A6172
:1033D00078683B689B7A1A460221FFF7CBFD00BF55
:1033E0001037BD4680BD000080B584B000AF786066
:1033F00039607B68164A934202D9154B7B6006E020
:103400007B68B3F5FA4F02D24FF4FA437B603B6816
:10341000002B03D10F4800F01DFC38603A687B6830
:1034200013445A1E7B68B2FBF3F3FB60FB68002B6E
:1034300002D0FB68013BFB60FB687F2B01D97F2337
:10344000FB60FB68DBB218461037BD4680BD00BF8D
:103450000024F4004041050080B582B000AF7860E0
:103460007B68002B08D10E4800F0F4FB78607B6885
:10347000002B01D101237B607B6803F5742303F2E9
:103480003F237B607B68074AA2FB03239B0C7B6086
:103490007B68DBB2013BDBB218460837BD4680BD16
:1034A0004041050083DE1B4380B487B000AFF86065
:1034B000B9607A60FB6803F10473DA00BB681344F7
:1034C0009B007B617B697A681A6000BF1C37BD4630
:1034D0005DF8047B704780B485B000AF78603960D8
:1034E0007B6803F10473DA003B6813449B00FB60C4
:1034F000FB681B6818461437BD465DF8047B7047AF
:1035000080B483B000AF786001227B6802FA03F3D5
:1035100018460C37BD465DF8047B704780B584B013
:1035200000AF78607B680133B3FA83F3DBB2C3F199
:103530001F03FB60F868FFF7E3FFFB6818461037CE
:10354000BD4680BD80B500AF00BF12210348FFF724
:10355000C2FF0346002BF8D100BF80BD04300E40EF
:1035600080B500AFFFF7EEFF034B5B681B0C03F069
:103570000303DBB2184680BD00300E4080B584B036
:1035800000AF78600123FB607B68124A934204D845
:103590000023FB600023BB6008E07B680E4A934277
:1035A00002D80123BB6001E00223BB60FA6810214E
:1035B0000A48FFF779FF094BD3F8003123F08072F6
:1035C000BB681B0605491343C1F8003100BF103723
:1035D000BD4680BD0048E8010090D00300400E4089
:1035E00080B483B000AF054B1B687B607B681846D6
:1035F0000C37BD465DF8047B704700BF44000020D7
:1036000080B582B000AFFCF71DFE7860064BD3F8A2
:1036100000311B0A03F01F0301337A6802FB03F336
:1036200018460837BD4680BD00400E4080B582B0C8
:1036300000AF0D4800F002FE0346FB70FB78072B3D
:1036400005D0092B07D1FCF7FDFD786006E0FFF7F8
:10365000C7FF786002E000237B6000BF7B681846EC
:103660000837BD4680BD00BF06000E0080B584B09F
:1036700000AF78607B68002B1CD11B4800F0DEFD9A
:103680000346FB7200BFFB7A013B072B23D801A244
:1036900052F823F0B9360000D7360000D7360000C4
:1036A000C7360000D7360000D7360000BF3600000E
:1036B000CF360000002312E00023FB600EE0FFF78E
:1036C0008FFFF8600AE0FCF7F5FDF86006E0FFF711
:1036D00097FFF86002E00023FB6000BFFB6818461C
:1036E0001037BD4680BD00BFB800320080B485B041
:1036F00000AF786039601E4B5B6803F04073FB607D
:103700000023BB6012E01B4ABB68DB0013441A793C
:103710003B68DBB29A4206D1164ABB6852F8333096
:103720007A689A4206D9BB680133BB60BB68042B38
:10373000E9D900E000BFBB68052B02D10323FB6081
:1037400005E00C4ABB68DB0013445B79FB60FB6857
:103750001B06FB60064B5B6823F040720449FB6864
:1037600013434B6000BF1437BD465DF8047B7047C0
:1037700000000E400CC9000080B582B000AF0E4BB7
:103780001B6C002B14BF01230023FB710A4B41F675
:1037900071321A64FCF74CFD034600211846FFF70E
:1037A000A5FFFB79002B02D0034B00221A6400BF57
:1037B0000837BD4680BD00BF00000E4080B584B014
:1037C00000AF786039600C4B1B6C002B14BF0123D9
:1037D0000023FB73084B41F671321A64396878682C
:1037E000FFF784FFFB7B002B02D0034B00221A64FF
:1037F00000BF1037BD4680BD00000E4080B487B0CA
:1038000000AF78600F237B617B6803333B617B698A
:10381000FB60FA683B69934228BF1346BB60BB68F4
:103820001B07BB60BB6818461C37BD465DF8047BB0
:103830007047000080B400AF044B5B6A1B0903F0C3
:1038400003031846BD465DF8047B704700400E40F8
:1038500080B483B000AF7860074B5B6A23F030021E
:103860007B681B01044913434B6200BF0C37BD4604
:103870005DF8047B704700BF00400E4090B585B0F6
:1038800000AF78600023BB607B68354A934206D066
:10389000344A934203D0344A934200D000E000BF40
:1038A000786800F0CBFC0346FB607B682C4A9342AF
:1038B0000DD02C4A934211D02B4A934200D014E0F1
:1038C0002A4BD3F8803003F00703FB600DE0274B51
:1038D000D3F8843003F00703FB6006E0234BD3F8F2
:1038E000883003F00703FB6000BFFB68042B2ED871
:1038F00001A252F823F000BF493900000D39000041
:1039000015390000253900001D390000FCF7F4FCD2
:10391000B8601FE0FCF702FDB8601BE0FCF7F5FCA7
:10392000B86017E0FCF764FC0446104BD3F8003194
:103930001B0E03F0010301331846FFF7E1FD0346B8
:10394000B4FBF3F3BB6005E00023BB6002E000239F
:10395000BB6000BFBB6818461437BD4690BD00BFB2
:10396000030020000500240002001E0000400E405D
:1039700080B483B000AF78600A4BD3F8443103F0D1
:103980000103002B08D100BF064BD3F840217B6810
:103990001340002BF8D100E000BF0C37BD465DF8A6
:1039A000047B704700400E4080B400AF00BFBD46AE
:1039B0005DF8047B704780B400AF00BFBD465DF882
:1039C000047B704780B483B000AF78607B68294A7D
:1039D00093422FD0274A934210D8274A934221D0AE
:1039E000254A934203D8254A93421BD03AE0244A01
:1039F000934217D0234A934218D033E0224A93428D
:103A000024D0214A934206D8204A934216D0204A15
:103A1000934217D026E01F4A93421BD01E4A93427E
:103A20001CD01FE01D4BD3F8E0301CE01B4BD3F83B
:103A3000EC3018E0194BD3F8F83014E0174BD3F8FA
:103A4000FC3010E0154BD3F800310CE0134BD3F8E9
:103A5000083108E0114BD3F80C3104E00F4BD3F8D8
:103A6000103100E0002318460C37BD465DF8047B9A
:103A7000704700BF405DC60080841E0040420F00BA
:103A800000093D00C0CF6A0080BA8C010024F40018
:103A9000C0EA21010048E80180D54302B081E00F6F
:103AA00080B400AF034B1B681846BD465DF8047B2D
:103AB000704700BF4400002080B584B000AF78603C
:103AC0007868FFF77FFFF860FB68002B03D0FB6886
:103AD000B3F1FF3F00BF184A7B68136000BF192194
:103AE0001648FFF7F8FC0346002BF8D17B68144A10
:103AF00093420DD0134A934211D0134A934200D0FF
:103B000012E0FB6823F0C06343F08063FB600BE0CE
:103B1000FB6823F0C06343F00073FB6004E0FB68C4
:103B200023F0C063FB6000BF084AFB68936100BFDD
:103B30001037BD4680BD00BF4400002040410E400C
:103B400080841E0000093D0040420F0000400E40EE
:103B500080B582B000AF7860786800F081F90346E4
:103B6000013318460837BD4680BD80B582B000AF2E
:103B7000786039603B68013B1946786800F032FA9A
:103B800000BF0837BD4680BD80B586B000AF786005
:103B90000B46FB7000233B617B681B0A03F00F039D
:103BA000013B092B44D801A252F823F0D53B000079
:103BB000E13B0000313C0000313C0000DB3B0000F9
:103BC000E73B0000F13B0000313C0000FB3B000004
:103BD000073C0000184B7B6118E0184B7B6115E037
:103BE000174B7B6112E0174B7B6101233B610DE0BA
:103BF000154B7B6110233B6108E0144B7B614FF454
:103C000080333B6102E0124B7B6100BF7B681B0B82
:103C100003F01F03FB603B69002B02D03869FFF7FC
:103C2000A7FEFB781A46F9687869FFF73DFC00E0CB
:103C300000BF1837BD4680BD00400E40B0400E406A
:103C4000C0400E40E0400E40E8400E40F0400E40C4
:103C500050410E4080B584B000AF78607B6803F4BB
:103C60007813B3F5A01F7DD0B3F5A01F1AD8B3F514
:103C7000202F50D0B3F5202F08D8B3F5003F4ED0F9
:103C8000B3F5802F38D0002B32D0D8E0B3F5602FB9
:103C900000F0C880B3F5801F00F0C880B3F5402F56
:103CA0004CD0CCE0B3F5001F00F08B80B3F5001FC3
:103CB0000AD8B3F5D01F00F08980B3F5F01F4CD0BF
:103CC000B3F5B01F5CD0BAE0B3F5381F6AD0B3F5D6
:103CD000381F04D8B3F5101F00F09F80AFE0B3F594
:103CE000401F00F08680B3F5481F00F0A380A6E0D7
:103CF000FCF7A8FAF860A5E0FCF7A4FAF860544BCA
:103D0000D3F80C311B0AC3F308030133FA68B2FB82
:103D1000F3F3FB6096E0FCF795FAF86092E0FCF7AD
:103D200091FAF8604A4BD3F808311B0AC3F3080331
:103D30000133FA68B2FBF3F3FB6083E0FCF782FA2D
:103D4000F860434BD3F814311B0A03F01F0301330F
:103D5000FA68B2FBF3F3FB6074E03E48FFF78EFDB8
:103D6000F8606FE03C48FFF789FDF860384BD3F806
:103D7000303103F00303FA6822FA03F3FB6061E0D9
:103D80003448FFF77BFDF860314BD3F8203103F066
:103D90000F031846FFF7B4FB0246FB68B3FBF2F3D0
:103DA000FB604FE02B48FFF769FDF860284BD3F824
:103DB00020311B0903F00303FA6822FA03F3FB60C6
:103DC00040E02648FFF75AFDF8603BE02348FFF744
:103DD00055FDF8601E4BD3F828311B0903F003038F
:103DE0001846FFF78DFB0246FB68B3FBF2F3FB605E
:103DF00028E01A48FFF742FDF860154BD3F8283148
:103E00001B0A03F0030304331846FFF779FB02464D
:103E1000FB68B3FBF2F3FB6014E00F48FFF72EFDE5
:103E2000F8600FE0FFF702FCF8600BE0FFF7D8FB4B
:103E3000F86007E00020FFF719FCF86002E00023BB
:103E4000FB6000BFFB6818461037BD4680BD00BF51
:103E500000400E4002001E00050024000300200068
:103E600080B584B000AF78607B681B0903F00F0356
:103E7000BB60BB68013B092B00F2A08001A252F895
:103E800023F000BFAD3E0000BD3E0000CD3E00006F
:103E9000DD3E0000BD3F0000BD3F0000ED3E0000E4
:103EA000FD3E00004B3F00009F3F0000474BD3F812
:103EB00000311B0A03F01F03FB6082E0434BD3F881
:103EC00014311B0A03F01F03FB607AE03F4BD3F869
:103ED00000311B0E03F00103FB6072E03B4BD3F893
:103EE0000C311B0AC3F30803FB606AE0374BD3F8BD
:103EF00008311B0AC3F30803FB6062E07B68344AA5
:103F0000934203D0334A93420DD01AE02F4BD3F89B
:103F1000203103F00F03FB60F868FFF7F1FA034666
:103F2000013BFB6010E0294BD3F820311B0903F063
:103F30000303FB60F868FFF7E3FA0346013BFB600D
:103F400002E00023FB6000BF3BE07B68224A934213
:103F500003D0224A93420ED01DE01C4BD3F82831E7
:103F60001B0903F00303FB60F868FFF7C9FA034677
:103F7000013BFB6012E0154BD3F828311B0A03F01C
:103F80000303FB60FB6804331846FFF7B9FA0346E6
:103F9000013BFB6002E00023FB6000BF11E07B6897
:103FA0000F4A934206D1094BD3F8303103F0030393
:103FB000FB6002E00023FB6000BF02E00023FB6027
:103FC00000BFFB6818461037BD4680BD00400E405C
:103FD0008006160080162E0090171A0090273000D9
:103FE000A009140080B584B000AF786039607B68A8
:103FF0001B0903F00F03FB60FB68013B092B00F278
:10400000078101A252F823F0314000007D400000FA
:1040100011420000954000001142000011420000D2
:10402000B1400000F940000079410000E741000084
:10403000FFF7A2FB7948FFF7A1FAFFF7B5FC784B31
:10404000D3F8003123F4F8523B681B027449134340
:10405000C1F80031FCF7CCF8B860FFF781FA0346ED
:104060001946B868FFF7AAFB6E48FFF7F3FD034651
:104070001846FFF783FAFFF79EFCCAE0684BD3F8B7
:10408000143123F4F8523B681B0265491343C1F80D
:104090001431BEE0624BD3F80C3123F4FF3323F428
:1040A00080733A6812025E491343C1F80C31B0E0E4
:1040B000FFF762FB5948FFF761FA594BD3F8083113
:1040C00023F4FF3323F480733A68120254491343F4
:1040D000C1F80831FCF78CF8B860FFF741FA0346E5
:1040E0001946B868FFF76AFB4E48FFF7B3FD034671
:1040F0001846FFF743FA8CE07B684B4A934215D091
:104100004A4A934224D04A4A934200D033E04FF4C3
:104110008020FFF72DFC424BD3F8303123F003020F
:104120003F493B681343C1F8303124E03868FFF75A
:10413000F5F938600420FFF71BFC394BD3F8203128
:1041400023F00F0236493B681343C1F8203112E0D7
:104150003868FFF7E3F938600420FFF709FC304BBB
:10416000D3F8203123F030023B681B012C49134364
:10417000C1F8203100BF4CE07B682E4A934203D047
:104180002D4A934213D02DE03868FFF7C7F9386005
:104190004020FFF7EDFB224BD3F8283123F030020B
:1041A0003B681B011E491343C1F828311AE03B68E4
:1041B0007F2B02D83B680E2B00BF3868FFF7AEF9A3
:1041C0000346043B3B604020FFF7D2FB144BD3F87F
:1041D000283123F440723B681B0211491343C1F894
:1041E000283100BF15E07B68114A934200D00EE0F1
:1041F0004FF48020FFF7BCFB094BD3F8303123F09C
:10420000030207493B681343C1F8303100BF00E0A7
:1042100000BF00BF1037BD4680BD00BF0148E801A8
:1042200000400E4000250A008006160080162E0071
:10423000A009140090171A009027300080B485B0B0
:1042400000AF78600123FB737B6803F00F03BB6052
:10425000BB68013B072B00F2C48001A252F823F097
:1042600081420000D742000007430000E343000002
:104270004D4300007D430000E3430000A1430000E4
:104280005D4BD3F8943003F00703023B052B1ED897
:1042900001A252F823F000BFBD420000B742000067
:1042A000B1420000C3420000CF420000C9420000FA
:1042B0000223FB730EE00323FB730BE00423FB7369
:1042C00008E00B23FB7305E00C23FB7302E00523DE
:1042D000FB7300BF88E0484BD3F8803003F007033E
:1042E000022B06D0042B07D0012B08D10323FB732C
:1042F00008E00223FB7305E00A23FB7302E00123BD
:10430000FB7300BF70E03C4BD3F8843003F007032D
:10431000013B032B16D801A252F823F02D430000D5
:10432000334300003F430000394300000323FB7385
:104330000BE00223FB7308E00A23FB7305E006236E
:10434000FB7302E00123FB7300BF4DE02A4BD3F85F
:10435000883003F00703022B06D0042B07D0012B73
:1043600008D10323FB7308E00223FB7305E00A2353
:10437000FB7302E00123FB7300BF35E01E4B1B6F94
:1043800003F00103002B04D0012B05D10923FB739B
:1043900005E00723FB7302E00123FB7300BF23E06A
:1043A000154BD3F85C3103F03003102B0CD0102BDD
:1043B00002D8002B05D010E0202B08D0302B09D0DC
:1043C0000BE00123FB730BE00723FB7308E00423DE
:1043D000FB7305E00823FB7302E00123FB7300BFBE
:1043E00002E00023FB7300BFFB7B18461437BD4679
:1043F0005DF8047B704700BF00400E4080B58AB076
:1044000000AF78600B46FB7003237B62032387F8C1
:1044100023300023BB6100237B617B68112B19D102
:10442000FB78042B03D1FBF745FF78610BE0FB78A9
:10443000052B08D100F05AF90246A44B9A4202D942
:1044400000F054F978617B69002B03D00021786972
:1044500000F06AFD7B6803F00F033B613B69013BA1
:10446000072B00F2298101A252F823F08D440000AD
:104470008145000093450000B946000085450000D5
:1044800029460000B946000047460000FB78023B81
:104490000A2B00F2138101A252F823F0C944000054
:1044A000D5440000E1440000F3440000BD46000094
:1044B000BD460000BD460000BD460000BD460000F0
:1044C000054500001145000004237B62002387F8A6
:1044D000233023E003237B62012387F823301DE090
:1044E00002237B62022387F823307948FFF746F8DE
:1044F00014E001237B62032387F823307448FFF71D
:104500003DF80BE005237B62032387F8233005E0A9
:1045100007237B62062387F8233000BF97F82330F8
:10452000062B06D097F8233001220121184600F00F
:10453000E9F8FFF721F9FFF737FA7B69002B01D083
:10454000FFF700F8634A7B6A53676348FFF782FB13
:1045500003461846FFF712F8FBF74AFEF860FEF72D
:10456000FFFF03461946F868FFF728F97B69002B1F
:1045700003D10121002000F0D7FCFFF71CFAA2E0D4
:10458000564BBB61BB69002B01D0BB6900E0544BAB
:10459000BB61BB69002B01D0BB6900E0514BBB6123
:1045A000FB78013B092B00F28B8001A252F823F02B
:1045B000D9450000DF450000EF450000C14600007E
:1045C000C1460000FF450000C1460000C146000092
:1045D000C14600001B4600000023FB6120E00122D1
:1045E0000121002000F08EF80223FB6118E0012277
:1045F0000121012000F086F80123FB6110E0FBF7A8
:10460000F7FD03461846FEF7B9FF0122022136489E
:10461000FEF74AFF0323FB6102E00423FB6100BFB6
:10462000BB69FA691A604EE0FB78072B02D0092BB0
:1046300004D048E0274B00221A6703E0254B0122F3
:104640001A6700BF3FE0FB78013B072B3AD801A275
:1046500052F823F075460000C5460000C54600002C
:104660008B460000C5460000C54600007B460000A2
:104670009B4600000023FB6112E00122012104207F
:1046800000F040F80123FB610AE001220121022031
:1046900000F038F80223FB6102E00323FB6100BF56
:1046A0000C4BD3F85C3123F03002FB691B01094944
:1046B0001343C1F85C3106E000BF04E000BF02E034
:1046C00000BF00E000BF2837BD4680BD002D31018E
:1046D0000148E80100400E4000250A0080400E40DD
:1046E00088400E4084400E40B0400E4080B400AF81
:1046F000034B1B681846BD465DF8047B704700BF3E
:104700000C00002080B588B000AF0346FB710B465B
:10471000BB7113467B71FB79042B00F2B88001A2B8
:1047200052F823F0814700006F4700004B4700001C
:10473000394700005D47000001237B6102233B6194
:104740000123FB610023BB6125E004237B61082377
:104750003B610323FB610223BB611CE010237B61EF
:1047600020233B610523FB610423BB6113E040234D
:104770007B6180233B610723FB610623BB610AE069
:104780004FF480737B614FF400733B610923FB613D
:104790000823BB6100BFBB79002B5BD00023FB73F8
:1047A000FB79022B11D1FFF745F80346002B0CD102
:1047B000394BDB6B0123FB73384B5B6A03F001035E
:1047C000012B02D10120FFF743F8344A7B691366BD
:1047D00000BFB9693248FEF77EFE0346002BF8D0D1
:1047E0007B79002B54D000BFF9692D48FEF773FE8A
:1047F0000346002BF8D0FB79022B49D1FB7B002B21
:1048000046D0264B5B6A03F00103012B05D1012240
:104810002021022000F04AF903E00021022000F0EC
:10482000FBF8022000F03EF8B860012200210220CF
:10483000FFF768FFB968022000F06EF8174A7B693D
:10484000136600BFF9691648FEF745FE0346002BC4
:10485000F8D01DE0114A3B69136600BF0F4BD3F837
:1048600090300121BA6901FA02F21340002BF5D110
:104870007B79002B0CD000BF084BD3F8903001217E
:10488000FA6901FA02F21340002BF5D100E000BFF3
:104890002037BD4680BD00BF00300E4000400E40B6
:1048A00090400E4080B485B000AF0346FB71FB79A9
:1048B000013B032B23D801A252F823F0CD4800007E
:1048C000F1480000D9480000E5480000114B1B6A80
:1048D000C3F30803FB6015E00E4B1B6903F07F0375
:1048E000FB600FE00B4B9B6903F07F03FB6009E06B
:1048F000084BD3F89C30C3F30A03FB6002E00023AB
:10490000FB6000BFFB6818461437BD465DF8047BAA
:10491000704700BF00400E4080B584B000AF034632
:104920003960FB71FB79013B032B6AD801A252F875
:1049300023F000BF45490000C7490000734900004B
:104940009D4900003B68C3F308033B6000BF1A2188
:104950002E48FEF7C0FD0346002BF8D12C4B1B6AF6
:1049600023F4FF7323F0010329493A6813430B62D0
:1049700048E03B6803F07F033B6000BF18212348F9
:10498000FEF7A9FD0346002BF8D1214B1B6923F04C
:104990007F021F493B6813430B6133E03B6803F020
:1049A0007F033B6000BF19211848FEF794FD0346C2
:1049B000002BF8D1164B9B6923F07F0214493B680A
:1049C00013438B611EE0124BD3F89030104B5B6A9F
:1049D00023F030030E4A43F0100353623B68DB09B7
:1049E00003F00F031846FEF709FFF860084B1A6B37
:1049F000084B13403A681A430549FB6813430B639D
:104A000000E000BF00BF1037BD4680BD40410E40F2
:104A100000400E4000F8FF0F80B584B000AF0346A1
:104A20000A46FB711346BB71FEF704FF0346002BD9
:104A300003D14FF44003FB6016E0BB79202B04D078
:104A4000302B0AD0002B04D00BE04FF40003FB60A6
:104A50000AE04FF44003FB6006E04FF44003FB60C4
:104A600002E0104BFB6000BF00BF0F4BD3F890205B
:104A7000FB681340FA689A42F7D1FB6803F480039D
:104A8000002B0AD0084BD3F8A03003F48063002B2E
:104A900014BF01230023DBB200E0012318461037C6
:104AA000BD4680BDFF33E10700400E4080B582B0B7
:104AB00000AF0346FB710B46BB7113467B71FB795C
:104AC000022B00D016E0BB79002B07D00C4B4FF423
:104AD0008062C3F8A8200A4ABB7953667B79002B11
:104AE00007D0BA79FB7911461846FFF795FF0346C0
:104AF00001E000BF012318460837BD4680BD00BF56
:104B000000400E4080B584B000AF78600B46FB706B
:104B10000023FB60FB78002B01D00123FB607B6846
:104B20005B000133FA6819460348FEF7BDFC00BF7D
:104B30001037BD4680BD00BF50410E4080B483B0E9
:104B400000AFEFF310833B603B687B6072B67B681D
:104B500018460C37BD465DF8047B704780B483B0BF
:104B600000AF78607B68002B00D162B600BF0C37C5
:104B7000BD465DF8047B704780B487B000AFF86035
:104B8000B9607A60FB6803F10473DA00BB68134410
:104B90009B007B617B697A681A6000BF1C37BD4649
:104BA0005DF8047B7047000080B582B000AF03461B
:104BB000FB71FB791A4600210348FFF7DDFF00BFB8
:104BC0000837BD4680BD00BF0CE0014080B582B013
:104BD00000AF78607B685B79124A03F03F03536053
:104BE0007B681B78002B01D0012200E000227B684B
:104BF0005B78002B01D0022300E000231A437B687E
:104C0000DB789B001A437B681B795B0105491343E2
:104C10000B607B689B781846FFF7C6FF00BF08371C
:104C2000BD4680BD00E0014080B500AFFBF7E0FA73
:104C300000BF80BD80B485B000AF786039607B680C
:104C400003F10473DA003B6813449B00FB60FB68CC
:104C50001B6818461437BD465DF8047B704700009A
:104C600080B500AF00BF12210348FFF7E3FF034602
:104C7000002BF8D100BF80BD04300E4080B500AFDE
:104C8000FFF7EEFF034B5B681B0C03F00303DBB283
:104C9000184680BD00300E4080B400AF044B0022A7
:104CA000C3F8802100BFBD465DF8047B704700BF9C
:104CB00000400E4080B400AF044B45F60E02C3F82E
:104CC000802100BFBD465DF8047B704700400E4068
:104CD00080B483B000AF0346FB71FB79C3F10203DC
:104CE000102202FA03F318460C37BD465DF8047B28
:104CF0007047000090B585B000AF0346FB71FB79AB
:104D0000002B1BD1484BD3F89030484A1360112038
:104D1000FFF794FA03461A46454B1A70FFF7A0FFB7
:104D2000444B5B681B0CDBB203F00303DAB2424B6B
:104D30001A703D4B1B69414A136070E03E4B1B7873
:104D40003C4C1846FFF7C4FF03462361364BD3F8AB
:104D5000803103F00103FB60FFF7ACFF0023BB6071
:104D6000324B1B6803F00103BA681343BB602F4B3F
:104D70001B6803F01003BA681343BB602B4B1B681E
:104D800003F04003BA681343BB60284B1B6803F071
:104D90000403BA681343BB60244B1B6803F480739D
:104DA000BA681343BB60204ABB681366FFF758FF1D
:104DB000204B1B6803F01003002B18D000BF1A4BC8
:104DC000D3F8403103F08073002BF8D1164A1B4B07
:104DD0001B681361164B1B78052B08D1184B1C68F8
:104DE000FFF74CFF034619462046FEF7E7FC104B41
:104DF0001B78052B05D00E4B1B7819461120FFF7A9
:104E0000FDFA0A4B1B6803F00103002B02D1064B8D
:104E100002221A66FB68002B01D0FFF73DFF00BF9E
:104E20001437BD4690BD00BF00400E40A0050020D5
:104E3000A405002000300E40A5050020A805002094
:104E40000C00002080B582B000AFFFF709FF104BC7
:104E50001B681B0A03F003037B600D4B5B681B0C94
:104E600003F003033B607A683B689A4206D9084B1B
:104E70001B68074A43F01003136005E0044B1B68EE
:104E8000034A23F01003136000BF0837BD4680BDFE
:104E900000300E4080B483B000AF0C4B1B6803F0B1
:104EA0001003002B0BD00A4B1B691B0C03F01F03D4
:104EB0007B607B68082B02D1064B074A1A6000BF53
:104EC0000C37BD465DF8047B704700BF00300E40D4
:104ED00000400E400C000020C0EA210180B582B0E5
:104EE00000AF0346FB71FB79002B02D00020FFF7D7
:104EF00001FFFFF7A7FF0B4B1B690A4A43F00403AE
:104F0000136130BFFB79002B03D00120FFF7F2FEC5
:104F100003E0FFF7BFFFFFF787FE00BF0837BD467E
:104F200080BD00BF00ED00E080B584B000AF7860C8
:104F30000B46FB70154BD3F800311B0A03F01F031F
:104F40000133BB607B68002B07D1FBF77BF902467E
:104F5000BB6802FB03F3FB6001E07B68FB600C4B6A
:104F60001B78002B09D0FB680A4A934205D8FB78CE
:104F70001946022000F010F804E0FB7819460020E2
:104F800000F00AF800BF1037BD4680BD00400E405B
:104F90009C050020FF2C310190B587B000AF03467F
:104FA0000A46FB711346BB711B4BD3F800311B0A39
:104FB00003F01F0301337B61FBF744F93861FFF70E
:104FC0005DFE0346FB73FA7BFB799A421FD03B6977
:104FD0007A6902FB03F3BB60FB79022B03D1022148
:104FE0003869FEF7EBFB0D4CFB791846FFF770FEB6
:104FF00003462361BB79002B01D0FFF731FEFB791B
:10500000002B05D100213869FEF7D8FB00E000BF76
:105010001C37BD4690BD00BF00400E4000300E4022
:1050200080B582B000AF78607B681A78044B1A7044
:1050300001210020FFF778FF00BF0837BD4680BD83
:105040009C05002080B483B000AF78600A4B1B68D9
:1050500023F440727B685B781B02074913430B60A3
:105060007B685B78022B01D1044B5B6A00BF0C3775
:10507000BD465DF8047B704700300E4000400E4096
:1050800080B487B000AFF860B9607A60FB6803F164
:105090000473DA00BB6813449B007B617B697A6808
:1050A0001A6000BF1C37BD465DF8047B704780B4B2
:1050B00085B000AF786039607B6803F1C063FB6046
:1050C000FB683A681A6000BF1437BD465DF8047B80
:1050D000704780B485B000AF786039607B6803F1B9
:1050E0008063FB60FB683A681A6000BF1437BD46F6
:1050F0005DF8047B704780B584B000AFF860B9609C
:105100007A60B968F868FFF7E4FF7968F868FFF734
:10511000CEFF00BF1037BD4680BD000080B483B015
:1051200000AF7860044A7B68C2F8243400BF0C37B3
:10513000BD465DF8047B704700A0004080B582B09A
:1051400000AF03463960FB71FB79002B1CD0FB7963
:10515000012B19D0FB79022B16D0FB79032B13D02E
:10516000FB79042B10D0FB79052B0DD0FB79062B96
:105170000AD0FB79072B07D0FB79082B04D0FB79E9
:10518000092B01D0FB790A2BFA7913465B001344F3
:105190001B010C3303F1804303F5204301213A68DE
:1051A00001FA02F211461846FFF793FF00BF0837D5
:1051B000BD4680BD80B582B000AF03463960FB714B
:1051C000FB79002B1CD0FB79012B19D0FB79022B2A
:1051D00016D0FB79032B13D0FB79042B10D0FB796D
:1051E000052B0DD0FB79062B0AD0FB79072B07D0B6
:1051F000FB79082B04D0FB79092B01D0FB790A2B12
:10520000FA7913465B0013441B010C3303F180430E
:1052100003F5204301213A6801FA02F211461846CB
:10522000FFF745FF00BF0837BD4680BD80B586B09B
:1052300000AFB9607A601A460346FB731346BB732E
:1052400000237B61FB7B002B1CD0FB7B012B19D047
:10525000FB7B022B16D0FB7B032B13D0FB7B042B99
:1052600010D0FB7B052B0DD0FB7B062B0AD0FB7BE4
:10527000072B07D0FB7B082B04D0FB7B092B01D02D
:10528000FB7B0A2B7B68072B0ED87B689B000F22C9
:1052900002FA03F1FA7B7B689B0002FA03F31A46D9
:1052A0002B48FFF728FF10E07B68083B7B617B6998
:1052B0009B000F2202FA03F1FA7B7B699B0002FA42
:1052C00003F31A462348FFF716FF7B68072B10D815
:1052D0007B689B00032202FA03F1BB6803F0030220
:1052E0007B689B0002FA03F31A461B48FFF703FF93
:1052F0000FE07B699B00032202FA03F1BB6803F015
:1053000003027B699B0002FA03F31A461348FFF776
:10531000F2FEBB7B1A4679681148FFF7B1FE97F899
:1053200020301A4679680F48FFF7AAFE01227B68F1
:1053300002FA03F31846FFF7F1FE97F824301A46F5
:1053400079680948FFF79CFE00BF1837BD4680BD4D
:1053500000A4004004A4004008A400400CA40040A5
:1053600010A4004014A4004028A4004080B584B0DC
:1053700000AFB9607B600346FB731346BB73FB7BD6
:10538000002B1CD0FB7B012B19D0FB7B022B16D0F2
:10539000FB7B032B13D0FB7B042B10D0FB7B052B5B
:1053A0000DD0FB7B062B0AD0FB7B072B07D0FB7BAA
:1053B000082B04D0FB7B092B01D0FB7B0A2BBB7B8A
:1053C000002B0DD07B68002B05D0FB7BB9681846FD
:1053D000FFF7F0FE04E0FB7BB9681846FFF7AEFE6E
:1053E000BB68072B20D82E49FA7B13465B00134479
:1053F0001B010B4404331A68BB689B000F2101FAA0
:1054000003F3DB431340B97BBA68920001FA02F25E
:1054100011462348FA7B194313465B0013441B01D2
:1054200003440433196025E01D49FA7B13465B00F1
:1054300013441B010B4408331A68BB6803F1804313
:10544000083B9B000F2101FA03F3DB4302EA03014F
:10545000BA7BBB6803F18043083B9B0002FA03F36D
:105460000F48FA7B194313465B0013441B010344A6
:1054700008331960BB7B002B0DD17B68002B05D056
:10548000FB7BB9681846FFF795FE04E0FB7BB96823
:105490001846FFF753FE00BF1037BD4680BD00BF62
:1054A00000A0004080B483B000AF786039607B68B2
:1054B0003A68DA6300BF0C37BD465DF8047B70477D
:1054C00080B487B000AFF860B9607A60FB6803F120
:1054D0000473DA00BB6813449B007B617B697A68C4
:1054E0001A6000BF1C37BD465DF8047B704780B46E
:1054F00085B000AF786039607B6803F1C063FB6002
:10550000FB683A681A6000BF1437BD465DF8047B3B
:10551000704780B485B000AF786039607B6803F174
:105520008063FB60FB683A681A6000BF1437BD46B1
:105530005DF8047B704780B584B000AFF860B96057
:105540007A60B968F868FFF7E4FF7968F868FFF7F0
:10555000CEFF00BF1037BD4680BD80B483B000AF22
:10556000786001E07B68DB697B68DB6803F480734B
:10557000002BF7D100BF0C37BD465DF8047B7047A8
:1055800080B588B000AFF860B9607A60FB707B6866
:10559000002B77D0FB7803F00303FB70FB681B68DC
:1055A00023F44072FB681A60F868FB781B021A4605
:1055B0004FF44071FFF7BFFFBB68002B10D1FB68B1
:1055C000334A934204D13348FEF744FBB86007E006
:1055D000FB68314A934203D13048FEF73BFBB86089
:1055E0004FF0FF33BB61FB681B6803F00203002B25
:1055F00010D0FB78012B07D0022B08D0002B00D055
:1056000019E0274BBB6116E0264BBB6113E0264B2C
:10561000BB6110E0FB78012B07D0022B08D0002BD8
:1056200000D008E01E4BBB6105E0204BBB6102E0EF
:105630001F4BBB6100BFFB781E4AD35C7B617B695B
:105640007A6802FB03F33B613B69002B1CD07B684B
:10565000DB00BA68D21A3B6913445A1E3B69B2FB9D
:10566000F3F3013BFB61FB681B6803F00203002BB3
:1056700004D0FB69002B01D10123FB61FA69FB68AF
:105680001A6102E000BF00E000BF2037BD4680BDC8
:1056900000C000400082040000C4004000920400EA
:1056A00080841E00404B4C00809FD50040548900F0
:1056B000002D310134C9000080B582B000AF7860A0
:1056C0000B46FB707B68084A934202D07B68074A0E
:1056D000934200BF7B68FA7800211846FFF7F0FE7E
:1056E00000BF0837BD4680BD00C0004000C4004078
:1056F00080B582B000AF786039607B68154A93420C
:1057000002D07B68144A934200BF7B6800221A646F
:1057100012497868FFF7C6FE78683B685B7883F0CB
:105720000103DBB21A460121FFF7CAFE3B68596844
:105730003B689A683B681B7B7868FFF721FF3B68F2
:105740001B7819467868FFF7B7FF00BF0837BD46DA
:1057500080BD00BF00C0004000C40040FFFF070044
:1057600080B588B000AF78607B68A04A934202D0D1
:105770007B689F4A934200BF7B689C4A934202D158
:105780009C4BBB6109E07B68994A934202D19A4BDA
:10579000BB6102E06FF0030313E2BB699B687B61AE
:1057A0007B685B6B3B613B6903F4C063002B14D0E7
:1057B0003B6903F40073002B03D0BB69FD225A70D0
:1057C00007E03B6903F48063002B02D0BB69FE2233
:1057D0005A70BB6909221A70DEE1BB691B78082B7D
:1057E00000F2C68101A252F823F000BF1158000058
:1057F00063580000EF580000455900009759000019
:10580000FD590000855A0000C55A0000555B000094
:105810007B695B8803F01003002B09D07B691B8830
:105820001B0A9BB203F0060343F0F003FB610EE09A
:105830007B691B8803F0FE03FB617B695B8803F0D7
:105840000203002B03D0FB6943F00103FB61BB693A
:1058500001221A707B68FA69DA627B6801225A6059
:105860009AE13B6903F08003002B0DD0802178681A
:10587000FFF718FEBB69FF225A70BB6908221A7035
:105880007B6802225A607CE13B6903F04003002BF5
:1058900000F0778140217868FFF704FE7B695B8820
:1058A00003F01003002B08D0BB6902221A707B6939
:1058B0001B88DAB27B68DA6263E17B695B8803F09C
:1058C0000203002B0FD0BB6907221A70BB691B793A
:1058D0007A69DB0013441B89012B40F052817B68FD
:1058E00008225A604DE1BB6905221A7048E13B6904
:1058F00003F08003002B0DD080217868FFF7D2FDE4
:10590000BB69FF225A70BB6908221A707B680222A9
:105910005A6038E13B6903F04003002B00F033810B
:1059200040217868FFF7BEFD7B695B8803F00203C6
:10593000002B03D0BB6903221A7021E1BB69052249
:105940001A701DE17B695B8803F01003002B09D0FE
:105950007B691B881B0A9BB203F0060343F0F0032C
:10596000FB6104E07B691B8803F0FE03FB617B693C
:105970005B8803F00403002B03D0FB6943F00103B1
:10598000FB61BB6904221A707B6801225A607B6844
:10599000FA69DA6200E13B6903F08003002B0DD065
:1059A00080217868FFF77EFDBB69FF225A70BB69D2
:1059B00008221A707B6802225A60E6E03B6903F015
:1059C0004003002B00F0E18040217868FFF76AFD7A
:1059D0007B695B8803F00403002B03D0BB690722BB
:1059E0001A70D2E0BB6905221A70C9E000C00040FD
:1059F00000C40040AC050020B8050020BB695A88EF
:105A0000BB691B797969DB000B441B899A4224D35B
:105A1000BB6900225A80BB691B790133DAB2BB69CA
:105A20001A717B695B8803F00403002B03D0BB6908
:105A300003221A70A4E07B695B8803F00103002B4A
:105A400004D1BB691B79012B40F29980BB69082204
:105A50001A707B6802225A609EE0BB691B797A69E2
:105A6000DB0013445A68BB695B88591C88B2B9696A
:105A7000488013441B781A467B68DA62BB690622A9
:105A80001A7089E03B6903F08003002B0DD0802160
:105A90007868FFF707FDBB69FF225A70BB690822CF
:105AA0001A707B6802225A6071E03B6903F0400380
:105AB000002B6CD040217868FFF7F4FCBB6905220D
:105AC0001A705DE03B6903F02003002B61D0BB69D5
:105AD0001B797A69DB0013441B89FB607B68DB69F7
